{
  "address": "0x4899e09444f18B04207b8f61beC101f1658D4e76",
  "abi": [
    {
      "inputs": [],
      "stateMutability": "nonpayable",
      "type": "constructor"
    },
    {
      "anonymous": false,
      "inputs": [
        {
          "indexed": false,
          "internalType": "address",
          "name": "tokenRecovered",
          "type": "address"
        },
        {
          "indexed": false,
          "internalType": "uint256",
          "name": "amount",
          "type": "uint256"
        }
      ],
      "name": "AdminTokenRecovered",
      "type": "event"
    },
    {
      "anonymous": false,
      "inputs": [
        {
          "indexed": true,
          "internalType": "address",
          "name": "user",
          "type": "address"
        },
        {
          "indexed": false,
          "internalType": "uint256",
          "name": "amount",
          "type": "uint256"
        }
      ],
      "name": "Claim",
      "type": "event"
    },
    {
      "anonymous": false,
      "inputs": [
        {
          "indexed": true,
          "internalType": "address",
          "name": "user",
          "type": "address"
        },
        {
          "indexed": false,
          "internalType": "uint256",
          "name": "amount",
          "type": "uint256"
        }
      ],
      "name": "ClaimDividend",
      "type": "event"
    },
    {
      "anonymous": false,
      "inputs": [
        {
          "indexed": true,
          "internalType": "address",
          "name": "user",
          "type": "address"
        },
        {
          "indexed": false,
          "internalType": "uint256",
          "name": "amount",
          "type": "uint256"
        }
      ],
      "name": "Compound",
      "type": "event"
    },
    {
      "anonymous": false,
      "inputs": [
        {
          "indexed": true,
          "internalType": "address",
          "name": "user",
          "type": "address"
        },
        {
          "indexed": false,
          "internalType": "uint256",
          "name": "amount",
          "type": "uint256"
        }
      ],
      "name": "CompoundDividend",
      "type": "event"
    },
    {
      "anonymous": false,
      "inputs": [
        {
          "indexed": true,
          "internalType": "address",
          "name": "user",
          "type": "address"
        },
        {
          "indexed": false,
          "internalType": "uint256",
          "name": "amount",
          "type": "uint256"
        }
      ],
      "name": "Deposit",
      "type": "event"
    },
    {
      "anonymous": false,
      "inputs": [
        {
          "indexed": false,
          "internalType": "uint256",
          "name": "duration",
          "type": "uint256"
        }
      ],
      "name": "DurationChanged",
      "type": "event"
    },
    {
      "anonymous": false,
      "inputs": [
        {
          "indexed": true,
          "internalType": "address",
          "name": "user",
          "type": "address"
        },
        {
          "indexed": false,
          "internalType": "uint256",
          "name": "amount",
          "type": "uint256"
        }
      ],
      "name": "EmergencyWithdraw",
      "type": "event"
    },
    {
      "anonymous": false,
      "inputs": [
        {
          "indexed": false,
          "internalType": "uint256",
          "name": "blockNumber",
          "type": "uint256"
        }
      ],
      "name": "EndBlockChanged",
      "type": "event"
    },
    {
      "anonymous": false,
      "inputs": [
        {
          "indexed": false,
          "internalType": "uint256",
          "name": "rewardPerBlock",
          "type": "uint256"
        }
      ],
      "name": "NewRewardPerBlock",
      "type": "event"
    },
    {
      "anonymous": false,
      "inputs": [
        {
          "indexed": false,
          "internalType": "address",
          "name": "oldOperator",
          "type": "address"
        },
        {
          "indexed": false,
          "internalType": "address",
          "name": "newOperator",
          "type": "address"
        }
      ],
      "name": "OperatorTransferred",
      "type": "event"
    },
    {
      "anonymous": false,
      "inputs": [
        {
          "indexed": true,
          "internalType": "address",
          "name": "previousOwner",
          "type": "address"
        },
        {
          "indexed": true,
          "internalType": "address",
          "name": "newOwner",
          "type": "address"
        }
      ],
      "name": "OwnershipTransferred",
      "type": "event"
    },
    {
      "anonymous": false,
      "inputs": [
        {
          "indexed": false,
          "internalType": "uint256",
          "name": "startBlock",
          "type": "uint256"
        },
        {
          "indexed": false,
          "internalType": "uint256",
          "name": "endBlock",
          "type": "uint256"
        }
      ],
      "name": "RewardsStart",
      "type": "event"
    },
    {
      "anonymous": false,
      "inputs": [
        {
          "indexed": false,
          "internalType": "uint256",
          "name": "blockNumber",
          "type": "uint256"
        }
      ],
      "name": "RewardsStop",
      "type": "event"
    },
    {
      "anonymous": false,
      "inputs": [
        {
          "indexed": false,
          "internalType": "address",
          "name": "addr",
          "type": "address"
        },
        {
          "indexed": false,
          "internalType": "uint256",
          "name": "fee",
          "type": "uint256"
        }
      ],
      "name": "ServiceInfoChanged",
      "type": "event"
    },
    {
      "anonymous": false,
      "inputs": [
        {
          "indexed": false,
          "internalType": "bool",
          "name": "status",
          "type": "bool"
        }
      ],
      "name": "SetAutoAdjustableForRewardRate",
      "type": "event"
    },
    {
      "anonymous": false,
      "inputs": [
        {
          "indexed": false,
          "internalType": "uint256",
          "name": "fee",
          "type": "uint256"
        }
      ],
      "name": "SetRewardFee",
      "type": "event"
    },
    {
      "anonymous": false,
      "inputs": [
        {
          "indexed": false,
          "internalType": "uint256",
          "name": "depositFee",
          "type": "uint256"
        },
        {
          "indexed": false,
          "internalType": "uint256",
          "name": "withdrawFee",
          "type": "uint256"
        },
        {
          "indexed": false,
          "internalType": "address",
          "name": "feeAddr",
          "type": "address"
        }
      ],
      "name": "SetSettings",
      "type": "event"
    },
    {
      "anonymous": false,
      "inputs": [
        {
          "indexed": true,
          "internalType": "address",
          "name": "user",
          "type": "address"
        },
        {
          "indexed": false,
          "internalType": "uint256",
          "name": "amount",
          "type": "uint256"
        }
      ],
      "name": "Withdraw",
      "type": "event"
    },
    {
      "inputs": [],
      "name": "MAX_FEE",
      "outputs": [
        {
          "internalType": "uint256",
          "name": "",
          "type": "uint256"
        }
      ],
      "stateMutability": "view",
      "type": "function"
    },
    {
      "inputs": [],
      "name": "PRECISION_FACTOR",
      "outputs": [
        {
          "internalType": "uint256",
          "name": "",
          "type": "uint256"
        }
      ],
      "stateMutability": "view",
      "type": "function"
    },
    {
      "inputs": [],
      "name": "accDividendPerShare",
      "outputs": [
        {
          "internalType": "uint256",
          "name": "",
          "type": "uint256"
        }
      ],
      "stateMutability": "view",
      "type": "function"
    },
    {
      "inputs": [],
      "name": "accTokenPerShare",
      "outputs": [
        {
          "internalType": "uint256",
          "name": "",
          "type": "uint256"
        }
      ],
      "stateMutability": "view",
      "type": "function"
    },
    {
      "inputs": [],
      "name": "autoAdjustableForRewardRate",
      "outputs": [
        {
          "internalType": "bool",
          "name": "",
          "type": "bool"
        }
      ],
      "stateMutability": "view",
      "type": "function"
    },
    {
      "inputs": [],
      "name": "availableDividendTokens",
      "outputs": [
        {
          "internalType": "uint256",
          "name": "",
          "type": "uint256"
        }
      ],
      "stateMutability": "view",
      "type": "function"
    },
    {
      "inputs": [],
      "name": "availableRewardTokens",
      "outputs": [
        {
          "internalType": "uint256",
          "name": "",
          "type": "uint256"
        }
      ],
      "stateMutability": "view",
      "type": "function"
    },
    {
      "inputs": [],
      "name": "bonusEndBlock",
      "outputs": [
        {
          "internalType": "uint256",
          "name": "",
          "type": "uint256"
        }
      ],
      "stateMutability": "view",
      "type": "function"
    },
    {
      "inputs": [],
      "name": "claimDividend",
      "outputs": [],
      "stateMutability": "payable",
      "type": "function"
    },
    {
      "inputs": [],
      "name": "claimReward",
      "outputs": [],
      "stateMutability": "payable",
      "type": "function"
    },
    {
      "inputs": [],
      "name": "compoundDividend",
      "outputs": [],
      "stateMutability": "payable",
      "type": "function"
    },
    {
      "inputs": [],
      "name": "compoundReward",
      "outputs": [],
      "stateMutability": "payable",
      "type": "function"
    },
    {
      "inputs": [],
      "name": "deployer",
      "outputs": [
        {
          "internalType": "address",
          "name": "",
          "type": "address"
        }
      ],
      "stateMutability": "view",
      "type": "function"
    },
    {
      "inputs": [
        {
          "internalType": "uint256",
          "name": "_amount",
          "type": "uint256"
        }
      ],
      "name": "deposit",
      "outputs": [],
      "stateMutability": "payable",
      "type": "function"
    },
    {
      "inputs": [],
      "name": "depositFee",
      "outputs": [
        {
          "internalType": "uint256",
          "name": "",
          "type": "uint256"
        }
      ],
      "stateMutability": "view",
      "type": "function"
    },
    {
      "inputs": [
        {
          "internalType": "uint256",
          "name": "_amount",
          "type": "uint256"
        }
      ],
      "name": "depositRewards",
      "outputs": [],
      "stateMutability": "nonpayable",
      "type": "function"
    },
    {
      "inputs": [],
      "name": "dividendToken",
      "outputs": [
        {
          "internalType": "address",
          "name": "",
          "type": "address"
        }
      ],
      "stateMutability": "view",
      "type": "function"
    },
    {
      "inputs": [],
      "name": "duration",
      "outputs": [
        {
          "internalType": "uint256",
          "name": "",
          "type": "uint256"
        }
      ],
      "stateMutability": "view",
      "type": "function"
    },
    {
      "inputs": [
        {
          "internalType": "uint256",
          "name": "_amount",
          "type": "uint256"
        }
      ],
      "name": "emergencyRewardWithdraw",
      "outputs": [],
      "stateMutability": "nonpayable",
      "type": "function"
    },
    {
      "inputs": [],
      "name": "emergencyWithdraw",
      "outputs": [],
      "stateMutability": "nonpayable",
      "type": "function"
    },
    {
      "inputs": [],
      "name": "emergencyWithdrawReflections",
      "outputs": [],
      "stateMutability": "nonpayable",
      "type": "function"
    },
    {
      "inputs": [],
      "name": "factory",
      "outputs": [
        {
          "internalType": "address",
          "name": "",
          "type": "address"
        }
      ],
      "stateMutability": "view",
      "type": "function"
    },
    {
      "inputs": [],
      "name": "feeAddress",
      "outputs": [
        {
          "internalType": "address",
          "name": "",
          "type": "address"
        }
      ],
      "stateMutability": "view",
      "type": "function"
    },
    {
      "inputs": [],
      "name": "hasDividend",
      "outputs": [
        {
          "internalType": "bool",
          "name": "",
          "type": "bool"
        }
      ],
      "stateMutability": "view",
      "type": "function"
    },
    {
      "inputs": [
        {
          "internalType": "uint256",
          "name": "_amount",
          "type": "uint256"
        }
      ],
      "name": "increaseEmissionRate",
      "outputs": [],
      "stateMutability": "nonpayable",
      "type": "function"
    },
    {
      "inputs": [
        {
          "internalType": "contract IERC20",
          "name": "_lpToken",
          "type": "address"
        },
        {
          "internalType": "contract IERC20",
          "name": "_rewardToken",
          "type": "address"
        },
        {
          "internalType": "address",
          "name": "_dividendToken",
          "type": "address"
        },
        {
          "internalType": "uint256",
          "name": "_rewardPerBlock",
          "type": "uint256"
        },
        {
          "internalType": "uint256",
          "name": "_depositFee",
          "type": "uint256"
        },
        {
          "internalType": "uint256",
          "name": "_withdrawFee",
          "type": "uint256"
        },
        {
          "internalType": "uint256",
          "name": "_duration",
          "type": "uint256"
        },
        {
          "internalType": "bool",
          "name": "_hasDividend",
          "type": "bool"
        },
        {
          "internalType": "address",
          "name": "_owner",
          "type": "address"
        },
        {
          "internalType": "address",
          "name": "_deployer",
          "type": "address"
        }
      ],
      "name": "initialize",
      "outputs": [],
      "stateMutability": "nonpayable",
      "type": "function"
    },
    {
      "inputs": [],
      "name": "insufficientRewards",
      "outputs": [
        {
          "internalType": "uint256",
          "name": "",
          "type": "uint256"
        }
      ],
      "stateMutability": "view",
      "type": "function"
    },
    {
      "inputs": [],
      "name": "lastRewardBlock",
      "outputs": [
        {
          "internalType": "uint256",
          "name": "",
          "type": "uint256"
        }
      ],
      "stateMutability": "view",
      "type": "function"
    },
    {
      "inputs": [],
      "name": "lpToken",
      "outputs": [
        {
          "internalType": "contract IERC20",
          "name": "",
          "type": "address"
        }
      ],
      "stateMutability": "view",
      "type": "function"
    },
    {
      "inputs": [],
      "name": "operator",
      "outputs": [
        {
          "internalType": "address",
          "name": "",
          "type": "address"
        }
      ],
      "stateMutability": "view",
      "type": "function"
    },
    {
      "inputs": [],
      "name": "owner",
      "outputs": [
        {
          "internalType": "address",
          "name": "",
          "type": "address"
        }
      ],
      "stateMutability": "view",
      "type": "function"
    },
    {
      "inputs": [],
      "name": "paidRewards",
      "outputs": [
        {
          "internalType": "uint256",
          "name": "",
          "type": "uint256"
        }
      ],
      "stateMutability": "view",
      "type": "function"
    },
    {
      "inputs": [
        {
          "internalType": "address",
          "name": "_user",
          "type": "address"
        }
      ],
      "name": "pendingReflections",
      "outputs": [
        {
          "internalType": "uint256",
          "name": "",
          "type": "uint256"
        }
      ],
      "stateMutability": "view",
      "type": "function"
    },
    {
      "inputs": [
        {
          "internalType": "address",
          "name": "_user",
          "type": "address"
        }
      ],
      "name": "pendingRewards",
      "outputs": [
        {
          "internalType": "uint256",
          "name": "",
          "type": "uint256"
        }
      ],
      "stateMutability": "view",
      "type": "function"
    },
    {
      "inputs": [],
      "name": "performanceFee",
      "outputs": [
        {
          "internalType": "uint256",
          "name": "",
          "type": "uint256"
        }
      ],
      "stateMutability": "view",
      "type": "function"
    },
    {
      "inputs": [],
      "name": "renounceOwnership",
      "outputs": [],
      "stateMutability": "nonpayable",
      "type": "function"
    },
    {
      "inputs": [
        {
          "internalType": "address",
          "name": "_token",
          "type": "address"
        }
      ],
      "name": "rescueTokens",
      "outputs": [],
      "stateMutability": "nonpayable",
      "type": "function"
    },
    {
      "inputs": [],
      "name": "rewardFee",
      "outputs": [
        {
          "internalType": "uint256",
          "name": "",
          "type": "uint256"
        }
      ],
      "stateMutability": "view",
      "type": "function"
    },
    {
      "inputs": [],
      "name": "rewardPerBlock",
      "outputs": [
        {
          "internalType": "uint256",
          "name": "",
          "type": "uint256"
        }
      ],
      "stateMutability": "view",
      "type": "function"
    },
    {
      "inputs": [],
      "name": "rewardToken",
      "outputs": [
        {
          "internalType": "contract IERC20",
          "name": "",
          "type": "address"
        }
      ],
      "stateMutability": "view",
      "type": "function"
    },
    {
      "inputs": [
        {
          "internalType": "bool",
          "name": "_status",
          "type": "bool"
        }
      ],
      "name": "setAutoAdjustableForRewardRate",
      "outputs": [],
      "stateMutability": "nonpayable",
      "type": "function"
    },
    {
      "inputs": [
        {
          "internalType": "uint256",
          "name": "_duration",
          "type": "uint256"
        }
      ],
      "name": "setDuration",
      "outputs": [],
      "stateMutability": "nonpayable",
      "type": "function"
    },
    {
      "inputs": [
        {
          "internalType": "uint256",
          "name": "_fee",
          "type": "uint256"
        }
      ],
      "name": "setRewardFee",
      "outputs": [],
      "stateMutability": "nonpayable",
      "type": "function"
    },
    {
      "inputs": [
        {
          "internalType": "address",
          "name": "_treasury",
          "type": "address"
        },
        {
          "internalType": "uint256",
          "name": "_fee",
          "type": "uint256"
        }
      ],
      "name": "setServiceInfo",
      "outputs": [],
      "stateMutability": "nonpayable",
      "type": "function"
    },
    {
      "inputs": [
        {
          "internalType": "uint256",
          "name": "_depositFee",
          "type": "uint256"
        },
        {
          "internalType": "uint256",
          "name": "_withdrawFee",
          "type": "uint256"
        },
        {
          "internalType": "address",
          "name": "_feeAddr",
          "type": "address"
        }
      ],
      "name": "setSettings",
      "outputs": [],
      "stateMutability": "nonpayable",
      "type": "function"
    },
    {
      "inputs": [
        {
          "internalType": "address",
          "name": "_uniRouter",
          "type": "address"
        },
        {
          "internalType": "address[]",
          "name": "_earnedToToken0",
          "type": "address[]"
        },
        {
          "internalType": "address[]",
          "name": "_earnedToToken1",
          "type": "address[]"
        },
        {
          "internalType": "address[]",
          "name": "_reflectionToToken0",
          "type": "address[]"
        },
        {
          "internalType": "address[]",
          "name": "_reflectionToToken1",
          "type": "address[]"
        },
        {
          "internalType": "bool",
          "name": "_enabled",
          "type": "bool"
        }
      ],
      "name": "setSwapSetting",
      "outputs": [],
      "stateMutability": "nonpayable",
      "type": "function"
    },
    {
      "inputs": [],
      "name": "startBlock",
      "outputs": [
        {
          "internalType": "uint256",
          "name": "",
          "type": "uint256"
        }
      ],
      "stateMutability": "view",
      "type": "function"
    },
    {
      "inputs": [],
      "name": "startReward",
      "outputs": [],
      "stateMutability": "nonpayable",
      "type": "function"
    },
    {
      "inputs": [],
      "name": "stopReward",
      "outputs": [],
      "stateMutability": "nonpayable",
      "type": "function"
    },
    {
      "inputs": [],
      "name": "swapSettings",
      "outputs": [
        {
          "internalType": "address",
          "name": "swapRouter",
          "type": "address"
        },
        {
          "internalType": "bool",
          "name": "enabled",
          "type": "bool"
        }
      ],
      "stateMutability": "view",
      "type": "function"
    },
    {
      "inputs": [],
      "name": "totalStaked",
      "outputs": [
        {
          "internalType": "uint256",
          "name": "",
          "type": "uint256"
        }
      ],
      "stateMutability": "view",
      "type": "function"
    },
    {
      "inputs": [
        {
          "internalType": "address",
          "name": "_operator",
          "type": "address"
        }
      ],
      "name": "transferOperator",
      "outputs": [],
      "stateMutability": "nonpayable",
      "type": "function"
    },
    {
      "inputs": [
        {
          "internalType": "address",
          "name": "newOwner",
          "type": "address"
        }
      ],
      "name": "transferOwnership",
      "outputs": [],
      "stateMutability": "nonpayable",
      "type": "function"
    },
    {
      "inputs": [],
      "name": "transferToHarvest",
      "outputs": [],
      "stateMutability": "nonpayable",
      "type": "function"
    },
    {
      "inputs": [],
      "name": "treasury",
      "outputs": [
        {
          "internalType": "address",
          "name": "",
          "type": "address"
        }
      ],
      "stateMutability": "view",
      "type": "function"
    },
    {
      "inputs": [
        {
          "internalType": "uint256",
          "name": "_rewardPerBlock",
          "type": "uint256"
        }
      ],
      "name": "updateEmissionRate",
      "outputs": [],
      "stateMutability": "nonpayable",
      "type": "function"
    },
    {
      "inputs": [
        {
          "internalType": "uint256",
          "name": "_endBlock",
          "type": "uint256"
        }
      ],
      "name": "updateEndBlock",
      "outputs": [],
      "stateMutability": "nonpayable",
      "type": "function"
    },
    {
      "inputs": [
        {
          "internalType": "address",
          "name": "",
          "type": "address"
        }
      ],
      "name": "userInfo",
      "outputs": [
        {
          "internalType": "uint256",
          "name": "amount",
          "type": "uint256"
        },
        {
          "internalType": "uint256",
          "name": "rewardDebt",
          "type": "uint256"
        },
        {
          "internalType": "uint256",
          "name": "reflectionDebt",
          "type": "uint256"
        }
      ],
      "stateMutability": "view",
      "type": "function"
    },
    {
      "inputs": [
        {
          "internalType": "uint256",
          "name": "_amount",
          "type": "uint256"
        }
      ],
      "name": "withdraw",
      "outputs": [],
      "stateMutability": "payable",
      "type": "function"
    },
    {
      "inputs": [],
      "name": "withdrawFee",
      "outputs": [
        {
          "internalType": "uint256",
          "name": "",
          "type": "uint256"
        }
      ],
      "stateMutability": "view",
      "type": "function"
    },
    {
      "stateMutability": "payable",
      "type": "receive"
    }
  ],
  "transactionHash": "0x8d779b3ce06cf4e309e6d43a1501ea56b2671fedcd1a63cad6c8d4faf2e1e92a",
  "args": [],
  "numDeployments": 1,
  "solcInputHash": "bd10ea9c6c34aedc02a9aa53ef42df38",
  "bytecode": "0x60806040526009805460ff60a81b191690553480156200001e57600080fd5b506200002a3362000034565b6001805562000084565b600080546001600160a01b038381166001600160a01b0319831681178455604051919092169283917f8be0079c531659141344cd1fd0a4f28419497f9722a3daafe3b4186f6b6457e09190a35050565b614c7580620000946000396000f3fe6080604052600436106103195760003560e01c8063817b1cd21161019c578063b8768b4c116100e2578063db2e21bc11610090578063db2e21bc146108f0578063e941fa7814610905578063f0fc6bca1461091b578063f2fde38b14610923578063f3aeb31d14610943578063f4ef5ed514610958578063f6be71d114610978578063f7c618c11461099857600080fd5b8063b8768b4c1461083c578063b88a802f1461085c578063bc063e1a14610864578063c45a01551461087a578063ccd34cd51461089a578063cd635cce146108b0578063d5f39488146108d057600080fd5b80638da5cb5b1161014a5780638da5cb5b1461077c5780638f6629151461079157806392b46e5b146107a75780639e4bf910146107bd5780639f94e272146107dd578063a5bfd0f2146107f2578063a9f8d18114610813578063b6b55f251461082957600080fd5b8063817b1cd2146106ce57806381b61948146106e457806383f07ea814610704578063877887821461071a5780638ae39cac146107305780638b424267146107465780638bdf67f21461075c57600080fd5b806348cd4cb11161026157806367a527931161020f57806367a527931461061c578063695d69b3146106325780636d971a1014610652578063715018a61461065a578063746c8ae11461066f578063766e8098146106845780637f416bbe1461069957806380dc0672146106b957600080fd5b806348cd4cb1146105435780634de8ff2114610559578063570ca735146105615780635dde4a91146105815780635e8b5ae3146105965780635fcbd285146105dc57806361d027b3146105fc57600080fd5b80631aed6553116102c95780631aed655314610449578063249375671461045f57806329605e77146104905780632e1a7d4d146104b057806331d7a262146104c35780633279beab146104e3578063412753581461050357806341a2ac701461052357600080fd5b80626f023114610325578062ae3bf814610347578063015d5238146103675780630ba84cd21461037c5780630fb5a6b41461039c5780631582358e146103c55780631959a002146103f257600080fd5b3661032057005b600080fd5b34801561033157600080fd5b5061034561034036600461451b565b6109b8565b005b34801561035357600080fd5b50610345610362366004614559565b610b2f565b34801561037357600080fd5b50610345610d89565b34801561038857600080fd5b5061034561039736600461451b565b610ebe565b3480156103a857600080fd5b506103b2600a5481565b6040519081526020015b60405180910390f35b3480156103d157600080fd5b506009546103e5906001600160a01b031681565b6040516103bc919061457d565b3480156103fe57600080fd5b5061042e61040d366004614559565b601a6020526000908152604090208054600182015460029092015490919083565b604080519384526020840192909252908201526060016103bc565b34801561045557600080fd5b506103b2600c5481565b34801561046b57600080fd5b5060095461048090600160a81b900460ff1681565b60405190151581526020016103bc565b34801561049c57600080fd5b506103456104ab366004614559565b610f03565b6103456104be36600461451b565b611001565b3480156104cf57600080fd5b506103b26104de366004614559565b6113ca565b3480156104ef57600080fd5b506103456104fe36600461451b565b6114ad565b34801561050f57600080fd5b506013546103e5906001600160a01b031681565b34801561052f57600080fd5b5061034561053e36600461451b565b61156d565b34801561054f57600080fd5b506103b2600b5481565b6103456115fb565b34801561056d57600080fd5b506019546103e5906001600160a01b031681565b34801561058d57600080fd5b506103b2611b03565b3480156105a257600080fd5b506023546028546105bd916001600160a01b03169060ff1682565b604080516001600160a01b0390931683529015156020830152016103bc565b3480156105e857600080fd5b506007546103e5906001600160a01b031681565b34801561060857600080fd5b506014546103e5906001600160a01b031681565b34801561062857600080fd5b506103b260115481565b34801561063e57600080fd5b506103b261064d366004614559565b611bf8565b610345611cd5565b34801561066657600080fd5b5061034561214f565b34801561067b57600080fd5b50610345612161565b34801561069057600080fd5b506103456122d8565b3480156106a557600080fd5b506103456106b4366004614591565b6123e7565b3480156106c557600080fd5b506103456124e3565b3480156106da57600080fd5b506103b2601b5481565b3480156106f057600080fd5b506103456106ff3660046145ca565b612637565b34801561071057600080fd5b506103b260215481565b34801561072657600080fd5b506103b260155481565b34801561073c57600080fd5b506103b2600d5481565b34801561075257600080fd5b506103b260165481565b34801561076857600080fd5b5061034561077736600461451b565b612705565b34801561078857600080fd5b506103e56128a0565b34801561079d57600080fd5b506103b2600f5481565b3480156107b357600080fd5b506103b260105481565b3480156107c957600080fd5b506103456107d83660046146bc565b6128af565b3480156107e957600080fd5b506103b2612938565b3480156107fe57600080fd5b5060095461048090600160a01b900460ff1681565b34801561081f57600080fd5b506103b2600e5481565b61034561083736600461451b565b6129f2565b34801561084857600080fd5b50610345610857366004614789565b612e9f565b610345613096565b34801561087057600080fd5b506103b260065481565b34801561088657600080fd5b506017546103e5906001600160a01b031681565b3480156108a657600080fd5b506103b260055481565b3480156108bc57600080fd5b506103456108cb366004614835565b6131e6565b3480156108dc57600080fd5b506018546103e5906001600160a01b031681565b3480156108fc57600080fd5b5061034561323b565b34801561091157600080fd5b506103b260125481565b6103456132ca565b34801561092f57600080fd5b5061034561093e366004614559565b61341b565b34801561094f57600080fd5b506103b2613491565b34801561096457600080fd5b5061034561097336600461451b565b613539565b34801561098457600080fd5b5061034561099336600461451b565b613728565b3480156109a457600080fd5b506008546103e5906001600160a01b031681565b6109c06128a0565b6001600160a01b0316336001600160a01b031614806109e957506019546001600160a01b031633145b610a0e5760405162461bcd60e51b8152600401610a0590614852565b60405180910390fd5b6000600b5411610a565760405162461bcd60e51b8152602060048201526013602482015272141bdbdb081a5cc81b9bdd081cdd185c9d1959606a1b6044820152606401610a05565b43600c5411610aa35760405162461bcd60e51b8152602060048201526019602482015278141bdbdb081dd85cc8185b1c9958591e48199a5b9a5cda1959603a1b6044820152606401610a05565b4381118015610ab35750600b5481115b610af35760405162461bcd60e51b8152602060048201526011602482015270496e76616c696420656e6420626c6f636b60781b6044820152606401610a05565b600c8190556040518181527fbefee04945bd96d1a11e3459d8981d8eaaeb1c5d866352d4412247a8d1e370a1906020015b60405180910390a150565b610b3761384d565b6008546001600160a01b03828116911614801590610b6357506009546001600160a01b03828116911614155b610bc75760405162461bcd60e51b815260206004820152602f60248201527f63616e6e6f74207265636f7665722072657761726420746f6b656e206f72207260448201526e32b33632b1ba34b7b7103a37b5b2b760891b6064820152608401610a05565b6007546001600160a01b0390811690821603610c1e5760405162461bcd60e51b81526020600482015260166024820152751d1bdad95b881a5cc81d5cda5b99c81bdb881c1bdbdb60521b6044820152606401610a05565b60006001600160a01b038216610c6457506040514790339082156108fc029083906000818181858888f19350505050158015610c5e573d6000803e3d6000fd5b50610d4c565b6040516370a0823160e01b81526001600160a01b038316906370a0823190610c9090309060040161457d565b602060405180830381865afa158015610cad573d6000803e3d6000fd5b505050506040513d601f19601f82011682018060405250810190610cd19190614889565b90508015610d4c5760405163a9059cbb60e01b81526001600160a01b0383169063a9059cbb90610d0790339085906004016148a2565b6020604051808303816000875af1158015610d26573d6000803e3d6000fd5b505050506040513d601f19601f82011682018060405250810190610d4a91906148bb565b505b7f74f5dcd55c394cb1c6d3b9da22c2464bcc46c38cc3865bd629ed75823249b40b8282604051610d7d9291906148a2565b60405180910390a15050565b610d9161384d565b6009546001600160a01b0316610dd4576040514790339082156108fc029083906000818181858888f19350505050158015610dd0573d6000803e3d6000fd5b5050565b6009546040516370a0823160e01b81526000916001600160a01b0316906370a0823190610e0590309060040161457d565b602060405180830381865afa158015610e22573d6000803e3d6000fd5b505050506040513d601f19601f82011682018060405250810190610e469190614889565b60095460405163a9059cbb60e01b81529192506001600160a01b03169063a9059cbb90610e7990339085906004016148a2565b6020604051808303816000875af1158015610e98573d6000803e3d6000fd5b505050506040513d601f19601f82011682018060405250810190610dd091906148bb565b565b610ec661384d565b610ece6138ac565b600d8190556040518181527f0c4d677eef92893ac7ec52faf8140fc6c851ab4736302b4f3a89dfb20696a0df90602001610b24565b610f0b6128a0565b6001600160a01b0316336001600160a01b03161480610f3457506019546001600160a01b031633145b610f505760405162461bcd60e51b8152600401610a0590614852565b6001600160a01b038116610f985760405162461bcd60e51b815260206004820152600f60248201526e696e76616c6964206164647265737360881b6044820152606401610a05565b6019546040517f74da04524d50c64947f5dd5381ef1a4dca5cba8ed1d816243f9e48aa0b5617ed91610fd7916001600160a01b039091169084906148d8565b60405180910390a1601980546001600160a01b0319166001600160a01b0392909216919091179055565b6110096139d7565b600081116110295760405162461bcd60e51b8152600401610a05906148f2565b336000908152601a6020526040902080548211156110895760405162461bcd60e51b815260206004820152601b60248201527f416d6f756e7420746f20776974686472617720746f6f206869676800000000006044820152606401610a05565b611091613a30565b6110996138ac565b60008160010154600554600f5484600001546110b5919061493f565b6110bf919061495e565b6110c99190614980565b9050801561118c57806110da612938565b10156110f85760405162461bcd60e51b8152600401610a0590614997565b8060215461110691906149ce565b6021556004546016546111199082614980565b611123908361493f565b61112d919061495e565b600854909150611147906001600160a01b03163383613b18565b80601c5411611157576000611165565b80601c546111659190614980565b601c556040518181523390600080516020614c208339815191529060200160405180910390a25b6000826002015460055460105485600001546111a8919061493f565b6111b2919061495e565b6111bc9190614980565b90506000811180156111d75750600954600160a01b900460ff165b1561127f5760006111e782613b6e565b905081601d60008282546111fb9190614980565b90915550506009546001600160a01b031661124357604051339082156108fc029083906000818181858888f1935050505015801561123d573d6000803e3d6000fd5b5061125a565b60095461125a906001600160a01b03163383613b18565b6040518181523390600080516020614c008339815191529060200160405180910390a2505b601254156112eb5760006004546012548661129a919061493f565b6112a4919061495e565b6013546007549192506112c4916001600160a01b03908116911683613b18565b6112e5336112d28388614980565b6007546001600160a01b03169190613b18565b50611302565b600754611302906001600160a01b03163386613b18565b61130d846000613b9e565b825461131a908590614980565b808455600554600f54909161132f919061493f565b611339919061495e565b60018401556005546010548454611350919061493f565b61135a919061495e565b600284015560405184815233907f884edad9ce6fa2440d8a54cc123490eb96d2768479d49ff9c7366125a94243649060200160405180910390a2600060165411806113ae5750600954600160a81b900460ff165b156113bb576113bb613c8d565b5050506113c760018055565b50565b6001600160a01b0381166000908152601a602090815260408083208151606081018352815481526001820154938101939093526002015490820152600f54600e544311801561141a5750601b5415155b801561142857506000600e54115b1561147c57600061143b600e5443613d1b565b90506000600d548261144d919061493f565b9050601b5460055482611460919061493f565b61146a919061495e565b600f5461147791906149ce565b925050505b6020820151600554835161149190849061493f565b61149b919061495e565b6114a59190614980565b949350505050565b6114b561384d565b600c5443116114f85760405162461bcd60e51b815260206004820152600f60248201526e506f6f6c2069732072756e6e696e6760881b6044820152606401610a05565b80611501612938565b101561151f5760405162461bcd60e51b8152600401610a0590614997565b806000036115325761152f612938565b90505b600854611549906001600160a01b03163383613b18565b80601c5411611559576000611567565b80601c546115679190614980565b601c5550565b61157561384d565b60045481106115c65760405162461bcd60e51b815260206004820181905260248201527f7365745265776172644665653a20696e76616c69642070657263656e746167656044820152606401610a05565b60168190556040518181527f8241a79c714425e571a9f1686404d094a6271d36603bfbff7341608c35cba26990602001610b24565b6116036139d7565b336000908152601a6020526040812080549091036116215750611afa565b600954600160a01b900460ff16158061163d575060285460ff16155b156116485750611afa565b611650613a30565b6116586138ac565b600081600201546005546010548460000154611674919061493f565b61167e919061495e565b6116889190614980565b905080601d546116989190614980565b601d5560006116a682613b6e565b90508015611af65760405181815233907ff9722679209533efd96d367c2e6ca7c5189dd230e85badc0b61875f352d6c9149060200160405180910390a26009546007546001600160a01b03908116911614611a69576009546001600160a01b03166117d157602354604080516315ab88c960e31b815290516000926001600160a01b03169163ad5c46489160048083019260209291908290030181865afa158015611755573d6000803e3d6000fd5b505050506040513d601f19601f8201168201806040525081019061177991906149e6565b9050806001600160a01b031663d0e30db0836040518263ffffffff1660e01b81526004016000604051808303818588803b1580156117b657600080fd5b505af11580156117ca573d6000803e3d6000fd5b5050505050505b60006117de60028361495e565b60095460265491925082916001600160a01b039091169015611899576026805461180a90600190614980565b8154811061181a5761181a614a03565b600091825260209182902001546026805460408051828602810186019091528181526001600160a01b03909316945061189693879392919083018282801561188b57602002820191906000526020600020905b81546001600160a01b0316815260019091019060200180831161186d575b505050505030613d5c565b91505b60095460275484916001600160a01b0316901561194d57602780546118c090600190614980565b815481106118d0576118d0614a03565b600091825260209182902001546027805460408051828602810186019091528181526001600160a01b03909316965061194a93899392919083018282801561188b576020028201919060005260206000209081546001600160a01b0316815260019091019060200180831161186d57505050505030613d5c565b91505b6007546040516370a0823160e01b81526000916001600160a01b0316906370a082319061197e90309060040161457d565b602060405180830381865afa15801561199b573d6000803e3d6000fd5b505050506040513d601f19601f820116820180604052508101906119bf9190614889565b6023549091506119dc906001600160a01b03168584888730613f52565b50506007546040516370a0823160e01b8152600092506001600160a01b03909116906370a0823190611a1290309060040161457d565b602060405180830381865afa158015611a2f573d6000803e3d6000fd5b505050506040513d601f19601f82011682018060405250810190611a539190614889565b9050611a5f8282614980565b9750505050505050505b8254611a769082906149ce565b8355600554600f54611a88908361493f565b611a92919061495e565b8360010154611aa191906149ce565b60018401556005546010548454611ab8919061493f565b611ac2919061495e565b6002840155611ad2816001613b9e565b6040518181523390600080516020614be08339815191529060200160405180910390a25b5050505b610ebc60018055565b600954600090600160a01b900460ff1615158103611b215750600090565b6009546001600160a01b0316611b3657504790565b6009546040516370a0823160e01b81526000916001600160a01b0316906370a0823190611b6790309060040161457d565b602060405180830381865afa158015611b84573d6000803e3d6000fd5b505050506040513d601f19601f82011682018060405250810190611ba89190614889565b6008546009549192506001600160a01b03908116911603611be557601c54811015611bd557600091505090565b601c54611be29082614980565b90505b601f54611bf29082614980565b91505090565b6000601b54600003611c0c57506000919050565b6001600160a01b0382166000908152601a60209081526040808320815160608101835281548152600182015493810193909352600201549082015290611c50611b03565b9050601d548111611c62576000611c6f565b601d54611c6f9082614980565b90506000601b5460055483611c84919061493f565b611c8e919061495e565b601054611c9b91906149ce565b905060008360400151600554838660000151611cb7919061493f565b611cc1919061495e565b611ccb9190614980565b9695505050505050565b611cdd6139d7565b336000908152601a602052604081208054909103611cfb5750611afa565b60285460ff16611d0b5750611afa565b611d13613a30565b611d1b6138ac565b60008160010154600554600f548460000154611d37919061493f565b611d41919061495e565b611d4b9190614980565b905080156121445780611d5c612938565b1015611d7a5760405162461bcd60e51b8152600401610a0590614997565b80602154611d8891906149ce565b602155600454601654611d9b9082614980565b611da5908361493f565b611daf919061495e565b905080601c5411611dc1576000611dcf565b80601c54611dcf9190614980565b601c5560405181815233907f169f1815ebdea059aac3bb00ec9a9594c7a5ffcb64a17e8392b5d84909a145569060200160405180910390a26008546007546001600160a01b039081169116146120b5576000611e2c60028361495e565b60085460245491925082916001600160a01b039091169015611ee55760248054611e5890600190614980565b81548110611e6857611e68614a03565b600091825260209182902001546024805460408051828602810186019091528181526001600160a01b039093169450611ee293879392919083018282801561188b576020028201919060005260206000209081546001600160a01b0316815260019091019060200180831161186d57505050505030613d5c565b91505b60085460255484916001600160a01b03169015611f995760258054611f0c90600190614980565b81548110611f1c57611f1c614a03565b600091825260209182902001546025805460408051828602810186019091528181526001600160a01b039093169450611f9693899392919083018282801561188b576020028201919060005260206000209081546001600160a01b0316815260019091019060200180831161186d57505050505030613d5c565b91505b6007546040516370a0823160e01b81526000916001600160a01b0316906370a0823190611fca90309060040161457d565b602060405180830381865afa158015611fe7573d6000803e3d6000fd5b505050506040513d601f19601f8201168201806040525081019061200b9190614889565b602354909150612028906001600160a01b03168584888730613f52565b50506007546040516370a0823160e01b8152600092506001600160a01b03909116906370a082319061205e90309060040161457d565b602060405180830381865afa15801561207b573d6000803e3d6000fd5b505050506040513d601f19601f8201168201806040525081019061209f9190614889565b90506120ab8282614980565b9750505050505050505b81546120c29082906149ce565b808355600454600f5490916120d7919061493f565b6120e1919061495e565b60018301556004546010546120f6908361493f565b612100919061495e565b826002015461210f91906149ce565b600283015561211f816001613b9e565b6040518181523390600080516020614be0833981519152906020015b60405180910390a25b5050610ebc60018055565b61215761384d565b610ebc600061407e565b6121696128a0565b6001600160a01b0316336001600160a01b0316148061219257506019546001600160a01b031633145b6121ae5760405162461bcd60e51b8152600401610a0590614852565b600b54156121f95760405162461bcd60e51b8152602060048201526018602482015277141bdbdb081dd85cc8185b1c9958591e481cdd185c9d195960421b6044820152606401610a05565b612201613491565b156122605760405162461bcd60e51b815260206004820152602960248201527f416c6c2072657761726420746f6b656e732068617665206e6f74206265656e2060448201526819195c1bdcda5d195960ba1b6064820152608401610a05565b61226b4360646149ce565b600b55600354600a5461227e919061493f565b600b5461228b91906149ce565b600c819055600b54600e8190556040517f1491c5f110b7907ad294fb443050603cd3890914598532e3e52bfc0319f08e7f926122ce928252602082015260400190565b60405180910390a1565b6122e061384d565b600954600160a01b900460ff168061230857506009546008546001600160a01b039081169116145b610ebc576009546001600160a01b0316612355576014546040516001600160a01b03909116904780156108fc02916000818181858888f193505050501580156113c7573d6000803e3d6000fd5b6009546040516370a0823160e01b81526000916001600160a01b0316906370a082319061238690309060040161457d565b602060405180830381865afa1580156123a3573d6000803e3d6000fd5b505050506040513d601f19601f820116820180604052508101906123c79190614889565b6014546009549192506113c7916001600160a01b03908116911683613b18565b6123ef61384d565b6001600160a01b03811615158061241457506013546001600160a01b03828116911614155b6124305760405162461bcd60e51b8152600401610a0590614a19565b6006548311156124525760405162461bcd60e51b8152600401610a0590614a42565b6006548211156124745760405162461bcd60e51b8152600401610a0590614a6f565b60118390556012829055601380546001600160a01b0319166001600160a01b0383169081179091556040805185815260208101859052908101919091527f914d641a0cac7127c2255990878c1090b9edf27adbb9e9d45b772660a901fae59060600160405180910390a1505050565b6124eb6128a0565b6001600160a01b0316336001600160a01b0316148061251457506019546001600160a01b031633145b6125305760405162461bcd60e51b8152600401610a0590614852565b6125386138ac565b6000602154612545612938565b61254f91906149ce565b9050602254811115612601576022546125689082614980565b60085460405163a9059cbb60e01b81529192506001600160a01b03169063a9059cbb9061259b90339085906004016148a2565b6020604051808303816000875af11580156125ba573d6000803e3d6000fd5b505050506040513d601f19601f820116820180604052508101906125de91906148bb565b5080601c54116125ef5760006125fd565b80601c546125fd9190614980565b601c555b43600c8190556040519081527ffed9fcb0ca3d1e761a4b929792bb24082fba92dca81252646ad306d30680656690602001610b24565b6014546001600160a01b0316331461268d5760405162461bcd60e51b815260206004820152601960248201527839b2ba29b2b93b34b1b2a4b733379d102327a92124a22222a760391b6044820152606401610a05565b6001600160a01b0382166126b35760405162461bcd60e51b8152600401610a0590614a19565b601480546001600160a01b0319166001600160a01b03841617905560158190556040517fc208076e24c8758b41e972b01aa2abe614d7962b6d0a645f0e57b4161dd5141c90610d7d90849084906148a2565b61270d6128a0565b6001600160a01b0316336001600160a01b0316148061273657506019546001600160a01b031633145b6127525760405162461bcd60e51b8152600401610a0590614852565b61275a6139d7565b6000811161277a5760405162461bcd60e51b8152600401610a0590614a9d565b6008546040516370a0823160e01b81526000916001600160a01b0316906370a08231906127ab90309060040161457d565b602060405180830381865afa1580156127c8573d6000803e3d6000fd5b505050506040513d601f19601f820116820180604052508101906127ec9190614889565b600854909150612807906001600160a01b03163330856140ce565b6008546040516370a0823160e01b81526000916001600160a01b0316906370a082319061283890309060040161457d565b602060405180830381865afa158015612855573d6000803e3d6000fd5b505050506040513d601f19601f820116820180604052508101906128799190614889565b90508181601c5461288a91906149ce565b6128949190614980565b601c5550506001805550565b6000546001600160a01b031690565b6128b761384d565b6028805460ff1916821515179055602380546001600160a01b0319166001600160a01b03881617905584516128f39060249060208801906144a1565b5083516129079060259060208701906144a1565b50825161291b9060269060208601906144a1565b50815161292f9060279060208501906144a1565b50505050505050565b6009546008546000916001600160a01b0391821691161480156129645750600954600160a01b900460ff165b156129705750601c5490565b6008546040516370a0823160e01b81526000916001600160a01b0316906370a08231906129a190309060040161457d565b602060405180830381865afa1580156129be573d6000803e3d6000fd5b505050506040513d601f19601f820116820180604052508101906129e29190614889565b9050601e5481611bf29190614980565b6129fa6139d7565b6000600b54118015612a0d575043600b54105b612a595760405162461bcd60e51b815260206004820152601a60248201527f4661726d696e67206861736e27742073746172746564207965740000000000006044820152606401610a05565b60008111612a795760405162461bcd60e51b8152600401610a05906148f2565b336000908152601a60205260409020612a90613a30565b612a986138ac565b805415612c885760008160010154600554600f548460000154612abb919061493f565b612ac5919061495e565b612acf9190614980565b90508015612b925780612ae0612938565b1015612afe5760405162461bcd60e51b8152600401610a0590614997565b80602154612b0c91906149ce565b602155600454601654612b1f9082614980565b612b29908361493f565b612b33919061495e565b600854909150612b4d906001600160a01b03163383613b18565b80601c5411612b5d576000612b6b565b80601c54612b6b9190614980565b601c556040518181523390600080516020614c208339815191529060200160405180910390a25b600082600201546005546010548560000154612bae919061493f565b612bb8919061495e565b612bc29190614980565b9050600081118015612bdd5750600954600160a01b900460ff165b15612c85576000612bed82613b6e565b905081601d6000828254612c019190614980565b90915550506009546001600160a01b0316612c4957604051339082156108fc029083906000818181858888f19350505050158015612c43573d6000803e3d6000fd5b50612c60565b600954612c60906001600160a01b03163383613b18565b6040518181523390600080516020614c008339815191529060200160405180910390a2505b50505b6007546040516370a0823160e01b81526000916001600160a01b0316906370a0823190612cb990309060040161457d565b602060405180830381865afa158015612cd6573d6000803e3d6000fd5b505050506040513d601f19601f82011682018060405250810190612cfa9190614889565b600754909150612d15906001600160a01b03163330866140ce565b6007546040516370a0823160e01b81526000916001600160a01b0316906370a0823190612d4690309060040161457d565b602060405180830381865afa158015612d63573d6000803e3d6000fd5b505050506040513d601f19601f82011682018060405250810190612d879190614889565b90506000612d958383614980565b60115490915015612deb57600060045460115483612db3919061493f565b612dbd919061495e565b601354600754919250612ddd916001600160a01b03908116911683613b18565b612de78183614980565b9150505b612df6816001613b9e565b8354612e039082906149ce565b808555600554600f549091612e18919061493f565b612e22919061495e565b60018501556005546010548554612e39919061493f565b612e43919061495e565b60028501556040518181523390600080516020614be08339815191529060200160405180910390a260006016541180612e855750600954600160a81b900460ff165b15612e9257612e92613c8d565b505050506113c760018055565b60025460ff1615612ee85760405162461bcd60e51b8152602060048201526013602482015272105b1c9958591e481a5b9a5d1a585b1a5e9959606a1b6044820152606401610a05565b6000612ef26128a0565b6001600160a01b03161480612f1f5750612f0a6128a0565b6001600160a01b0316336001600160a01b0316145b612f595760405162461bcd60e51b815260206004820152600b60248201526a139bdd08185b1b1bddd95960aa1b6044820152606401610a05565b6002805460ff191660011790556127106004556170806003556107d06006819055670de0b6b3a7640000600555600a859055601480546001600160a01b0319908116735ac58191f3bbdf6d037c6c6201adc9f99c93c53a17909155660c6f3b40b6c000601555600780546001600160a01b038e811691841691909117909155600880548d831690841617905560098054871515600160a01b026001600160a81b03199091168d841617179055600d8a905560178054831633179055601880549185169183168217905560198054831682179055601380549092161790558611156130555760405162461bcd60e51b8152600401610a0590614a42565b6006548511156130775760405162461bcd60e51b8152600401610a0590614a6f565b6011869055601285905561308a8261407e565b50505050505050505050565b61309e6139d7565b336000908152601a6020526040812080549091036130bc5750611afa565b6130c4613a30565b6130cc6138ac565b60008160010154600554600f5484600001546130e8919061493f565b6130f2919061495e565b6130fc9190614980565b905080156131bf578061310d612938565b101561312b5760405162461bcd60e51b8152600401610a0590614997565b8060215461313991906149ce565b60215560045460165461314c9082614980565b613156908361493f565b613160919061495e565b60085490915061317a906001600160a01b03163383613b18565b80601c541161318a576000613198565b80601c546131989190614980565b601c556040518181523390600080516020614c208339815191529060200160405180910390a25b600554600f5483546131d1919061493f565b6131db919061495e565b600192830155508055565b6131ee61384d565b60098054821515600160a81b0260ff60a81b199091161790556040517f6c55f8d24f45456d49b15692f6cd375689cbbc2cc46a33366288f1061229c1d390610b2490831515815260200190565b6132436139d7565b336000908152601a6020526040812080549091036132615750611afa565b805460075461327a906001600160a01b03163383613b18565b60008083556001830181905560028301819055613298908290613b9e565b60405181815233907f5fafa99d0643513820be26656b45130b01e1c03062e1266bf36f88cbd3bd96959060200161213b565b6132d26139d7565b336000908152601a6020526040812080549091036132f05750611afa565b600954600160a01b900460ff166133075750611afa565b61330f613a30565b6133176138ac565b600081600201546005546010548460000154613333919061493f565b61333d919061495e565b6133479190614980565b905080156133ec57600061335a82613b6e565b905081601d5461336a9190614980565b601d556009546001600160a01b03166133b057604051339082156108fc029083906000818181858888f193505050501580156133aa573d6000803e3d6000fd5b506133c7565b6009546133c7906001600160a01b03163383613b18565b6040518181523390600080516020614c008339815191529060200160405180910390a2505b60055460105483546133fe919061493f565b613408919061495e565b82600201819055505050610ebc60018055565b61342361384d565b6001600160a01b0381166134885760405162461bcd60e51b815260206004820152602660248201527f4f776e61626c653a206e6577206f776e657220697320746865207a65726f206160448201526564647265737360d01b6064820152608401610a05565b6113c78161407e565b600080602254905060006021546134a6612938565b6134b091906149ce565b9050600b546000036134ea57600354600a54600d546134cf919061493f565b6134d9919061493f565b6134e390836149ce565b9150613518565b60006134fa600e54600c54613d1b565b905080600d5461350a919061493f565b61351490846149ce565b9250505b8181106135285760009250505090565b6135328183614980565b9250505090565b61354161384d565b600081116135615760405162461bcd60e51b8152600401610a0590614a9d565b6000600b54116135a95760405162461bcd60e51b81526020600482015260136024820152721c1bdbdb081a5cc81b9bdd081cdd185c9d1959606a1b6044820152606401610a05565b43600c54116135f65760405162461bcd60e51b81526020600482015260196024820152781c1bdbdb081dd85cc8185b1c9958591e48199a5b9a5cda1959603a1b6044820152606401610a05565b6135fe6138ac565b6008546040516370a0823160e01b81526000916001600160a01b0316906370a082319061362f90309060040161457d565b602060405180830381865afa15801561364c573d6000803e3d6000fd5b505050506040513d601f19601f820116820180604052508101906136709190614889565b60085490915061368b906001600160a01b03163330856140ce565b6008546040516370a0823160e01b81526000916001600160a01b0316906370a08231906136bc90309060040161457d565b602060405180830381865afa1580156136d9573d6000803e3d6000fd5b505050506040513d601f19601f820116820180604052508101906136fd9190614889565b90508181601c5461370e91906149ce565b6137189190614980565b601c55613723613c8d565b505050565b61373061384d565b601e8110156137775760405162461bcd60e51b81526020600482015260136024820152721b1bddd95c881b1a5b5a5d081c995858da1959606a1b6044820152606401610a05565b600a8190556040518181527f9bb10695bde7db94333a5404f0767118f3965fd73217e45f96529c3d368285af9060200160405180910390a1600b54156113c757600354600a546137c7919061493f565b600b546137d491906149ce565b600c819055431061381a5760405162461bcd60e51b815260206004820152601060248201526f34b73b30b634b210323ab930ba34b7b760811b6044820152606401610a05565b7fbefee04945bd96d1a11e3459d8981d8eaaeb1c5d866352d4412247a8d1e370a1600c54604051610b2491815260200190565b336138566128a0565b6001600160a01b031614610ebc5760405162461bcd60e51b815260206004820181905260248201527f4f776e61626c653a2063616c6c6572206973206e6f7420746865206f776e65726044820152606401610a05565b600e54431115806138bd5750600e54155b156138c457565b601b546000036138d45743600e55565b6000601b541180156138ef5750600954600160a01b900460ff165b1561396b5760006138fe611b03565b9050601d54811161391057600061391d565b601d5461391d9082614980565b9050601b5460055482613930919061493f565b61393a919061495e565b6010600082825461394b91906149ce565b9250508190555080601d600082825461396491906149ce565b9091555050505b6000613979600e5443613d1b565b90506000600d548261398b919061493f565b9050601b546005548261399e919061493f565b6139a8919061495e565b600f60008282546139b991906149ce565b909155505043600e556022546139d09082906149ce565b6022555050565b600260015403613a295760405162461bcd60e51b815260206004820152601f60248201527f5265656e7472616e637947756172643a207265656e7472616e742063616c6c006044820152606401610a05565b6002600155565b601554341015613a965760405162461bcd60e51b815260206004820152602b60248201527f73686f756c642070617920736d616c6c2067617320746f20636f6d706f756e6460448201526a081bdc881a185c9d995cdd60aa1b6064820152608401610a05565b6014546015546040516001600160a01b039092169181156108fc0291906000818181858888f19350505050158015613ad2573d6000803e3d6000fd5b50601554341115610ebc5760155433906108fc90613af09034614980565b6040518115909202916000818181858888f193505050501580156113c7573d6000803e3d6000fd5b6137238363a9059cbb60e01b8484604051602401613b379291906148a2565b60408051601f198184030181529190526020810180516001600160e01b03166001600160e01b03199093169290921790915261410c565b600080613b79611b03565b9050601d54831115613b8b57601d5492505b80831115613b97578092505b5090919050565b8015613c0c5781601b54613bb291906149ce565b601b556008546007546001600160a01b03918216911603613bdf5781601e54613bdb91906149ce565b601e555b6009546007546001600160a01b03918216911603610dd05781601f54613c0591906149ce565b601f555050565b81601b54613c1a9190614980565b601b556008546007546001600160a01b03918216911603613c575781601e5411613c45576000613c53565b81601e54613c539190614980565b601e555b6009546007546001600160a01b03918216911603610dd05781601f5411613c7f576000613c05565b81601f54613c059190614980565b43600c5411613c9857565b6000602154613ca5612938565b613caf91906149ce565b90506022548111156113c757602254613cc89082614980565b9050600043600c54613cda9190614980565b9050613ce6818361495e565b600d8190556040519081527f0c4d677eef92893ac7ec52faf8140fc6c851ab4736302b4f3a89dfb20696a0df90602001610d7d565b6000600c548211613d3757613d308383614980565b9050613d56565b600c548310613d4857506000613d56565b82600c54613d309190614980565b92915050565b6000808360018551613d6e9190614980565b81518110613d7e57613d7e614a03565b60200260200101516001600160a01b03166370a08231306040518263ffffffff1660e01b8152600401613db1919061457d565b602060405180830381865afa158015613dce573d6000803e3d6000fd5b505050506040513d601f19601f82011682018060405250810190613df29190614889565b6023548551919250613e3d916001600160a01b039091169087908790600090613e1d57613e1d614a03565b60200260200101516001600160a01b03166141de9092919063ffffffff16565b6023546001600160a01b0316635c11d7958660008787613e5f426102586149ce565b6040518663ffffffff1660e01b8152600401613e7f959493929190614ac5565b600060405180830381600087803b158015613e9957600080fd5b505af1158015613ead573d6000803e3d6000fd5b5050505060008460018651613ec29190614980565b81518110613ed257613ed2614a03565b60200260200101516001600160a01b03166370a08231306040518263ffffffff1660e01b8152600401613f05919061457d565b602060405180830381865afa158015613f22573d6000803e3d6000fd5b505050506040513d601f19601f82011682018060405250810190613f469190614889565b9050611ccb8282614980565b60008080613f6a6001600160a01b0389168a886142e1565b613f7e6001600160a01b0388168a876142e1565b6001600160a01b03891663e8e33700898989896000808b613fa1426102586149ce565b60405160e08a901b6001600160e01b03191681526001600160a01b039889166004820152968816602488015260448701959095526064860193909352608485019190915260a484015290921660c482015260e4810191909152610104016060604051808303816000875af115801561401d573d6000803e3d6000fd5b505050506040513d601f19601f820116820180604052508101906140419190614b36565b9194509250905061405d6001600160a01b0389168a60006141de565b6140726001600160a01b0388168a60006141de565b96509650969350505050565b600080546001600160a01b038381166001600160a01b0319831681178455604051919092169283917f8be0079c531659141344cd1fd0a4f28419497f9722a3daafe3b4186f6b6457e09190a35050565b6040516001600160a01b03808516602483015283166044820152606481018290526141069085906323b872dd60e01b90608401613b37565b50505050565b6000614161826040518060400160405280602081526020017f5361666545524332303a206c6f772d6c6576656c2063616c6c206661696c6564815250856001600160a01b031661437e9092919063ffffffff16565b805190915015613723578080602001905181019061417f91906148bb565b6137235760405162461bcd60e51b815260206004820152602a60248201527f5361666545524332303a204552433230206f7065726174696f6e20646964206e6044820152691bdd081cdd58d8d9595960b21b6064820152608401610a05565b8015806142575750604051636eb1769f60e11b81526001600160a01b0384169063dd62ed3e9061421490309086906004016148d8565b602060405180830381865afa158015614231573d6000803e3d6000fd5b505050506040513d601f19601f820116820180604052508101906142559190614889565b155b6142c25760405162461bcd60e51b815260206004820152603660248201527f5361666545524332303a20617070726f76652066726f6d206e6f6e2d7a65726f60448201527520746f206e6f6e2d7a65726f20616c6c6f77616e636560501b6064820152608401610a05565b6137238363095ea7b360e01b8484604051602401613b379291906148a2565b600081846001600160a01b031663dd62ed3e30866040518363ffffffff1660e01b81526004016143129291906148d8565b602060405180830381865afa15801561432f573d6000803e3d6000fd5b505050506040513d601f19601f820116820180604052508101906143539190614889565b61435d91906149ce565b90506141068463095ea7b360e01b8584604051602401613b379291906148a2565b60606114a5848460008585600080866001600160a01b031685876040516143a59190614b90565b60006040518083038185875af1925050503d80600081146143e2576040519150601f19603f3d011682016040523d82523d6000602084013e6143e7565b606091505b50915091506143f887838387614403565b979650505050505050565b6060831561447257825160000361446b576001600160a01b0385163b61446b5760405162461bcd60e51b815260206004820152601d60248201527f416464726573733a2063616c6c20746f206e6f6e2d636f6e74726163740000006044820152606401610a05565b50816114a5565b6114a583838151156144875781518083602001fd5b8060405162461bcd60e51b8152600401610a059190614bac565b8280548282559060005260206000209081019282156144f6579160200282015b828111156144f657825182546001600160a01b0319166001600160a01b039091161782556020909201916001909101906144c1565b50614502929150614506565b5090565b5b808211156145025760008155600101614507565b60006020828403121561452d57600080fd5b5035919050565b6001600160a01b03811681146113c757600080fd5b803561455481614534565b919050565b60006020828403121561456b57600080fd5b813561457681614534565b9392505050565b6001600160a01b0391909116815260200190565b6000806000606084860312156145a657600080fd5b833592506020840135915060408401356145bf81614534565b809150509250925092565b600080604083850312156145dd57600080fd5b82356145e881614534565b946020939093013593505050565b634e487b7160e01b600052604160045260246000fd5b600082601f83011261461d57600080fd5b8135602067ffffffffffffffff8083111561463a5761463a6145f6565b8260051b604051601f19603f8301168101818110848211171561465f5761465f6145f6565b60405293845285810183019383810192508785111561467d57600080fd5b83870191505b848210156143f85761469482614549565b83529183019190830190614683565b80151581146113c757600080fd5b8035614554816146a3565b60008060008060008060c087890312156146d557600080fd5b6146de87614549565b9550602087013567ffffffffffffffff808211156146fb57600080fd5b6147078a838b0161460c565b9650604089013591508082111561471d57600080fd5b6147298a838b0161460c565b9550606089013591508082111561473f57600080fd5b61474b8a838b0161460c565b9450608089013591508082111561476157600080fd5b5061476e89828a0161460c565b92505061477d60a088016146b1565b90509295509295509295565b6000806000806000806000806000806101408b8d0312156147a957600080fd5b8a356147b481614534565b995060208b01356147c481614534565b985060408b01356147d481614534565b975060608b0135965060808b0135955060a08b0135945060c08b0135935060e08b0135614800816146a3565b92506101008b013561481181614534565b91506101208b013561482281614534565b809150509295989b9194979a5092959850565b60006020828403121561484757600080fd5b8135614576816146a3565b6020808252601f908201527f63616c6c6572206973206e6f74206f776e6572206f72206f70657261746f7200604082015260600190565b60006020828403121561489b57600080fd5b5051919050565b6001600160a01b03929092168252602082015260400190565b6000602082840312156148cd57600080fd5b8151614576816146a3565b6001600160a01b0392831681529116602082015260400190565b6020808252601f908201527f416d6f756e742073686f756c642062652067726561746f72207468616e203000604082015260600190565b634e487b7160e01b600052601160045260246000fd5b600081600019048311821515161561495957614959614929565b500290565b60008261497b57634e487b7160e01b600052601260045260246000fd5b500490565b60008282101561499257614992614929565b500390565b6020808252601a908201527f496e73756666696369656e742072657761726420746f6b656e73000000000000604082015260600190565b600082198211156149e1576149e1614929565b500190565b6000602082840312156149f857600080fd5b815161457681614534565b634e487b7160e01b600052603260045260246000fd5b6020808252600f908201526e496e76616c6964206164647265737360881b604082015260600190565b602080825260139082015272496e76616c6964206465706f7369742066656560681b604082015260600190565b602080825260149082015273496e76616c69642077697468647261772066656560601b604082015260600190565b6020808252600e908201526d1a5b9d985b1a5908185b5bdd5b9d60921b604082015260600190565b600060a082018783526020878185015260a0604085015281875180845260c086019150828901935060005b81811015614b155784516001600160a01b031683529383019391830191600101614af0565b50506001600160a01b03969096166060850152505050608001529392505050565b600080600060608486031215614b4b57600080fd5b8351925060208401519150604084015190509250925092565b60005b83811015614b7f578181015183820152602001614b67565b838111156141065750506000910152565b60008251614ba2818460208701614b64565b9190910192915050565b6020815260008251806020840152614bcb816040850160208701614b64565b601f01601f1916919091016040019291505056fee1fffcc4923d04b559f4d29a8bfc6cda04eb5b0d3c460751c2402c5c5cc9109c5287962f37e8311d1f68b563b6969614e0eb2862c1a714c8781511520e87e44247cee97cb7acd717b3c0aa1435d004cd5b3c8c57d70dbceb4e4458bbd60e39d4a2646970667358221220a60381085da80e59214de0a8759d6c4f7e8c76568a83c7c08f1fd1c29c9c4aba64736f6c634300080e0033",
  "devdoc": {
    "kind": "dev",
    "methods": {
      "deposit(uint256)": {
        "params": {
          "_amount": ": amount to stake (in lp token)"
        }
      },
      "depositRewards(uint256)": {
        "details": "Only call by owner. Needs to be for deposit of reward token when reflection token is same with reward token."
      },
      "emergencyRewardWithdraw(uint256)": {
        "details": "Only callable by owner. Needs to be for emergency."
      },
      "emergencyWithdraw()": {
        "details": "Needs to be for emergency."
      },
      "initialize(address,address,address,uint256,uint256,uint256,uint256,bool,address,address)": {
        "params": {
          "_deployer": ": owner address",
          "_depositFee": ": deposit fee",
          "_dividendToken": ": reflection token address",
          "_hasDividend": ": reflection available flag",
          "_lpToken": ": LP address",
          "_owner": ": owner address",
          "_rewardPerBlock": ": reward per block (in rewardToken)",
          "_rewardToken": ": earned token address",
          "_withdrawFee": ": withdraw fee"
        }
      },
      "owner()": {
        "details": "Returns the address of the current owner."
      },
      "pendingRewards(address)": {
        "params": {
          "_user": ": user address"
        },
        "returns": {
          "_0": "Pending reward for a given user"
        }
      },
      "renounceOwnership()": {
        "details": "Leaves the contract without owner. It will not be possible to call `onlyOwner` functions anymore. Can only be called by the current owner. NOTE: Renouncing ownership will leave the contract without an owner, thereby removing any functionality that is only available to the owner."
      },
      "rescueTokens(address)": {
        "details": "This function is only callable by admin.",
        "params": {
          "_token": ": the address of the token to withdraw"
        }
      },
      "transferOwnership(address)": {
        "details": "Transfers ownership of the contract to a new account (`newOwner`). Can only be called by the current owner."
      },
      "updateEmissionRate(uint256)": {
        "details": "Only callable by owner.",
        "params": {
          "_rewardPerBlock": ": the reward per block"
        }
      },
      "withdraw(uint256)": {
        "params": {
          "_amount": ": amount to withdraw (in lp token)"
        }
      }
    },
    "version": 1
  },
  "userdoc": {
    "kind": "user",
    "methods": {
      "availableDividendTokens()": {
        "notice": "Available amount of reflection token"
      },
      "availableRewardTokens()": {
        "notice": "Available amount of reward token"
      },
      "deposit(uint256)": {
        "notice": "Deposit LP tokens and collect reward tokens (if any)"
      },
      "depositRewards(uint256)": {
        "notice": "Deposit reward token"
      },
      "emergencyRewardWithdraw(uint256)": {
        "notice": "Withdraw reward token"
      },
      "emergencyWithdraw()": {
        "notice": "Withdraw staked tokens without caring about rewards"
      },
      "initialize(address,address,address,uint256,uint256,uint256,uint256,bool,address,address)": {
        "notice": "Initialize the contract"
      },
      "pendingRewards(address)": {
        "notice": "View function to see pending reward on frontend."
      },
      "rescueTokens(address)": {
        "notice": "It allows the admin to recover wrong tokens sent to the contract"
      },
      "transferToHarvest()": {
        "notice": "Admin Methods"
      },
      "updateEmissionRate(uint256)": {
        "notice": "Update reward per block"
      },
      "withdraw(uint256)": {
        "notice": "Withdraw staked lp token and collect reward tokens"
      }
    },
    "version": 1
  },
  "storageLayout": {
    "storage": [
      {
        "astId": 883,
        "contract": "contracts/farm/BrewlabsFarmImpl.sol:BrewlabsFarmImpl",
        "label": "_owner",
        "offset": 0,
        "slot": "0",
        "type": "t_address"
      },
      {
        "astId": 1187,
        "contract": "contracts/farm/BrewlabsFarmImpl.sol:BrewlabsFarmImpl",
        "label": "_status",
        "offset": 0,
        "slot": "1",
        "type": "t_uint256"
      },
      {
        "astId": 26141,
        "contract": "contracts/farm/BrewlabsFarmImpl.sol:BrewlabsFarmImpl",
        "label": "isInitialized",
        "offset": 0,
        "slot": "2",
        "type": "t_bool"
      },
      {
        "astId": 26143,
        "contract": "contracts/farm/BrewlabsFarmImpl.sol:BrewlabsFarmImpl",
        "label": "BLOCKS_PER_DAY",
        "offset": 0,
        "slot": "3",
        "type": "t_uint256"
      },
      {
        "astId": 26145,
        "contract": "contracts/farm/BrewlabsFarmImpl.sol:BrewlabsFarmImpl",
        "label": "PERCENT_PRECISION",
        "offset": 0,
        "slot": "4",
        "type": "t_uint256"
      },
      {
        "astId": 26147,
        "contract": "contracts/farm/BrewlabsFarmImpl.sol:BrewlabsFarmImpl",
        "label": "PRECISION_FACTOR",
        "offset": 0,
        "slot": "5",
        "type": "t_uint256"
      },
      {
        "astId": 26149,
        "contract": "contracts/farm/BrewlabsFarmImpl.sol:BrewlabsFarmImpl",
        "label": "MAX_FEE",
        "offset": 0,
        "slot": "6",
        "type": "t_uint256"
      },
      {
        "astId": 26152,
        "contract": "contracts/farm/BrewlabsFarmImpl.sol:BrewlabsFarmImpl",
        "label": "lpToken",
        "offset": 0,
        "slot": "7",
        "type": "t_contract(IERC20)3296"
      },
      {
        "astId": 26155,
        "contract": "contracts/farm/BrewlabsFarmImpl.sol:BrewlabsFarmImpl",
        "label": "rewardToken",
        "offset": 0,
        "slot": "8",
        "type": "t_contract(IERC20)3296"
      },
      {
        "astId": 26157,
        "contract": "contracts/farm/BrewlabsFarmImpl.sol:BrewlabsFarmImpl",
        "label": "dividendToken",
        "offset": 0,
        "slot": "9",
        "type": "t_address"
      },
      {
        "astId": 26159,
        "contract": "contracts/farm/BrewlabsFarmImpl.sol:BrewlabsFarmImpl",
        "label": "hasDividend",
        "offset": 20,
        "slot": "9",
        "type": "t_bool"
      },
      {
        "astId": 26162,
        "contract": "contracts/farm/BrewlabsFarmImpl.sol:BrewlabsFarmImpl",
        "label": "autoAdjustableForRewardRate",
        "offset": 21,
        "slot": "9",
        "type": "t_bool"
      },
      {
        "astId": 26164,
        "contract": "contracts/farm/BrewlabsFarmImpl.sol:BrewlabsFarmImpl",
        "label": "duration",
        "offset": 0,
        "slot": "10",
        "type": "t_uint256"
      },
      {
        "astId": 26166,
        "contract": "contracts/farm/BrewlabsFarmImpl.sol:BrewlabsFarmImpl",
        "label": "startBlock",
        "offset": 0,
        "slot": "11",
        "type": "t_uint256"
      },
      {
        "astId": 26168,
        "contract": "contracts/farm/BrewlabsFarmImpl.sol:BrewlabsFarmImpl",
        "label": "bonusEndBlock",
        "offset": 0,
        "slot": "12",
        "type": "t_uint256"
      },
      {
        "astId": 26170,
        "contract": "contracts/farm/BrewlabsFarmImpl.sol:BrewlabsFarmImpl",
        "label": "rewardPerBlock",
        "offset": 0,
        "slot": "13",
        "type": "t_uint256"
      },
      {
        "astId": 26172,
        "contract": "contracts/farm/BrewlabsFarmImpl.sol:BrewlabsFarmImpl",
        "label": "lastRewardBlock",
        "offset": 0,
        "slot": "14",
        "type": "t_uint256"
      },
      {
        "astId": 26174,
        "contract": "contracts/farm/BrewlabsFarmImpl.sol:BrewlabsFarmImpl",
        "label": "accTokenPerShare",
        "offset": 0,
        "slot": "15",
        "type": "t_uint256"
      },
      {
        "astId": 26176,
        "contract": "contracts/farm/BrewlabsFarmImpl.sol:BrewlabsFarmImpl",
        "label": "accDividendPerShare",
        "offset": 0,
        "slot": "16",
        "type": "t_uint256"
      },
      {
        "astId": 26178,
        "contract": "contracts/farm/BrewlabsFarmImpl.sol:BrewlabsFarmImpl",
        "label": "depositFee",
        "offset": 0,
        "slot": "17",
        "type": "t_uint256"
      },
      {
        "astId": 26180,
        "contract": "contracts/farm/BrewlabsFarmImpl.sol:BrewlabsFarmImpl",
        "label": "withdrawFee",
        "offset": 0,
        "slot": "18",
        "type": "t_uint256"
      },
      {
        "astId": 26182,
        "contract": "contracts/farm/BrewlabsFarmImpl.sol:BrewlabsFarmImpl",
        "label": "feeAddress",
        "offset": 0,
        "slot": "19",
        "type": "t_address"
      },
      {
        "astId": 26184,
        "contract": "contracts/farm/BrewlabsFarmImpl.sol:BrewlabsFarmImpl",
        "label": "treasury",
        "offset": 0,
        "slot": "20",
        "type": "t_address"
      },
      {
        "astId": 26186,
        "contract": "contracts/farm/BrewlabsFarmImpl.sol:BrewlabsFarmImpl",
        "label": "performanceFee",
        "offset": 0,
        "slot": "21",
        "type": "t_uint256"
      },
      {
        "astId": 26188,
        "contract": "contracts/farm/BrewlabsFarmImpl.sol:BrewlabsFarmImpl",
        "label": "rewardFee",
        "offset": 0,
        "slot": "22",
        "type": "t_uint256"
      },
      {
        "astId": 26190,
        "contract": "contracts/farm/BrewlabsFarmImpl.sol:BrewlabsFarmImpl",
        "label": "factory",
        "offset": 0,
        "slot": "23",
        "type": "t_address"
      },
      {
        "astId": 26192,
        "contract": "contracts/farm/BrewlabsFarmImpl.sol:BrewlabsFarmImpl",
        "label": "deployer",
        "offset": 0,
        "slot": "24",
        "type": "t_address"
      },
      {
        "astId": 26194,
        "contract": "contracts/farm/BrewlabsFarmImpl.sol:BrewlabsFarmImpl",
        "label": "operator",
        "offset": 0,
        "slot": "25",
        "type": "t_address"
      },
      {
        "astId": 26206,
        "contract": "contracts/farm/BrewlabsFarmImpl.sol:BrewlabsFarmImpl",
        "label": "userInfo",
        "offset": 0,
        "slot": "26",
        "type": "t_mapping(t_address,t_struct(UserInfo)26201_storage)"
      },
      {
        "astId": 26208,
        "contract": "contracts/farm/BrewlabsFarmImpl.sol:BrewlabsFarmImpl",
        "label": "totalStaked",
        "offset": 0,
        "slot": "27",
        "type": "t_uint256"
      },
      {
        "astId": 26210,
        "contract": "contracts/farm/BrewlabsFarmImpl.sol:BrewlabsFarmImpl",
        "label": "totalEarned",
        "offset": 0,
        "slot": "28",
        "type": "t_uint256"
      },
      {
        "astId": 26212,
        "contract": "contracts/farm/BrewlabsFarmImpl.sol:BrewlabsFarmImpl",
        "label": "totalReflections",
        "offset": 0,
        "slot": "29",
        "type": "t_uint256"
      },
      {
        "astId": 26214,
        "contract": "contracts/farm/BrewlabsFarmImpl.sol:BrewlabsFarmImpl",
        "label": "totalRewardStaked",
        "offset": 0,
        "slot": "30",
        "type": "t_uint256"
      },
      {
        "astId": 26216,
        "contract": "contracts/farm/BrewlabsFarmImpl.sol:BrewlabsFarmImpl",
        "label": "totalReflectionStaked",
        "offset": 0,
        "slot": "31",
        "type": "t_uint256"
      },
      {
        "astId": 26218,
        "contract": "contracts/farm/BrewlabsFarmImpl.sol:BrewlabsFarmImpl",
        "label": "reflectionDebt",
        "offset": 0,
        "slot": "32",
        "type": "t_uint256"
      },
      {
        "astId": 26220,
        "contract": "contracts/farm/BrewlabsFarmImpl.sol:BrewlabsFarmImpl",
        "label": "paidRewards",
        "offset": 0,
        "slot": "33",
        "type": "t_uint256"
      },
      {
        "astId": 26222,
        "contract": "contracts/farm/BrewlabsFarmImpl.sol:BrewlabsFarmImpl",
        "label": "shouldTotalPaid",
        "offset": 0,
        "slot": "34",
        "type": "t_uint256"
      },
      {
        "astId": 26242,
        "contract": "contracts/farm/BrewlabsFarmImpl.sol:BrewlabsFarmImpl",
        "label": "swapSettings",
        "offset": 0,
        "slot": "35",
        "type": "t_struct(SwapSetting)26239_storage"
      }
    ],
    "types": {
      "t_address": {
        "encoding": "inplace",
        "label": "address",
        "numberOfBytes": "20"
      },
      "t_array(t_address)dyn_storage": {
        "base": "t_address",
        "encoding": "dynamic_array",
        "label": "address[]",
        "numberOfBytes": "32"
      },
      "t_bool": {
        "encoding": "inplace",
        "label": "bool",
        "numberOfBytes": "1"
      },
      "t_contract(IERC20)3296": {
        "encoding": "inplace",
        "label": "contract IERC20",
        "numberOfBytes": "20"
      },
      "t_mapping(t_address,t_struct(UserInfo)26201_storage)": {
        "encoding": "mapping",
        "key": "t_address",
        "label": "mapping(address => struct BrewlabsFarmImpl.UserInfo)",
        "numberOfBytes": "32",
        "value": "t_struct(UserInfo)26201_storage"
      },
      "t_struct(SwapSetting)26239_storage": {
        "encoding": "inplace",
        "label": "struct BrewlabsFarmImpl.SwapSetting",
        "members": [
          {
            "astId": 26224,
            "contract": "contracts/farm/BrewlabsFarmImpl.sol:BrewlabsFarmImpl",
            "label": "swapRouter",
            "offset": 0,
            "slot": "0",
            "type": "t_address"
          },
          {
            "astId": 26227,
            "contract": "contracts/farm/BrewlabsFarmImpl.sol:BrewlabsFarmImpl",
            "label": "earnedToToken0",
            "offset": 0,
            "slot": "1",
            "type": "t_array(t_address)dyn_storage"
          },
          {
            "astId": 26230,
            "contract": "contracts/farm/BrewlabsFarmImpl.sol:BrewlabsFarmImpl",
            "label": "earnedToToken1",
            "offset": 0,
            "slot": "2",
            "type": "t_array(t_address)dyn_storage"
          },
          {
            "astId": 26233,
            "contract": "contracts/farm/BrewlabsFarmImpl.sol:BrewlabsFarmImpl",
            "label": "reflectionToToken0",
            "offset": 0,
            "slot": "3",
            "type": "t_array(t_address)dyn_storage"
          },
          {
            "astId": 26236,
            "contract": "contracts/farm/BrewlabsFarmImpl.sol:BrewlabsFarmImpl",
            "label": "reflectionToToken1",
            "offset": 0,
            "slot": "4",
            "type": "t_array(t_address)dyn_storage"
          },
          {
            "astId": 26238,
            "contract": "contracts/farm/BrewlabsFarmImpl.sol:BrewlabsFarmImpl",
            "label": "enabled",
            "offset": 0,
            "slot": "5",
            "type": "t_bool"
          }
        ],
        "numberOfBytes": "192"
      },
      "t_struct(UserInfo)26201_storage": {
        "encoding": "inplace",
        "label": "struct BrewlabsFarmImpl.UserInfo",
        "members": [
          {
            "astId": 26196,
            "contract": "contracts/farm/BrewlabsFarmImpl.sol:BrewlabsFarmImpl",
            "label": "amount",
            "offset": 0,
            "slot": "0",
            "type": "t_uint256"
          },
          {
            "astId": 26198,
            "contract": "contracts/farm/BrewlabsFarmImpl.sol:BrewlabsFarmImpl",
            "label": "rewardDebt",
            "offset": 0,
            "slot": "1",
            "type": "t_uint256"
          },
          {
            "astId": 26200,
            "contract": "contracts/farm/BrewlabsFarmImpl.sol:BrewlabsFarmImpl",
            "label": "reflectionDebt",
            "offset": 0,
            "slot": "2",
            "type": "t_uint256"
          }
        ],
        "numberOfBytes": "96"
      },
      "t_uint256": {
        "encoding": "inplace",
        "label": "uint256",
        "numberOfBytes": "32"
      }
    }
  }
}