{
  "address": "0x9d2Ee84bBc555D8095aFE82D697CdD86383c8903",
  "abi": [
    {
      "inputs": [],
      "stateMutability": "nonpayable",
      "type": "constructor"
    },
    {
      "anonymous": false,
      "inputs": [
        {
          "indexed": false,
          "internalType": "address",
          "name": "tokenRecovered",
          "type": "address"
        },
        {
          "indexed": false,
          "internalType": "uint256",
          "name": "amount",
          "type": "uint256"
        }
      ],
      "name": "AdminTokenRecovered",
      "type": "event"
    },
    {
      "anonymous": false,
      "inputs": [
        {
          "indexed": true,
          "internalType": "address",
          "name": "user",
          "type": "address"
        },
        {
          "indexed": false,
          "internalType": "uint256[2]",
          "name": "amount",
          "type": "uint256[2]"
        }
      ],
      "name": "Claim",
      "type": "event"
    },
    {
      "anonymous": false,
      "inputs": [
        {
          "indexed": true,
          "internalType": "address",
          "name": "user",
          "type": "address"
        },
        {
          "indexed": false,
          "internalType": "uint256",
          "name": "amount",
          "type": "uint256"
        }
      ],
      "name": "Deposit",
      "type": "event"
    },
    {
      "anonymous": false,
      "inputs": [
        {
          "indexed": false,
          "internalType": "uint256",
          "name": "duration",
          "type": "uint256"
        }
      ],
      "name": "DurationChanged",
      "type": "event"
    },
    {
      "anonymous": false,
      "inputs": [
        {
          "indexed": true,
          "internalType": "address",
          "name": "user",
          "type": "address"
        },
        {
          "indexed": false,
          "internalType": "uint256",
          "name": "amount",
          "type": "uint256"
        }
      ],
      "name": "EmergencyWithdraw",
      "type": "event"
    },
    {
      "anonymous": false,
      "inputs": [
        {
          "indexed": false,
          "internalType": "uint256",
          "name": "blockNumber",
          "type": "uint256"
        }
      ],
      "name": "EndBlockChanged",
      "type": "event"
    },
    {
      "anonymous": false,
      "inputs": [
        {
          "indexed": false,
          "internalType": "address",
          "name": "newMgr",
          "type": "address"
        }
      ],
      "name": "FeeManagerChanged",
      "type": "event"
    },
    {
      "anonymous": false,
      "inputs": [
        {
          "indexed": false,
          "internalType": "uint256[2]",
          "name": "rewardsPerBlock",
          "type": "uint256[2]"
        }
      ],
      "name": "NewRewardsPerBlock",
      "type": "event"
    },
    {
      "anonymous": false,
      "inputs": [
        {
          "indexed": false,
          "internalType": "address",
          "name": "oldOperator",
          "type": "address"
        },
        {
          "indexed": false,
          "internalType": "address",
          "name": "newOperator",
          "type": "address"
        }
      ],
      "name": "OperatorTransferred",
      "type": "event"
    },
    {
      "anonymous": false,
      "inputs": [
        {
          "indexed": true,
          "internalType": "address",
          "name": "previousOwner",
          "type": "address"
        },
        {
          "indexed": true,
          "internalType": "address",
          "name": "newOwner",
          "type": "address"
        }
      ],
      "name": "OwnershipTransferred",
      "type": "event"
    },
    {
      "anonymous": false,
      "inputs": [
        {
          "indexed": false,
          "internalType": "uint256",
          "name": "startBlock",
          "type": "uint256"
        },
        {
          "indexed": false,
          "internalType": "uint256",
          "name": "endBlock",
          "type": "uint256"
        }
      ],
      "name": "RewardsStart",
      "type": "event"
    },
    {
      "anonymous": false,
      "inputs": [
        {
          "indexed": false,
          "internalType": "uint256",
          "name": "blockNumber",
          "type": "uint256"
        }
      ],
      "name": "RewardsStop",
      "type": "event"
    },
    {
      "anonymous": false,
      "inputs": [
        {
          "indexed": false,
          "internalType": "address",
          "name": "addr",
          "type": "address"
        },
        {
          "indexed": false,
          "internalType": "uint256",
          "name": "fee",
          "type": "uint256"
        }
      ],
      "name": "ServiceInfoChanged",
      "type": "event"
    },
    {
      "anonymous": false,
      "inputs": [
        {
          "indexed": false,
          "internalType": "bool",
          "name": "status",
          "type": "bool"
        }
      ],
      "name": "SetAutoAdjustableForRewardRate",
      "type": "event"
    },
    {
      "anonymous": false,
      "inputs": [
        {
          "indexed": false,
          "internalType": "uint256",
          "name": "fee",
          "type": "uint256"
        }
      ],
      "name": "SetRewardFee",
      "type": "event"
    },
    {
      "anonymous": false,
      "inputs": [
        {
          "indexed": false,
          "internalType": "uint256",
          "name": "depositFee",
          "type": "uint256"
        },
        {
          "indexed": false,
          "internalType": "uint256",
          "name": "withdrawFee",
          "type": "uint256"
        },
        {
          "indexed": false,
          "internalType": "address",
          "name": "feeAddr",
          "type": "address"
        }
      ],
      "name": "SetSettings",
      "type": "event"
    },
    {
      "anonymous": false,
      "inputs": [
        {
          "indexed": true,
          "internalType": "address",
          "name": "user",
          "type": "address"
        },
        {
          "indexed": false,
          "internalType": "uint256",
          "name": "amount",
          "type": "uint256"
        }
      ],
      "name": "Withdraw",
      "type": "event"
    },
    {
      "inputs": [],
      "name": "MAX_FEE",
      "outputs": [
        {
          "internalType": "uint256",
          "name": "",
          "type": "uint256"
        }
      ],
      "stateMutability": "view",
      "type": "function"
    },
    {
      "inputs": [],
      "name": "PRECISION_FACTOR",
      "outputs": [
        {
          "internalType": "uint256",
          "name": "",
          "type": "uint256"
        }
      ],
      "stateMutability": "view",
      "type": "function"
    },
    {
      "inputs": [
        {
          "internalType": "uint256",
          "name": "",
          "type": "uint256"
        }
      ],
      "name": "accTokensPerShare",
      "outputs": [
        {
          "internalType": "uint256",
          "name": "",
          "type": "uint256"
        }
      ],
      "stateMutability": "view",
      "type": "function"
    },
    {
      "inputs": [
        {
          "internalType": "uint8",
          "name": "idx",
          "type": "uint8"
        }
      ],
      "name": "availableRewardTokens",
      "outputs": [
        {
          "internalType": "uint256",
          "name": "",
          "type": "uint256"
        }
      ],
      "stateMutability": "view",
      "type": "function"
    },
    {
      "inputs": [],
      "name": "bonusEndBlock",
      "outputs": [
        {
          "internalType": "uint256",
          "name": "",
          "type": "uint256"
        }
      ],
      "stateMutability": "view",
      "type": "function"
    },
    {
      "inputs": [],
      "name": "claimReward",
      "outputs": [],
      "stateMutability": "payable",
      "type": "function"
    },
    {
      "inputs": [],
      "name": "deployer",
      "outputs": [
        {
          "internalType": "address",
          "name": "",
          "type": "address"
        }
      ],
      "stateMutability": "view",
      "type": "function"
    },
    {
      "inputs": [
        {
          "internalType": "uint256",
          "name": "_amount",
          "type": "uint256"
        }
      ],
      "name": "deposit",
      "outputs": [],
      "stateMutability": "payable",
      "type": "function"
    },
    {
      "inputs": [],
      "name": "depositFee",
      "outputs": [
        {
          "internalType": "uint256",
          "name": "",
          "type": "uint256"
        }
      ],
      "stateMutability": "view",
      "type": "function"
    },
    {
      "inputs": [
        {
          "internalType": "uint8",
          "name": "idx",
          "type": "uint8"
        },
        {
          "internalType": "uint256",
          "name": "_amount",
          "type": "uint256"
        }
      ],
      "name": "depositRewards",
      "outputs": [],
      "stateMutability": "nonpayable",
      "type": "function"
    },
    {
      "inputs": [],
      "name": "duration",
      "outputs": [
        {
          "internalType": "uint256",
          "name": "",
          "type": "uint256"
        }
      ],
      "stateMutability": "view",
      "type": "function"
    },
    {
      "inputs": [
        {
          "internalType": "uint8",
          "name": "idx",
          "type": "uint8"
        },
        {
          "internalType": "uint256",
          "name": "_amount",
          "type": "uint256"
        }
      ],
      "name": "emergencyRewardWithdraw",
      "outputs": [],
      "stateMutability": "nonpayable",
      "type": "function"
    },
    {
      "inputs": [],
      "name": "emergencyWithdraw",
      "outputs": [],
      "stateMutability": "nonpayable",
      "type": "function"
    },
    {
      "inputs": [],
      "name": "feeAddress",
      "outputs": [
        {
          "internalType": "address",
          "name": "",
          "type": "address"
        }
      ],
      "stateMutability": "view",
      "type": "function"
    },
    {
      "inputs": [
        {
          "internalType": "uint8",
          "name": "idx",
          "type": "uint8"
        },
        {
          "internalType": "uint256",
          "name": "_amount",
          "type": "uint256"
        }
      ],
      "name": "increaseEmissionRate",
      "outputs": [],
      "stateMutability": "nonpayable",
      "type": "function"
    },
    {
      "inputs": [
        {
          "internalType": "contract IERC20",
          "name": "_lpToken",
          "type": "address"
        },
        {
          "internalType": "contract IERC20[2]",
          "name": "_rewardTokens",
          "type": "address[2]"
        },
        {
          "internalType": "uint256[2]",
          "name": "_rewardsPerBlock",
          "type": "uint256[2]"
        },
        {
          "internalType": "uint256",
          "name": "_depositFee",
          "type": "uint256"
        },
        {
          "internalType": "uint256",
          "name": "_withdrawFee",
          "type": "uint256"
        },
        {
          "internalType": "uint256",
          "name": "_duration",
          "type": "uint256"
        },
        {
          "internalType": "address",
          "name": "_owner",
          "type": "address"
        },
        {
          "internalType": "address",
          "name": "_feeManager",
          "type": "address"
        },
        {
          "internalType": "address",
          "name": "_deployer",
          "type": "address"
        }
      ],
      "name": "initialize",
      "outputs": [],
      "stateMutability": "nonpayable",
      "type": "function"
    },
    {
      "inputs": [
        {
          "internalType": "uint8",
          "name": "idx",
          "type": "uint8"
        }
      ],
      "name": "insufficientRewards",
      "outputs": [
        {
          "internalType": "uint256",
          "name": "",
          "type": "uint256"
        }
      ],
      "stateMutability": "view",
      "type": "function"
    },
    {
      "inputs": [],
      "name": "lastRewardBlock",
      "outputs": [
        {
          "internalType": "uint256",
          "name": "",
          "type": "uint256"
        }
      ],
      "stateMutability": "view",
      "type": "function"
    },
    {
      "inputs": [],
      "name": "lpToken",
      "outputs": [
        {
          "internalType": "contract IERC20",
          "name": "",
          "type": "address"
        }
      ],
      "stateMutability": "view",
      "type": "function"
    },
    {
      "inputs": [],
      "name": "operator",
      "outputs": [
        {
          "internalType": "address",
          "name": "",
          "type": "address"
        }
      ],
      "stateMutability": "view",
      "type": "function"
    },
    {
      "inputs": [],
      "name": "owner",
      "outputs": [
        {
          "internalType": "address",
          "name": "",
          "type": "address"
        }
      ],
      "stateMutability": "view",
      "type": "function"
    },
    {
      "inputs": [
        {
          "internalType": "uint256",
          "name": "",
          "type": "uint256"
        }
      ],
      "name": "paidRewards",
      "outputs": [
        {
          "internalType": "uint256",
          "name": "",
          "type": "uint256"
        }
      ],
      "stateMutability": "view",
      "type": "function"
    },
    {
      "inputs": [
        {
          "internalType": "address",
          "name": "_user",
          "type": "address"
        }
      ],
      "name": "pendingRewards",
      "outputs": [
        {
          "internalType": "uint256[2]",
          "name": "",
          "type": "uint256[2]"
        }
      ],
      "stateMutability": "view",
      "type": "function"
    },
    {
      "inputs": [],
      "name": "performanceFee",
      "outputs": [
        {
          "internalType": "uint256",
          "name": "",
          "type": "uint256"
        }
      ],
      "stateMutability": "view",
      "type": "function"
    },
    {
      "inputs": [],
      "name": "renounceOwnership",
      "outputs": [],
      "stateMutability": "nonpayable",
      "type": "function"
    },
    {
      "inputs": [
        {
          "internalType": "address",
          "name": "_token",
          "type": "address"
        }
      ],
      "name": "rescueTokens",
      "outputs": [],
      "stateMutability": "nonpayable",
      "type": "function"
    },
    {
      "inputs": [],
      "name": "rewardFee",
      "outputs": [
        {
          "internalType": "uint256",
          "name": "",
          "type": "uint256"
        }
      ],
      "stateMutability": "view",
      "type": "function"
    },
    {
      "inputs": [
        {
          "internalType": "uint256",
          "name": "",
          "type": "uint256"
        }
      ],
      "name": "rewardTokens",
      "outputs": [
        {
          "internalType": "contract IERC20",
          "name": "",
          "type": "address"
        }
      ],
      "stateMutability": "view",
      "type": "function"
    },
    {
      "inputs": [
        {
          "internalType": "uint256",
          "name": "",
          "type": "uint256"
        }
      ],
      "name": "rewardsPerBlock",
      "outputs": [
        {
          "internalType": "uint256",
          "name": "",
          "type": "uint256"
        }
      ],
      "stateMutability": "view",
      "type": "function"
    },
    {
      "inputs": [
        {
          "internalType": "uint256",
          "name": "_duration",
          "type": "uint256"
        }
      ],
      "name": "setDuration",
      "outputs": [],
      "stateMutability": "nonpayable",
      "type": "function"
    },
    {
      "inputs": [
        {
          "internalType": "address",
          "name": "_feeManager",
          "type": "address"
        }
      ],
      "name": "setFeeManager",
      "outputs": [],
      "stateMutability": "nonpayable",
      "type": "function"
    },
    {
      "inputs": [
        {
          "internalType": "uint256",
          "name": "_fee",
          "type": "uint256"
        }
      ],
      "name": "setRewardFee",
      "outputs": [],
      "stateMutability": "nonpayable",
      "type": "function"
    },
    {
      "inputs": [
        {
          "internalType": "address",
          "name": "_treasury",
          "type": "address"
        },
        {
          "internalType": "uint256",
          "name": "_fee",
          "type": "uint256"
        }
      ],
      "name": "setServiceInfo",
      "outputs": [],
      "stateMutability": "nonpayable",
      "type": "function"
    },
    {
      "inputs": [
        {
          "internalType": "uint256",
          "name": "_depositFee",
          "type": "uint256"
        },
        {
          "internalType": "uint256",
          "name": "_withdrawFee",
          "type": "uint256"
        },
        {
          "internalType": "address",
          "name": "_feeAddr",
          "type": "address"
        }
      ],
      "name": "setSettings",
      "outputs": [],
      "stateMutability": "nonpayable",
      "type": "function"
    },
    {
      "inputs": [],
      "name": "startBlock",
      "outputs": [
        {
          "internalType": "uint256",
          "name": "",
          "type": "uint256"
        }
      ],
      "stateMutability": "view",
      "type": "function"
    },
    {
      "inputs": [],
      "name": "startReward",
      "outputs": [],
      "stateMutability": "nonpayable",
      "type": "function"
    },
    {
      "inputs": [],
      "name": "stopReward",
      "outputs": [],
      "stateMutability": "nonpayable",
      "type": "function"
    },
    {
      "inputs": [],
      "name": "totalStaked",
      "outputs": [
        {
          "internalType": "uint256",
          "name": "",
          "type": "uint256"
        }
      ],
      "stateMutability": "view",
      "type": "function"
    },
    {
      "inputs": [
        {
          "internalType": "address",
          "name": "_operator",
          "type": "address"
        }
      ],
      "name": "transferOperator",
      "outputs": [],
      "stateMutability": "nonpayable",
      "type": "function"
    },
    {
      "inputs": [
        {
          "internalType": "address",
          "name": "newOwner",
          "type": "address"
        }
      ],
      "name": "transferOwnership",
      "outputs": [],
      "stateMutability": "nonpayable",
      "type": "function"
    },
    {
      "inputs": [],
      "name": "treasury",
      "outputs": [
        {
          "internalType": "address",
          "name": "",
          "type": "address"
        }
      ],
      "stateMutability": "view",
      "type": "function"
    },
    {
      "inputs": [
        {
          "internalType": "uint256[2]",
          "name": "_rewardsPerBlock",
          "type": "uint256[2]"
        }
      ],
      "name": "updateEmissionRate",
      "outputs": [],
      "stateMutability": "nonpayable",
      "type": "function"
    },
    {
      "inputs": [
        {
          "internalType": "uint256",
          "name": "_endBlock",
          "type": "uint256"
        }
      ],
      "name": "updateEndBlock",
      "outputs": [],
      "stateMutability": "nonpayable",
      "type": "function"
    },
    {
      "inputs": [
        {
          "internalType": "address",
          "name": "",
          "type": "address"
        }
      ],
      "name": "userInfo",
      "outputs": [
        {
          "internalType": "uint256",
          "name": "amount",
          "type": "uint256"
        },
        {
          "internalType": "uint256",
          "name": "rewardDebt",
          "type": "uint256"
        },
        {
          "internalType": "uint256",
          "name": "rewardDebt1",
          "type": "uint256"
        }
      ],
      "stateMutability": "view",
      "type": "function"
    },
    {
      "inputs": [
        {
          "internalType": "uint256",
          "name": "_amount",
          "type": "uint256"
        }
      ],
      "name": "withdraw",
      "outputs": [],
      "stateMutability": "payable",
      "type": "function"
    },
    {
      "inputs": [],
      "name": "withdrawFee",
      "outputs": [
        {
          "internalType": "uint256",
          "name": "",
          "type": "uint256"
        }
      ],
      "stateMutability": "view",
      "type": "function"
    },
    {
      "stateMutability": "payable",
      "type": "receive"
    }
  ],
  "transactionHash": "0xe955550af22bf1e4a4b3eda7d5332afc12e74e5025bb25b1e865ad3965688e2d",
  "args": [],
  "numDeployments": 1,
  "solcInputHash": "4c6b8338f57498af8816926975b48815",
  "bytecode": "0x608060405234801561001057600080fd5b5061001a33610023565b60018055610073565b600080546001600160a01b038381166001600160a01b0319831681178455604051919092169283917f8be0079c531659141344cd1fd0a4f28419497f9722a3daafe3b4186f6b6457e09190a35050565b61322380620000836000396000f3fe60806040526004361061027f5760003560e01c806367a527931161014f578063a9f8d181116100c1578063d5f394881161007a578063d5f394881461072f578063db2e21bc1461074f578063e941fa7814610764578063f2fde38b1461077a578063f35a58f41461079a578063f6be71d1146107ba57600080fd5b8063a9f8d181146106b2578063b493a213146106c8578063b6b55f25146106e8578063b88a802f146106fb578063bc063e1a14610703578063ccd34cd51461071957600080fd5b806380dc06721161011357806380dc067214610626578063817b1cd21461063b57806381b619481461065157806387788782146106715780638b424267146106875780638da5cb5b1461069d57600080fd5b806367a52793146105a6578063715018a6146105bc578063746c8ae1146105d15780637bb7bed1146105e65780637f416bbe1461060657600080fd5b80632e1a7d4d116101f357806348cd4cb1116101ac57806348cd4cb1146104f057806355bfd2fe14610506578063570ca73514610526578063595e173a146105465780635fcbd2851461056657806361d027b31461058657600080fd5b80632e1a7d4d1461042357806331d7a262146104365780633261212a14610463578063412753581461048357806341a2ac70146104b0578063472d35b9146104d057600080fd5b806315ec42231161024557806315ec4223146103365780631959a0021461035657806319c19e5e146103ad5780631aed6553146103cd57806322fc43c4146103e357806329605e771461040357600080fd5b80626f02311461028b578062ae3bf8146102ad57806301893d89146102cd5780630fb5a6b41461030057806312ef24641461031657600080fd5b3661028657005b600080fd5b34801561029757600080fd5b506102ab6102a6366004612c6b565b6107da565b005b3480156102b957600080fd5b506102ab6102c8366004612ca9565b610951565b3480156102d957600080fd5b506102ed6102e8366004612cde565b610b93565b6040519081526020015b60405180910390f35b34801561030c57600080fd5b506102ed600a5481565b34801561032257600080fd5b506102ed610331366004612c6b565b610c92565b34801561034257600080fd5b506102ed610351366004612cde565b610ca9565b34801561036257600080fd5b50610392610371366004612ca9565b601b6020526000908152604090208054600182015460029092015490919083565b604080519384526020840192909252908201526060016102f7565b3480156103b957600080fd5b506102ed6103c8366004612c6b565b610d37565b3480156103d957600080fd5b506102ed600c5481565b3480156103ef57600080fd5b506102ab6103fe366004612cf9565b610d47565b34801561040f57600080fd5b506102ab61041e366004612ca9565b610df8565b6102ab610431366004612c6b565b610ef6565b34801561044257600080fd5b50610456610451366004612ca9565b6110cc565b6040516102f79190612d23565b34801561046f57600080fd5b506102ab61047e366004612ddb565b611256565b34801561048f57600080fd5b506014546104a3906001600160a01b031681565b6040516102f79190612df7565b3480156104bc57600080fd5b506102ab6104cb366004612c6b565b6112a3565b3480156104dc57600080fd5b506102ab6104eb366004612ca9565b611331565b3480156104fc57600080fd5b506102ed600b5481565b34801561051257600080fd5b506102ab610521366004612cf9565b61135b565b34801561053257600080fd5b50601a546104a3906001600160a01b031681565b34801561055257600080fd5b506102ab610561366004612cf9565b61143f565b34801561057257600080fd5b506007546104a3906001600160a01b031681565b34801561059257600080fd5b506015546104a3906001600160a01b031681565b3480156105b257600080fd5b506102ed60125481565b3480156105c857600080fd5b506102ab611528565b3480156105dd57600080fd5b506102ab61153c565b3480156105f257600080fd5b506104a3610601366004612c6b565b6116c8565b34801561061257600080fd5b506102ab610621366004612e0b565b6116e8565b34801561063257600080fd5b506102ab6117e5565b34801561064757600080fd5b506102ed601c5481565b34801561065d57600080fd5b506102ab61066c366004612e44565b6119c4565b34801561067d57600080fd5b506102ed60165481565b34801561069357600080fd5b506102ed60175481565b3480156106a957600080fd5b506104a3611a92565b3480156106be57600080fd5b506102ed600f5481565b3480156106d457600080fd5b506102ed6106e3366004612c6b565b611aa1565b6102ab6106f6366004612c6b565b611ab1565b6102ab611d75565b34801561070f57600080fd5b506102ed60065481565b34801561072557600080fd5b506102ed60055481565b34801561073b57600080fd5b506019546104a3906001600160a01b031681565b34801561075b57600080fd5b506102ab611de8565b34801561077057600080fd5b506102ed60135481565b34801561078657600080fd5b506102ab610795366004612ca9565b611e90565b3480156107a657600080fd5b506102ab6107b5366004612e62565b611f06565b3480156107c657600080fd5b506102ab6107d5366004612c6b565b6120fc565b6107e2611a92565b6001600160a01b0316336001600160a01b0316148061080b5750601a546001600160a01b031633145b6108305760405162461bcd60e51b815260040161082790612f40565b60405180910390fd5b6000600b54116108785760405162461bcd60e51b8152602060048201526013602482015272141bdbdb081a5cc81b9bdd081cdd185c9d1959606a1b6044820152606401610827565b43600c54116108c55760405162461bcd60e51b8152602060048201526019602482015278141bdbdb081dd85cc8185b1c9958591e48199a5b9a5cda1959603a1b6044820152606401610827565b43811180156108d55750600b5481115b6109155760405162461bcd60e51b8152602060048201526011602482015270496e76616c696420656e6420626c6f636b60781b6044820152606401610827565b600c8190556040518181527fbefee04945bd96d1a11e3459d8981d8eaaeb1c5d866352d4412247a8d1e370a1906020015b60405180910390a150565b610959612221565b6008546001600160a01b0382811691161480159061098557506009546001600160a01b03828116911614155b6109d15760405162461bcd60e51b815260206004820152601c60248201527f63616e6e6f74207265636f7665722072657761726420746f6b656e73000000006044820152606401610827565b6007546001600160a01b0390811690821603610a285760405162461bcd60e51b81526020600482015260166024820152751d1bdad95b881a5cc81d5cda5b99c81bdb881c1bdbdb60521b6044820152606401610827565b60006001600160a01b038216610a6e57506040514790339082156108fc029083906000818181858888f19350505050158015610a68573d6000803e3d6000fd5b50610b56565b6040516370a0823160e01b81526001600160a01b038316906370a0823190610a9a903090600401612df7565b602060405180830381865afa158015610ab7573d6000803e3d6000fd5b505050506040513d601f19601f82011682018060405250810190610adb9190612f8d565b90508015610b565760405163a9059cbb60e01b81526001600160a01b0383169063a9059cbb90610b119033908590600401612fa6565b6020604051808303816000875af1158015610b30573d6000803e3d6000fd5b505050506040513d601f19601f82011682018060405250810190610b549190612fbf565b505b7f74f5dcd55c394cb1c6d3b9da22c2464bcc46c38cc3865bd629ed75823249b40b8282604051610b87929190612fa6565b60405180910390a15050565b60008060238360ff1660028110610bac57610bac612f77565b01549050600060218460ff1660028110610bc857610bc8612f77565b0154610bd385610ca9565b610bdd9190612ff7565b9050600b54600003610c2c57600354600a54600d8660ff1660028110610c0557610c05612f77565b0154610c11919061300f565b610c1b919061300f565b610c259083612ff7565b9150610c6f565b6000610c3c600f54600c54612280565b905080600d8660ff1660028110610c5557610c55612f77565b0154610c61919061300f565b610c6b9084612ff7565b9250505b818110610c80575060009392505050565b610c8a818361302e565b949350505050565b600d8160028110610ca257600080fd5b0154905081565b600060088260ff1660028110610cc157610cc1612f77565b01546040516370a0823160e01b81526001600160a01b03909116906370a0823190610cf0903090600401612df7565b602060405180830381865afa158015610d0d573d6000803e3d6000fd5b505050506040513d601f19601f82011682018060405250810190610d319190612f8d565b92915050565b60108160028110610ca257600080fd5b610d4f611a92565b6001600160a01b0316336001600160a01b03161480610d785750601a546001600160a01b031633145b610d945760405162461bcd60e51b815260040161082790612f40565b610d9c6122bb565b60008111610dbc5760405162461bcd60e51b815260040161082790613045565b610deb33308360088660ff1660028110610dd857610dd8612f77565b01546001600160a01b0316929190612314565b610df460018055565b5050565b610e00611a92565b6001600160a01b0316336001600160a01b03161480610e295750601a546001600160a01b031633145b610e455760405162461bcd60e51b815260040161082790612f40565b6001600160a01b038116610e8d5760405162461bcd60e51b815260206004820152600f60248201526e696e76616c6964206164647265737360881b6044820152606401610827565b601a54604080516001600160a01b03928316815291831660208301527f74da04524d50c64947f5dd5381ef1a4dca5cba8ed1d816243f9e48aa0b5617ed910160405180910390a1601a80546001600160a01b0319166001600160a01b0392909216919091179055565b610efe6122bb565b60008111610f1e5760405162461bcd60e51b81526004016108279061306d565b336000908152601b602052604090208054821115610f7e5760405162461bcd60e51b815260206004820152601b60248201527f416d6f756e7420746f20776974686472617720746f6f206869676800000000006044820152606401610827565b610f86612385565b610f8e61246d565b60135415610ffa57600060045460135484610fa9919061300f565b610fb391906130a4565b601454600754919250610fd3916001600160a01b03908116911683612707565b610ff433610fe1838661302e565b6007546001600160a01b03169190612707565b50611011565b600754611011906001600160a01b03163384612707565b81601c6000828254611023919061302e565b9091555050805461103590839061302e565b808255600554601054909161104a919061300f565b61105491906130a4565b6001820155600554601154825461106b919061300f565b61107591906130a4565b600282015560405182815233907f884edad9ce6fa2440d8a54cc123490eb96d2768479d49ff9c7366125a94243649060200160405180910390a2601754156110bf576110bf61272b565b506110c960018055565b50565b6110d4612bb2565b6001600160a01b0382166000908152601b6020908152604080832081516060810183528154815260018201549381019390935260029081015483830152815180830192839052929392916010919082845b8154815260200190600101908083116111255750505050509050600f54431180156111515750601c5415155b801561115f57506000600f54115b156111e8576000611172600f5443612280565b601c54600554600d54929350909161118a908461300f565b611194919061300f565b61119e91906130a4565b6010546111ab9190612ff7565b8252601c54600554600d546111c0908461300f565b6111ca919061300f565b6111d491906130a4565b6011546111e19190612ff7565b6020830152505b6111f0612bb2565b602083015160055483518551611206919061300f565b61121091906130a4565b61121a919061302e565b8152604083015160055460208401518551611235919061300f565b61123f91906130a4565b611249919061302e565b6020820152949350505050565b61125e612221565b61126661280d565b611273600d826002612bd0565b507f90678c062b9d0c2618105dc7147cee70b2613623605b4d7387e618b512b4f62e816040516109469190612d23565b6112ab612221565b60045481106112fc5760405162461bcd60e51b815260206004820181905260248201527f7365745265776172644665653a20696e76616c69642070657263656e746167656044820152606401610827565b60178190556040518181527f8241a79c714425e571a9f1686404d094a6271d36603bfbff7341608c35cba26990602001610946565b611339612221565b601880546001600160a01b0319166001600160a01b0392909216919091179055565b611363612221565b600c5443116113a65760405162461bcd60e51b815260206004820152600f60248201526e506f6f6c2069732072756e6e696e6760881b6044820152606401610827565b806113b083610ca9565b10156113fe5760405162461bcd60e51b815260206004820152601a60248201527f496e73756666696369656e742072657761726420746f6b656e730000000000006044820152606401610827565b806000036114125761140f82610ca9565b90505b610df4338260088560ff166002811061142d5761142d612f77565b01546001600160a01b03169190612707565b611447612221565b600081116114675760405162461bcd60e51b815260040161082790613045565b6000600b54116114af5760405162461bcd60e51b81526020600482015260136024820152721c1bdbdb081a5cc81b9bdd081cdd185c9d1959606a1b6044820152606401610827565b43600c54116114fc5760405162461bcd60e51b81526020600482015260196024820152781c1bdbdb081dd85cc8185b1c9958591e48199a5b9a5cda1959603a1b6044820152606401610827565b61150461280d565b61152033308360088660ff1660028110610dd857610dd8612f77565b610df461272b565b611530612221565b61153a60006128f5565b565b611544611a92565b6001600160a01b0316336001600160a01b0316148061156d5750601a546001600160a01b031633145b6115895760405162461bcd60e51b815260040161082790612f40565b600b54156115d45760405162461bcd60e51b8152602060048201526018602482015277141bdbdb081dd85cc8185b1c9958591e481cdd185c9d195960421b6044820152606401610827565b6115de6000610b93565b1580156115f257506115f06001610b93565b155b6116505760405162461bcd60e51b815260206004820152602960248201527f416c6c2072657761726420746f6b656e732068617665206e6f74206265656e2060448201526819195c1bdcda5d195960ba1b6064820152608401610827565b61165b436064612ff7565b600b55600354600a5461166e919061300f565b600b5461167b9190612ff7565b600c819055600b54600f8190556040517f1491c5f110b7907ad294fb443050603cd3890914598532e3e52bfc0319f08e7f926116be928252602082015260400190565b60405180910390a1565b600881600281106116d857600080fd5b01546001600160a01b0316905081565b6116f0612221565b6001600160a01b03811615158061171557506014546001600160a01b03828116911614155b6117315760405162461bcd60e51b8152600401610827906130c6565b6006548311156117535760405162461bcd60e51b8152600401610827906130ef565b6006548211156117755760405162461bcd60e51b81526004016108279061311c565b60128390556013829055601480546001600160a01b0319166001600160a01b0383169081179091556040805185815260208101859052908101919091527f914d641a0cac7127c2255990878c1090b9edf27adbb9e9d45b772660a901fae5906060015b60405180910390a1505050565b6117ed611a92565b6001600160a01b0316336001600160a01b031614806118165750601a546001600160a01b031633145b6118325760405162461bcd60e51b815260040161082790612f40565b61183a61280d565b60215460009061184982610ca9565b6118539190612ff7565b6023549091508111156118e55760235461186d908261302e565b60085460405163a9059cbb60e01b81529192506001600160a01b03169063a9059cbb906118a09033908590600401612fa6565b6020604051808303816000875af11580156118bf573d6000803e3d6000fd5b505050506040513d601f19601f820116820180604052508101906118e39190612fbf565b505b6022546118f26001610ca9565b6118fc9190612ff7565b60245490915081111561198e57602454611916908261302e565b60095460405163a9059cbb60e01b81529192506001600160a01b03169063a9059cbb906119499033908590600401612fa6565b6020604051808303816000875af1158015611968573d6000803e3d6000fd5b505050506040513d601f19601f8201168201806040525081019061198c9190612fbf565b505b43600c8190556040519081527ffed9fcb0ca3d1e761a4b929792bb24082fba92dca81252646ad306d30680656690602001610946565b6015546001600160a01b03163314611a1a5760405162461bcd60e51b815260206004820152601960248201527839b2ba29b2b93b34b1b2a4b733379d102327a92124a22222a760391b6044820152606401610827565b6001600160a01b038216611a405760405162461bcd60e51b8152600401610827906130c6565b601580546001600160a01b0319166001600160a01b03841617905560168190556040517fc208076e24c8758b41e972b01aa2abe614d7962b6d0a645f0e57b4161dd5141c90610b879084908490612fa6565b6000546001600160a01b031690565b60218160028110610ca257600080fd5b611ab96122bb565b6000600b54118015611acc575043600b54105b611b185760405162461bcd60e51b815260206004820152601a60248201527f4661726d696e67206861736e27742073746172746564207965740000000000006044820152606401610827565b60008111611b385760405162461bcd60e51b81526004016108279061306d565b611b40612385565b611b4861246d565b336000908152601b602052604080822060075491516370a0823160e01b81529092916001600160a01b0316906370a0823190611b88903090600401612df7565b602060405180830381865afa158015611ba5573d6000803e3d6000fd5b505050506040513d601f19601f82011682018060405250810190611bc99190612f8d565b600754909150611be4906001600160a01b0316333086612314565b6007546040516370a0823160e01b81526000916001600160a01b0316906370a0823190611c15903090600401612df7565b602060405180830381865afa158015611c32573d6000803e3d6000fd5b505050506040513d601f19601f82011682018060405250810190611c569190612f8d565b90506000611c64838361302e565b60125490915015611cba57600060045460125483611c82919061300f565b611c8c91906130a4565b601454600754919250611cac916001600160a01b03908116911683612707565b611cb6818361302e565b9150505b80601c6000828254611ccc9190612ff7565b90915550508354611cde908290612ff7565b8085556005546010549091611cf3919061300f565b611cfd91906130a4565b60018501556005546011548554611d14919061300f565b611d1e91906130a4565b600285015560405181815233907fe1fffcc4923d04b559f4d29a8bfc6cda04eb5b0d3c460751c2402c5c5cc9109c9060200160405180910390a260175415611d6857611d6861272b565b505050506110c960018055565b611d7d6122bb565b611d85612385565b611d8d61246d565b336000908152601b602052604090206005546010548254611dae919061300f565b611db891906130a4565b60018201556005546011548254611dcf919061300f565b611dd991906130a4565b60029091015561153a60018055565b611df06122bb565b336000908152601b602052604081208054909103611e0e5750611e87565b8054600754611e27906001600160a01b03163383612707565b80601c6000828254611e39919061302e565b9091555050600080835560018301819055600283015560405181815233907f5fafa99d0643513820be26656b45130b01e1c03062e1266bf36f88cbd3bd96959060200160405180910390a250505b61153a60018055565b611e98612221565b6001600160a01b038116611efd5760405162461bcd60e51b815260206004820152602660248201527f4f776e61626c653a206e6577206f776e657220697320746865207a65726f206160448201526564647265737360d01b6064820152608401610827565b6110c9816128f5565b60025460ff1615611f4f5760405162461bcd60e51b8152602060048201526013602482015272105b1c9958591e481a5b9a5d1a585b1a5e9959606a1b6044820152606401610827565b6000611f59611a92565b6001600160a01b03161480611f865750611f71611a92565b6001600160a01b0316336001600160a01b0316145b611fc05760405162461bcd60e51b815260206004820152600b60248201526a139bdd08185b1b1bddd95960aa1b6044820152606401610827565b6002805460ff191660011781556127106004556170806003556107d0600655670de0b6b3a7640000600555600a859055601580546001600160a01b0319908116735ac58191f3bbdf6d037c6c6201adc9f99c93c53a17909155660c6f3b40b6c000601655600780546001600160a01b038d169216919091179055612048906008908a90612c0e565b50612056600d886002612bd0565b50601880546001600160a01b038085166001600160a01b0319928316179092556019805492841692821683179055601a80548216831790556014805490911690911790556006548611156120bc5760405162461bcd60e51b8152600401610827906130ef565b6006548511156120de5760405162461bcd60e51b81526004016108279061311c565b601286905560138590556120f1836128f5565b505050505050505050565b612104612221565b601e81101561214b5760405162461bcd60e51b81526020600482015260136024820152721b1bddd95c881b1a5b5a5d081c995858da1959606a1b6044820152606401610827565b600a8190556040518181527f9bb10695bde7db94333a5404f0767118f3965fd73217e45f96529c3d368285af9060200160405180910390a1600b54156110c957600354600a5461219b919061300f565b600b546121a89190612ff7565b600c81905543106121ee5760405162461bcd60e51b815260206004820152601060248201526f34b73b30b634b210323ab930ba34b7b760811b6044820152606401610827565b7fbefee04945bd96d1a11e3459d8981d8eaaeb1c5d866352d4412247a8d1e370a1600c5460405161094691815260200190565b3361222a611a92565b6001600160a01b03161461153a5760405162461bcd60e51b815260206004820181905260248201527f4f776e61626c653a2063616c6c6572206973206e6f7420746865206f776e65726044820152606401610827565b6000600c54821161229c57612295838361302e565b9050610d31565b600c5483106122ad57506000610d31565b82600c54612295919061302e565b60026001540361230d5760405162461bcd60e51b815260206004820152601f60248201527f5265656e7472616e637947756172643a207265656e7472616e742063616c6c006044820152606401610827565b6002600155565b6040516001600160a01b038085166024830152831660448201526064810182905261237f9085906323b872dd60e01b906084015b60408051601f198184030181529190526020810180516001600160e01b03166001600160e01b031990931692909217909152612945565b50505050565b6016543410156123eb5760405162461bcd60e51b815260206004820152602b60248201527f73686f756c642070617920736d616c6c2067617320746f20636f6d706f756e6460448201526a081bdc881a185c9d995cdd60aa1b6064820152608401610827565b6015546016546040516001600160a01b039092169181156108fc0291906000818181858888f19350505050158015612427573d6000803e3d6000fd5b5060165434111561153a5760165433906108fc90612445903461302e565b6040518115909202916000818181858888f193505050501580156110c9573d6000803e3d6000fd5b612475612a17565b61247d61280d565b61248561272b565b336000908152601b6020526040812080549091036124a05750565b6124a8612bb2565b600182015460055460105484546124bf919061300f565b6124c991906130a4565b6124d3919061302e565b8152600282015460055460115484546124ec919061300f565b6124f691906130a4565b612500919061302e565b602082015280511515806125175750602081015115155b15610df45780516125286000610ca9565b10156125765760405162461bcd60e51b815260206004820152601b60248201527f496e73756666696369656e74207265776172643020746f6b656e7300000000006044820152606401610827565b60208101516125856001610ca9565b10156125d35760405162461bcd60e51b815260206004820152601b60248201527f496e73756666696369656e74207265776172643120746f6b656e7300000000006044820152606401610827565b80516021546125e29190612ff7565b60215560208101516022546125f79190612ff7565b60225560045460175461260a908261302e565b8251612616919061300f565b61262091906130a4565b8152600454601754612632908261302e565b6020830151612641919061300f565b61264b91906130a4565b60208201528051601d5411612661576000612670565b8051601d54612670919061302e565b601d556020810151601e5411612687576000612699565b6020810151601e54612699919061302e565b601e5580516126ad9033906008600061142d565b6126c23382600160200201516008600161142d565b336001600160a01b03167f4005648517e6eabb24ee3b0409649e43cf5be256e5d60ce411757a7e54091744826040516126fb9190612d23565b60405180910390a25050565b6127268363a9059cbb60e01b8484604051602401612348929190612fa6565b505050565b43600c541161273657565b600043600c54612746919061302e565b9050600080602181015461275a6000610ca9565b6127649190612ff7565b6023549091508111156127925760235461277e908261302e565b905061278a83826130a4565b600d55600191505b60225461279f6001610ca9565b6127a99190612ff7565b6024549091508111156127d7576024546127c3908261302e565b90506127cf83826130a4565b600e55600191505b8115612726577f90678c062b9d0c2618105dc7147cee70b2613623605b4d7387e618b512b4f62e600d6040516117d8919061314a565b600f544311158061281e5750600f54155b1561282557565b601c546000036128355743600f55565b6000612843600f5443612280565b43600f5590506000600d81015461285a908361300f565b9050601c546005548261286d919061300f565b61287791906130a4565b60108054600090612889908490612ff7565b909155505060235461289c908290612ff7565b602355600e546128ac908361300f565b9050601c54600554826128bf919061300f565b6128c991906130a4565b601180546000906128db908490612ff7565b90915550506024546128ee908290612ff7565b6024555050565b600080546001600160a01b038381166001600160a01b0319831681178455604051919092169283917f8be0079c531659141344cd1fd0a4f28419497f9722a3daafe3b4186f6b6457e09190a35050565b600061299a826040518060400160405280602081526020017f5361666545524332303a206c6f772d6c6576656c2063616c6c206661696c6564815250856001600160a01b0316612a8f9092919063ffffffff16565b80519091501561272657808060200190518101906129b89190612fbf565b6127265760405162461bcd60e51b815260206004820152602a60248201527f5361666545524332303a204552433230206f7065726174696f6e20646964206e6044820152691bdd081cdd58d8d9595960b21b6064820152608401610827565b6018546001600160a01b0316612a2957565b601854600754604051630f41a04d60e11b81526001600160a01b0392831692631e83409a92612a5d92911690600401612df7565b600060405180830381600087803b158015612a7757600080fd5b505af1925050508015612a88575060015b1561153a57565b6060610c8a848460008585600080866001600160a01b03168587604051612ab6919061319e565b60006040518083038185875af1925050503d8060008114612af3576040519150601f19603f3d011682016040523d82523d6000602084013e612af8565b606091505b5091509150612b0987838387612b14565b979650505050505050565b60608315612b83578251600003612b7c576001600160a01b0385163b612b7c5760405162461bcd60e51b815260206004820152601d60248201527f416464726573733a2063616c6c20746f206e6f6e2d636f6e74726163740000006044820152606401610827565b5081610c8a565b610c8a8383815115612b985781518083602001fd5b8060405162461bcd60e51b815260040161082791906131ba565b60405180604001604052806002906020820280368337509192915050565b8260028101928215612bfe579160200282015b82811115612bfe578251825591602001919060010190612be3565b50612c0a929150612c56565b5090565b8260028101928215612bfe579160200282015b82811115612bfe57825182546001600160a01b0319166001600160a01b03909116178255602090920191600190910190612c21565b5b80821115612c0a5760008155600101612c57565b600060208284031215612c7d57600080fd5b5035919050565b6001600160a01b03811681146110c957600080fd5b8035612ca481612c84565b919050565b600060208284031215612cbb57600080fd5b8135612cc681612c84565b9392505050565b803560ff81168114612ca457600080fd5b600060208284031215612cf057600080fd5b612cc682612ccd565b60008060408385031215612d0c57600080fd5b612d1583612ccd565b946020939093013593505050565b60408101818360005b6002811015612d4b578151835260209283019290910190600101612d2c565b50505092915050565b6040805190810167ffffffffffffffff81118282101715612d8557634e487b7160e01b600052604160045260246000fd5b60405290565b600082601f830112612d9c57600080fd5b612da4612d54565b806040840185811115612db657600080fd5b845b81811015612dd0578035845260209384019301612db8565b509095945050505050565b600060408284031215612ded57600080fd5b612cc68383612d8b565b6001600160a01b0391909116815260200190565b600080600060608486031215612e2057600080fd5b83359250602084013591506040840135612e3981612c84565b809150509250925092565b60008060408385031215612e5757600080fd5b8235612d1581612c84565b60008060008060008060008060006101608a8c031215612e8157600080fd5b8935612e8c81612c84565b98506020603f8b018c13612e9f57600080fd5b612ea7612d54565b8060608d018e811115612eb957600080fd5b838e015b81811015612edd578035612ed081612c84565b8452928401928401612ebd565b50819b50612eeb8f82612d8b565b9a505050505060a08a0135955060c08a0135945060e08a01359350612f136101008b01612c99565b9250612f226101208b01612c99565b9150612f316101408b01612c99565b90509295985092959850929598565b6020808252601f908201527f43616c6c6572206973206e6f74206f776e6572206f72206f70657261746f7200604082015260600190565b634e487b7160e01b600052603260045260246000fd5b600060208284031215612f9f57600080fd5b5051919050565b6001600160a01b03929092168252602082015260400190565b600060208284031215612fd157600080fd5b81518015158114612cc657600080fd5b634e487b7160e01b600052601160045260246000fd5b6000821982111561300a5761300a612fe1565b500190565b600081600019048311821515161561302957613029612fe1565b500290565b60008282101561304057613040612fe1565b500390565b6020808252600e908201526d1a5b9d985b1a5908185b5bdd5b9d60921b604082015260600190565b6020808252601f908201527f416d6f756e742073686f756c642062652067726561746f72207468616e203000604082015260600190565b6000826130c157634e487b7160e01b600052601260045260246000fd5b500490565b6020808252600f908201526e496e76616c6964206164647265737360881b604082015260600190565b602080825260139082015272496e76616c6964206465706f7369742066656560681b604082015260600190565b602080825260149082015273496e76616c69642077697468647261772066656560601b604082015260600190565b60408101818360005b6002811015612d4b578154835260209092019160019182019101613153565b60005b8381101561318d578181015183820152602001613175565b8381111561237f5750506000910152565b600082516131b0818460208701613172565b9190910192915050565b60208152600082518060208401526131d9816040850160208701613172565b601f01601f1916919091016040019291505056fea264697066735822122031c7d90bd898854849763b868ddb8226ac8472e37106c70f3fcdd2faa86c896b64736f6c634300080e0033",
  "devdoc": {
    "kind": "dev",
    "methods": {
      "deposit(uint256)": {
        "params": {
          "_amount": ": amount to stake (in lp token)"
        }
      },
      "depositRewards(uint8,uint256)": {
        "details": "Only call by owner. Needs to be for deposit of reward token when reflection token is same with reward token."
      },
      "emergencyRewardWithdraw(uint8,uint256)": {
        "details": "Only callable by owner. Needs to be for emergency."
      },
      "emergencyWithdraw()": {
        "details": "Needs to be for emergency."
      },
      "initialize(address,address[2],uint256[2],uint256,uint256,uint256,address,address,address)": {
        "params": {
          "_deployer": ": owner address",
          "_depositFee": ": deposit fee",
          "_feeManager": ": withdraw fee",
          "_lpToken": ": LP address",
          "_owner": ": owner address",
          "_rewardTokens": ": reward token addresses",
          "_rewardsPerBlock": ": rewards per block (in rewardToken)",
          "_withdrawFee": ": withdraw fee"
        }
      },
      "owner()": {
        "details": "Returns the address of the current owner."
      },
      "pendingRewards(address)": {
        "params": {
          "_user": ": user address"
        },
        "returns": {
          "_0": "Pending reward for a given user"
        }
      },
      "renounceOwnership()": {
        "details": "Leaves the contract without owner. It will not be possible to call `onlyOwner` functions anymore. Can only be called by the current owner. NOTE: Renouncing ownership will leave the contract without an owner, thereby removing any functionality that is only available to the owner."
      },
      "rescueTokens(address)": {
        "details": "This function is only callable by admin.",
        "params": {
          "_token": ": the address of the token to withdraw"
        }
      },
      "transferOwnership(address)": {
        "details": "Transfers ownership of the contract to a new account (`newOwner`). Can only be called by the current owner."
      },
      "updateEmissionRate(uint256[2])": {
        "details": "Only callable by owner.",
        "params": {
          "_rewardsPerBlock": ": the reward per block"
        }
      },
      "withdraw(uint256)": {
        "params": {
          "_amount": ": amount to withdraw (in lp token)"
        }
      }
    },
    "version": 1
  },
  "userdoc": {
    "kind": "user",
    "methods": {
      "availableRewardTokens(uint8)": {
        "notice": "Available amount of reward token"
      },
      "deposit(uint256)": {
        "notice": "Deposit LP tokens and collect reward tokens (if any)"
      },
      "depositRewards(uint8,uint256)": {
        "notice": "Deposit reward token"
      },
      "emergencyRewardWithdraw(uint8,uint256)": {
        "notice": "Withdraw reward token"
      },
      "emergencyWithdraw()": {
        "notice": "Withdraw staked tokens without caring about rewards"
      },
      "initialize(address,address[2],uint256[2],uint256,uint256,uint256,address,address,address)": {
        "notice": "Initialize the contract"
      },
      "pendingRewards(address)": {
        "notice": "View function to see pending reward on frontend."
      },
      "rescueTokens(address)": {
        "notice": "It allows the admin to recover wrong tokens sent to the contract"
      },
      "updateEmissionRate(uint256[2])": {
        "notice": "Update reward per block"
      },
      "withdraw(uint256)": {
        "notice": "Withdraw staked lp token and collect reward tokens"
      }
    },
    "version": 1
  },
  "storageLayout": {
    "storage": [
      {
        "astId": 883,
        "contract": "contracts/farm/BrewlabsDualFarmImpl.sol:BrewlabsDualFarmImpl",
        "label": "_owner",
        "offset": 0,
        "slot": "0",
        "type": "t_address"
      },
      {
        "astId": 1187,
        "contract": "contracts/farm/BrewlabsDualFarmImpl.sol:BrewlabsDualFarmImpl",
        "label": "_status",
        "offset": 0,
        "slot": "1",
        "type": "t_uint256"
      },
      {
        "astId": 28351,
        "contract": "contracts/farm/BrewlabsDualFarmImpl.sol:BrewlabsDualFarmImpl",
        "label": "isInitialized",
        "offset": 0,
        "slot": "2",
        "type": "t_bool"
      },
      {
        "astId": 28353,
        "contract": "contracts/farm/BrewlabsDualFarmImpl.sol:BrewlabsDualFarmImpl",
        "label": "BLOCKS_PER_DAY",
        "offset": 0,
        "slot": "3",
        "type": "t_uint256"
      },
      {
        "astId": 28355,
        "contract": "contracts/farm/BrewlabsDualFarmImpl.sol:BrewlabsDualFarmImpl",
        "label": "PERCENT_PRECISION",
        "offset": 0,
        "slot": "4",
        "type": "t_uint256"
      },
      {
        "astId": 28357,
        "contract": "contracts/farm/BrewlabsDualFarmImpl.sol:BrewlabsDualFarmImpl",
        "label": "PRECISION_FACTOR",
        "offset": 0,
        "slot": "5",
        "type": "t_uint256"
      },
      {
        "astId": 28359,
        "contract": "contracts/farm/BrewlabsDualFarmImpl.sol:BrewlabsDualFarmImpl",
        "label": "MAX_FEE",
        "offset": 0,
        "slot": "6",
        "type": "t_uint256"
      },
      {
        "astId": 28362,
        "contract": "contracts/farm/BrewlabsDualFarmImpl.sol:BrewlabsDualFarmImpl",
        "label": "lpToken",
        "offset": 0,
        "slot": "7",
        "type": "t_contract(IERC20)3296"
      },
      {
        "astId": 28367,
        "contract": "contracts/farm/BrewlabsDualFarmImpl.sol:BrewlabsDualFarmImpl",
        "label": "rewardTokens",
        "offset": 0,
        "slot": "8",
        "type": "t_array(t_contract(IERC20)3296)2_storage"
      },
      {
        "astId": 28369,
        "contract": "contracts/farm/BrewlabsDualFarmImpl.sol:BrewlabsDualFarmImpl",
        "label": "duration",
        "offset": 0,
        "slot": "10",
        "type": "t_uint256"
      },
      {
        "astId": 28371,
        "contract": "contracts/farm/BrewlabsDualFarmImpl.sol:BrewlabsDualFarmImpl",
        "label": "startBlock",
        "offset": 0,
        "slot": "11",
        "type": "t_uint256"
      },
      {
        "astId": 28373,
        "contract": "contracts/farm/BrewlabsDualFarmImpl.sol:BrewlabsDualFarmImpl",
        "label": "bonusEndBlock",
        "offset": 0,
        "slot": "12",
        "type": "t_uint256"
      },
      {
        "astId": 28377,
        "contract": "contracts/farm/BrewlabsDualFarmImpl.sol:BrewlabsDualFarmImpl",
        "label": "rewardsPerBlock",
        "offset": 0,
        "slot": "13",
        "type": "t_array(t_uint256)2_storage"
      },
      {
        "astId": 28379,
        "contract": "contracts/farm/BrewlabsDualFarmImpl.sol:BrewlabsDualFarmImpl",
        "label": "lastRewardBlock",
        "offset": 0,
        "slot": "15",
        "type": "t_uint256"
      },
      {
        "astId": 28383,
        "contract": "contracts/farm/BrewlabsDualFarmImpl.sol:BrewlabsDualFarmImpl",
        "label": "accTokensPerShare",
        "offset": 0,
        "slot": "16",
        "type": "t_array(t_uint256)2_storage"
      },
      {
        "astId": 28385,
        "contract": "contracts/farm/BrewlabsDualFarmImpl.sol:BrewlabsDualFarmImpl",
        "label": "depositFee",
        "offset": 0,
        "slot": "18",
        "type": "t_uint256"
      },
      {
        "astId": 28387,
        "contract": "contracts/farm/BrewlabsDualFarmImpl.sol:BrewlabsDualFarmImpl",
        "label": "withdrawFee",
        "offset": 0,
        "slot": "19",
        "type": "t_uint256"
      },
      {
        "astId": 28389,
        "contract": "contracts/farm/BrewlabsDualFarmImpl.sol:BrewlabsDualFarmImpl",
        "label": "feeAddress",
        "offset": 0,
        "slot": "20",
        "type": "t_address"
      },
      {
        "astId": 28391,
        "contract": "contracts/farm/BrewlabsDualFarmImpl.sol:BrewlabsDualFarmImpl",
        "label": "treasury",
        "offset": 0,
        "slot": "21",
        "type": "t_address"
      },
      {
        "astId": 28393,
        "contract": "contracts/farm/BrewlabsDualFarmImpl.sol:BrewlabsDualFarmImpl",
        "label": "performanceFee",
        "offset": 0,
        "slot": "22",
        "type": "t_uint256"
      },
      {
        "astId": 28395,
        "contract": "contracts/farm/BrewlabsDualFarmImpl.sol:BrewlabsDualFarmImpl",
        "label": "rewardFee",
        "offset": 0,
        "slot": "23",
        "type": "t_uint256"
      },
      {
        "astId": 28397,
        "contract": "contracts/farm/BrewlabsDualFarmImpl.sol:BrewlabsDualFarmImpl",
        "label": "feeManager",
        "offset": 0,
        "slot": "24",
        "type": "t_address"
      },
      {
        "astId": 28399,
        "contract": "contracts/farm/BrewlabsDualFarmImpl.sol:BrewlabsDualFarmImpl",
        "label": "deployer",
        "offset": 0,
        "slot": "25",
        "type": "t_address"
      },
      {
        "astId": 28401,
        "contract": "contracts/farm/BrewlabsDualFarmImpl.sol:BrewlabsDualFarmImpl",
        "label": "operator",
        "offset": 0,
        "slot": "26",
        "type": "t_address"
      },
      {
        "astId": 28413,
        "contract": "contracts/farm/BrewlabsDualFarmImpl.sol:BrewlabsDualFarmImpl",
        "label": "userInfo",
        "offset": 0,
        "slot": "27",
        "type": "t_mapping(t_address,t_struct(UserInfo)28408_storage)"
      },
      {
        "astId": 28415,
        "contract": "contracts/farm/BrewlabsDualFarmImpl.sol:BrewlabsDualFarmImpl",
        "label": "totalStaked",
        "offset": 0,
        "slot": "28",
        "type": "t_uint256"
      },
      {
        "astId": 28419,
        "contract": "contracts/farm/BrewlabsDualFarmImpl.sol:BrewlabsDualFarmImpl",
        "label": "totalEarned",
        "offset": 0,
        "slot": "29",
        "type": "t_array(t_uint256)2_storage"
      },
      {
        "astId": 28423,
        "contract": "contracts/farm/BrewlabsDualFarmImpl.sol:BrewlabsDualFarmImpl",
        "label": "totalRewardStaked",
        "offset": 0,
        "slot": "31",
        "type": "t_array(t_uint256)2_storage"
      },
      {
        "astId": 28427,
        "contract": "contracts/farm/BrewlabsDualFarmImpl.sol:BrewlabsDualFarmImpl",
        "label": "paidRewards",
        "offset": 0,
        "slot": "33",
        "type": "t_array(t_uint256)2_storage"
      },
      {
        "astId": 28431,
        "contract": "contracts/farm/BrewlabsDualFarmImpl.sol:BrewlabsDualFarmImpl",
        "label": "shouldTotalPaid",
        "offset": 0,
        "slot": "35",
        "type": "t_array(t_uint256)2_storage"
      }
    ],
    "types": {
      "t_address": {
        "encoding": "inplace",
        "label": "address",
        "numberOfBytes": "20"
      },
      "t_array(t_contract(IERC20)3296)2_storage": {
        "base": "t_contract(IERC20)3296",
        "encoding": "inplace",
        "label": "contract IERC20[2]",
        "numberOfBytes": "64"
      },
      "t_array(t_uint256)2_storage": {
        "base": "t_uint256",
        "encoding": "inplace",
        "label": "uint256[2]",
        "numberOfBytes": "64"
      },
      "t_bool": {
        "encoding": "inplace",
        "label": "bool",
        "numberOfBytes": "1"
      },
      "t_contract(IERC20)3296": {
        "encoding": "inplace",
        "label": "contract IERC20",
        "numberOfBytes": "20"
      },
      "t_mapping(t_address,t_struct(UserInfo)28408_storage)": {
        "encoding": "mapping",
        "key": "t_address",
        "label": "mapping(address => struct BrewlabsDualFarmImpl.UserInfo)",
        "numberOfBytes": "32",
        "value": "t_struct(UserInfo)28408_storage"
      },
      "t_struct(UserInfo)28408_storage": {
        "encoding": "inplace",
        "label": "struct BrewlabsDualFarmImpl.UserInfo",
        "members": [
          {
            "astId": 28403,
            "contract": "contracts/farm/BrewlabsDualFarmImpl.sol:BrewlabsDualFarmImpl",
            "label": "amount",
            "offset": 0,
            "slot": "0",
            "type": "t_uint256"
          },
          {
            "astId": 28405,
            "contract": "contracts/farm/BrewlabsDualFarmImpl.sol:BrewlabsDualFarmImpl",
            "label": "rewardDebt",
            "offset": 0,
            "slot": "1",
            "type": "t_uint256"
          },
          {
            "astId": 28407,
            "contract": "contracts/farm/BrewlabsDualFarmImpl.sol:BrewlabsDualFarmImpl",
            "label": "rewardDebt1",
            "offset": 0,
            "slot": "2",
            "type": "t_uint256"
          }
        ],
        "numberOfBytes": "96"
      },
      "t_uint256": {
        "encoding": "inplace",
        "label": "uint256",
        "numberOfBytes": "32"
      }
    }
  }
}