{
  "address": "0x1Fc4b516f586728eee58efD656d1c35b5d431B68",
  "abi": [
    {
      "inputs": [],
      "stateMutability": "nonpayable",
      "type": "constructor"
    },
    {
      "anonymous": false,
      "inputs": [
        {
          "indexed": true,
          "internalType": "address",
          "name": "farm",
          "type": "address"
        },
        {
          "indexed": false,
          "internalType": "uint256",
          "name": "category",
          "type": "uint256"
        },
        {
          "indexed": false,
          "internalType": "uint256",
          "name": "version",
          "type": "uint256"
        },
        {
          "indexed": false,
          "internalType": "address",
          "name": "lpToken",
          "type": "address"
        },
        {
          "indexed": false,
          "internalType": "address",
          "name": "rewardToken",
          "type": "address"
        },
        {
          "indexed": false,
          "internalType": "address",
          "name": "dividendToken",
          "type": "address"
        },
        {
          "indexed": false,
          "internalType": "uint256",
          "name": "rewardPerBlock",
          "type": "uint256"
        },
        {
          "indexed": false,
          "internalType": "uint256",
          "name": "depositFee",
          "type": "uint256"
        },
        {
          "indexed": false,
          "internalType": "uint256",
          "name": "withdrawFee",
          "type": "uint256"
        },
        {
          "indexed": false,
          "internalType": "bool",
          "name": "hasDividend",
          "type": "bool"
        },
        {
          "indexed": false,
          "internalType": "address",
          "name": "deployer",
          "type": "address"
        }
      ],
      "name": "FarmCreated",
      "type": "event"
    },
    {
      "anonymous": false,
      "inputs": [
        {
          "indexed": false,
          "internalType": "uint8",
          "name": "version",
          "type": "uint8"
        }
      ],
      "name": "Initialized",
      "type": "event"
    },
    {
      "anonymous": false,
      "inputs": [
        {
          "indexed": true,
          "internalType": "address",
          "name": "previousOwner",
          "type": "address"
        },
        {
          "indexed": true,
          "internalType": "address",
          "name": "newOwner",
          "type": "address"
        }
      ],
      "name": "OwnershipTransferred",
      "type": "event"
    },
    {
      "anonymous": false,
      "inputs": [
        {
          "indexed": false,
          "internalType": "address",
          "name": "newOwner",
          "type": "address"
        }
      ],
      "name": "SetFarmOwner",
      "type": "event"
    },
    {
      "anonymous": false,
      "inputs": [
        {
          "indexed": false,
          "internalType": "uint256",
          "name": "category",
          "type": "uint256"
        },
        {
          "indexed": false,
          "internalType": "address",
          "name": "impl",
          "type": "address"
        },
        {
          "indexed": false,
          "internalType": "uint256",
          "name": "version",
          "type": "uint256"
        }
      ],
      "name": "SetImplementation",
      "type": "event"
    },
    {
      "anonymous": false,
      "inputs": [
        {
          "indexed": false,
          "internalType": "address",
          "name": "token",
          "type": "address"
        },
        {
          "indexed": false,
          "internalType": "uint256",
          "name": "price",
          "type": "uint256"
        }
      ],
      "name": "SetPayingInfo",
      "type": "event"
    },
    {
      "anonymous": false,
      "inputs": [
        {
          "indexed": false,
          "internalType": "address",
          "name": "addr",
          "type": "address"
        }
      ],
      "name": "TreasuryChanged",
      "type": "event"
    },
    {
      "anonymous": false,
      "inputs": [
        {
          "indexed": true,
          "internalType": "address",
          "name": "account",
          "type": "address"
        },
        {
          "indexed": false,
          "internalType": "bool",
          "name": "isWhitelisted",
          "type": "bool"
        }
      ],
      "name": "Whitelisted",
      "type": "event"
    },
    {
      "inputs": [
        {
          "internalType": "address",
          "name": "_addr",
          "type": "address"
        }
      ],
      "name": "addToWhitelist",
      "outputs": [],
      "stateMutability": "nonpayable",
      "type": "function"
    },
    {
      "inputs": [
        {
          "internalType": "address",
          "name": "lpToken",
          "type": "address"
        },
        {
          "internalType": "address",
          "name": "rewardToken",
          "type": "address"
        },
        {
          "internalType": "address",
          "name": "dividendToken",
          "type": "address"
        },
        {
          "internalType": "uint256",
          "name": "rewardPerBlock",
          "type": "uint256"
        },
        {
          "internalType": "uint256",
          "name": "depositFee",
          "type": "uint256"
        },
        {
          "internalType": "uint256",
          "name": "withdrawFee",
          "type": "uint256"
        },
        {
          "internalType": "uint256",
          "name": "duration",
          "type": "uint256"
        },
        {
          "internalType": "bool",
          "name": "hasDividend",
          "type": "bool"
        }
      ],
      "name": "createBrewlabsFarm",
      "outputs": [
        {
          "internalType": "address",
          "name": "farm",
          "type": "address"
        }
      ],
      "stateMutability": "payable",
      "type": "function"
    },
    {
      "inputs": [],
      "name": "farmCount",
      "outputs": [
        {
          "internalType": "uint256",
          "name": "",
          "type": "uint256"
        }
      ],
      "stateMutability": "view",
      "type": "function"
    },
    {
      "inputs": [],
      "name": "farmDefaultOwner",
      "outputs": [
        {
          "internalType": "address",
          "name": "",
          "type": "address"
        }
      ],
      "stateMutability": "view",
      "type": "function"
    },
    {
      "inputs": [
        {
          "internalType": "uint256",
          "name": "",
          "type": "uint256"
        }
      ],
      "name": "farmInfo",
      "outputs": [
        {
          "internalType": "address",
          "name": "farm",
          "type": "address"
        },
        {
          "internalType": "uint256",
          "name": "category",
          "type": "uint256"
        },
        {
          "internalType": "uint256",
          "name": "version",
          "type": "uint256"
        },
        {
          "internalType": "address",
          "name": "lpToken",
          "type": "address"
        },
        {
          "internalType": "address",
          "name": "rewardToken",
          "type": "address"
        },
        {
          "internalType": "address",
          "name": "dividendToken",
          "type": "address"
        },
        {
          "internalType": "bool",
          "name": "hasDividend",
          "type": "bool"
        },
        {
          "internalType": "address",
          "name": "deployer",
          "type": "address"
        },
        {
          "internalType": "uint256",
          "name": "createdAt",
          "type": "uint256"
        }
      ],
      "stateMutability": "view",
      "type": "function"
    },
    {
      "inputs": [
        {
          "internalType": "uint256",
          "name": "",
          "type": "uint256"
        }
      ],
      "name": "implementation",
      "outputs": [
        {
          "internalType": "address",
          "name": "",
          "type": "address"
        }
      ],
      "stateMutability": "view",
      "type": "function"
    },
    {
      "inputs": [
        {
          "internalType": "address",
          "name": "impl",
          "type": "address"
        },
        {
          "internalType": "address",
          "name": "token",
          "type": "address"
        },
        {
          "internalType": "uint256",
          "name": "price",
          "type": "uint256"
        },
        {
          "internalType": "address",
          "name": "farmOwner",
          "type": "address"
        }
      ],
      "name": "initialize",
      "outputs": [],
      "stateMutability": "nonpayable",
      "type": "function"
    },
    {
      "inputs": [],
      "name": "owner",
      "outputs": [
        {
          "internalType": "address",
          "name": "",
          "type": "address"
        }
      ],
      "stateMutability": "view",
      "type": "function"
    },
    {
      "inputs": [],
      "name": "payingToken",
      "outputs": [
        {
          "internalType": "address",
          "name": "",
          "type": "address"
        }
      ],
      "stateMutability": "view",
      "type": "function"
    },
    {
      "inputs": [
        {
          "internalType": "address",
          "name": "_addr",
          "type": "address"
        }
      ],
      "name": "removeFromWhitelist",
      "outputs": [],
      "stateMutability": "nonpayable",
      "type": "function"
    },
    {
      "inputs": [],
      "name": "renounceOwnership",
      "outputs": [],
      "stateMutability": "nonpayable",
      "type": "function"
    },
    {
      "inputs": [
        {
          "internalType": "address",
          "name": "_token",
          "type": "address"
        }
      ],
      "name": "rescueTokens",
      "outputs": [],
      "stateMutability": "nonpayable",
      "type": "function"
    },
    {
      "inputs": [],
      "name": "serviceFee",
      "outputs": [
        {
          "internalType": "uint256",
          "name": "",
          "type": "uint256"
        }
      ],
      "stateMutability": "view",
      "type": "function"
    },
    {
      "inputs": [
        {
          "internalType": "address",
          "name": "newOwner",
          "type": "address"
        }
      ],
      "name": "setFarmOwner",
      "outputs": [],
      "stateMutability": "nonpayable",
      "type": "function"
    },
    {
      "inputs": [
        {
          "internalType": "uint256",
          "name": "category",
          "type": "uint256"
        },
        {
          "internalType": "address",
          "name": "impl",
          "type": "address"
        }
      ],
      "name": "setImplementation",
      "outputs": [],
      "stateMutability": "nonpayable",
      "type": "function"
    },
    {
      "inputs": [
        {
          "internalType": "address",
          "name": "token",
          "type": "address"
        }
      ],
      "name": "setPayingToken",
      "outputs": [],
      "stateMutability": "nonpayable",
      "type": "function"
    },
    {
      "inputs": [
        {
          "internalType": "uint256",
          "name": "fee",
          "type": "uint256"
        }
      ],
      "name": "setServiceFee",
      "outputs": [],
      "stateMutability": "nonpayable",
      "type": "function"
    },
    {
      "inputs": [
        {
          "internalType": "address",
          "name": "newTreasury",
          "type": "address"
        }
      ],
      "name": "setTreasury",
      "outputs": [],
      "stateMutability": "nonpayable",
      "type": "function"
    },
    {
      "inputs": [
        {
          "internalType": "address",
          "name": "newOwner",
          "type": "address"
        }
      ],
      "name": "transferOwnership",
      "outputs": [],
      "stateMutability": "nonpayable",
      "type": "function"
    },
    {
      "inputs": [],
      "name": "treasury",
      "outputs": [
        {
          "internalType": "address",
          "name": "",
          "type": "address"
        }
      ],
      "stateMutability": "view",
      "type": "function"
    },
    {
      "inputs": [
        {
          "internalType": "uint256",
          "name": "",
          "type": "uint256"
        }
      ],
      "name": "version",
      "outputs": [
        {
          "internalType": "uint256",
          "name": "",
          "type": "uint256"
        }
      ],
      "stateMutability": "view",
      "type": "function"
    },
    {
      "inputs": [
        {
          "internalType": "address",
          "name": "",
          "type": "address"
        }
      ],
      "name": "whitelist",
      "outputs": [
        {
          "internalType": "bool",
          "name": "",
          "type": "bool"
        }
      ],
      "stateMutability": "view",
      "type": "function"
    },
    {
      "stateMutability": "payable",
      "type": "receive"
    }
  ],
  "transactionHash": "0xeb4785010d71ef8dd4af3b90fd15134ea0eca27ddc6112937417f2a7f54d035a",
  "args": [],
  "numDeployments": 1,
  "solcInputHash": "bd10ea9c6c34aedc02a9aa53ef42df38",
  "bytecode": "0x608060405234801561001057600080fd5b50611a37806100206000396000f3fe6080604052600436106101385760003560e01c80638da5cb5b116100ab578063d3cbde311161006f578063d3cbde31146103c0578063e43252d7146103ed578063f083b0961461040d578063f0f442601461042d578063f2fde38b1461044d578063ff4f45791461046d57600080fd5b80638da5cb5b146102ec5780639b19251a1461030a578063ac5632ae1461034a578063ac9a0b261461036a578063be203094146103a057600080fd5b80635cdf76f8116100fd5780635cdf76f8146101ea57806361d027b31461020a578063715018a61461022a5780637d21c9671461023f5780638ab1d681146102b65780638abdf5aa146102d657600080fd5b8062ae3bf8146101445780630848818b146101665780630a8e214c1461018657806320e3f160146101aa578063555d6331146101ca57600080fd5b3661013f57005b600080fd5b34801561015057600080fd5b5061016461015f3660046116f9565b61048d565b005b34801561017257600080fd5b506101646101813660046116f9565b610562565b34801561019257600080fd5b50606b545b6040519081526020015b60405180910390f35b6101bd6101b8366004611729565b6105c6565b6040516101a191906117a8565b3480156101d657600080fd5b506068546101bd906001600160a01b031681565b3480156101f657600080fd5b506101646102053660046117bc565b610bc6565b34801561021657600080fd5b50606a546101bd906001600160a01b031681565b34801561023657600080fd5b50610164610c12565b34801561024b57600080fd5b5061025f61025a3660046117bc565b610c26565b604080516001600160a01b039a8b168152602081019990995288019690965293871660608701529186166080860152851660a0850152151560c084015290921660e0820152610100810191909152610120016101a1565b3480156102c257600080fd5b506101646102d13660046116f9565b610c9b565b3480156102e257600080fd5b5061019760695481565b3480156102f857600080fd5b506033546001600160a01b03166101bd565b34801561031657600080fd5b5061033a6103253660046116f9565b606c6020526000908152604090205460ff1681565b60405190151581526020016101a1565b34801561035657600080fd5b506067546101bd906001600160a01b031681565b34801561037657600080fd5b506101bd6103853660046117bc565b6065602052600090815260409020546001600160a01b031681565b3480156103ac57600080fd5b506101646103bb3660046117d5565b610cf9565b3480156103cc57600080fd5b506101976103db3660046117bc565b60666020526000908152604090205481565b3480156103f957600080fd5b506101646104083660046116f9565b610f0d565b34801561041957600080fd5b50610164610428366004611822565b610f6c565b34801561043957600080fd5b506101646104483660046116f9565b611024565b34801561045957600080fd5b506101646104683660046116f9565b61109d565b34801561047957600080fd5b506101646104883660046116f9565b611113565b61049561118c565b6001600160a01b0381166104d7576040514790339082156108fc029083906000818181858888f193505050501580156104d2573d6000803e3d6000fd5b505050565b6040516370a0823160e01b81526000906001600160a01b038316906370a08231906105069030906004016117a8565b602060405180830381865afa158015610523573d6000803e3d6000fd5b505050506040513d601f19601f82011682018060405250810190610547919061184e565b905061055d6001600160a01b03831633836111e6565b505b50565b61056a61118c565b606880546001600160a01b0319166001600160a01b0383169081179091556069546040517fff99838ad48c26fbba7c9103c33d60b6e6fe5c9e3e5f82592ffcea51777fccec926105bb929091611867565b60405180910390a150565b600080805260656020527fffdfc1249c027f9191656349feb0761381bb32c9f557e01f419fd08754bf5a1b5481906001600160a01b03166106445760405162461bcd60e51b8152602060048201526013602482015272139bdd081a5b9a5d1a585b1a5e9959081e595d606a1b60448201526064015b60405180910390fd5b893b63ffffffff1661068b5760405162461bcd60e51b815260206004820152601060248201526f24b73b30b634b2102628103a37b5b2b760811b604482015260640161063b565b883b63ffffffff166106d65760405162461bcd60e51b815260206004820152601460248201527324b73b30b634b2103932bbb0b932103a37b5b2b760611b604482015260640161063b565b6107d086111561071e5760405162461bcd60e51b8152602060048201526013602482015272496e76616c6964206465706f7369742066656560681b604482015260640161063b565b6107d08511156107675760405162461bcd60e51b8152602060048201526014602482015273496e76616c69642077697468647261772066656560601b604482015260640161063b565b336000908152606c602052604090205460ff166107865761078661123c565b6040516bffffffffffffffffffffffff1933606090811b821660208401528c811b821660348401528b901b166048820152605c810185905243607c82015242609c82015260009060bc0160408051601f1981840301815291815281516020928301206000858152606590935291205490915061080b906001600160a01b0316826112ef565b6067546040516001600160a01b038e811660248301528d811660448301528c81166064830152608482018c905260a482018b905260c482018a905260e4820189905287151561010483015291821661012482015233610144820152919450600091908516906101640160408051601f198184030181529181526020820180516001600160e01b0316632e1da2d360e21b179052516108a991906118ac565b6000604051808303816000865af19150503d80600081146108e6576040519150601f19603f3d011682016040523d82523d6000602084013e6108eb565b606091505b50509050806109345760405162461bcd60e51b8152602060048201526015602482015274125b9a5d1a585b1a5e985d1a5bdb8819985a5b1959605a1b604482015260640161063b565b606b604051806101200160405280866001600160a01b03168152602001858152602001606660008781526020019081526020016000205481526020018e6001600160a01b031681526020018d6001600160a01b031681526020018c6001600160a01b031681526020018715158152602001336001600160a01b0316815260200142815250908060018154018082558091505060019003906000526020600020906008020160009091909190915060008201518160000160006101000a8154816001600160a01b0302191690836001600160a01b03160217905550602082015181600101556040820151816002015560608201518160030160006101000a8154816001600160a01b0302191690836001600160a01b0316021790555060808201518160040160006101000a8154816001600160a01b0302191690836001600160a01b0316021790555060a08201518160050160006101000a8154816001600160a01b0302191690836001600160a01b0316021790555060c08201518160050160146101000a81548160ff02191690831515021790555060e08201518160060160006101000a8154816001600160a01b0302191690836001600160a01b0316021790555061010082015181600701555050836001600160a01b03167f291594bf848cf673f10ea826b105148a36e8edb4099db9f6c125b0c798a01b638460666000878152602001908152602001600020548f8f8f8f8f8f8e33604051610baf9a99989796959493929190998a5260208a01989098526001600160a01b0396871660408a01529486166060890152928516608088015260a087019190915260c086015260e08501521515610100840152166101208201526101400190565b60405180910390a250505098975050505050505050565b610bce61118c565b60698190556068546040517fff99838ad48c26fbba7c9103c33d60b6e6fe5c9e3e5f82592ffcea51777fccec916105bb916001600160a01b03909116908490611867565b610c1a61118c565b610c24600061138c565b565b606b8181548110610c3657600080fd5b6000918252602090912060089091020180546001820154600283015460038401546004850154600586015460068701546007909701546001600160a01b03968716985094969395928316949183169383821693600160a01b90920460ff169291169089565b610ca361118c565b6001600160a01b0381166000818152606c60209081526040808320805460ff19169055519182527fa54714518c5d275fdcd3d2a461e4858e4e8cb04fb93cd0bca9d6d34115f2644091015b60405180910390a250565b600054610100900460ff1615808015610d195750600054600160ff909116105b80610d335750303b158015610d33575060005460ff166001145b610d965760405162461bcd60e51b815260206004820152602e60248201527f496e697469616c697a61626c653a20636f6e747261637420697320616c72656160448201526d191e481a5b9a5d1a585b1a5e995960921b606482015260840161063b565b6000805460ff191660011790558015610db9576000805461ff0019166101001790555b6001600160a01b038516610ddf5760405162461bcd60e51b815260040161063b906118c8565b610de76113de565b606880546001600160a01b038087166001600160a01b0319928316179092556069859055606a80548584169083168117909155606780548316909117905560008080527fffdfc1249c027f9191656349feb0761381bb32c9f557e01f419fd08754bf5a1b805493891693909216929092179055606660205260017f6f48904484b35701cf1f41ad9068b394adf7e2f8a59d2309a04d10a155eaa72b8190556040517fbac8f345f4aec25f8181306d1e285bd71897176374cea36669605788ca57b29592610eb89290918991906118f8565b60405180910390a18015610f06576000805461ff0019169055604051600181527f7f26b83ff96e1f2b6a682f133852f6798a09c465da95921460cefb38474024989060200160405180910390a15b5050505050565b610f1561118c565b6001600160a01b0381166000818152606c6020908152604091829020805460ff1916600190811790915591519182527fa54714518c5d275fdcd3d2a461e4858e4e8cb04fb93cd0bca9d6d34115f264409101610cee565b610f7461118c565b803b63ffffffff16610f985760405162461bcd60e51b815260040161063b906118c8565b600082815260656020908152604080832080546001600160a01b0319166001600160a01b0386161790556066909152902054610fd5906001611917565b60008381526066602052604090819020829055517fbac8f345f4aec25f8181306d1e285bd71897176374cea36669605788ca57b2959161101891859185916118f8565b60405180910390a15050565b61102c61118c565b6001600160a01b0381166110525760405162461bcd60e51b815260040161063b9061193d565b606a80546001600160a01b0319166001600160a01b0383161790556040517fc714d22a2f08b695f81e7c707058db484aa5b4d6b4c9fd64beb10fe85832f608906105bb9083906117a8565b6110a561118c565b6001600160a01b03811661110a5760405162461bcd60e51b815260206004820152602660248201527f4f776e61626c653a206e6577206f776e657220697320746865207a65726f206160448201526564647265737360d01b606482015260840161063b565b61055f8161138c565b61111b61118c565b6001600160a01b0381166111415760405162461bcd60e51b815260040161063b9061193d565b606780546001600160a01b0319166001600160a01b0383161790556040517f3e225b2fbe91a9a2189df9845b346f257b4b08473077dced6862a7c5c0289de5906105bb9083906117a8565b6033546001600160a01b03163314610c245760405162461bcd60e51b815260206004820181905260248201527f4f776e61626c653a2063616c6c6572206973206e6f7420746865206f776e6572604482015260640161063b565b6104d28363a9059cbb60e01b8484604051602401611205929190611867565b60408051601f198184030181529190526020810180516001600160e01b03166001600160e01b03199093169290921790915261140d565b6068546001600160a01b03166112cb5760695434101561128f5760405162461bcd60e51b815260206004820152600e60248201526d4e6f7420656e6f7567682066656560901b604482015260640161063b565b606a546069546040516001600160a01b039092169181156108fc0291906000818181858888f1935050505015801561055f573d6000803e3d6000fd5b606a54606954606854610c24926001600160a01b03918216923392909116906114df565b6000763d602d80600a3d3981f3363d3d373d3d3d363d730000008360601b60e81c176000526e5af43d82803e903d91602b57fd5bf38360781b1760205281603760096000f590506001600160a01b0381166113865760405162461bcd60e51b8152602060048201526017602482015276115490cc4c4d8dce8818dc99585d194c8819985a5b1959604a1b604482015260640161063b565b92915050565b603380546001600160a01b038381166001600160a01b0319831681179093556040519116919082907f8be0079c531659141344cd1fd0a4f28419497f9722a3daafe3b4186f6b6457e090600090a35050565b600054610100900460ff166114055760405162461bcd60e51b815260040161063b90611966565b610c2461151d565b6000611462826040518060400160405280602081526020017f5361666545524332303a206c6f772d6c6576656c2063616c6c206661696c6564815250856001600160a01b031661154d9092919063ffffffff16565b8051909150156104d2578080602001905181019061148091906119b1565b6104d25760405162461bcd60e51b815260206004820152602a60248201527f5361666545524332303a204552433230206f7065726174696f6e20646964206e6044820152691bdd081cdd58d8d9595960b21b606482015260840161063b565b6040516001600160a01b03808516602483015283166044820152606481018290526115179085906323b872dd60e01b90608401611205565b50505050565b600054610100900460ff166115445760405162461bcd60e51b815260040161063b90611966565b610c243361138c565b606061155c8484600085611564565b949350505050565b6060824710156115c55760405162461bcd60e51b815260206004820152602660248201527f416464726573733a20696e73756666696369656e742062616c616e636520666f6044820152651c8818d85b1b60d21b606482015260840161063b565b600080866001600160a01b031685876040516115e191906118ac565b60006040518083038185875af1925050503d806000811461161e576040519150601f19603f3d011682016040523d82523d6000602084013e611623565b606091505b50915091506116348783838761163f565b979650505050505050565b606083156116ae5782516000036116a7576001600160a01b0385163b6116a75760405162461bcd60e51b815260206004820152601d60248201527f416464726573733a2063616c6c20746f206e6f6e2d636f6e7472616374000000604482015260640161063b565b508161155c565b61155c83838151156116c35781518083602001fd5b8060405162461bcd60e51b815260040161063b91906119ce565b80356001600160a01b03811681146116f457600080fd5b919050565b60006020828403121561170b57600080fd5b611714826116dd565b9392505050565b801515811461055f57600080fd5b600080600080600080600080610100898b03121561174657600080fd5b61174f896116dd565b975061175d60208a016116dd565b965061176b60408a016116dd565b9550606089013594506080890135935060a0890135925060c0890135915060e08901356117978161171b565b809150509295985092959890939650565b6001600160a01b0391909116815260200190565b6000602082840312156117ce57600080fd5b5035919050565b600080600080608085870312156117eb57600080fd5b6117f4856116dd565b9350611802602086016116dd565b925060408501359150611817606086016116dd565b905092959194509250565b6000806040838503121561183557600080fd5b82359150611845602084016116dd565b90509250929050565b60006020828403121561186057600080fd5b5051919050565b6001600160a01b03929092168252602082015260400190565b60005b8381101561189b578181015183820152602001611883565b838111156115175750506000910152565b600082516118be818460208701611880565b9190910192915050565b60208082526016908201527524b73b30b634b21034b6b83632b6b2b73a30ba34b7b760511b604082015260600190565b9283526001600160a01b03919091166020830152604082015260600190565b6000821982111561193857634e487b7160e01b600052601160045260246000fd5b500190565b6020808252600f908201526e496e76616c6964206164647265737360881b604082015260600190565b6020808252602b908201527f496e697469616c697a61626c653a20636f6e7472616374206973206e6f74206960408201526a6e697469616c697a696e6760a81b606082015260800190565b6000602082840312156119c357600080fd5b81516117148161171b565b60208152600082518060208401526119ed816040850160208701611880565b601f01601f1916919091016040019291505056fea26469706673582212203f46dc350b778eaa69060b5ab24eb7e4369c0c51e36fa5245bb5da5633d4d0fb64736f6c634300080e0033",
  "devdoc": {
    "kind": "dev",
    "methods": {
      "owner()": {
        "details": "Returns the address of the current owner."
      },
      "renounceOwnership()": {
        "details": "Leaves the contract without owner. It will not be possible to call `onlyOwner` functions anymore. Can only be called by the current owner. NOTE: Renouncing ownership will leave the contract without an owner, thereby removing any functionality that is only available to the owner."
      },
      "rescueTokens(address)": {
        "params": {
          "_token": ": token address"
        }
      },
      "transferOwnership(address)": {
        "details": "Transfers ownership of the contract to a new account (`newOwner`). Can only be called by the current owner."
      }
    },
    "version": 1
  },
  "userdoc": {
    "kind": "user",
    "methods": {
      "rescueTokens(address)": {
        "notice": "Emergency withdraw tokens."
      }
    },
    "version": 1
  },
  "storageLayout": {
    "storage": [
      {
        "astId": 387,
        "contract": "contracts/farm/BrewlabsFarmFactory.sol:BrewlabsFarmFactory",
        "label": "_initialized",
        "offset": 0,
        "slot": "0",
        "type": "t_uint8"
      },
      {
        "astId": 390,
        "contract": "contracts/farm/BrewlabsFarmFactory.sol:BrewlabsFarmFactory",
        "label": "_initializing",
        "offset": 1,
        "slot": "0",
        "type": "t_bool"
      },
      {
        "astId": 874,
        "contract": "contracts/farm/BrewlabsFarmFactory.sol:BrewlabsFarmFactory",
        "label": "__gap",
        "offset": 0,
        "slot": "1",
        "type": "t_array(t_uint256)50_storage"
      },
      {
        "astId": 259,
        "contract": "contracts/farm/BrewlabsFarmFactory.sol:BrewlabsFarmFactory",
        "label": "_owner",
        "offset": 0,
        "slot": "51",
        "type": "t_address"
      },
      {
        "astId": 379,
        "contract": "contracts/farm/BrewlabsFarmFactory.sol:BrewlabsFarmFactory",
        "label": "__gap",
        "offset": 0,
        "slot": "52",
        "type": "t_array(t_uint256)49_storage"
      },
      {
        "astId": 25507,
        "contract": "contracts/farm/BrewlabsFarmFactory.sol:BrewlabsFarmFactory",
        "label": "implementation",
        "offset": 0,
        "slot": "101",
        "type": "t_mapping(t_uint256,t_address)"
      },
      {
        "astId": 25511,
        "contract": "contracts/farm/BrewlabsFarmFactory.sol:BrewlabsFarmFactory",
        "label": "version",
        "offset": 0,
        "slot": "102",
        "type": "t_mapping(t_uint256,t_uint256)"
      },
      {
        "astId": 25513,
        "contract": "contracts/farm/BrewlabsFarmFactory.sol:BrewlabsFarmFactory",
        "label": "farmDefaultOwner",
        "offset": 0,
        "slot": "103",
        "type": "t_address"
      },
      {
        "astId": 25515,
        "contract": "contracts/farm/BrewlabsFarmFactory.sol:BrewlabsFarmFactory",
        "label": "payingToken",
        "offset": 0,
        "slot": "104",
        "type": "t_address"
      },
      {
        "astId": 25517,
        "contract": "contracts/farm/BrewlabsFarmFactory.sol:BrewlabsFarmFactory",
        "label": "serviceFee",
        "offset": 0,
        "slot": "105",
        "type": "t_uint256"
      },
      {
        "astId": 25519,
        "contract": "contracts/farm/BrewlabsFarmFactory.sol:BrewlabsFarmFactory",
        "label": "treasury",
        "offset": 0,
        "slot": "106",
        "type": "t_address"
      },
      {
        "astId": 25542,
        "contract": "contracts/farm/BrewlabsFarmFactory.sol:BrewlabsFarmFactory",
        "label": "farmInfo",
        "offset": 0,
        "slot": "107",
        "type": "t_array(t_struct(FarmInfo)25538_storage)dyn_storage"
      },
      {
        "astId": 25546,
        "contract": "contracts/farm/BrewlabsFarmFactory.sol:BrewlabsFarmFactory",
        "label": "whitelist",
        "offset": 0,
        "slot": "108",
        "type": "t_mapping(t_address,t_bool)"
      }
    ],
    "types": {
      "t_address": {
        "encoding": "inplace",
        "label": "address",
        "numberOfBytes": "20"
      },
      "t_array(t_struct(FarmInfo)25538_storage)dyn_storage": {
        "base": "t_struct(FarmInfo)25538_storage",
        "encoding": "dynamic_array",
        "label": "struct BrewlabsFarmFactory.FarmInfo[]",
        "numberOfBytes": "32"
      },
      "t_array(t_uint256)49_storage": {
        "base": "t_uint256",
        "encoding": "inplace",
        "label": "uint256[49]",
        "numberOfBytes": "1568"
      },
      "t_array(t_uint256)50_storage": {
        "base": "t_uint256",
        "encoding": "inplace",
        "label": "uint256[50]",
        "numberOfBytes": "1600"
      },
      "t_bool": {
        "encoding": "inplace",
        "label": "bool",
        "numberOfBytes": "1"
      },
      "t_mapping(t_address,t_bool)": {
        "encoding": "mapping",
        "key": "t_address",
        "label": "mapping(address => bool)",
        "numberOfBytes": "32",
        "value": "t_bool"
      },
      "t_mapping(t_uint256,t_address)": {
        "encoding": "mapping",
        "key": "t_uint256",
        "label": "mapping(uint256 => address)",
        "numberOfBytes": "32",
        "value": "t_address"
      },
      "t_mapping(t_uint256,t_uint256)": {
        "encoding": "mapping",
        "key": "t_uint256",
        "label": "mapping(uint256 => uint256)",
        "numberOfBytes": "32",
        "value": "t_uint256"
      },
      "t_struct(FarmInfo)25538_storage": {
        "encoding": "inplace",
        "label": "struct BrewlabsFarmFactory.FarmInfo",
        "members": [
          {
            "astId": 25521,
            "contract": "contracts/farm/BrewlabsFarmFactory.sol:BrewlabsFarmFactory",
            "label": "farm",
            "offset": 0,
            "slot": "0",
            "type": "t_address"
          },
          {
            "astId": 25523,
            "contract": "contracts/farm/BrewlabsFarmFactory.sol:BrewlabsFarmFactory",
            "label": "category",
            "offset": 0,
            "slot": "1",
            "type": "t_uint256"
          },
          {
            "astId": 25525,
            "contract": "contracts/farm/BrewlabsFarmFactory.sol:BrewlabsFarmFactory",
            "label": "version",
            "offset": 0,
            "slot": "2",
            "type": "t_uint256"
          },
          {
            "astId": 25527,
            "contract": "contracts/farm/BrewlabsFarmFactory.sol:BrewlabsFarmFactory",
            "label": "lpToken",
            "offset": 0,
            "slot": "3",
            "type": "t_address"
          },
          {
            "astId": 25529,
            "contract": "contracts/farm/BrewlabsFarmFactory.sol:BrewlabsFarmFactory",
            "label": "rewardToken",
            "offset": 0,
            "slot": "4",
            "type": "t_address"
          },
          {
            "astId": 25531,
            "contract": "contracts/farm/BrewlabsFarmFactory.sol:BrewlabsFarmFactory",
            "label": "dividendToken",
            "offset": 0,
            "slot": "5",
            "type": "t_address"
          },
          {
            "astId": 25533,
            "contract": "contracts/farm/BrewlabsFarmFactory.sol:BrewlabsFarmFactory",
            "label": "hasDividend",
            "offset": 20,
            "slot": "5",
            "type": "t_bool"
          },
          {
            "astId": 25535,
            "contract": "contracts/farm/BrewlabsFarmFactory.sol:BrewlabsFarmFactory",
            "label": "deployer",
            "offset": 0,
            "slot": "6",
            "type": "t_address"
          },
          {
            "astId": 25537,
            "contract": "contracts/farm/BrewlabsFarmFactory.sol:BrewlabsFarmFactory",
            "label": "createdAt",
            "offset": 0,
            "slot": "7",
            "type": "t_uint256"
          }
        ],
        "numberOfBytes": "256"
      },
      "t_uint256": {
        "encoding": "inplace",
        "label": "uint256",
        "numberOfBytes": "32"
      },
      "t_uint8": {
        "encoding": "inplace",
        "label": "uint8",
        "numberOfBytes": "1"
      }
    }
  }
}