{
  "address": "0x1602fa38A7Fc0A9Fa166EcA5eF7416b1e7991c81",
  "abi": [
    {
      "inputs": [],
      "stateMutability": "nonpayable",
      "type": "constructor"
    },
    {
      "inputs": [
        {
          "internalType": "address",
          "name": "operator",
          "type": "address"
        }
      ],
      "name": "OperatorNotAllowed",
      "type": "error"
    },
    {
      "anonymous": false,
      "inputs": [
        {
          "indexed": true,
          "internalType": "address",
          "name": "owner",
          "type": "address"
        },
        {
          "indexed": true,
          "internalType": "address",
          "name": "approved",
          "type": "address"
        },
        {
          "indexed": true,
          "internalType": "uint256",
          "name": "tokenId",
          "type": "uint256"
        }
      ],
      "name": "Approval",
      "type": "event"
    },
    {
      "anonymous": false,
      "inputs": [
        {
          "indexed": true,
          "internalType": "address",
          "name": "owner",
          "type": "address"
        },
        {
          "indexed": true,
          "internalType": "address",
          "name": "operator",
          "type": "address"
        },
        {
          "indexed": false,
          "internalType": "bool",
          "name": "approved",
          "type": "bool"
        }
      ],
      "name": "ApprovalForAll",
      "type": "event"
    },
    {
      "anonymous": false,
      "inputs": [
        {
          "indexed": false,
          "internalType": "string",
          "name": "uri",
          "type": "string"
        }
      ],
      "name": "BaseURIUpdated",
      "type": "event"
    },
    {
      "anonymous": false,
      "inputs": [
        {
          "indexed": true,
          "internalType": "address",
          "name": "previousOwner",
          "type": "address"
        },
        {
          "indexed": true,
          "internalType": "address",
          "name": "newOwner",
          "type": "address"
        }
      ],
      "name": "OwnershipTransferred",
      "type": "event"
    },
    {
      "anonymous": false,
      "inputs": [
        {
          "indexed": false,
          "internalType": "address",
          "name": "newAdmin",
          "type": "address"
        }
      ],
      "name": "SetAdminRole",
      "type": "event"
    },
    {
      "anonymous": false,
      "inputs": [
        {
          "indexed": false,
          "internalType": "address",
          "name": "minter",
          "type": "address"
        },
        {
          "indexed": false,
          "internalType": "bool",
          "name": "status",
          "type": "bool"
        }
      ],
      "name": "SetMinterRole",
      "type": "event"
    },
    {
      "anonymous": false,
      "inputs": [
        {
          "indexed": true,
          "internalType": "address",
          "name": "from",
          "type": "address"
        },
        {
          "indexed": true,
          "internalType": "address",
          "name": "to",
          "type": "address"
        },
        {
          "indexed": true,
          "internalType": "uint256",
          "name": "tokenId",
          "type": "uint256"
        }
      ],
      "name": "Transfer",
      "type": "event"
    },
    {
      "inputs": [],
      "name": "OPERATOR_FILTER_REGISTRY",
      "outputs": [
        {
          "internalType": "contract IOperatorFilterRegistry",
          "name": "",
          "type": "address"
        }
      ],
      "stateMutability": "view",
      "type": "function"
    },
    {
      "inputs": [],
      "name": "admin",
      "outputs": [
        {
          "internalType": "address",
          "name": "",
          "type": "address"
        }
      ],
      "stateMutability": "view",
      "type": "function"
    },
    {
      "inputs": [
        {
          "internalType": "address",
          "name": "operator",
          "type": "address"
        },
        {
          "internalType": "uint256",
          "name": "tokenId",
          "type": "uint256"
        }
      ],
      "name": "approve",
      "outputs": [],
      "stateMutability": "nonpayable",
      "type": "function"
    },
    {
      "inputs": [
        {
          "internalType": "address",
          "name": "owner",
          "type": "address"
        }
      ],
      "name": "balanceOf",
      "outputs": [
        {
          "internalType": "uint256",
          "name": "",
          "type": "uint256"
        }
      ],
      "stateMutability": "view",
      "type": "function"
    },
    {
      "inputs": [
        {
          "internalType": "uint256",
          "name": "tokenId",
          "type": "uint256"
        }
      ],
      "name": "burn",
      "outputs": [],
      "stateMutability": "nonpayable",
      "type": "function"
    },
    {
      "inputs": [
        {
          "internalType": "uint256",
          "name": "tokenId",
          "type": "uint256"
        }
      ],
      "name": "getApproved",
      "outputs": [
        {
          "internalType": "address",
          "name": "",
          "type": "address"
        }
      ],
      "stateMutability": "view",
      "type": "function"
    },
    {
      "inputs": [
        {
          "internalType": "uint256",
          "name": "tokenId",
          "type": "uint256"
        }
      ],
      "name": "getNftInfo",
      "outputs": [
        {
          "internalType": "uint256",
          "name": "",
          "type": "uint256"
        },
        {
          "internalType": "uint256[]",
          "name": "",
          "type": "uint256[]"
        },
        {
          "internalType": "uint256",
          "name": "",
          "type": "uint256"
        },
        {
          "internalType": "address",
          "name": "",
          "type": "address"
        },
        {
          "internalType": "address",
          "name": "",
          "type": "address"
        }
      ],
      "stateMutability": "view",
      "type": "function"
    },
    {
      "inputs": [
        {
          "internalType": "address",
          "name": "owner",
          "type": "address"
        },
        {
          "internalType": "address",
          "name": "operator",
          "type": "address"
        }
      ],
      "name": "isApprovedForAll",
      "outputs": [
        {
          "internalType": "bool",
          "name": "",
          "type": "bool"
        }
      ],
      "stateMutability": "view",
      "type": "function"
    },
    {
      "inputs": [
        {
          "internalType": "address",
          "name": "",
          "type": "address"
        }
      ],
      "name": "isMinter",
      "outputs": [
        {
          "internalType": "bool",
          "name": "",
          "type": "bool"
        }
      ],
      "stateMutability": "view",
      "type": "function"
    },
    {
      "inputs": [
        {
          "internalType": "address",
          "name": "to",
          "type": "address"
        }
      ],
      "name": "mint",
      "outputs": [
        {
          "internalType": "uint256",
          "name": "",
          "type": "uint256"
        }
      ],
      "stateMutability": "nonpayable",
      "type": "function"
    },
    {
      "inputs": [],
      "name": "name",
      "outputs": [
        {
          "internalType": "string",
          "name": "",
          "type": "string"
        }
      ],
      "stateMutability": "view",
      "type": "function"
    },
    {
      "inputs": [],
      "name": "owner",
      "outputs": [
        {
          "internalType": "address",
          "name": "",
          "type": "address"
        }
      ],
      "stateMutability": "view",
      "type": "function"
    },
    {
      "inputs": [
        {
          "internalType": "uint256",
          "name": "tokenId",
          "type": "uint256"
        }
      ],
      "name": "ownerOf",
      "outputs": [
        {
          "internalType": "address",
          "name": "",
          "type": "address"
        }
      ],
      "stateMutability": "view",
      "type": "function"
    },
    {
      "inputs": [],
      "name": "renounceOwnership",
      "outputs": [],
      "stateMutability": "nonpayable",
      "type": "function"
    },
    {
      "inputs": [
        {
          "internalType": "address",
          "name": "from",
          "type": "address"
        },
        {
          "internalType": "address",
          "name": "to",
          "type": "address"
        },
        {
          "internalType": "uint256",
          "name": "tokenId",
          "type": "uint256"
        }
      ],
      "name": "safeTransferFrom",
      "outputs": [],
      "stateMutability": "nonpayable",
      "type": "function"
    },
    {
      "inputs": [
        {
          "internalType": "address",
          "name": "from",
          "type": "address"
        },
        {
          "internalType": "address",
          "name": "to",
          "type": "address"
        },
        {
          "internalType": "uint256",
          "name": "tokenId",
          "type": "uint256"
        },
        {
          "internalType": "bytes",
          "name": "data",
          "type": "bytes"
        }
      ],
      "name": "safeTransferFrom",
      "outputs": [],
      "stateMutability": "nonpayable",
      "type": "function"
    },
    {
      "inputs": [
        {
          "internalType": "address",
          "name": "newAdmin",
          "type": "address"
        }
      ],
      "name": "setAdmin",
      "outputs": [],
      "stateMutability": "nonpayable",
      "type": "function"
    },
    {
      "inputs": [
        {
          "internalType": "address",
          "name": "operator",
          "type": "address"
        },
        {
          "internalType": "bool",
          "name": "approved",
          "type": "bool"
        }
      ],
      "name": "setApprovalForAll",
      "outputs": [],
      "stateMutability": "nonpayable",
      "type": "function"
    },
    {
      "inputs": [
        {
          "internalType": "address",
          "name": "minter",
          "type": "address"
        },
        {
          "internalType": "bool",
          "name": "status",
          "type": "bool"
        }
      ],
      "name": "setMinterRole",
      "outputs": [],
      "stateMutability": "nonpayable",
      "type": "function"
    },
    {
      "inputs": [
        {
          "internalType": "string",
          "name": "_uri",
          "type": "string"
        },
        {
          "internalType": "bool",
          "name": "_useOnChain",
          "type": "bool"
        }
      ],
      "name": "setTokenBaseURI",
      "outputs": [],
      "stateMutability": "nonpayable",
      "type": "function"
    },
    {
      "inputs": [
        {
          "internalType": "bytes4",
          "name": "interfaceId",
          "type": "bytes4"
        }
      ],
      "name": "supportsInterface",
      "outputs": [
        {
          "internalType": "bool",
          "name": "",
          "type": "bool"
        }
      ],
      "stateMutability": "view",
      "type": "function"
    },
    {
      "inputs": [],
      "name": "symbol",
      "outputs": [
        {
          "internalType": "string",
          "name": "",
          "type": "string"
        }
      ],
      "stateMutability": "view",
      "type": "function"
    },
    {
      "inputs": [
        {
          "internalType": "uint256",
          "name": "index",
          "type": "uint256"
        }
      ],
      "name": "tokenByIndex",
      "outputs": [
        {
          "internalType": "uint256",
          "name": "",
          "type": "uint256"
        }
      ],
      "stateMutability": "view",
      "type": "function"
    },
    {
      "inputs": [
        {
          "internalType": "address",
          "name": "owner",
          "type": "address"
        },
        {
          "internalType": "uint256",
          "name": "index",
          "type": "uint256"
        }
      ],
      "name": "tokenOfOwnerByIndex",
      "outputs": [
        {
          "internalType": "uint256",
          "name": "",
          "type": "uint256"
        }
      ],
      "stateMutability": "view",
      "type": "function"
    },
    {
      "inputs": [
        {
          "internalType": "uint256",
          "name": "tokenId",
          "type": "uint256"
        }
      ],
      "name": "tokenURI",
      "outputs": [
        {
          "internalType": "string",
          "name": "",
          "type": "string"
        }
      ],
      "stateMutability": "view",
      "type": "function"
    },
    {
      "inputs": [],
      "name": "totalSupply",
      "outputs": [
        {
          "internalType": "uint256",
          "name": "",
          "type": "uint256"
        }
      ],
      "stateMutability": "view",
      "type": "function"
    },
    {
      "inputs": [
        {
          "internalType": "address",
          "name": "from",
          "type": "address"
        },
        {
          "internalType": "address",
          "name": "to",
          "type": "address"
        },
        {
          "internalType": "uint256",
          "name": "tokenId",
          "type": "uint256"
        }
      ],
      "name": "transferFrom",
      "outputs": [],
      "stateMutability": "nonpayable",
      "type": "function"
    },
    {
      "inputs": [
        {
          "internalType": "address",
          "name": "newOwner",
          "type": "address"
        }
      ],
      "name": "transferOwnership",
      "outputs": [],
      "stateMutability": "nonpayable",
      "type": "function"
    },
    {
      "inputs": [],
      "name": "useOnChainMetadata",
      "outputs": [
        {
          "internalType": "bool",
          "name": "",
          "type": "bool"
        }
      ],
      "stateMutability": "view",
      "type": "function"
    }
  ],
  "transactionHash": "0x74cefbbfca785937d72fdc704bb569f504c413113b9624b63b7e194cd747dc25",
  "args": [],
  "numDeployments": 1,
  "solcInputHash": "0260463c7c8cf539a785493e0f5dd08b",
  "bytecode": "0x60a06040819052600060808190526200001b91600c9162000284565b50600d805460ff60a01b1916600160a01b1790553480156200003c57600080fd5b506040805180820182526012815271109c995ddb18589cc8125b99195e0813999d60721b602080830191825283518085019094526006845265084929c888ab60d31b908401528151733cc6cdda760b79bafa08df41ecfa224f810dceb693600193929091620000ae9160009162000284565b508051620000c490600190602084019062000284565b5050506daaeb6d7670e522a718067333cd4e3b156200020c5780156200015a57604051633e9f1edf60e11b81523060048201526001600160a01b03831660248201526daaeb6d7670e522a718067333cd4e90637d3e3dbe906044015b600060405180830381600087803b1580156200013b57600080fd5b505af115801562000150573d6000803e3d6000fd5b505050506200020c565b6001600160a01b03821615620001ab5760405163a0af290360e01b81523060048201526001600160a01b03831660248201526daaeb6d7670e522a718067333cd4e9063a0af29039060440162000120565b604051632210724360e11b81523060048201526daaeb6d7670e522a718067333cd4e90634420e48690602401600060405180830381600087803b158015620001f257600080fd5b505af115801562000207573d6000803e3d6000fd5b505050505b506200021a90503362000232565b600d80546001600160a01b0319163317905562000366565b600a80546001600160a01b038381166001600160a01b0319831681179093556040519116919082907f8be0079c531659141344cd1fd0a4f28419497f9722a3daafe3b4186f6b6457e090600090a35050565b82805462000292906200032a565b90600052602060002090601f016020900481019282620002b6576000855562000301565b82601f10620002d157805160ff191683800117855562000301565b8280016001018555821562000301579182015b8281111562000301578251825591602001919060010190620002e4565b506200030f92915062000313565b5090565b5b808211156200030f576000815560010162000314565b600181811c908216806200033f57607f821691505b6020821081036200036057634e487b7160e01b600052602260045260246000fd5b50919050565b61315680620003766000396000f3fe608060405234801561001057600080fd5b506004361061018f5760003560e01c8063704b6c02116100e4578063aa271e1a11610092578063aa271e1a14610333578063b88d4fde14610356578063c87b56dd14610369578063cb177b1e1461037c578063d5ec2d831461038f578063e985e9c5146103b3578063f2fde38b146103c6578063f851a440146103d957600080fd5b8063704b6c02146102c557806370a08231146102d8578063715018a6146102eb5780638da5cb5b146102f357806395d89b411461030457806398f687031461030c578063a22cb4651461032057600080fd5b806341f434341161014157806341f434341461023e57806342842e0e1461025357806342966c68146102665780634f6ccce714610279578063603ac57e1461028c5780636352211e1461029f5780636a627842146102b257600080fd5b806301ffc9a71461019457806306fdde03146101bc578063081812fc146101d1578063095ea7b3146101f157806318160ddd1461020657806323b872dd146102185780632f745c591461022b575b600080fd5b6101a76101a23660046124b0565b6103ec565b60405190151581526020015b60405180910390f35b6101c4610417565b6040516101b39190612525565b6101e46101df366004612538565b6104a9565b6040516101b39190612551565b6102046101ff36600461257a565b6104d0565b005b6008545b6040519081526020016101b3565b6102046102263660046125a6565b6104e9565b61020a61023936600461257a565b610514565b6101e46daaeb6d7670e522a718067333cd4e81565b6102046102613660046125a6565b6105af565b610204610274366004612538565b6105d4565b61020a610287366004612538565b61063c565b61020461029a366004612692565b6106cf565b6101e46102ad366004612538565b61073e565b61020a6102c03660046126f7565b610773565b6102046102d33660046126f7565b61082b565b61020a6102e63660046126f7565b6108af565b610204610935565b600a546001600160a01b03166101e4565b6101c4610949565b600d546101a790600160a01b900460ff1681565b61020461032e366004612714565b610958565b6101a76103413660046126f7565b600e6020526000908152604090205460ff1681565b610204610364366004612742565b61096c565b6101c4610377366004612538565b610999565b61020461038a366004612714565b610f9b565b6103a261039d366004612538565b6110a3565b6040516101b39594939291906127c1565b6101a76103c136600461282d565b6111dc565b6102046103d43660046126f7565b61120a565b600d546101e4906001600160a01b031681565b60006001600160e01b0319821663780e9d6360e01b1480610411575061041182611280565b92915050565b6060600080546104269061285b565b80601f01602080910402602001604051908101604052809291908181526020018280546104529061285b565b801561049f5780601f106104745761010080835404028352916020019161049f565b820191906000526020600020905b81548152906001019060200180831161048257829003601f168201915b5050505050905090565b60006104b4826112d0565b506000908152600460205260409020546001600160a01b031690565b816104da816112f5565b6104e483836113a5565b505050565b826001600160a01b038116331461050357610503336112f5565b61050e8484846114b5565b50505050565b600061051f836108af565b82106105865760405162461bcd60e51b815260206004820152602b60248201527f455243373231456e756d657261626c653a206f776e657220696e646578206f7560448201526a74206f6620626f756e647360a81b60648201526084015b60405180910390fd5b506001600160a01b03919091166000908152600660209081526040808320938352929052205490565b826001600160a01b03811633146105c9576105c9336112f5565b61050e8484846114e6565b336105de8261073e565b6001600160a01b0316146106305760405162461bcd60e51b815260206004820152601960248201527831b0b63632b91034b9903737ba103a37b5b2b71037bbb732b960391b604482015260640161057d565b61063981611501565b50565b600061064760085490565b82106106aa5760405162461bcd60e51b815260206004820152602c60248201527f455243373231456e756d657261626c653a20676c6f62616c20696e646578206f60448201526b7574206f6620626f756e647360a01b606482015260840161057d565b600882815481106106bd576106bd612895565b90600052602060002001549050919050565b6106d7611593565b81516106ea90600c906020850190612401565b50600d805460ff60a01b1916600160a01b831515021790556040517f6741b2fc379fad678116fe3d4d4b9a1a184ab53ba36b86ad0fa66340b1ab41ad90610732908490612525565b60405180910390a15050565b6000818152600260205260408120546001600160a01b0316806104115760405162461bcd60e51b815260040161057d906128ab565b336000908152600e602052604081205460ff166107e15760405162461bcd60e51b815260206004820152602660248201527f427265776c616273496e6465784e66743a2043616c6c6572206973206e6f742060448201526536b4b73a32b960d11b606482015260840161057d565b600b80549060006107f1836128f3565b919050555061080282600b546115ed565b50600b80546000908152600f6020526040902080546001600160a01b0319163317905554919050565b610833611593565b6001600160a01b0381166108595760405162461bcd60e51b815260040161057d9061290c565b600d80546001600160a01b0319166001600160a01b0383161790556040517fbd2df64b329431f17e2f7f3c2a6665a1ba4a9517cf5d636d675496bbcc94538b906108a4908390612551565b60405180910390a150565b60006001600160a01b0382166109195760405162461bcd60e51b815260206004820152602960248201527f4552433732313a2061646472657373207a65726f206973206e6f7420612076616044820152683634b21037bbb732b960b91b606482015260840161057d565b506001600160a01b031660009081526003602052604090205490565b61093d611593565b6109476000611607565b565b6060600180546104269061285b565b81610962816112f5565b6104e48383611659565b836001600160a01b038116331461098657610986336112f5565b61099285858585611664565b5050505050565b60606109a482611696565b610a0a5760405162461bcd60e51b815260206004820152603160248201527f427265776c616273496e6465784e66743a2055524920717565727920666f72206044820152703737b732bc34b9ba32b73a103a37b5b2b760791b606482015260840161057d565b600d54600160a01b900460ff16610a5357610a236116b3565b610a2c836116c2565b604051602001610a3d929190612969565b6040516020818303038152906040529050919050565b6000610a5d6116b3565b90506000604051602001610aff907f226465736372697074696f6e223a2022427265776c61627320496e646578204e81527f46547320726570726573656e74207573657273206672616374696f6e616c697360208201527f6564206f776e657273686970206f66206120706172746963756c61722062617360408201527535b2ba1037b3103a37b5b2b7399424b73232bc14971160511b606082015260760190565b60408051601f198184030181528282526000878152600f6020908152838220546308293b6960e31b865293519295506001600160a01b039093169390928492634149db489260048082019392918290030181865afa158015610b65573d6000803e3d6000fd5b505050506040513d601f19601f82011682018060405250810190610b8991906129a5565b90506000826001600160a01b031663d5f394886040518163ffffffff1660e01b8152600401602060405180830381865afa158015610bcb573d6000803e3d6000fd5b505050506040513d601f19601f82011682018060405250810190610bef91906129be565b90506000806000856001600160a01b0316631f8bc7908b6040518263ffffffff1660e01b8152600401610c2491815260200190565b600060405180830381865afa158015610c41573d6000803e3d6000fd5b505050506040513d6000823e601f3d908101601f19168201604052610c6991908101906129db565b6040805160a0808201835260046060808401828152635261726560e01b60808087019190915290855285518087018752838152634570696360e01b602082810191909152808701919091528651808801885260098152684c6567656e6461727960b81b81830152868801528651948501875260069285019283526559656c6c6f7760d01b918501919091529083528451808601865291825263426c756560e01b8282015282810191909152835180850185526005815264426c61636b60d81b81830152828501528351808501909452600e84526d2261747472696275746573223a5b60901b9084015294975092955090935090919080838760038110610d7157610d71612895565b6020020151610d888b6001600160a01b0316611754565b610d9a8a6001600160a01b0316611754565b604051602001610dad9493929190612a95565b604051602081830303815290604052905060005b88811015610ee0576040516327b2595f60e11b8152600481018290526000906001600160a01b038c1690634f64b2be90602401602060405180830381865afa158015610e11573d6000803e3d6000fd5b505050506040513d601f19601f82011682018060405250810190610e3591906129be565b90508115610e605782604051602001610e4e9190612b8c565b60405160208183030381529060405292505b82610e6a836116c2565b610e7c836001600160a01b0316611754565b610e85856116c2565b610ea78b8781518110610e9a57610e9a612895565b60200260200101516116c2565b604051602001610ebb959493929190612bb1565b6040516020818303038152906040529250508080610ed8906128f3565b915050610dc1565b5080610eeb856116c2565b604051602001610efc929190612c9a565b60405160208183030381529060405290506000610f17610417565b610f208f6116c2565b8c8e868b60038110610f3457610f34612895565b602002015186604051602001610f4f96959493929190612d13565b6040516020818303038152906040529050610f698161176a565b604051602001610f799190612e4c565b6040516020818303038152906040529c50505050505050505050505050919050565b600a546001600160a01b0316331480610fbe5750600d546001600160a01b031633145b6110215760405162461bcd60e51b815260206004820152602e60248201527f427265776c616273496e6465784e66743a2043616c6c6572206973206e6f742060448201526d30b236b4b71037b91037bbb732b960911b606482015260840161057d565b6001600160a01b0382166110475760405162461bcd60e51b815260040161057d9061290c565b6001600160a01b0382166000818152600e6020908152604091829020805460ff19168515159081179091558251938452908301527f6b0f890a293c8f56a7635ad061c90250965b8af8e8bdbeb56d434b97281a74629101610732565b6000818152600f60205260408082205490516301f8bc7960e41b8152600481018490526060918391829182918291829182916001600160a01b031690631f8bc79090602401600060405180830381865afa158015611105573d6000803e3d6000fd5b505050506040513d6000823e601f3d908101601f1916820160405261112d91908101906129db565b60008c8152600f60209081526040808320548151631abe729160e31b8152915196995094975092955090936001600160a01b039093169263d5f394889260048082019392918290030181865afa15801561118b573d6000803e3d6000fd5b505050506040513d601f19601f820116820180604052508101906111af91906129be565b60009a8b52600f6020526040909a2054939a9299919850506001600160a01b039092169550909350915050565b6001600160a01b03918216600090815260056020908152604080832093909416825291909152205460ff1690565b611212611593565b6001600160a01b0381166112775760405162461bcd60e51b815260206004820152602660248201527f4f776e61626c653a206e6577206f776e657220697320746865207a65726f206160448201526564647265737360d01b606482015260840161057d565b61063981611607565b60006001600160e01b031982166380ac58cd60e01b14806112b157506001600160e01b03198216635b5e139f60e01b145b8061041157506301ffc9a760e01b6001600160e01b0319831614610411565b6112d981611696565b6106395760405162461bcd60e51b815260040161057d906128ab565b6daaeb6d7670e522a718067333cd4e3b1561063957604051633185c44d60e21b81523060048201526001600160a01b03821660248201526daaeb6d7670e522a718067333cd4e9063c617113490604401602060405180830381865afa158015611362573d6000803e3d6000fd5b505050506040513d601f19601f820116820180604052508101906113869190612e91565b6106395780604051633b79c77360e21b815260040161057d9190612551565b60006113b08261073e565b9050806001600160a01b0316836001600160a01b03160361141d5760405162461bcd60e51b815260206004820152602160248201527f4552433732313a20617070726f76616c20746f2063757272656e74206f776e656044820152603960f91b606482015260840161057d565b336001600160a01b0382161480611439575061143981336111dc565b6114ab5760405162461bcd60e51b815260206004820152603d60248201527f4552433732313a20617070726f76652063616c6c6572206973206e6f7420746f60448201527f6b656e206f776e6572206f7220617070726f76656420666f7220616c6c000000606482015260840161057d565b6104e483836118d0565b6114bf338261193e565b6114db5760405162461bcd60e51b815260040161057d90612eae565b6104e483838361199d565b6104e48383836040518060200160405280600081525061096c565b600061150c8261073e565b905061151c816000846001611afc565b6115258261073e565b600083815260046020908152604080832080546001600160a01b03199081169091556001600160a01b038516808552600384528285208054600019019055878552600290935281842080549091169055519293508492600080516020613101833981519152908390a45b5050565b600a546001600160a01b031633146109475760405162461bcd60e51b815260206004820181905260248201527f4f776e61626c653a2063616c6c6572206973206e6f7420746865206f776e6572604482015260640161057d565b61158f828260405180602001604052806000815250611c35565b600a80546001600160a01b038381166001600160a01b0319831681179093556040519116919082907f8be0079c531659141344cd1fd0a4f28419497f9722a3daafe3b4186f6b6457e090600090a35050565b61158f338383611c68565b61166e338361193e565b61168a5760405162461bcd60e51b815260040161057d90612eae565b61050e84848484611d32565b6000908152600260205260409020546001600160a01b0316151590565b6060600c80546104269061285b565b606060006116cf83611d65565b60010190506000816001600160401b038111156116ee576116ee6125e7565b6040519080825280601f01601f191660200182016040528015611718576020820181803683370190505b5090508181016020015b600019016f181899199a1a9b1b9c1cb0b131b232b360811b600a86061a8153600a850494508461172257509392505050565b60606104116001600160a01b0383166014611e3d565b6060815160000361178957505060408051602081019091526000815290565b60006040518060600160405280604081526020016130c160409139905060006003845160026117b89190612efb565b6117c29190612f13565b6117cd906004612f35565b905060006117dc826020612efb565b6001600160401b038111156117f3576117f36125e7565b6040519080825280601f01601f19166020018201604052801561181d576020820181803683370190505b509050818152600183018586518101602084015b8183101561188b5760039283018051603f601282901c811687015160f890811b8552600c83901c8216880151811b6001860152600683901c8216880151811b60028601529116860151901b93820193909352600401611831565b6003895106600181146118a557600281146118b6576118c2565b613d3d60f01b6001198301526118c2565b603d60f81b6000198301525b509398975050505050505050565b600081815260046020526040902080546001600160a01b0319166001600160a01b03841690811790915581906119058261073e565b6001600160a01b03167f8c5be1e5ebec7d5bd14f71427d1e84f3dd0314c0f7b2291e5b200ac8c7c3b92560405160405180910390a45050565b60008061194a8361073e565b9050806001600160a01b0316846001600160a01b03161480611971575061197181856111dc565b806119955750836001600160a01b031661198a846104a9565b6001600160a01b0316145b949350505050565b826001600160a01b03166119b08261073e565b6001600160a01b0316146119d65760405162461bcd60e51b815260040161057d90612f54565b6001600160a01b038216611a385760405162461bcd60e51b8152602060048201526024808201527f4552433732313a207472616e7366657220746f20746865207a65726f206164646044820152637265737360e01b606482015260840161057d565b611a458383836001611afc565b826001600160a01b0316611a588261073e565b6001600160a01b031614611a7e5760405162461bcd60e51b815260040161057d90612f54565b600081815260046020908152604080832080546001600160a01b03199081169091556001600160a01b03878116808652600385528386208054600019019055908716808652838620805460010190558686526002909452828520805490921684179091559051849360008051602061310183398151915291a4505050565b611b0884848484611fdf565b6001811115611b775760405162461bcd60e51b815260206004820152603560248201527f455243373231456e756d657261626c653a20636f6e7365637574697665207472604482015274185b9cd9995c9cc81b9bdd081cdd5c1c1bdc9d1959605a1b606482015260840161057d565b816001600160a01b038516611bd357611bce81600880546000838152600960205260408120829055600182018355919091527ff3f7a9fe364faab93b216da50a3214154f22a0a2b415b23a84c8169e8b636ee30155565b611bf6565b836001600160a01b0316856001600160a01b031614611bf657611bf68582612067565b6001600160a01b038416611c1257611c0d81612104565b610992565b846001600160a01b0316846001600160a01b0316146109925761099284826121b3565b611c3f83836121f7565b611c4c6000848484612300565b6104e45760405162461bcd60e51b815260040161057d90612f99565b816001600160a01b0316836001600160a01b031603611cc55760405162461bcd60e51b815260206004820152601960248201527822a9219b99189d1030b8383937bb32903a379031b0b63632b960391b604482015260640161057d565b6001600160a01b03838116600081815260056020908152604080832094871680845294825291829020805460ff191686151590811790915591519182527f17307eab39ab6107e8899845ad3d59bd9653f200f220920489ca2b5937696c31910160405180910390a3505050565b611d3d84848461199d565b611d4984848484612300565b61050e5760405162461bcd60e51b815260040161057d90612f99565b60008072184f03e93ff9f4daa797ed6e38ed64bf6a1f0160401b8310611da45772184f03e93ff9f4daa797ed6e38ed64bf6a1f0160401b830492506040015b6d04ee2d6d415b85acef81000000008310611dd0576d04ee2d6d415b85acef8100000000830492506020015b662386f26fc100008310611dee57662386f26fc10000830492506010015b6305f5e1008310611e06576305f5e100830492506008015b6127108310611e1a57612710830492506004015b60648310611e2c576064830492506002015b600a83106104115760010192915050565b60606000611e4c836002612f35565b611e57906002612efb565b6001600160401b03811115611e6e57611e6e6125e7565b6040519080825280601f01601f191660200182016040528015611e98576020820181803683370190505b509050600360fc1b81600081518110611eb357611eb3612895565b60200101906001600160f81b031916908160001a905350600f60fb1b81600181518110611ee257611ee2612895565b60200101906001600160f81b031916908160001a9053506000611f06846002612f35565b611f11906001612efb565b90505b6001811115611f89576f181899199a1a9b1b9c1cb0b131b232b360811b85600f1660108110611f4557611f45612895565b1a60f81b828281518110611f5b57611f5b612895565b60200101906001600160f81b031916908160001a90535060049490941c93611f8281612feb565b9050611f14565b508315611fd85760405162461bcd60e51b815260206004820181905260248201527f537472696e67733a20686578206c656e67746820696e73756666696369656e74604482015260640161057d565b9392505050565b600181111561050e576001600160a01b03841615612025576001600160a01b0384166000908152600360205260408120805483929061201f908490613002565b90915550505b6001600160a01b0383161561050e576001600160a01b0383166000908152600360205260408120805483929061205c908490612efb565b909155505050505050565b60006001612074846108af565b61207e9190613002565b6000838152600760205260409020549091508082146120d1576001600160a01b03841660009081526006602090815260408083208584528252808320548484528184208190558352600790915290208190555b5060009182526007602090815260408084208490556001600160a01b039094168352600681528383209183525290812055565b60085460009061211690600190613002565b6000838152600960205260408120546008805493945090928490811061213e5761213e612895565b90600052602060002001549050806008838154811061215f5761215f612895565b600091825260208083209091019290925582815260099091526040808220849055858252812055600880548061219757612197613019565b6001900381819060005260206000200160009055905550505050565b60006121be836108af565b6001600160a01b039093166000908152600660209081526040808320868452825280832085905593825260079052919091209190915550565b6001600160a01b03821661224d5760405162461bcd60e51b815260206004820181905260248201527f4552433732313a206d696e7420746f20746865207a65726f2061646472657373604482015260640161057d565b61225681611696565b156122735760405162461bcd60e51b815260040161057d9061302f565b612281600083836001611afc565b61228a81611696565b156122a75760405162461bcd60e51b815260040161057d9061302f565b6001600160a01b038216600081815260036020908152604080832080546001019055848352600290915280822080546001600160a01b031916841790555183929190600080516020613101833981519152908290a45050565b60006001600160a01b0384163b156123f657604051630a85bd0160e11b81526001600160a01b0385169063150b7a0290612344903390899088908890600401613066565b6020604051808303816000875af192505050801561237f575060408051601f3d908101601f1916820190925261237c918101906130a3565b60015b6123dc573d8080156123ad576040519150601f19603f3d011682016040523d82523d6000602084013e6123b2565b606091505b5080516000036123d45760405162461bcd60e51b815260040161057d90612f99565b805181602001fd5b6001600160e01b031916630a85bd0160e11b149050611995565b506001949350505050565b82805461240d9061285b565b90600052602060002090601f01602090048101928261242f5760008555612475565b82601f1061244857805160ff1916838001178555612475565b82800160010185558215612475579182015b8281111561247557825182559160200191906001019061245a565b50612481929150612485565b5090565b5b808211156124815760008155600101612486565b6001600160e01b03198116811461063957600080fd5b6000602082840312156124c257600080fd5b8135611fd88161249a565b60005b838110156124e85781810151838201526020016124d0565b8381111561050e5750506000910152565b600081518084526125118160208601602086016124cd565b601f01601f19169290920160200192915050565b602081526000611fd860208301846124f9565b60006020828403121561254a57600080fd5b5035919050565b6001600160a01b0391909116815260200190565b6001600160a01b038116811461063957600080fd5b6000806040838503121561258d57600080fd5b823561259881612565565b946020939093013593505050565b6000806000606084860312156125bb57600080fd5b83356125c681612565565b925060208401356125d681612565565b929592945050506040919091013590565b634e487b7160e01b600052604160045260246000fd5b604051601f8201601f191681016001600160401b0381118282101715612625576126256125e7565b604052919050565b60006001600160401b03831115612646576126466125e7565b612659601f8401601f19166020016125fd565b905082815283838301111561266d57600080fd5b828260208301376000602084830101529392505050565b801515811461063957600080fd5b600080604083850312156126a557600080fd5b82356001600160401b038111156126bb57600080fd5b8301601f810185136126cc57600080fd5b6126db8582356020840161262d565b92505060208301356126ec81612684565b809150509250929050565b60006020828403121561270957600080fd5b8135611fd881612565565b6000806040838503121561272757600080fd5b823561273281612565565b915060208301356126ec81612684565b6000806000806080858703121561275857600080fd5b843561276381612565565b9350602085013561277381612565565b92506040850135915060608501356001600160401b0381111561279557600080fd5b8501601f810187136127a657600080fd5b6127b58782356020840161262d565b91505092959194509250565b600060a08201878352602060a08185015281885180845260c086019150828a01935060005b81811015612802578451835293830193918301916001016127e6565b505060408501979097525050506001600160a01b039283166060820152911660809091015292915050565b6000806040838503121561284057600080fd5b823561284b81612565565b915060208301356126ec81612565565b600181811c9082168061286f57607f821691505b60208210810361288f57634e487b7160e01b600052602260045260246000fd5b50919050565b634e487b7160e01b600052603260045260246000fd5b602080825260189082015277115490cdcc8c4e881a5b9d985b1a59081d1bdad95b88125160421b604082015260600190565b634e487b7160e01b600052601160045260246000fd5b600060018201612905576129056128dd565b5060010190565b60208082526021908201527f427265776c616273496e6465784e66743a20696e76616c6964206164647265736040820152607360f81b606082015260800190565b6000815161295f8185602086016124cd565b9290920192915050565b6000835161297b8184602088016124cd565b602f60f81b90830190815283516129998160018401602088016124cd565b01600101949350505050565b6000602082840312156129b757600080fd5b5051919050565b6000602082840312156129d057600080fd5b8151611fd881612565565b6000806000606084860312156129f057600080fd5b835192506020808501516001600160401b0380821115612a0f57600080fd5b818701915087601f830112612a2357600080fd5b815181811115612a3557612a356125e7565b8060051b9150612a468483016125fd565b818152918301840191848101908a841115612a6057600080fd5b938501935b83851015612a7e57845182529385019390850190612a65565b809750505050505050604084015190509250925092565b600085516020612aa88285838b016124cd565b7f7b2274726169745f74797065223a224c6576656c222c202276616c7565223a229184019182528651612ae081838501848b016124cd565b62089f4b60ea1b92018181018390527f7b2274726169745f74797065223a22496e646578222c202276616c7565223a2260238201528651909290612b2a81604386018a86016124cd565b7f227d2c7b2274726169745f74797065223a224465706c6f796572222c202276616043949091019384015265363ab2911d1160d11b60638401528551612b768160698601858a016124cd565b606993019283015250606c019695505050505050565b60008251612b9e8184602087016124cd565b600b60fa1b920191825250600101919050565b600086516020612bc48285838c016124cd565b733d913a3930b4ba2fba3cb832911d112a37b5b2b760611b9184019182528751612bf48160148501848c016124cd565b6b111610113b30b63ab2911d1160a11b6014939091019283018190528751612c2181848601858c016124cd565b62089f4b60ea1b930182810193909352741ec89d1c985a5d17dd1e5c19488e88905b5bdd5b9d605a1b60238401528651612c6181603886018a86016124cd565b60389301928301528451612c7b81604485018489016124cd565b61227d60f01b6044939091019283015250604601979650505050505050565b60008351612cac8184602088016124cd565b80830190507f2c207b2274726169745f74797065223a2255534420416d6f756e74222c20227681526630b63ab2911d1160c91b60208201528351612cf78160278401602088016124cd565b62227d5d60e81b60279290910191820152602a01949350505050565b693d913730b6b2911d101160b11b81528651600090612d3981600a850160208c016124cd565b61202360f01b600a918401918201528751612d5b81600c840160208c016124cd565b6201116160ed1b600c92909101918201528651612d7f81600f840160208b016124cd565b7f2c202265787465726e616c5f75726c223a202268747470733a2f2f6561726e2e600f92909101918201527f627265776c6162732e696e666f2f696e6465786573222c2022696d616765223a602f82015261101160f11b604f820152612e3f612e32612e2c612e1d612e0d612e07612dfa605188018d61294d565b602f60f81b815260010190565b8a61294d565b632e706e6760e01b815260040190565b6201116160ed1b815260030190565b8661294d565b607d60f81b815260010190565b9998505050505050505050565b7f646174613a6170706c69636174696f6e2f6a736f6e3b6261736536342c000000815260008251612e8481601d8501602087016124cd565b91909101601d0192915050565b600060208284031215612ea357600080fd5b8151611fd881612684565b6020808252602d908201527f4552433732313a2063616c6c6572206973206e6f7420746f6b656e206f776e6560408201526c1c881bdc88185c1c1c9bdd9959609a1b606082015260800190565b60008219821115612f0e57612f0e6128dd565b500190565b600082612f3057634e487b7160e01b600052601260045260246000fd5b500490565b6000816000190483118215151615612f4f57612f4f6128dd565b500290565b60208082526025908201527f4552433732313a207472616e736665722066726f6d20696e636f72726563742060408201526437bbb732b960d91b606082015260800190565b60208082526032908201527f4552433732313a207472616e7366657220746f206e6f6e20455243373231526560408201527131b2b4bb32b91034b6b83632b6b2b73a32b960711b606082015260800190565b600081612ffa57612ffa6128dd565b506000190190565b600082821015613014576130146128dd565b500390565b634e487b7160e01b600052603160045260246000fd5b6020808252601c908201527f4552433732313a20746f6b656e20616c7265616479206d696e74656400000000604082015260600190565b6001600160a01b0385811682528416602082015260408101839052608060608201819052600090613099908301846124f9565b9695505050505050565b6000602082840312156130b557600080fd5b8151611fd88161249a56fe4142434445464748494a4b4c4d4e4f505152535455565758595a6162636465666768696a6b6c6d6e6f707172737475767778797a303132333435363738392b2fddf252ad1be2c89b69c2b068fc378daa952ba7f163c4a11628f55a4df523b3efa26469706673582212201ae6ed34b97ac27800d0fe5421399fc4ee7cd5e2588898326f4b28baee3fed6f64736f6c634300080e0033",
  "devdoc": {
    "kind": "dev",
    "methods": {
      "balanceOf(address)": {
        "details": "See {IERC721-balanceOf}."
      },
      "getApproved(uint256)": {
        "details": "See {IERC721-getApproved}."
      },
      "isApprovedForAll(address,address)": {
        "details": "See {IERC721-isApprovedForAll}."
      },
      "name()": {
        "details": "See {IERC721Metadata-name}."
      },
      "owner()": {
        "details": "Returns the address of the current owner."
      },
      "ownerOf(uint256)": {
        "details": "See {IERC721-ownerOf}."
      },
      "renounceOwnership()": {
        "details": "Leaves the contract without owner. It will not be possible to call `onlyOwner` functions anymore. Can only be called by the current owner. NOTE: Renouncing ownership will leave the contract without an owner, thereby removing any functionality that is only available to the owner."
      },
      "supportsInterface(bytes4)": {
        "details": "See {IERC165-supportsInterface}."
      },
      "symbol()": {
        "details": "See {IERC721Metadata-symbol}."
      },
      "tokenByIndex(uint256)": {
        "details": "See {IERC721Enumerable-tokenByIndex}."
      },
      "tokenOfOwnerByIndex(address,uint256)": {
        "details": "See {IERC721Enumerable-tokenOfOwnerByIndex}."
      },
      "tokenURI(uint256)": {
        "details": "See {IERC721Metadata-tokenURI}."
      },
      "totalSupply()": {
        "details": "See {IERC721Enumerable-totalSupply}."
      },
      "transferOwnership(address)": {
        "details": "Transfers ownership of the contract to a new account (`newOwner`). Can only be called by the current owner."
      }
    },
    "version": 1
  },
  "userdoc": {
    "kind": "user",
    "methods": {},
    "version": 1
  },
  "storageLayout": {
    "storage": [
      {
        "astId": 3708,
        "contract": "contracts/indexes/BrewlabsIndexNft.sol:BrewlabsIndexNft",
        "label": "_name",
        "offset": 0,
        "slot": "0",
        "type": "t_string_storage"
      },
      {
        "astId": 3710,
        "contract": "contracts/indexes/BrewlabsIndexNft.sol:BrewlabsIndexNft",
        "label": "_symbol",
        "offset": 0,
        "slot": "1",
        "type": "t_string_storage"
      },
      {
        "astId": 3714,
        "contract": "contracts/indexes/BrewlabsIndexNft.sol:BrewlabsIndexNft",
        "label": "_owners",
        "offset": 0,
        "slot": "2",
        "type": "t_mapping(t_uint256,t_address)"
      },
      {
        "astId": 3718,
        "contract": "contracts/indexes/BrewlabsIndexNft.sol:BrewlabsIndexNft",
        "label": "_balances",
        "offset": 0,
        "slot": "3",
        "type": "t_mapping(t_address,t_uint256)"
      },
      {
        "astId": 3722,
        "contract": "contracts/indexes/BrewlabsIndexNft.sol:BrewlabsIndexNft",
        "label": "_tokenApprovals",
        "offset": 0,
        "slot": "4",
        "type": "t_mapping(t_uint256,t_address)"
      },
      {
        "astId": 3728,
        "contract": "contracts/indexes/BrewlabsIndexNft.sol:BrewlabsIndexNft",
        "label": "_operatorApprovals",
        "offset": 0,
        "slot": "5",
        "type": "t_mapping(t_address,t_mapping(t_address,t_bool))"
      },
      {
        "astId": 4776,
        "contract": "contracts/indexes/BrewlabsIndexNft.sol:BrewlabsIndexNft",
        "label": "_ownedTokens",
        "offset": 0,
        "slot": "6",
        "type": "t_mapping(t_address,t_mapping(t_uint256,t_uint256))"
      },
      {
        "astId": 4780,
        "contract": "contracts/indexes/BrewlabsIndexNft.sol:BrewlabsIndexNft",
        "label": "_ownedTokensIndex",
        "offset": 0,
        "slot": "7",
        "type": "t_mapping(t_uint256,t_uint256)"
      },
      {
        "astId": 4783,
        "contract": "contracts/indexes/BrewlabsIndexNft.sol:BrewlabsIndexNft",
        "label": "_allTokens",
        "offset": 0,
        "slot": "8",
        "type": "t_array(t_uint256)dyn_storage"
      },
      {
        "astId": 4787,
        "contract": "contracts/indexes/BrewlabsIndexNft.sol:BrewlabsIndexNft",
        "label": "_allTokensIndex",
        "offset": 0,
        "slot": "9",
        "type": "t_mapping(t_uint256,t_uint256)"
      },
      {
        "astId": 883,
        "contract": "contracts/indexes/BrewlabsIndexNft.sol:BrewlabsIndexNft",
        "label": "_owner",
        "offset": 0,
        "slot": "10",
        "type": "t_address"
      },
      {
        "astId": 39220,
        "contract": "contracts/indexes/BrewlabsIndexNft.sol:BrewlabsIndexNft",
        "label": "tokenIndex",
        "offset": 0,
        "slot": "11",
        "type": "t_uint256"
      },
      {
        "astId": 39223,
        "contract": "contracts/indexes/BrewlabsIndexNft.sol:BrewlabsIndexNft",
        "label": "_tokenBaseURI",
        "offset": 0,
        "slot": "12",
        "type": "t_string_storage"
      },
      {
        "astId": 39225,
        "contract": "contracts/indexes/BrewlabsIndexNft.sol:BrewlabsIndexNft",
        "label": "admin",
        "offset": 0,
        "slot": "13",
        "type": "t_address"
      },
      {
        "astId": 39228,
        "contract": "contracts/indexes/BrewlabsIndexNft.sol:BrewlabsIndexNft",
        "label": "useOnChainMetadata",
        "offset": 20,
        "slot": "13",
        "type": "t_bool"
      },
      {
        "astId": 39232,
        "contract": "contracts/indexes/BrewlabsIndexNft.sol:BrewlabsIndexNft",
        "label": "isMinter",
        "offset": 0,
        "slot": "14",
        "type": "t_mapping(t_address,t_bool)"
      },
      {
        "astId": 39236,
        "contract": "contracts/indexes/BrewlabsIndexNft.sol:BrewlabsIndexNft",
        "label": "indexes",
        "offset": 0,
        "slot": "15",
        "type": "t_mapping(t_uint256,t_address)"
      }
    ],
    "types": {
      "t_address": {
        "encoding": "inplace",
        "label": "address",
        "numberOfBytes": "20"
      },
      "t_array(t_uint256)dyn_storage": {
        "base": "t_uint256",
        "encoding": "dynamic_array",
        "label": "uint256[]",
        "numberOfBytes": "32"
      },
      "t_bool": {
        "encoding": "inplace",
        "label": "bool",
        "numberOfBytes": "1"
      },
      "t_mapping(t_address,t_bool)": {
        "encoding": "mapping",
        "key": "t_address",
        "label": "mapping(address => bool)",
        "numberOfBytes": "32",
        "value": "t_bool"
      },
      "t_mapping(t_address,t_mapping(t_address,t_bool))": {
        "encoding": "mapping",
        "key": "t_address",
        "label": "mapping(address => mapping(address => bool))",
        "numberOfBytes": "32",
        "value": "t_mapping(t_address,t_bool)"
      },
      "t_mapping(t_address,t_mapping(t_uint256,t_uint256))": {
        "encoding": "mapping",
        "key": "t_address",
        "label": "mapping(address => mapping(uint256 => uint256))",
        "numberOfBytes": "32",
        "value": "t_mapping(t_uint256,t_uint256)"
      },
      "t_mapping(t_address,t_uint256)": {
        "encoding": "mapping",
        "key": "t_address",
        "label": "mapping(address => uint256)",
        "numberOfBytes": "32",
        "value": "t_uint256"
      },
      "t_mapping(t_uint256,t_address)": {
        "encoding": "mapping",
        "key": "t_uint256",
        "label": "mapping(uint256 => address)",
        "numberOfBytes": "32",
        "value": "t_address"
      },
      "t_mapping(t_uint256,t_uint256)": {
        "encoding": "mapping",
        "key": "t_uint256",
        "label": "mapping(uint256 => uint256)",
        "numberOfBytes": "32",
        "value": "t_uint256"
      },
      "t_string_storage": {
        "encoding": "bytes",
        "label": "string",
        "numberOfBytes": "32"
      },
      "t_uint256": {
        "encoding": "inplace",
        "label": "uint256",
        "numberOfBytes": "32"
      }
    }
  }
}