{
  "address": "0xC3283Fc210Ba6c4C9597860D2f7b3aB99cD339A0",
  "abi": [
    {
      "inputs": [],
      "stateMutability": "nonpayable",
      "type": "constructor"
    },
    {
      "anonymous": false,
      "inputs": [
        {
          "indexed": true,
          "internalType": "address",
          "name": "user",
          "type": "address"
        }
      ],
      "name": "CommissionClaimed",
      "type": "event"
    },
    {
      "anonymous": false,
      "inputs": [
        {
          "indexed": true,
          "internalType": "address",
          "name": "user",
          "type": "address"
        },
        {
          "indexed": false,
          "internalType": "address",
          "name": "nft",
          "type": "address"
        },
        {
          "indexed": false,
          "internalType": "uint256",
          "name": "tokenId",
          "type": "uint256"
        }
      ],
      "name": "DeployerNftMinted",
      "type": "event"
    },
    {
      "anonymous": false,
      "inputs": [
        {
          "indexed": true,
          "internalType": "address",
          "name": "user",
          "type": "address"
        },
        {
          "indexed": false,
          "internalType": "uint256",
          "name": "tokenId",
          "type": "uint256"
        }
      ],
      "name": "DeployerNftStaked",
      "type": "event"
    },
    {
      "anonymous": false,
      "inputs": [
        {
          "indexed": true,
          "internalType": "address",
          "name": "user",
          "type": "address"
        },
        {
          "indexed": false,
          "internalType": "uint256",
          "name": "tokenId",
          "type": "uint256"
        }
      ],
      "name": "DeployerNftUnstaked",
      "type": "event"
    },
    {
      "anonymous": false,
      "inputs": [
        {
          "indexed": true,
          "internalType": "address",
          "name": "previousOwner",
          "type": "address"
        },
        {
          "indexed": true,
          "internalType": "address",
          "name": "newOwner",
          "type": "address"
        }
      ],
      "name": "OwnershipTransferred",
      "type": "event"
    },
    {
      "anonymous": false,
      "inputs": [
        {
          "indexed": false,
          "internalType": "address",
          "name": "addr",
          "type": "address"
        },
        {
          "indexed": false,
          "internalType": "uint256",
          "name": "fee",
          "type": "uint256"
        }
      ],
      "name": "ServiceInfoChanged",
      "type": "event"
    },
    {
      "anonymous": false,
      "inputs": [
        {
          "indexed": false,
          "internalType": "address",
          "name": "newNftAddr",
          "type": "address"
        }
      ],
      "name": "SetDeployerNft",
      "type": "event"
    },
    {
      "anonymous": false,
      "inputs": [
        {
          "indexed": false,
          "internalType": "address",
          "name": "wallet",
          "type": "address"
        }
      ],
      "name": "SetFeeWallet",
      "type": "event"
    },
    {
      "anonymous": false,
      "inputs": [
        {
          "indexed": false,
          "internalType": "uint256",
          "name": "fee0",
          "type": "uint256"
        },
        {
          "indexed": false,
          "internalType": "uint256",
          "name": "fee1",
          "type": "uint256"
        }
      ],
      "name": "SetFees",
      "type": "event"
    },
    {
      "anonymous": false,
      "inputs": [
        {
          "indexed": false,
          "internalType": "address",
          "name": "newNftAddr",
          "type": "address"
        }
      ],
      "name": "SetIndexNft",
      "type": "event"
    },
    {
      "anonymous": false,
      "inputs": [
        {
          "indexed": false,
          "internalType": "address",
          "name": "aggregator",
          "type": "address"
        }
      ],
      "name": "SetSwapAggregator",
      "type": "event"
    },
    {
      "anonymous": false,
      "inputs": [
        {
          "indexed": true,
          "internalType": "address",
          "name": "user",
          "type": "address"
        },
        {
          "indexed": false,
          "internalType": "uint256[]",
          "name": "amounts",
          "type": "uint256[]"
        },
        {
          "indexed": false,
          "internalType": "uint256",
          "name": "usdAmount",
          "type": "uint256"
        },
        {
          "indexed": false,
          "internalType": "uint256",
          "name": "commission",
          "type": "uint256"
        }
      ],
      "name": "TokenClaimed",
      "type": "event"
    },
    {
      "anonymous": false,
      "inputs": [
        {
          "indexed": true,
          "internalType": "address",
          "name": "user",
          "type": "address"
        },
        {
          "indexed": false,
          "internalType": "uint256[]",
          "name": "amounts",
          "type": "uint256[]"
        },
        {
          "indexed": false,
          "internalType": "uint256",
          "name": "usdAmount",
          "type": "uint256"
        },
        {
          "indexed": false,
          "internalType": "uint256",
          "name": "tokenId",
          "type": "uint256"
        }
      ],
      "name": "TokenLocked",
      "type": "event"
    },
    {
      "anonymous": false,
      "inputs": [
        {
          "indexed": true,
          "internalType": "address",
          "name": "user",
          "type": "address"
        },
        {
          "indexed": false,
          "internalType": "uint256[]",
          "name": "amounts",
          "type": "uint256[]"
        },
        {
          "indexed": false,
          "internalType": "uint256",
          "name": "usdAmount",
          "type": "uint256"
        },
        {
          "indexed": false,
          "internalType": "uint256",
          "name": "tokenId",
          "type": "uint256"
        }
      ],
      "name": "TokenUnLocked",
      "type": "event"
    },
    {
      "anonymous": false,
      "inputs": [
        {
          "indexed": true,
          "internalType": "address",
          "name": "user",
          "type": "address"
        },
        {
          "indexed": false,
          "internalType": "uint256",
          "name": "ethAmount",
          "type": "uint256"
        },
        {
          "indexed": false,
          "internalType": "uint256[]",
          "name": "percents",
          "type": "uint256[]"
        },
        {
          "indexed": false,
          "internalType": "uint256[]",
          "name": "amountOuts",
          "type": "uint256[]"
        },
        {
          "indexed": false,
          "internalType": "uint256",
          "name": "usdAmount",
          "type": "uint256"
        },
        {
          "indexed": false,
          "internalType": "uint256",
          "name": "commission",
          "type": "uint256"
        }
      ],
      "name": "TokenZappedIn",
      "type": "event"
    },
    {
      "anonymous": false,
      "inputs": [
        {
          "indexed": true,
          "internalType": "address",
          "name": "user",
          "type": "address"
        },
        {
          "indexed": false,
          "internalType": "uint256[]",
          "name": "amounts",
          "type": "uint256[]"
        },
        {
          "indexed": false,
          "internalType": "uint256",
          "name": "ethAmount",
          "type": "uint256"
        },
        {
          "indexed": false,
          "internalType": "uint256",
          "name": "commission",
          "type": "uint256"
        }
      ],
      "name": "TokenZappedOut",
      "type": "event"
    },
    {
      "inputs": [],
      "name": "NUM_TOKENS",
      "outputs": [
        {
          "internalType": "uint256",
          "name": "",
          "type": "uint256"
        }
      ],
      "stateMutability": "view",
      "type": "function"
    },
    {
      "inputs": [],
      "name": "WNATIVE",
      "outputs": [
        {
          "internalType": "address",
          "name": "",
          "type": "address"
        }
      ],
      "stateMutability": "view",
      "type": "function"
    },
    {
      "inputs": [
        {
          "internalType": "uint256",
          "name": "_percent",
          "type": "uint256"
        }
      ],
      "name": "claimTokens",
      "outputs": [],
      "stateMutability": "nonpayable",
      "type": "function"
    },
    {
      "inputs": [],
      "name": "commissionFee",
      "outputs": [
        {
          "internalType": "uint256",
          "name": "",
          "type": "uint256"
        }
      ],
      "stateMutability": "view",
      "type": "function"
    },
    {
      "inputs": [],
      "name": "commissionWallet",
      "outputs": [
        {
          "internalType": "address",
          "name": "",
          "type": "address"
        }
      ],
      "stateMutability": "view",
      "type": "function"
    },
    {
      "inputs": [],
      "name": "deployer",
      "outputs": [
        {
          "internalType": "address",
          "name": "",
          "type": "address"
        }
      ],
      "stateMutability": "view",
      "type": "function"
    },
    {
      "inputs": [],
      "name": "deployerNft",
      "outputs": [
        {
          "internalType": "contract IERC721",
          "name": "",
          "type": "address"
        }
      ],
      "stateMutability": "view",
      "type": "function"
    },
    {
      "inputs": [],
      "name": "deployerNftId",
      "outputs": [
        {
          "internalType": "uint256",
          "name": "",
          "type": "uint256"
        }
      ],
      "stateMutability": "view",
      "type": "function"
    },
    {
      "inputs": [],
      "name": "depositFee",
      "outputs": [
        {
          "internalType": "uint256",
          "name": "",
          "type": "uint256"
        }
      ],
      "stateMutability": "view",
      "type": "function"
    },
    {
      "inputs": [
        {
          "internalType": "uint256",
          "name": "_tokenId",
          "type": "uint256"
        }
      ],
      "name": "estimateEthforNft",
      "outputs": [
        {
          "internalType": "uint256",
          "name": "",
          "type": "uint256"
        }
      ],
      "stateMutability": "view",
      "type": "function"
    },
    {
      "inputs": [
        {
          "internalType": "address",
          "name": "_user",
          "type": "address"
        }
      ],
      "name": "estimateEthforUser",
      "outputs": [
        {
          "internalType": "uint256",
          "name": "",
          "type": "uint256"
        }
      ],
      "stateMutability": "view",
      "type": "function"
    },
    {
      "inputs": [],
      "name": "factory",
      "outputs": [
        {
          "internalType": "contract IBrewlabsIndexFactory",
          "name": "",
          "type": "address"
        }
      ],
      "stateMutability": "view",
      "type": "function"
    },
    {
      "inputs": [],
      "name": "getPendingCommissions",
      "outputs": [
        {
          "internalType": "uint256[]",
          "name": "",
          "type": "uint256[]"
        }
      ],
      "stateMutability": "view",
      "type": "function"
    },
    {
      "inputs": [],
      "name": "getPriceFromChainlink",
      "outputs": [
        {
          "internalType": "uint256",
          "name": "",
          "type": "uint256"
        }
      ],
      "stateMutability": "view",
      "type": "function"
    },
    {
      "inputs": [],
      "name": "indexNft",
      "outputs": [
        {
          "internalType": "contract IERC721",
          "name": "",
          "type": "address"
        }
      ],
      "stateMutability": "view",
      "type": "function"
    },
    {
      "inputs": [
        {
          "internalType": "string",
          "name": "_name",
          "type": "string"
        },
        {
          "internalType": "address",
          "name": "_aggregator",
          "type": "address"
        },
        {
          "internalType": "contract IERC20[]",
          "name": "_tokens",
          "type": "address[]"
        },
        {
          "internalType": "contract IERC721",
          "name": "_indexNft",
          "type": "address"
        },
        {
          "internalType": "contract IERC721",
          "name": "_deployerNft",
          "type": "address"
        },
        {
          "internalType": "uint256[2]",
          "name": "_fees",
          "type": "uint256[2]"
        },
        {
          "internalType": "address",
          "name": "_owner",
          "type": "address"
        },
        {
          "internalType": "address",
          "name": "_deployer",
          "type": "address"
        },
        {
          "internalType": "address",
          "name": "_commissionWallet",
          "type": "address"
        }
      ],
      "name": "initialize",
      "outputs": [],
      "stateMutability": "nonpayable",
      "type": "function"
    },
    {
      "inputs": [],
      "name": "mintDeployerNft",
      "outputs": [
        {
          "internalType": "uint256",
          "name": "",
          "type": "uint256"
        }
      ],
      "stateMutability": "payable",
      "type": "function"
    },
    {
      "inputs": [],
      "name": "mintNft",
      "outputs": [
        {
          "internalType": "uint256",
          "name": "",
          "type": "uint256"
        }
      ],
      "stateMutability": "payable",
      "type": "function"
    },
    {
      "inputs": [],
      "name": "name",
      "outputs": [
        {
          "internalType": "string",
          "name": "",
          "type": "string"
        }
      ],
      "stateMutability": "view",
      "type": "function"
    },
    {
      "inputs": [
        {
          "internalType": "uint256",
          "name": "_tokenId",
          "type": "uint256"
        }
      ],
      "name": "nftInfo",
      "outputs": [
        {
          "internalType": "uint256",
          "name": "level",
          "type": "uint256"
        },
        {
          "internalType": "uint256[]",
          "name": "amounts",
          "type": "uint256[]"
        },
        {
          "internalType": "uint256",
          "name": "usdAmount",
          "type": "uint256"
        }
      ],
      "stateMutability": "view",
      "type": "function"
    },
    {
      "inputs": [
        {
          "internalType": "address",
          "name": "operator",
          "type": "address"
        },
        {
          "internalType": "address",
          "name": "from",
          "type": "address"
        },
        {
          "internalType": "uint256",
          "name": "tokenId",
          "type": "uint256"
        },
        {
          "internalType": "bytes",
          "name": "data",
          "type": "bytes"
        }
      ],
      "name": "onERC721Received",
      "outputs": [
        {
          "internalType": "bytes4",
          "name": "",
          "type": "bytes4"
        }
      ],
      "stateMutability": "nonpayable",
      "type": "function"
    },
    {
      "inputs": [],
      "name": "owner",
      "outputs": [
        {
          "internalType": "address",
          "name": "",
          "type": "address"
        }
      ],
      "stateMutability": "view",
      "type": "function"
    },
    {
      "inputs": [],
      "name": "performanceFee",
      "outputs": [
        {
          "internalType": "uint256",
          "name": "",
          "type": "uint256"
        }
      ],
      "stateMutability": "view",
      "type": "function"
    },
    {
      "inputs": [
        {
          "internalType": "address",
          "name": "_token",
          "type": "address"
        },
        {
          "internalType": "uint256",
          "name": "_amount",
          "type": "uint256"
        },
        {
          "internalType": "uint256[]",
          "name": "_percents",
          "type": "uint256[]"
        }
      ],
      "name": "precomputeZapIn",
      "outputs": [
        {
          "components": [
            {
              "internalType": "uint256[]",
              "name": "amounts",
              "type": "uint256[]"
            },
            {
              "internalType": "address[]",
              "name": "adapters",
              "type": "address[]"
            },
            {
              "internalType": "address[]",
              "name": "path",
              "type": "address[]"
            },
            {
              "internalType": "uint256",
              "name": "gasEstimate",
              "type": "uint256"
            }
          ],
          "internalType": "struct IBrewlabsAggregator.FormattedOffer[]",
          "name": "queries",
          "type": "tuple[]"
        }
      ],
      "stateMutability": "view",
      "type": "function"
    },
    {
      "inputs": [
        {
          "internalType": "address",
          "name": "_token",
          "type": "address"
        }
      ],
      "name": "precomputeZapOut",
      "outputs": [
        {
          "components": [
            {
              "internalType": "uint256[]",
              "name": "amounts",
              "type": "uint256[]"
            },
            {
              "internalType": "address[]",
              "name": "adapters",
              "type": "address[]"
            },
            {
              "internalType": "address[]",
              "name": "path",
              "type": "address[]"
            },
            {
              "internalType": "uint256",
              "name": "gasEstimate",
              "type": "uint256"
            }
          ],
          "internalType": "struct IBrewlabsAggregator.FormattedOffer[]",
          "name": "queries",
          "type": "tuple[]"
        }
      ],
      "stateMutability": "view",
      "type": "function"
    },
    {
      "inputs": [],
      "name": "renounceOwnership",
      "outputs": [],
      "stateMutability": "nonpayable",
      "type": "function"
    },
    {
      "inputs": [
        {
          "internalType": "address",
          "name": "_token",
          "type": "address"
        }
      ],
      "name": "rescueTokens",
      "outputs": [],
      "stateMutability": "nonpayable",
      "type": "function"
    },
    {
      "inputs": [
        {
          "internalType": "contract IERC721",
          "name": "newNftAddr",
          "type": "address"
        }
      ],
      "name": "setDeployerNft",
      "outputs": [],
      "stateMutability": "nonpayable",
      "type": "function"
    },
    {
      "inputs": [
        {
          "internalType": "address",
          "name": "_feeWallet",
          "type": "address"
        }
      ],
      "name": "setFeeWallet",
      "outputs": [],
      "stateMutability": "payable",
      "type": "function"
    },
    {
      "inputs": [
        {
          "internalType": "uint256",
          "name": "_depositfee",
          "type": "uint256"
        },
        {
          "internalType": "uint256",
          "name": "_commissionFee",
          "type": "uint256"
        }
      ],
      "name": "setFees",
      "outputs": [],
      "stateMutability": "payable",
      "type": "function"
    },
    {
      "inputs": [
        {
          "internalType": "contract IERC721",
          "name": "newNftAddr",
          "type": "address"
        }
      ],
      "name": "setIndexNft",
      "outputs": [],
      "stateMutability": "nonpayable",
      "type": "function"
    },
    {
      "inputs": [
        {
          "internalType": "address",
          "name": "_addr",
          "type": "address"
        },
        {
          "internalType": "uint256",
          "name": "_fee",
          "type": "uint256"
        }
      ],
      "name": "setServiceInfo",
      "outputs": [],
      "stateMutability": "nonpayable",
      "type": "function"
    },
    {
      "inputs": [
        {
          "internalType": "address",
          "name": "_aggregator",
          "type": "address"
        }
      ],
      "name": "setSwapAggregator",
      "outputs": [],
      "stateMutability": "nonpayable",
      "type": "function"
    },
    {
      "inputs": [],
      "name": "stakeDeployerNft",
      "outputs": [],
      "stateMutability": "payable",
      "type": "function"
    },
    {
      "inputs": [
        {
          "internalType": "uint256",
          "name": "tokenId",
          "type": "uint256"
        }
      ],
      "name": "stakeNft",
      "outputs": [],
      "stateMutability": "payable",
      "type": "function"
    },
    {
      "inputs": [],
      "name": "swapAggregator",
      "outputs": [
        {
          "internalType": "contract IBrewlabsAggregator",
          "name": "",
          "type": "address"
        }
      ],
      "stateMutability": "view",
      "type": "function"
    },
    {
      "inputs": [
        {
          "internalType": "uint256",
          "name": "",
          "type": "uint256"
        }
      ],
      "name": "tokens",
      "outputs": [
        {
          "internalType": "contract IERC20",
          "name": "",
          "type": "address"
        }
      ],
      "stateMutability": "view",
      "type": "function"
    },
    {
      "inputs": [],
      "name": "totalCommissions",
      "outputs": [
        {
          "internalType": "uint256",
          "name": "",
          "type": "uint256"
        }
      ],
      "stateMutability": "view",
      "type": "function"
    },
    {
      "inputs": [],
      "name": "totalEarned",
      "outputs": [
        {
          "internalType": "uint256",
          "name": "",
          "type": "uint256"
        }
      ],
      "stateMutability": "view",
      "type": "function"
    },
    {
      "inputs": [
        {
          "internalType": "uint256",
          "name": "",
          "type": "uint256"
        }
      ],
      "name": "totalStaked",
      "outputs": [
        {
          "internalType": "uint256",
          "name": "",
          "type": "uint256"
        }
      ],
      "stateMutability": "view",
      "type": "function"
    },
    {
      "inputs": [
        {
          "internalType": "address",
          "name": "newOwner",
          "type": "address"
        }
      ],
      "name": "transferOwnership",
      "outputs": [],
      "stateMutability": "nonpayable",
      "type": "function"
    },
    {
      "inputs": [],
      "name": "treasury",
      "outputs": [
        {
          "internalType": "address",
          "name": "",
          "type": "address"
        }
      ],
      "stateMutability": "view",
      "type": "function"
    },
    {
      "inputs": [],
      "name": "unstakeDeployerNft",
      "outputs": [],
      "stateMutability": "payable",
      "type": "function"
    },
    {
      "inputs": [
        {
          "internalType": "address",
          "name": "_user",
          "type": "address"
        }
      ],
      "name": "userInfo",
      "outputs": [
        {
          "internalType": "uint256[]",
          "name": "amounts",
          "type": "uint256[]"
        },
        {
          "internalType": "uint256",
          "name": "usdAmount",
          "type": "uint256"
        }
      ],
      "stateMutability": "view",
      "type": "function"
    },
    {
      "inputs": [
        {
          "internalType": "address",
          "name": "_token",
          "type": "address"
        },
        {
          "internalType": "uint256",
          "name": "_amount",
          "type": "uint256"
        },
        {
          "internalType": "uint256[]",
          "name": "_percents",
          "type": "uint256[]"
        },
        {
          "components": [
            {
              "internalType": "uint256",
              "name": "amountIn",
              "type": "uint256"
            },
            {
              "internalType": "uint256",
              "name": "amountOut",
              "type": "uint256"
            },
            {
              "internalType": "address[]",
              "name": "path",
              "type": "address[]"
            },
            {
              "internalType": "address[]",
              "name": "adapters",
              "type": "address[]"
            }
          ],
          "internalType": "struct IBrewlabsAggregator.Trade[]",
          "name": "_trades",
          "type": "tuple[]"
        }
      ],
      "name": "zapIn",
      "outputs": [],
      "stateMutability": "payable",
      "type": "function"
    },
    {
      "inputs": [
        {
          "internalType": "address",
          "name": "_token",
          "type": "address"
        },
        {
          "components": [
            {
              "internalType": "uint256",
              "name": "amountIn",
              "type": "uint256"
            },
            {
              "internalType": "uint256",
              "name": "amountOut",
              "type": "uint256"
            },
            {
              "internalType": "address[]",
              "name": "path",
              "type": "address[]"
            },
            {
              "internalType": "address[]",
              "name": "adapters",
              "type": "address[]"
            }
          ],
          "internalType": "struct IBrewlabsAggregator.Trade[]",
          "name": "_trades",
          "type": "tuple[]"
        }
      ],
      "name": "zapOut",
      "outputs": [],
      "stateMutability": "nonpayable",
      "type": "function"
    },
    {
      "stateMutability": "payable",
      "type": "receive"
    }
  ],
  "transactionHash": "0x2c1cc00c1abfaabfe2f369d1649e8523f1ec7e0e8c81caab35cbf3646dd6c714",
  "args": [],
  "numDeployments": 1,
  "solcInputHash": "0260463c7c8cf539a785493e0f5dd08b",
  "bytecode": "0x60806040523480156200001157600080fd5b506200001d3362000027565b6001805562000077565b600080546001600160a01b038381166001600160a01b0319831681178455604051919092169283917f8be0079c531659141344cd1fd0a4f28419497f9722a3daafe3b4186f6b6457e09190a35050565b615fd080620000876000396000f3fe6080604052600436106102805760003560e01c80636fb1eb0c1161014f57806395abdb52116100c1578063c4c715421161007a578063c4c7154214610704578063d26c07ce14610724578063d5f394881461073a578063dddc9ede1461075a578063ed7f79cf1461077a578063f2fde38b1461079a57600080fd5b806395abdb521461067457806397c0262a14610694578063b381cf40146106b4578063bd8dc381146106d4578063c2229fea146106dc578063c45a0155146106e457600080fd5b806376917ca01161011357806376917ca0146105de57806381b619481461060057806387788782146106205780638792e303146106365780638da5cb5b1461064c57806390d49b9d1461066157600080fd5b80636fb1eb0c14610576578063715018a61461058c5780637404b844146105a157806374e353b3146105c157806375923d39146105c957600080fd5b806320e55fbc116101f35780634f64b2be116101ac5780634f64b2be146104ca5780635ace5813146104ea57806361d027b31461050a578063649cc8d21461052a57806367a527931461054a5780636dfa8d991461056057600080fd5b806320e55fbc1461041457806335130677146104415780634149db481461046157806341cb8c20146104775780634300f5e11461049757806346e04a2f146104aa57600080fd5b80630b78f9c0116102455780630b78f9c01461031e578063150b7a02146103315780631959a0021461036a57806319fca468146103985780631b7c7152146103c55780631f8bc790146103e557600080fd5b8062ae3bf81461028c57806306bb00fa146102ae57806306fdde03146102e157806307c38132146103035780630ae2f3211461030b57600080fd5b3661028757005b600080fd5b34801561029857600080fd5b506102ac6102a736600461504b565b6107ba565b005b3480156102ba57600080fd5b506102ce6102c936600461504b565b61088f565b6040519081526020015b60405180910390f35b3480156102ed57600080fd5b506102f66108fe565b6040516102d89190615094565b6102ce61098c565b6102ac61031936600461531c565b610b43565b6102ac61032c36600461539b565b61135e565b34801561033d57600080fd5b5061035161034c366004615414565b61153a565b6040516001600160e01b031990911681526020016102d8565b34801561037657600080fd5b5061038a61038536600461504b565b6115b0565b6040516102d89291906154c2565b3480156103a457600080fd5b506009546103b8906001600160a01b031681565b6040516102d891906154e4565b3480156103d157600080fd5b506102ce6103e03660046154f8565b61169f565b3480156103f157600080fd5b506104056104003660046154f8565b6116ff565b6040516102d893929190615511565b34801561042057600080fd5b5061043461042f36600461553a565b611801565b6040516102d891906155cb565b34801561044d57600080fd5b506102ac61045c366004615677565b611b00565b34801561046d57600080fd5b506102ce600a5481565b34801561048357600080fd5b506102ce6104923660046154f8565b6120e6565b6102ac6104a53660046154f8565b612107565b3480156104b657600080fd5b506102ac6104c53660046154f8565b6123c6565b3480156104d657600080fd5b506103b86104e53660046154f8565b612a1f565b3480156104f657600080fd5b50600c546103b8906001600160a01b031681565b34801561051657600080fd5b506013546103b8906001600160a01b031681565b34801561053657600080fd5b506102ac61054536600461504b565b612a49565b34801561055657600080fd5b506102ce60105481565b34801561056c57600080fd5b506102ce60165481565b34801561058257600080fd5b506102ce60115481565b34801561059857600080fd5b506102ac612c2e565b3480156105ad57600080fd5b506102ac6105bc36600461504b565b612c42565b6102ac612cbb565b3480156105d557600080fd5b506102ce612db0565b3480156105ea57600080fd5b506105f3612ee8565b6040516102d891906156c6565b34801561060c57600080fd5b506102ac61061b3660046156d9565b612f40565b34801561062c57600080fd5b506102ce60125481565b34801561064257600080fd5b506102ce60175481565b34801561065857600080fd5b506103b861300e565b6102ac61066f36600461504b565b61301d565b34801561068057600080fd5b506102ac61068f366004615774565b6130fc565b3480156106a057600080fd5b506015546103b8906001600160a01b031681565b3480156106c057600080fd5b506005546103b8906001600160a01b031681565b6102ac613440565b6102ce613571565b3480156106f057600080fd5b506007546103b8906001600160a01b031681565b34801561071057600080fd5b506102ac61071f36600461504b565b613722565b34801561073057600080fd5b506102ce60195481565b34801561074657600080fd5b506014546103b8906001600160a01b031681565b34801561076657600080fd5b506008546103b8906001600160a01b031681565b34801561078657600080fd5b5061043461079536600461504b565b6137eb565b3480156107a657600080fd5b506102ac6107b536600461504b565b613b6c565b6107c2613be2565b6001600160a01b038116610804576040514790339082156108fc029083906000818181858888f193505050501580156107ff573d6000803e3d6000fd5b505050565b6040516370a0823160e01b81526000906001600160a01b038316906370a08231906108339030906004016154e4565b602060405180830381865afa158015610850573d6000803e3d6000fd5b505050506040513d601f19601f820116820180604052508101906108749190615865565b905061088a6001600160a01b0383163383613c41565b505b50565b6001600160a01b0381166000908152600d6020908152604080832080548251818502810185019093528083526108f8938301828280156108ee57602002820191906000526020600020905b8154815260200190600101908083116108da575b5050505050613c97565b92915050565b6006805461090b9061587e565b80601f01602080910402602001604051908101604052809291908181526020018280546109379061587e565b80156109845780601f1061095957610100808354040283529160200191610984565b820191906000526020600020905b81548152906001019060200180831161096757829003601f168201915b505050505081565b60025460009060ff166109ba5760405162461bcd60e51b81526004016109b1906158b8565b60405180910390fd5b6109c2613f0c565b6014546001600160a01b03163314610a1c5760405162461bcd60e51b815260206004820152601a60248201527f43616c6c6572206973206e6f7420746865206465706c6f79657200000000000060448201526064016109b1565b60195415610a5b5760405162461bcd60e51b815260206004820152600c60248201526b105b1c9958591e48135a5b9d60a21b60448201526064016109b1565b610a63613f65565b601580546001600160a01b03191690556009546040516335313c2160e11b81526001600160a01b0390911690636a62784290610aa39033906004016154e4565b6020604051808303816000875af1158015610ac2573d6000803e3d6000fd5b505050506040513d601f19601f82011682018060405250810190610ae69190615865565b601981905560095460405133927f27eca3b28413ace90047223e775d01bfec4b39b666590555f818761ff53566c092610b2b926001600160a01b0390911691906158e1565b60405180910390a250601954610b4060018055565b90565b60025460ff16610b655760405162461bcd60e51b81526004016109b1906158b8565b610b6d613f0c565b600a54825114610bb25760405162461bcd60e51b815260206004820152601060248201526f496e76616c69642070657263656e747360801b60448201526064016109b1565b600a54610bc0906001615910565b815114610bdf5760405162461bcd60e51b81526004016109b190615928565b6000805b600a548160ff161015610c2c57838160ff1681518110610c0557610c05615956565b602002602001015182610c189190615910565b915080610c248161596c565b915050610be3565b50600354811115610c8b5760405162461bcd60e51b8152602060048201526024808201527f546f74616c2070657263656e746167652063616e6e6f742065786365656420316044820152630303030360e41b60648201526084016109b1565b6000610cb2868685600081518110610ca557610ca5615956565b6020026020010151613fff565b90506000610cbe612db0565b90506000610ccb3361433b565b905060006002600354610cde9190615a6f565b60075460408051634cd2c83b60e01b8152905185926001600160a01b031691634cd2c83b9160048083019260209291908290030181865afa158015610d27573d6000803e3d6000fd5b505050506040513d601f19601f82011682018060405250810190610d4b9190615865565b610d559087615a7e565b610d5f9190615a7e565b610d699190615a9d565b9050600760009054906101000a90046001600160a01b03166001600160a01b031663ba64248e6040518163ffffffff1660e01b8152600401602060405180830381865afa158015610dbe573d6000803e3d6000fd5b505050506040513d601f19601f82011682018060405250810190610de29190615abf565b6001600160a01b03166108fc829081150290604051600060405180830381858888f19350505050158015610e1a573d6000803e3d6000fd5b5060006002600354610e2c9190615a6f565b8360105487610e3b9190615a7e565b610e459190615a7e565b610e4f9190615a9d565b6015549091506001600160a01b0316610ed057806018600a5481548110610e7857610e78615956565b906000526020600020016000828254610e919190615910565b90915550670de0b6b3a76400009050610eaa8583615a7e565b610eb49190615a9d565b60176000828254610ec59190615910565b90915550610f0c9050565b6015546040516001600160a01b039091169082156108fc029083906000818181858888f19350505050158015610f0a573d6000803e3d6000fd5b505b610f168183615910565b610f209086615adc565b9450670de0b6b3a7640000610f358583615a7e565b610f3f9190615a9d565b60166000828254610f509190615910565b9091555050336000908152600d602052604081206001810154909103610fc957600a546001600160401b03811115610f8a57610f8a6150c7565b604051908082528060200260200182016040528015610fb3578160200160208202803683370190505b508051610fc7918391602090910190614e78565b505b600080600a546001600160401b03811115610fe657610fe66150c7565b60405190808252806020026020018201604052801561100f578160200160208202803683370190505b50905060005b600a548160ff16101561127e5760006003548d8360ff168151811061103c5761103c615956565b60200260200101518b61104f9190615a7e565b6110599190615a9d565b905080600003611069575061126c565b600554600b80546001600160a01b039092169160ff851690811061108f5761108f615956565b6000918252602090912001546001600160a01b03160361113957600560009054906101000a90046001600160a01b03166001600160a01b031663d0e30db0826040518263ffffffff1660e01b81526004016000604051808303818588803b1580156110f957600080fd5b505af115801561110d573d6000803e3d6000fd5b505050505080838360ff168151811061112857611128615956565b6020026020010181815250506111b7565b61119581600b8460ff168154811061115357611153615956565b6000918252602090912001546001600160a01b0316308f611175876001615af3565b60ff168151811061118857611188615956565b6020026020010151614449565b838360ff16815181106111aa576111aa615956565b6020026020010181815250505b828260ff16815181106111cc576111cc615956565b6020026020010151856000018360ff16815481106111ec576111ec615956565b9060005260206000200160008282546112059190615910565b92505081905550828260ff168151811061122157611221615956565b6020026020010151600f8360ff168154811061123f5761123f615956565b9060005260206000200160008282546112589190615910565b9091555061126890508185615910565b9350505b806112768161596c565b915050611015565b506000670de0b6b3a76400006112948985615a7e565b61129e9190615a9d565b9050808460010160008282546112b49190615910565b909155503390507fe75ca9244dc39a5b3080920dd7b2eb2ce5f58b95da665a3d4fd11c89f7766302848e85856112ea8b8d615910565b6040516112fb959493929190615b18565b60405180910390a26003548a101561134557336108fc61131b858c615adc565b6040518115909202916000818181858888f19350505050158015611343573d6000803e3d6000fd5b505b5050505050505050505061135860018055565b50505050565b6015546001600160a01b031633148061138f575061137a61300e565b6001600160a01b0316336001600160a01b0316145b6113ab5760405162461bcd60e51b81526004016109b190615b58565b60075460405163350c910b60e21b8152600060048201526001600160a01b039091169063d432442c90602401602060405180830381865afa1580156113f4573d6000803e3d6000fd5b505050506040513d601f19601f820116820180604052508101906114189190615865565b8211158015611493575060075460405163350c910b60e21b8152600160048201526001600160a01b039091169063d432442c90602401602060405180830381865afa15801561146b573d6000803e3d6000fd5b505050506040513d601f19601f8201168201806040525081019061148f9190615865565b8111155b6114ea5760405162461bcd60e51b815260206004820152602260248201527f43616e6e6f742065786365656420666565206c696d6974206f6620666163746f604482015261727960f01b60648201526084016109b1565b6114f2613f65565b6010829055601181905560408051838152602081018390527f3be6e637f54f081a2dd12982cfd58481304fc98b604b18fa8ed4aa4e4a9d153291015b60405180910390a15050565b6008546000906001600160a01b031633148061156057506009546001600160a01b031633145b61159e5760405162461bcd60e51b815260206004820152600f60248201526e1b9bdd08195b98589b195908139195608a1b60448201526064016109b1565b50630a85bd0160e11b5b949350505050565b6001600160a01b0381166000908152600d60209081526040808320815181549384028101606090810184529281018481529294938493919291839183908389018282801561161d57602002820191906000526020600020905b815481526020019060010190808311611609575b505050505081526020016001820154815250509050806020015160000361168d57600a546001600160401b03811115611658576116586150c7565b604051908082528060200260200182016040528015611681578160200160208202803683370190505b50946000945092505050565b80516020909101519094909350915050565b6000818152600e6020908152604080832060010180548251818502810185019093528083526108f8938301828280156108ee57602002820191906000526020600020908154815260200190600101908083116108da575050505050613c97565b6000818152600e60209081526040808320815160608181018452825482526001830180548551818802810188019096528086529195879586959385830193919283018282801561176e57602002820191906000526020600020905b81548152602001906001019080831161175a575b50505050508152602001600282015481525050905080604001516000036117e3576001600a546001600160401b038111156117ab576117ab6150c7565b6040519080825280602002602001820160405280156117d4578160200160208202803683370190505b506000935093509350506117fa565b806000015181602001518260400151935093509350505b9193909250565b6060600a5460016118129190615910565b6001600160401b03811115611829576118296150c7565b60405190808252806020026020018201604052801561186257816020015b61184f614ec3565b8152602001906001900390816118475790505b509050826001600160a01b0385161561196057600c54600554604051632604e7a760e11b81526001600160a01b0392831692634c09cf4e926118af9289928b921690600390600401615b8f565b600060405180830381865afa1580156118cc573d6000803e3d6000fd5b505050506040513d6000823e601f3d908101601f191682016040526118f49190810190615c18565b8260008151811061190757611907615956565b602002602001018190525060008260008151811061192757611927615956565b602002602001015160000151905080600182516119449190615adc565b8151811061195457611954615956565b60200260200101519150505b60005b600a548160ff161015611af75783518160ff161015611af7576000600354858360ff168151811061199657611996615956565b6020026020010151846119a99190615a7e565b6119b39190615a9d565b90508015806119fa5750600554600b80546001600160a01b039092169160ff85169081106119e3576119e3615956565b6000918252602090912001546001600160a01b0316145b15611a055750611ae5565b600c54600554600b80546001600160a01b0393841693634c09cf4e93869391169160ff8816908110611a3957611a39615956565b6000918252602090912001546040516001600160e01b031960e086901b168152611a749392916001600160a01b031690600390600401615b8f565b600060405180830381865afa158015611a91573d6000803e3d6000fd5b505050506040513d6000823e601f3d908101601f19168201604052611ab99190810190615c18565b84611ac5846001615af3565b60ff1681518110611ad857611ad8615956565b6020026020010181905250505b80611aef8161596c565b915050611963565b50509392505050565b60025460ff16611b225760405162461bcd60e51b81526004016109b1906158b8565b611b2a613f0c565b336000908152600d602052604090206001810154611b5a5760405162461bcd60e51b81526004016109b190615d2c565b600a54611b68906001615910565b825114611b875760405162461bcd60e51b81526004016109b190615928565b6000805b600a54811015611d32576000836000018281548110611bac57611bac615956565b9060005260206000200154905080600f8381548110611bcd57611bcd615956565b906000526020600020016000828254611be69190615adc565b90915550508354849083908110611bff57611bff615956565b9060005260206000200154600003611c175750611d20565b600554600b80546000926001600160a01b0316919085908110611c3c57611c3c615956565b6000918252602090912001546001600160a01b031603611cba5750600554604051632e1a7d4d60e01b81526004810183905282916001600160a01b031690632e1a7d4d90602401600060405180830381600087803b158015611c9d57600080fd5b505af1158015611cb1573d6000803e3d6000fd5b50505050611d11565b611d0e82600b8581548110611cd157611cd1615956565b9060005260206000200160009054906101000a90046001600160a01b0316888681518110611d0157611d01615956565b60200260200101516145ac565b90505b611d1b8185615910565b935050505b80611d2a81615d59565b915050611b8b565b50600080611d3f3361433b565b90506000611d4b612db0565b6001860154909150670de0b6b3a7640000611d668387615a7e565b611d709190615a9d565b111561204f576000818660010154670de0b6b3a76400008488611d939190615a7e565b611d9d9190615a9d565b611da79190615adc565b611db990670de0b6b3a7640000615a7e565b611dc39190615a9d565b905060006002600354611dd69190615a6f565b60075460408051634cd2c83b60e01b8152905187926001600160a01b031691634cd2c83b9160048083019260209291908290030181865afa158015611e1f573d6000803e3d6000fd5b505050506040513d601f19601f82011682018060405250810190611e439190615865565b611e4d9085615a7e565b611e579190615a7e565b611e619190615a9d565b9050600760009054906101000a90046001600160a01b03166001600160a01b031663ba64248e6040518163ffffffff1660e01b8152600401602060405180830381865afa158015611eb6573d6000803e3d6000fd5b505050506040513d601f19601f82011682018060405250810190611eda9190615abf565b6001600160a01b03166108fc829081150290604051600060405180830381858888f19350505050158015611f12573d6000803e3d6000fd5b506002600354611f229190615a6f565b8460115484611f319190615a7e565b611f3b9190615a7e565b611f459190615a9d565b6015549095506001600160a01b0316611fc657846018600a5481548110611f6e57611f6e615956565b906000526020600020016000828254611f879190615910565b90915550670de0b6b3a76400009050611fa08487615a7e565b611faa9190615a9d565b60176000828254611fbb9190615910565b909155506120029050565b6015546040516001600160a01b039091169086156108fc029087906000818181858888f19350505050158015612000573d6000803e3d6000fd5b505b670de0b6b3a76400006120158487615a7e565b61201f9190615a9d565b601660008282546120309190615910565b9091555061204090508186615910565b61204a9087615adc565b955050505b60405133907fd4e556fd296fc0834606f2c7b26c79a95ca9d47e20661228079f52b2de00357b9061208590889088908890615d72565b60405180910390a2336000908152600d60205260408120906120a78282614eeb565b600182016000905550506120d887338689600a54815181106120cb576120cb615956565b6020026020010151614645565b505050505061088a60018055565b600f81815481106120f657600080fd5b600091825260209091200154905081565b60025460ff166121295760405162461bcd60e51b81526004016109b1906158b8565b612131613f0c565b336000908152600d60205260409020612148613f65565b600854604051632142170760e11b81526001600160a01b03909116906342842e0e9061217c90339030908790600401615dc7565b600060405180830381600087803b15801561219657600080fd5b505af11580156121aa573d6000803e3d6000fd5b5050600854604051630852cd8d60e31b8152600481018690526001600160a01b0390911692506342966c689150602401600060405180830381600087803b1580156121f457600080fd5b505af1158015612208573d6000803e3d6000fd5b5050506000838152600e602090815260408083208151606081018352815481526001820180548451818702810187019095528085529596509094919385810193929083018282801561227957602002820191906000526020600020905b815481526020019060010190808311612265575b50505091835250506002919091015460209091015282549091506000036122b55760208082015180516122af9285920190614e78565b50612331565b60005b600a548160ff16101561232f5781602001518160ff16815181106122de576122de615956565b6020026020010151836000018260ff16815481106122fe576122fe615956565b9060005260206000200160008282546123179190615910565b909155508190506123278161596c565b9150506122b8565b505b80604001518260010160008282546123499190615910565b90915550506020810151604080830151905133927f96bec10adb343aa10807f2b30b777bbe09e0fe1c8610fe422decfc71ba88ec9f9261238a928890615deb565b60405180910390a26000838152600e60205260408120818155906123b16001830182614eeb565b60028201600090555050505061088c60018055565b60025460ff166123e85760405162461bcd60e51b81526004016109b1906158b8565b6123f0613f0c565b60008111801561240257506003548111155b6124405760405162461bcd60e51b815260206004820152600f60248201526e125b9d985b1a59081c195c98d95b9d608a1b60448201526064016109b1565b336000908152600d6020526040902060018101546124705760405162461bcd60e51b81526004016109b190615d2c565b600061247b3361433b565b90506000612487612db0565b905060006124e4846000018054806020026020016040519081016040528092919081815260200182805480156108ee57602002820191906000526020600020908154815260200190600101908083116108da575050505050613c97565b90506000670de0b6b3a76400006124fb8484615a7e565b6125059190615a9d565b6001860154909150811160008161251d57600061252c565b600187015461252c9084615adc565b90506000600760009054906101000a90046001600160a01b03166001600160a01b031663ba64248e6040518163ffffffff1660e01b8152600401602060405180830381865afa158015612583573d6000803e3d6000fd5b505050506040513d601f19601f820116820180604052508101906125a79190615abf565b90506000600760009054906101000a90046001600160a01b03166001600160a01b0316634cd2c83b6040518163ffffffff1660e01b8152600401602060405180830381865afa1580156125fe573d6000803e3d6000fd5b505050506040513d601f19601f820116820180604052508101906126229190615865565b9050600060026003546126359190615a6f565b8a600101546126449190615a7e565b90506000600a546001600160401b03811115612662576126626150c7565b60405190808252806020026020018201604052801561268b578160200160208202803683370190505b50905060005b600a548110156128c55760006003548e8e60000184815481106126b6576126b6615956565b90600052602060002001546126cb9190615a7e565b6126d59190615a9d565b9050808383815181106126ea576126ea615956565b60200260200101818152505060008089156127ff5760008e61270c8b86615a7e565b6127169190615a7e565b9050866127238983615a7e565b61272d9190615a9d565b9150612761600b868154811061274557612745615956565b6000918252602090912001546001600160a01b03168a846148f3565b86601154826127709190615a7e565b61277a9190615a9d565b6015549093506001600160a01b03166127c55782601886815481106127a1576127a1615956565b9060005260206000200160008282546127ba9190615910565b909155506127fd9050565b6127fd600b86815481106127db576127db615956565b6000918252602090912001546015546001600160a01b039182169116856148f3565b505b612845600b858154811061281557612815615956565b6000918252602090912001546001600160a01b031633836128368688615adc565b6128409190615adc565b6148f3565b828f600001858154811061285b5761285b615956565b9060005260206000200160008282546128749190615adc565b9250508190555082600f858154811061288f5761288f615956565b9060005260206000200160008282546128a89190615adc565b9250508190555050505080806128bd90615d59565b915050612691565b506000861561299157600354866128dc8f8c615a7e565b6128e69190615a7e565b6128f09190615a9d565b9050828b601154836129029190615a7e565b61290c9190615a7e565b6129169190615a9d565b6015549091506001600160a01b031661295d57670de0b6b3a764000061293c8b83615a7e565b6129469190615a9d565b601760008282546129579190615910565b90915550505b670de0b6b3a76400006129708b83615a7e565b61297a9190615a9d565b6016600082825461298b9190615910565b90915550505b60006003548e8e600101546129a69190615a7e565b6129b09190615a9d565b9050808d60010160008282546129c69190615adc565b909155505060405133907fc7261db8b412ba6a79185449eee1fb190f1ccdcd00dacebd6bad09b4e033b33f90612a0190869085908790615deb565b60405180910390a25050505050505050505050505061088c60018055565b600b8181548110612a2f57600080fd5b6000918252602090912001546001600160a01b0316905081565b612a51613be2565b60025460ff16612a735760405162461bcd60e51b81526004016109b1906158b8565b6001600160a01b038116612a995760405162461bcd60e51b81526004016109b190615e10565b60006001600160a01b0316816001600160a01b031663b381cf406040518163ffffffff1660e01b8152600401602060405180830381865afa158015612ae2573d6000803e3d6000fd5b505050506040513d601f19601f82011682018060405250810190612b069190615abf565b6001600160a01b031603612b565760405162461bcd60e51b815260206004820152601760248201527624b73b30b634b21039bbb0b81030b3b3b932b3b0ba37b960491b60448201526064016109b1565b600c80546001600160a01b0319166001600160a01b038316908117909155604080516302ce073d60e61b8152905163b381cf40916004808201926020929091908290030181865afa158015612baf573d6000803e3d6000fd5b505050506040513d601f19601f82011682018060405250810190612bd39190615abf565b600580546001600160a01b0319166001600160a01b03929092169190911790556040517feffeb6d84590144cbff5304be4487d09001a14ab33344037bafcf8129f1cb85190612c239083906154e4565b60405180910390a150565b612c36613be2565b612c4060006149b1565b565b612c4a613be2565b6001600160a01b038116612c705760405162461bcd60e51b81526004016109b190615e39565b600880546001600160a01b0319166001600160a01b0383161790556040517ff7b003cc430c1bd951f3513f1b4524bd8974b4ccf0f8173e04c8672c3174bea990612c239083906154e4565b60025460ff16612cdd5760405162461bcd60e51b81526004016109b1906158b8565b612ce5613f0c565b601580546001600160a01b03191633179055612cff613f65565b612d07614a01565b600954601954604051632142170760e11b81526001600160a01b03909216916342842e0e91612d3c9133913091600401615dc7565b600060405180830381600087803b158015612d5657600080fd5b505af1158015612d6a573d6000803e3d6000fd5b50506019546040519081523392507fbb06f8d9e44b84f4104ab4ebb7f6f8a690e4c48b21c28c34453cbbd5d268e87a91506020015b60405180910390a2612c4060018055565b6004546000906001600160a01b0316612dc95750600090565b6000600460009054906101000a90046001600160a01b03166001600160a01b031663feaf968c6040518163ffffffff1660e01b815260040160a060405180830381865afa158015612e1e573d6000803e3d6000fd5b505050506040513d601f19601f82011682018060405250810190612e429190615e78565b50505091505080600003612e5857600091505090565b600480546040805163313ce56760e01b8152905184936000936001600160a01b03169263313ce56792818301926020928290030181865afa158015612ea1573d6000803e3d6000fd5b505050506040513d601f19601f82011682018060405250810190612ec59190615ec8565b612ed39060ff166012615adc565b612ede90600a615eeb565b6115a89083615a7e565b60606018805480602002602001604051908101604052809291908181526020018280548015612f3657602002820191906000526020600020905b815481526020019060010190808311612f22575b5050505050905090565b6013546001600160a01b03163314612f965760405162461bcd60e51b815260206004820152601960248201527839b2ba29b2b93b34b1b2a4b733379d102327a92124a22222a760391b60448201526064016109b1565b6001600160a01b038216612fbc5760405162461bcd60e51b81526004016109b190615e10565b601380546001600160a01b0319166001600160a01b03841617905560128190556040517fc208076e24c8758b41e972b01aa2abe614d7962b6d0a645f0e57b4161dd5141c9061152e90849084906158e1565b6000546001600160a01b031690565b6015546001600160a01b031633148061304e575061303961300e565b6001600160a01b0316336001600160a01b0316145b61306a5760405162461bcd60e51b81526004016109b190615b58565b6001600160a01b0381166130b15760405162461bcd60e51b815260206004820152600e60248201526d125b9d985b1a59081dd85b1b195d60921b60448201526064016109b1565b601580546001600160a01b0319166001600160a01b0383161790556040517f3d21e5a2b633291bd1ff5f9c654e402d063783c95759d2ea521b31fb30e4da4190612c239083906154e4565b60025460ff16156131455760405162461bcd60e51b8152602060048201526013602482015272105b1c9958591e481a5b9a5d1a585b1a5e9959606a1b60448201526064016109b1565b600061314f61300e565b6001600160a01b0316148061317c575061316761300e565b6001600160a01b0316336001600160a01b0316145b6131b65760405162461bcd60e51b815260206004820152600b60248201526a139bdd08185b1b1bddd95960aa1b60448201526064016109b1565b6005875111156132005760405162461bcd60e51b8152602060048201526015602482015274457863656564206d6178696d756d20746f6b656e7360581b60448201526064016109b1565b6002805460ff1916600117905588516132209060069060208c0190614f09565b50612710600355600480546001600160a01b0319908116730567f2323251f0aab15c8dfb1967e4e8a7d42aee178255600c80546001600160a01b038c16921682179055604080516302ce073d60e61b81529051919263b381cf409282820192602092908290030181865afa15801561329c573d6000803e3d6000fd5b505050506040513d601f19601f820116820180604052508101906132c09190615abf565b600580546001600160a01b03199081166001600160a01b03938416179091558851600a8190558651601055602080880151601155662386f26fc1000060125560138054735ac58191f3bbdf6d037c6c6201adc9f99c93c53a90851617905560148054841687861617905560158054841686861617905560078054339085161790556008805484168b8616179055600980549093169389169390931790915561336e91600b91908a0190614f7c565b50600a546001600160401b03811115613389576133896150c7565b6040519080825280602002602001820160405280156133b2578160200160208202803683370190505b5080516133c791600f91602090910190614e78565b50600a546133d6906001615910565b6001600160401b038111156133ed576133ed6150c7565b604051908082528060200260200182016040528015613416578160200160208202803683370190505b50805161342b91601891602090910190614e78565b50613435836149b1565b505050505050505050565b60025460ff166134625760405162461bcd60e51b81526004016109b1906158b8565b61346a613f0c565b6015546001600160a01b031633146134bd5760405162461bcd60e51b815260206004820152601660248201527521b0b63632b91034b9903737ba1037b832b930ba37b960511b60448201526064016109b1565b6134c5613f65565b601580546001600160a01b0319169055600954601954604051632142170760e11b81526001600160a01b03909216916342842e0e9161350a9130913391600401615dc7565b600060405180830381600087803b15801561352457600080fd5b505af1158015613538573d6000803e3d6000fd5b50506019546040519081523392507f7170d2ec5a07b199ad85a9a215df5614ccf55dd24983b06e9913141b12d549189150602001612d9f565b60025460009060ff166135965760405162461bcd60e51b81526004016109b1906158b8565b61359e613f0c565b336000908152600d6020526040902060018101546135ce5760405162461bcd60e51b81526004016109b190615d2c565b6135d6613f65565b6008546040516335313c2160e11b81526000916001600160a01b031690636a627842906136079033906004016154e4565b6020604051808303816000875af1158015613626573d6000803e3d6000fd5b505050506040513d601f19601f8201168201806040525081019061364a9190615865565b6000818152600e6020526040902083549192509061366e9060018301908590614fd1565b5060018084015460028301819055908255683635c9adc5dea00000111561369457600081555b69010f0cf064dd59200000816002015411156136af57600281555b336000908152600d60205260408120906136c98282614eeb565b506000600191820155600282015460405133927f23a7eea526d8a3a3e31ee796d6571345c8faf8fcfc6e509a67d85f97ffcd6de99261370d92918601918790615d72565b60405180910390a250915050610b4060018055565b61372a613be2565b6019541561377a5760405162461bcd60e51b815260206004820152601b60248201527f4465706c6f796572204e465420616c7265616479206d696e746564000000000060448201526064016109b1565b6001600160a01b0381166137a05760405162461bcd60e51b81526004016109b190615e39565b600980546001600160a01b0319166001600160a01b0383161790556040517fd9b677b9c9b93164c658b14fa5a5d48912dbd03c690acb1cff638697159aabcd90612c239083906154e4565b6060600a5460016137fc9190615910565b6001600160401b03811115613813576138136150c7565b60405190808252806020026020018201604052801561384c57816020015b613839614ec3565b8152602001906001900390816138315790505b50336000908152600d6020908152604080832081518154606094810282018501845292810183815295965093949092849284918401828280156138ae57602002820191906000526020600020905b81548152602001906001019080831161389a575b5050509183525050600191909101546020909101528051909150600090815b600a54811015613ab3578181815181106138e9576138e9615956565b602002602001015160000315613aa157600554600b80546001600160a01b03909216918390811061391c5761391c615956565b6000918252602090912001546001600160a01b0316036139625781818151811061394857613948615956565b60200260200101518361395b9190615910565b9250613aa1565b600c5482516001600160a01b0390911690634c09cf4e9084908490811061398b5761398b615956565b6020026020010151600b84815481106139a6576139a6615956565b6000918252602090912001546005546040516001600160e01b031960e086901b1681526139e793926001600160a01b03908116921690600390600401615b8f565b600060405180830381865afa158015613a04573d6000803e3d6000fd5b505050506040513d6000823e601f3d908101601f19168201604052613a2c9190810190615c18565b858281518110613a3e57613a3e615956565b60200260200101819052506000858281518110613a5d57613a5d615956565b60200260200101516000015190508060018251613a7a9190615adc565b81518110613a8a57613a8a615956565b602002602001015184613a9d9190615910565b9350505b80613aab81615d59565b9150506138cd565b506001600160a01b03851615613b6457600c54600554604051632604e7a760e11b81526001600160a01b0392831692634c09cf4e92613aff928792909116908a90600390600401615b8f565b600060405180830381865afa158015613b1c573d6000803e3d6000fd5b505050506040513d6000823e601f3d908101601f19168201604052613b449190810190615c18565b84600a5481518110613b5857613b58615956565b60200260200101819052505b505050919050565b613b74613be2565b6001600160a01b038116613bd95760405162461bcd60e51b815260206004820152602660248201527f4f776e61626c653a206e6577206f776e657220697320746865207a65726f206160448201526564647265737360d01b60648201526084016109b1565b61088c816149b1565b33613beb61300e565b6001600160a01b031614612c405760405162461bcd60e51b815260206004820181905260248201527f4f776e61626c653a2063616c6c6572206973206e6f7420746865206f776e657260448201526064016109b1565b6107ff8363a9059cbb60e01b8484604051602401613c609291906158e1565b60408051601f198184030181529190526020810180516001600160e01b03166001600160e01b031990931692909217909152614b6e565b600080600c60009054906101000a90046001600160a01b03166001600160a01b0316636a2e87246040518163ffffffff1660e01b8152600401602060405180830381865afa158015613ced573d6000803e3d6000fd5b505050506040513d601f19601f82011682018060405250810190613d119190615865565b9050613d1b614ec3565b60005b600a548160ff161015613b6457848160ff1681518110613d4057613d40615956565b602002602001015160000315613efa57600554600b80546001600160a01b039092169160ff8416908110613d7657613d76615956565b6000918252602090912001546001600160a01b031603613dbf57848160ff1681518110613da557613da5615956565b602002602001015184613db89190615910565b9350613efa565b600c5485516001600160a01b0390911690634c09cf4e90879060ff8516908110613deb57613deb615956565b6020026020010151600b8460ff1681548110613e0957613e09615956565b6000918252602090912001546005546040516001600160e01b031960e086901b168152613e4a93926001600160a01b03908116921690600390600401615b8f565b600060405180830381865afa158015613e67573d6000803e3d6000fd5b505050506040513d6000823e601f3d908101601f19168201604052613e8f9190810190615c18565b80518051919350600091613ea590600190615adc565b81518110613eb557613eb5615956565b602002602001015190506000841115613eec57612710613ed58582615adc565b613edf9083615a7e565b613ee99190615a9d565b90505b613ef68186615910565b9450505b80613f048161596c565b915050613d1e565b600260015403613f5e5760405162461bcd60e51b815260206004820152601f60248201527f5265656e7472616e637947756172643a207265656e7472616e742063616c6c0060448201526064016109b1565b6002600155565b601254341015613fc35760405162461bcd60e51b815260206004820152602360248201527f53686f756c642070617920736d616c6c2067617320746f2063616c6c206d65746044820152621a1bd960ea1b60648201526084016109b1565b6013546012546040516001600160a01b039092169181156108fc0291906000818181858888f1935050505015801561088c573d6000803e3d6000fd5b60006001600160a01b038416614016575034614334565b6007546040516373a2049760e11b81526000916001600160a01b03169063e744092e906140479088906004016154e4565b602060405180830381865afa158015614064573d6000803e3d6000fd5b505050506040513d601f19601f820116820180604052508101906140889190615ec8565b905060008160ff16116140e95760405162461bcd60e51b8152602060048201526024808201527f43616e6e6f74207a617020696e207769746820756e737570706f72746564207460448201526337b5b2b760e11b60648201526084016109b1565b6103e8841161412e5760405162461bcd60e51b8152602060048201526011602482015270139bdd08195b9bdd59da08185b5bdd5b9d607a1b60448201526064016109b1565b6141436001600160a01b038616333087614c40565b8060ff16600103614160576141598486856145ac565b9150614332565b600754604051635a0f4c8d60e11b81528593506000916001600160a01b03169063b41e991a906141949089906004016154e4565b602060405180830381865afa1580156141b1573d6000803e3d6000fd5b505050506040513d601f19601f820116820180604052508101906141d59190615abf565b6005549091506001600160a01b039081169087160361425157600554604051632e1a7d4d60e01b8152600481018790526001600160a01b0390911690632e1a7d4d90602401600060405180830381600087803b15801561423457600080fd5b505af1158015614248573d6000803e3d6000fd5b50505050611af7565b60405163095ea7b360e01b81526001600160a01b0387169063095ea7b39061427f90849089906004016158e1565b6020604051808303816000875af115801561429e573d6000803e3d6000fd5b505050506040513d601f19601f820116820180604052508101906142c29190615ef7565b50604051632e1a7d4d60e01b8152600481018690526001600160a01b03821690632e1a7d4d906024016020604051808303816000875af115801561430a573d6000803e3d6000fd5b505050506040513d601f19601f8201168201806040525081019061432e9190615865565b9250505b505b9392505050565b600080600760009054906101000a90046001600160a01b03166001600160a01b03166301a362a86040518163ffffffff1660e01b8152600401602060405180830381865afa158015614391573d6000803e3d6000fd5b505050506040513d601f19601f820116820180604052508101906143b59190615abf565b90506001600160a01b0381166143cf575050600354919050565b604051635f7d4b6760e11b81526001600160a01b0382169063befa96ce906143fb9086906004016154e4565b602060405180830381865afa158015614418573d6000803e3d6000fd5b505050506040513d601f19601f8201168201806040525081019061443c9190615865565b6003546143349190615adc565b8381526040516370a0823160e01b815260009081906001600160a01b038616906370a082319061447d9087906004016154e4565b602060405180830381865afa15801561449a573d6000803e3d6000fd5b505050506040513d601f19601f820116820180604052508101906144be9190615865565b600c5460405163298b2cd760e01b81529192506001600160a01b03169063298b2cd79088906144f39087908990600401615f19565b6000604051808303818588803b15801561450c57600080fd5b505af1158015614520573d6000803e3d6000fd5b50506040516370a0823160e01b8152600093506001600160a01b03891692506370a0823191506145549088906004016154e4565b602060405180830381865afa158015614571573d6000803e3d6000fd5b505050506040513d601f19601f820116820180604052508101906145959190615865565b90506145a18282615adc565b979650505050505050565b828152600c546000906145cc906001600160a01b03858116911686614c61565b600c5460405163987b37bd60e01b815247916001600160a01b03169063987b37bd906145fe9086903090600401615f19565b600060405180830381600087803b15801561461857600080fd5b505af115801561462c573d6000803e3d6000fd5b50505050804761463c9190615adc565b95945050505050565b6001600160a01b03841661468f576040516001600160a01b0384169083156108fc029084906000818181858888f19350505050158015614689573d6000803e3d6000fd5b50611358565b6007546040516373a2049760e11b81526000916001600160a01b03169063e744092e906146c09088906004016154e4565b602060405180830381865afa1580156146dd573d6000803e3d6000fd5b505050506040513d601f19601f820116820180604052508101906147019190615ec8565b905060008160ff16116147565760405162461bcd60e51b815260206004820152601e60248201527f43616e6e6f74207a6170206f75742077697468207468697320746f6b656e000060448201526064016109b1565b8060ff166001036147735761476d83868685614449565b506148ec565b60055483906001600160a01b03908116908716036147f957600560009054906101000a90046001600160a01b03166001600160a01b031663d0e30db0856040518263ffffffff1660e01b81526004016000604051808303818588803b1580156147db57600080fd5b505af11580156147ef573d6000803e3d6000fd5b50505050506148d6565b600754604051635a0f4c8d60e11b81526000916001600160a01b03169063b41e991a9061482a908a906004016154e4565b602060405180830381865afa158015614847573d6000803e3d6000fd5b505050506040513d601f19601f8201168201806040525081019061486b9190615abf565b9050806001600160a01b031663d0e30db0866040518263ffffffff1660e01b815260040160206040518083038185885af11580156148ad573d6000803e3d6000fd5b50505050506040513d601f19601f820116820180604052508101906148d29190615865565b9150505b6148ea6001600160a01b0387168683613c41565b505b5050505050565b6005546001600160a01b039081169084160361499d57600554604051632e1a7d4d60e01b8152600481018390526001600160a01b0390911690632e1a7d4d90602401600060405180830381600087803b15801561494f57600080fd5b505af1158015614963573d6000803e3d6000fd5b50506040516001600160a01b038516925083156108fc02915083906000818181858888f19350505050158015611358573d6000803e3d6000fd5b6107ff6001600160a01b0384168383613c41565b600080546001600160a01b038381166001600160a01b0319831681178455604051919092169283917f8be0079c531659141344cd1fd0a4f28419497f9722a3daafe3b4186f6b6457e09190a35050565b60005b600a548111614b2f5760188181548110614a2057614a20615956565b906000526020600020015460000315614b1d57600a54811015614a9b57614a96600b8281548110614a5357614a53615956565b600091825260209091200154601554601880546001600160a01b03938416939092169185908110614a8657614a86615956565b90600052602060002001546148f3565b614afb565b601554601880546001600160a01b03909216916108fc919084908110614ac357614ac3615956565b90600052602060002001549081150290604051600060405180830381858888f19350505050158015614af9573d6000803e3d6000fd5b505b600060188281548110614b1057614b10615956565b6000918252602090912001555b80614b2781615d59565b915050614a04565b50600060178190556015546040516001600160a01b03909116917fac13ae50ed2f466efe15ec017279d84440c99a3e8df4f16e5cc459e6da5999a991a2565b6000614bc3826040518060400160405280602081526020017f5361666545524332303a206c6f772d6c6576656c2063616c6c206661696c6564815250856001600160a01b0316614d659092919063ffffffff16565b8051909150156107ff5780806020019051810190614be19190615ef7565b6107ff5760405162461bcd60e51b815260206004820152602a60248201527f5361666545524332303a204552433230206f7065726174696f6e20646964206e6044820152691bdd081cdd58d8d9595960b21b60648201526084016109b1565b611358846323b872dd60e01b858585604051602401613c6093929190615dc7565b801580614cdb5750604051636eb1769f60e11b81523060048201526001600160a01b03838116602483015284169063dd62ed3e90604401602060405180830381865afa158015614cb5573d6000803e3d6000fd5b505050506040513d601f19601f82011682018060405250810190614cd99190615865565b155b614d465760405162461bcd60e51b815260206004820152603660248201527f5361666545524332303a20617070726f76652066726f6d206e6f6e2d7a65726f60448201527520746f206e6f6e2d7a65726f20616c6c6f77616e636560501b60648201526084016109b1565b6107ff8363095ea7b360e01b8484604051602401613c609291906158e1565b60606115a8848460008585600080866001600160a01b03168587604051614d8c9190615f7e565b60006040518083038185875af1925050503d8060008114614dc9576040519150601f19603f3d011682016040523d82523d6000602084013e614dce565b606091505b50915091506145a18783838760608315614e49578251600003614e42576001600160a01b0385163b614e425760405162461bcd60e51b815260206004820152601d60248201527f416464726573733a2063616c6c20746f206e6f6e2d636f6e747261637400000060448201526064016109b1565b50816115a8565b6115a88383815115614e5e5781518083602001fd5b8060405162461bcd60e51b81526004016109b19190615094565b828054828255906000526020600020908101928215614eb3579160200282015b82811115614eb3578251825591602001919060010190614e98565b50614ebf929150615011565b5090565b6040518060800160405280606081526020016060815260200160608152602001600081525090565b508054600082559060005260206000209081019061088c9190615011565b828054614f159061587e565b90600052602060002090601f016020900481019282614f375760008555614eb3565b82601f10614f5057805160ff1916838001178555614eb3565b82800160010185558215614eb35791820182811115614eb3578251825591602001919060010190614e98565b828054828255906000526020600020908101928215614eb3579160200282015b82811115614eb357825182546001600160a01b0319166001600160a01b03909116178255602090920191600190910190614f9c565b828054828255906000526020600020908101928215614eb35760005260206000209182015b82811115614eb3578254825591600101919060010190614ff6565b5b80821115614ebf5760008155600101615012565b6001600160a01b038116811461088c57600080fd5b803561504681615026565b919050565b60006020828403121561505d57600080fd5b813561433481615026565b60005b8381101561508357818101518382015260200161506b565b838111156113585750506000910152565b60208152600082518060208401526150b3816040850160208701615068565b601f01601f19169190910160400192915050565b634e487b7160e01b600052604160045260246000fd5b604051608081016001600160401b03811182821017156150ff576150ff6150c7565b60405290565b604051601f8201601f191681016001600160401b038111828210171561512d5761512d6150c7565b604052919050565b60006001600160401b0382111561514e5761514e6150c7565b5060051b60200190565b600082601f83011261516957600080fd5b8135602061517e61517983615135565b615105565b82815260059290921b8401810191818101908684111561519d57600080fd5b8286015b848110156151b857803583529183019183016151a1565b509695505050505050565b600082601f8301126151d457600080fd5b813560206151e461517983615135565b82815260059290921b8401810191818101908684111561520357600080fd5b8286015b848110156151b857803561521a81615026565b8352918301918301615207565b600082601f83011261523857600080fd5b8135602061524861517983615135565b82815260059290921b8401810191818101908684111561526757600080fd5b8286015b848110156151b85780356001600160401b038082111561528b5760008081fd5b908801906080828b03601f19018113156152a55760008081fd5b6152ad6150dd565b87840135815260408085013589830152606080860135858111156152d15760008081fd5b6152df8f8c838a01016151c3565b84840152509285013592848411156152f957600091508182fd5b6153078e8b868901016151c3565b9083015250865250505091830191830161526b565b6000806000806080858703121561533257600080fd5b843561533d81615026565b93506020850135925060408501356001600160401b038082111561536057600080fd5b61536c88838901615158565b9350606087013591508082111561538257600080fd5b5061538f87828801615227565b91505092959194509250565b600080604083850312156153ae57600080fd5b50508035926020909101359150565b60006001600160401b038311156153d6576153d66150c7565b6153e9601f8401601f1916602001615105565b90508281528383830111156153fd57600080fd5b828260208301376000602084830101529392505050565b6000806000806080858703121561542a57600080fd5b843561543581615026565b9350602085013561544581615026565b92506040850135915060608501356001600160401b0381111561546757600080fd5b8501601f8101871361547857600080fd5b61538f878235602084016153bd565b600081518084526020808501945080840160005b838110156154b75781518752958201959082019060010161549b565b509495945050505050565b6040815260006154d56040830185615487565b90508260208301529392505050565b6001600160a01b0391909116815260200190565b60006020828403121561550a57600080fd5b5035919050565b83815260606020820152600061552a6060830185615487565b9050826040830152949350505050565b60008060006060848603121561554f57600080fd5b833561555a81615026565b92506020840135915060408401356001600160401b0381111561557c57600080fd5b61558886828701615158565b9150509250925092565b600081518084526020808501945080840160005b838110156154b75781516001600160a01b0316875295820195908201906001016155a6565b60006020808301818452808551808352604092508286019150828160051b87010184880160005b8381101561566957603f1989840301855281516080815181865261561882870182615487565b915050888201518582038a8701526156308282615592565b91505087820151858203898701526156488282615592565b606093840151969093019590955250948701949250908601906001016155f2565b509098975050505050505050565b6000806040838503121561568a57600080fd5b823561569581615026565b915060208301356001600160401b038111156156b057600080fd5b6156bc85828601615227565b9150509250929050565b6020815260006143346020830184615487565b600080604083850312156156ec57600080fd5b82356156f781615026565b946020939093013593505050565b600082601f83011261571657600080fd5b604051604081018181106001600160401b0382111715615738576157386150c7565b806040525080604084018581111561574f57600080fd5b845b81811015615769578035835260209283019201615751565b509195945050505050565b60008060008060008060008060006101408a8c03121561579357600080fd5b89356001600160401b03808211156157aa57600080fd5b818c0191508c601f8301126157be57600080fd5b6157cd8d8335602085016153bd565b9a506157db60208d0161503b565b995060408c01359150808211156157f157600080fd5b506157fe8c828d016151c3565b97505061580d60608b0161503b565b955061581b60808b0161503b565b945061582a8b60a08c01615705565b935061583860e08b0161503b565b92506158476101008b0161503b565b91506158566101208b0161503b565b90509295985092959850929598565b60006020828403121561587757600080fd5b5051919050565b600181811c9082168061589257607f821691505b6020821081036158b257634e487b7160e01b600052602260045260246000fd5b50919050565b6020808252600f908201526e139bdd081a5b9a5d1a585b1a5e9959608a1b604082015260600190565b6001600160a01b03929092168252602082015260400190565b634e487b7160e01b600052601160045260246000fd5b60008219821115615923576159236158fa565b500190565b602080825260149082015273496e76616c696420747261646520636f6e66696760601b604082015260600190565b634e487b7160e01b600052603260045260246000fd5b600060ff821660ff8103615982576159826158fa565b60010192915050565b600181815b808511156159c65781600019048211156159ac576159ac6158fa565b808516156159b957918102915b93841c9390800290615990565b509250929050565b6000826159dd575060016108f8565b816159ea575060006108f8565b8160018114615a005760028114615a0a57615a26565b60019150506108f8565b60ff841115615a1b57615a1b6158fa565b50506001821b6108f8565b5060208310610133831016604e8410600b8410161715615a49575081810a6108f8565b615a53838361598b565b8060001904821115615a6757615a676158fa565b029392505050565b600061433460ff8416836159ce565b6000816000190483118215151615615a9857615a986158fa565b500290565b600082615aba57634e487b7160e01b600052601260045260246000fd5b500490565b600060208284031215615ad157600080fd5b815161433481615026565b600082821015615aee57615aee6158fa565b500390565b600060ff821660ff84168060ff03821115615b1057615b106158fa565b019392505050565b85815260a060208201526000615b3160a0830187615487565b8281036040840152615b438187615487565b60608401959095525050608001529392505050565b6020808252601a908201527f43616c6c6572206973206e6f7420746865206f70657261746f72000000000000604082015260600190565b9384526001600160a01b03928316602085015291166040830152606082015260800190565b600082601f830112615bc557600080fd5b81516020615bd561517983615135565b82815260059290921b84018101918181019086841115615bf457600080fd5b8286015b848110156151b8578051615c0b81615026565b8352918301918301615bf8565b60006020808385031215615c2b57600080fd5b82516001600160401b0380821115615c4257600080fd5b9084019060808287031215615c5657600080fd5b615c5e6150dd565b825182811115615c6d57600080fd5b8301601f81018813615c7e57600080fd5b8051615c8c61517982615135565b81815260059190911b8201860190868101908a831115615cab57600080fd5b928701925b82841015615cc957835182529287019290870190615cb0565b84525050508284015182811115615cdf57600080fd5b615ceb88828601615bb4565b85830152506040830151935081841115615d0457600080fd5b615d1087858501615bb4565b6040820152606083015160608201528094505050505092915050565b6020808252601390820152724e6f20617661696c61626c6520746f6b656e7360681b604082015260600190565b600060018201615d6b57615d6b6158fa565b5060010190565b6000606082016060835280865480835260808501915087600052602092508260002060005b82811015615db357815484529284019260019182019101615d97565b505050908301949094525060400152919050565b6001600160a01b039384168152919092166020820152604081019190915260600190565b606081526000615dfe6060830186615487565b60208301949094525060400152919050565b6020808252600f908201526e496e76616c6964206164647265737360881b604082015260600190565b6020808252600b908201526a125b9d985b1a590813919560aa1b604082015260600190565b805169ffffffffffffffffffff8116811461504657600080fd5b600080600080600060a08688031215615e9057600080fd5b615e9986615e5e565b9450602086015193506040860151925060608601519150615ebc60808701615e5e565b90509295509295909350565b600060208284031215615eda57600080fd5b815160ff8116811461433457600080fd5b600061433483836159ce565b600060208284031215615f0957600080fd5b8151801515811461433457600080fd5b60408152825160408201526020830151606082015260006040840151608080840152615f4860c0840182615592565b90506060850151603f198483030160a0850152615f658282615592565b9250505060018060a01b03831660208301529392505050565b60008251615f90818460208701615068565b919091019291505056fea26469706673582212209c2cd299cdb5fef55b3e8807e3d1d6f1edd96aaeff2a53756146871aa5d0035664736f6c634300080e0033",
  "devdoc": {
    "kind": "dev",
    "methods": {
      "estimateEthforNft(uint256)": {
        "params": {
          "_tokenId": ": token Id of BrewlabsIndex NFT"
        }
      },
      "estimateEthforUser(address)": {
        "params": {
          "_user": ": user address"
        }
      },
      "initialize(string,address,address[],address,address,uint256[2],address,address,address)": {
        "params": {
          "_commissionWallet": ": index commission wallet",
          "_deployer": ": index deployer address",
          "_deployerNft": ": Deployer NFT address",
          "_fees": ": additional fee for deployer",
          "_indexNft": ": Index NFT address",
          "_name": ": index name",
          "_owner": ": index owner address",
          "_tokens": ": token list that user can buy in a transaction"
        }
      },
      "nftInfo(uint256)": {
        "params": {
          "_tokenId": ": owned tokenId"
        }
      },
      "owner()": {
        "details": "Returns the address of the current owner."
      },
      "renounceOwnership()": {
        "details": "Leaves the contract without owner. It will not be possible to call `onlyOwner` functions anymore. Can only be called by the current owner. NOTE: Renouncing ownership will leave the contract without an owner, thereby removing any functionality that is only available to the owner."
      },
      "rescueTokens(address)": {
        "params": {
          "_token": ": token address"
        }
      },
      "setFeeWallet(address)": {
        "params": {
          "_feeWallet": ": address to receive deposit/commission fee"
        }
      },
      "setFees(uint256,uint256)": {
        "params": {
          "_commissionFee": ": commission fee in point",
          "_depositfee": ": deposit fee in point"
        }
      },
      "setServiceInfo(address,uint256)": {
        "params": {
          "_addr": ": new treasury address",
          "_fee": ": percentage in point"
        }
      },
      "setSwapAggregator(address)": {
        "params": {
          "_aggregator": ": swap Aggregator address"
        }
      },
      "transferOwnership(address)": {
        "details": "Transfers ownership of the contract to a new account (`newOwner`). Can only be called by the current owner."
      },
      "userInfo(address)": {
        "params": {
          "_user": ": user address"
        }
      },
      "zapIn(address,uint256,uint256[],(uint256,uint256,address[],address[])[])": {
        "params": {
          "_percents": ": list of ETH allocation points to buy tokens"
        }
      }
    },
    "version": 1
  },
  "userdoc": {
    "kind": "user",
    "methods": {
      "claimTokens(uint256)": {
        "notice": "Claim tokens from contract.         If the user exits the index in a loss then there is no fee.         If the user exists the index in a profit, processing fee will be applied."
      },
      "estimateEthforNft(uint256)": {
        "notice": "Returns estimated eth amount that can get from NFT item."
      },
      "estimateEthforUser(address)": {
        "notice": "Returns estimated eth amount when user zapout."
      },
      "initialize(string,address,address[],address,address,uint256[2],address,address,address)": {
        "notice": "Initialize index contract."
      },
      "mintNft()": {
        "notice": "Once the user purchases the tokens through the contract, the user can then choose to at anytime  to mint an NFT that would represent the ownership of their tokens in the contract. The purpose of this is to allow users to mint an NFT that represents their value in the index and at their discretion,  transfer or sell that NFT to another wallet."
      },
      "nftInfo(uint256)": {
        "notice": "Returns tokens locked in NFT and ETH amount at the time when bought tokens."
      },
      "onERC721Received(address,address,uint256,bytes)": {
        "notice": "onERC721Received(address operator, address from, uint256 tokenId, bytes data)  bytes4 It must return its Solidity selector to confirm the token transfer. If any other value is returned or the interface is not implemented by the recipient, the transfer will be reverted."
      },
      "rescueTokens(address)": {
        "notice": "Emergency withdraw tokens."
      },
      "setFeeWallet(address)": {
        "notice": "Update fee wallet."
      },
      "setFees(uint256,uint256)": {
        "notice": "Update processing fee."
      },
      "setServiceInfo(address,uint256)": {
        "notice": "This method can be called by treasury.Update treasury wallet and performance fee."
      },
      "setSwapAggregator(address)": {
        "notice": "Update swap aggregator."
      },
      "stakeNft(uint256)": {
        "notice": "Stake the NFT back into the index to claim/zap out their tokens."
      },
      "userInfo(address)": {
        "notice": "Returns purchased tokens and ETH amount at the time when bought tokens."
      },
      "zapIn(address,uint256,uint256[],(uint256,uint256,address[],address[])[])": {
        "notice": "Buy tokens by paying ETH and lock tokens in contract.         When buy tokens, should pay processing fee(brewlabs fixed fee + deployer fee)."
      },
      "zapOut(address,(uint256,uint256,address[],address[])[])": {
        "notice": "Sale tokens from contract and claim ETH.         If the user exits the index in a loss then there is no fee.         If the user exists the index in a profit, processing fee will be applied."
      }
    },
    "version": 1
  },
  "storageLayout": {
    "storage": [
      {
        "astId": 883,
        "contract": "contracts/indexes/BrewlabsIndex.sol:BrewlabsIndex",
        "label": "_owner",
        "offset": 0,
        "slot": "0",
        "type": "t_address"
      },
      {
        "astId": 1187,
        "contract": "contracts/indexes/BrewlabsIndex.sol:BrewlabsIndex",
        "label": "_status",
        "offset": 0,
        "slot": "1",
        "type": "t_uint256"
      },
      {
        "astId": 34923,
        "contract": "contracts/indexes/BrewlabsIndex.sol:BrewlabsIndex",
        "label": "isInitialized",
        "offset": 0,
        "slot": "2",
        "type": "t_bool"
      },
      {
        "astId": 34925,
        "contract": "contracts/indexes/BrewlabsIndex.sol:BrewlabsIndex",
        "label": "FEE_DENOMINATOR",
        "offset": 0,
        "slot": "3",
        "type": "t_uint256"
      },
      {
        "astId": 34927,
        "contract": "contracts/indexes/BrewlabsIndex.sol:BrewlabsIndex",
        "label": "PRICE_FEED",
        "offset": 0,
        "slot": "4",
        "type": "t_address"
      },
      {
        "astId": 34929,
        "contract": "contracts/indexes/BrewlabsIndex.sol:BrewlabsIndex",
        "label": "WNATIVE",
        "offset": 0,
        "slot": "5",
        "type": "t_address"
      },
      {
        "astId": 34931,
        "contract": "contracts/indexes/BrewlabsIndex.sol:BrewlabsIndex",
        "label": "name",
        "offset": 0,
        "slot": "6",
        "type": "t_string_storage"
      },
      {
        "astId": 34934,
        "contract": "contracts/indexes/BrewlabsIndex.sol:BrewlabsIndex",
        "label": "factory",
        "offset": 0,
        "slot": "7",
        "type": "t_contract(IBrewlabsIndexFactory)34890"
      },
      {
        "astId": 34937,
        "contract": "contracts/indexes/BrewlabsIndex.sol:BrewlabsIndex",
        "label": "indexNft",
        "offset": 0,
        "slot": "8",
        "type": "t_contract(IERC721)4743"
      },
      {
        "astId": 34940,
        "contract": "contracts/indexes/BrewlabsIndex.sol:BrewlabsIndex",
        "label": "deployerNft",
        "offset": 0,
        "slot": "9",
        "type": "t_contract(IERC721)4743"
      },
      {
        "astId": 34942,
        "contract": "contracts/indexes/BrewlabsIndex.sol:BrewlabsIndex",
        "label": "NUM_TOKENS",
        "offset": 0,
        "slot": "10",
        "type": "t_uint256"
      },
      {
        "astId": 34946,
        "contract": "contracts/indexes/BrewlabsIndex.sol:BrewlabsIndex",
        "label": "tokens",
        "offset": 0,
        "slot": "11",
        "type": "t_array(t_contract(IERC20)3296)dyn_storage"
      },
      {
        "astId": 34949,
        "contract": "contracts/indexes/BrewlabsIndex.sol:BrewlabsIndex",
        "label": "swapAggregator",
        "offset": 0,
        "slot": "12",
        "type": "t_contract(IBrewlabsAggregator)43402"
      },
      {
        "astId": 34960,
        "contract": "contracts/indexes/BrewlabsIndex.sol:BrewlabsIndex",
        "label": "users",
        "offset": 0,
        "slot": "13",
        "type": "t_mapping(t_address,t_struct(UserInfo)34955_storage)"
      },
      {
        "astId": 34973,
        "contract": "contracts/indexes/BrewlabsIndex.sol:BrewlabsIndex",
        "label": "nfts",
        "offset": 0,
        "slot": "14",
        "type": "t_mapping(t_uint256,t_struct(NftInfo)34968_storage)"
      },
      {
        "astId": 34976,
        "contract": "contracts/indexes/BrewlabsIndex.sol:BrewlabsIndex",
        "label": "totalStaked",
        "offset": 0,
        "slot": "15",
        "type": "t_array(t_uint256)dyn_storage"
      },
      {
        "astId": 34978,
        "contract": "contracts/indexes/BrewlabsIndex.sol:BrewlabsIndex",
        "label": "depositFee",
        "offset": 0,
        "slot": "16",
        "type": "t_uint256"
      },
      {
        "astId": 34980,
        "contract": "contracts/indexes/BrewlabsIndex.sol:BrewlabsIndex",
        "label": "commissionFee",
        "offset": 0,
        "slot": "17",
        "type": "t_uint256"
      },
      {
        "astId": 34982,
        "contract": "contracts/indexes/BrewlabsIndex.sol:BrewlabsIndex",
        "label": "performanceFee",
        "offset": 0,
        "slot": "18",
        "type": "t_uint256"
      },
      {
        "astId": 34984,
        "contract": "contracts/indexes/BrewlabsIndex.sol:BrewlabsIndex",
        "label": "treasury",
        "offset": 0,
        "slot": "19",
        "type": "t_address"
      },
      {
        "astId": 34986,
        "contract": "contracts/indexes/BrewlabsIndex.sol:BrewlabsIndex",
        "label": "deployer",
        "offset": 0,
        "slot": "20",
        "type": "t_address"
      },
      {
        "astId": 34988,
        "contract": "contracts/indexes/BrewlabsIndex.sol:BrewlabsIndex",
        "label": "commissionWallet",
        "offset": 0,
        "slot": "21",
        "type": "t_address"
      },
      {
        "astId": 34990,
        "contract": "contracts/indexes/BrewlabsIndex.sol:BrewlabsIndex",
        "label": "totalEarned",
        "offset": 0,
        "slot": "22",
        "type": "t_uint256"
      },
      {
        "astId": 34992,
        "contract": "contracts/indexes/BrewlabsIndex.sol:BrewlabsIndex",
        "label": "totalCommissions",
        "offset": 0,
        "slot": "23",
        "type": "t_uint256"
      },
      {
        "astId": 34995,
        "contract": "contracts/indexes/BrewlabsIndex.sol:BrewlabsIndex",
        "label": "pendingCommissions",
        "offset": 0,
        "slot": "24",
        "type": "t_array(t_uint256)dyn_storage"
      },
      {
        "astId": 34997,
        "contract": "contracts/indexes/BrewlabsIndex.sol:BrewlabsIndex",
        "label": "deployerNftId",
        "offset": 0,
        "slot": "25",
        "type": "t_uint256"
      }
    ],
    "types": {
      "t_address": {
        "encoding": "inplace",
        "label": "address",
        "numberOfBytes": "20"
      },
      "t_array(t_contract(IERC20)3296)dyn_storage": {
        "base": "t_contract(IERC20)3296",
        "encoding": "dynamic_array",
        "label": "contract IERC20[]",
        "numberOfBytes": "32"
      },
      "t_array(t_uint256)dyn_storage": {
        "base": "t_uint256",
        "encoding": "dynamic_array",
        "label": "uint256[]",
        "numberOfBytes": "32"
      },
      "t_bool": {
        "encoding": "inplace",
        "label": "bool",
        "numberOfBytes": "1"
      },
      "t_contract(IBrewlabsAggregator)43402": {
        "encoding": "inplace",
        "label": "contract IBrewlabsAggregator",
        "numberOfBytes": "20"
      },
      "t_contract(IBrewlabsIndexFactory)34890": {
        "encoding": "inplace",
        "label": "contract IBrewlabsIndexFactory",
        "numberOfBytes": "20"
      },
      "t_contract(IERC20)3296": {
        "encoding": "inplace",
        "label": "contract IERC20",
        "numberOfBytes": "20"
      },
      "t_contract(IERC721)4743": {
        "encoding": "inplace",
        "label": "contract IERC721",
        "numberOfBytes": "20"
      },
      "t_mapping(t_address,t_struct(UserInfo)34955_storage)": {
        "encoding": "mapping",
        "key": "t_address",
        "label": "mapping(address => struct BrewlabsIndex.UserInfo)",
        "numberOfBytes": "32",
        "value": "t_struct(UserInfo)34955_storage"
      },
      "t_mapping(t_uint256,t_struct(NftInfo)34968_storage)": {
        "encoding": "mapping",
        "key": "t_uint256",
        "label": "mapping(uint256 => struct BrewlabsIndex.NftInfo)",
        "numberOfBytes": "32",
        "value": "t_struct(NftInfo)34968_storage"
      },
      "t_string_storage": {
        "encoding": "bytes",
        "label": "string",
        "numberOfBytes": "32"
      },
      "t_struct(NftInfo)34968_storage": {
        "encoding": "inplace",
        "label": "struct BrewlabsIndex.NftInfo",
        "members": [
          {
            "astId": 34962,
            "contract": "contracts/indexes/BrewlabsIndex.sol:BrewlabsIndex",
            "label": "level",
            "offset": 0,
            "slot": "0",
            "type": "t_uint256"
          },
          {
            "astId": 34965,
            "contract": "contracts/indexes/BrewlabsIndex.sol:BrewlabsIndex",
            "label": "amounts",
            "offset": 0,
            "slot": "1",
            "type": "t_array(t_uint256)dyn_storage"
          },
          {
            "astId": 34967,
            "contract": "contracts/indexes/BrewlabsIndex.sol:BrewlabsIndex",
            "label": "usdAmount",
            "offset": 0,
            "slot": "2",
            "type": "t_uint256"
          }
        ],
        "numberOfBytes": "96"
      },
      "t_struct(UserInfo)34955_storage": {
        "encoding": "inplace",
        "label": "struct BrewlabsIndex.UserInfo",
        "members": [
          {
            "astId": 34952,
            "contract": "contracts/indexes/BrewlabsIndex.sol:BrewlabsIndex",
            "label": "amounts",
            "offset": 0,
            "slot": "0",
            "type": "t_array(t_uint256)dyn_storage"
          },
          {
            "astId": 34954,
            "contract": "contracts/indexes/BrewlabsIndex.sol:BrewlabsIndex",
            "label": "usdAmount",
            "offset": 0,
            "slot": "1",
            "type": "t_uint256"
          }
        ],
        "numberOfBytes": "64"
      },
      "t_uint256": {
        "encoding": "inplace",
        "label": "uint256",
        "numberOfBytes": "32"
      }
    }
  }
}