{
  "address": "0xCb8C54cC0Ba6b9516a42f7A6B9b6e27B16269722",
  "abi": [
    {
      "inputs": [],
      "stateMutability": "nonpayable",
      "type": "constructor"
    },
    {
      "inputs": [
        {
          "internalType": "address",
          "name": "operator",
          "type": "address"
        }
      ],
      "name": "OperatorNotAllowed",
      "type": "error"
    },
    {
      "anonymous": false,
      "inputs": [
        {
          "indexed": true,
          "internalType": "address",
          "name": "owner",
          "type": "address"
        },
        {
          "indexed": true,
          "internalType": "address",
          "name": "approved",
          "type": "address"
        },
        {
          "indexed": true,
          "internalType": "uint256",
          "name": "tokenId",
          "type": "uint256"
        }
      ],
      "name": "Approval",
      "type": "event"
    },
    {
      "anonymous": false,
      "inputs": [
        {
          "indexed": true,
          "internalType": "address",
          "name": "owner",
          "type": "address"
        },
        {
          "indexed": true,
          "internalType": "address",
          "name": "operator",
          "type": "address"
        },
        {
          "indexed": false,
          "internalType": "bool",
          "name": "approved",
          "type": "bool"
        }
      ],
      "name": "ApprovalForAll",
      "type": "event"
    },
    {
      "anonymous": false,
      "inputs": [
        {
          "indexed": false,
          "internalType": "string",
          "name": "uri",
          "type": "string"
        }
      ],
      "name": "BaseURIUpdated",
      "type": "event"
    },
    {
      "anonymous": false,
      "inputs": [
        {
          "indexed": false,
          "internalType": "uint256[3]",
          "name": "tokenIds",
          "type": "uint256[3]"
        },
        {
          "indexed": false,
          "internalType": "uint256",
          "name": "newTokenId",
          "type": "uint256"
        }
      ],
      "name": "ItemUpgraded",
      "type": "event"
    },
    {
      "anonymous": false,
      "inputs": [],
      "name": "MintEnabled",
      "type": "event"
    },
    {
      "anonymous": false,
      "inputs": [
        {
          "indexed": true,
          "internalType": "address",
          "name": "previousOwner",
          "type": "address"
        },
        {
          "indexed": true,
          "internalType": "address",
          "name": "newOwner",
          "type": "address"
        }
      ],
      "name": "OwnershipTransferred",
      "type": "event"
    },
    {
      "anonymous": false,
      "inputs": [
        {
          "indexed": false,
          "internalType": "address",
          "name": "token",
          "type": "address"
        }
      ],
      "name": "SetBrewlabsToken",
      "type": "event"
    },
    {
      "anonymous": false,
      "inputs": [
        {
          "indexed": false,
          "internalType": "address",
          "name": "addr",
          "type": "address"
        }
      ],
      "name": "SetBrewlabsWallet",
      "type": "event"
    },
    {
      "anonymous": false,
      "inputs": [
        {
          "indexed": false,
          "internalType": "address",
          "name": "token",
          "type": "address"
        },
        {
          "indexed": false,
          "internalType": "bool",
          "name": "enabled",
          "type": "bool"
        }
      ],
      "name": "SetFeeToken",
      "type": "event"
    },
    {
      "anonymous": false,
      "inputs": [
        {
          "indexed": false,
          "internalType": "uint256",
          "name": "supply",
          "type": "uint256"
        }
      ],
      "name": "SetMaxSupply",
      "type": "event"
    },
    {
      "anonymous": false,
      "inputs": [
        {
          "indexed": false,
          "internalType": "uint256",
          "name": "tokenFee",
          "type": "uint256"
        },
        {
          "indexed": false,
          "internalType": "uint256",
          "name": "brewsFee",
          "type": "uint256"
        }
      ],
      "name": "SetMintPrice",
      "type": "event"
    },
    {
      "anonymous": false,
      "inputs": [
        {
          "indexed": false,
          "internalType": "address",
          "name": "nft",
          "type": "address"
        }
      ],
      "name": "SetMirrorNft",
      "type": "event"
    },
    {
      "anonymous": false,
      "inputs": [
        {
          "indexed": false,
          "internalType": "address",
          "name": "staking",
          "type": "address"
        }
      ],
      "name": "SetNftStakingContract",
      "type": "event"
    },
    {
      "anonymous": false,
      "inputs": [
        {
          "indexed": false,
          "internalType": "uint256",
          "name": "limit",
          "type": "uint256"
        }
      ],
      "name": "SetOneTimeLimit",
      "type": "event"
    },
    {
      "anonymous": false,
      "inputs": [
        {
          "indexed": false,
          "internalType": "address",
          "name": "addr",
          "type": "address"
        }
      ],
      "name": "SetStakingAddress",
      "type": "event"
    },
    {
      "anonymous": false,
      "inputs": [
        {
          "indexed": false,
          "internalType": "address",
          "name": "addr",
          "type": "address"
        }
      ],
      "name": "SetTreasury",
      "type": "event"
    },
    {
      "anonymous": false,
      "inputs": [
        {
          "indexed": false,
          "internalType": "uint256",
          "name": "tokenFee",
          "type": "uint256"
        },
        {
          "indexed": false,
          "internalType": "uint256",
          "name": "brewsFee",
          "type": "uint256"
        }
      ],
      "name": "SetUpgradePrice",
      "type": "event"
    },
    {
      "anonymous": false,
      "inputs": [
        {
          "indexed": true,
          "internalType": "address",
          "name": "from",
          "type": "address"
        },
        {
          "indexed": true,
          "internalType": "address",
          "name": "to",
          "type": "address"
        },
        {
          "indexed": true,
          "internalType": "uint256",
          "name": "tokenId",
          "type": "uint256"
        }
      ],
      "name": "Transfer",
      "type": "event"
    },
    {
      "anonymous": false,
      "inputs": [
        {
          "indexed": true,
          "internalType": "address",
          "name": "account",
          "type": "address"
        },
        {
          "indexed": false,
          "internalType": "uint256",
          "name": "count",
          "type": "uint256"
        }
      ],
      "name": "Whitelisted",
      "type": "event"
    },
    {
      "inputs": [],
      "name": "OPERATOR_FILTER_REGISTRY",
      "outputs": [
        {
          "internalType": "contract IOperatorFilterRegistry",
          "name": "",
          "type": "address"
        }
      ],
      "stateMutability": "view",
      "type": "function"
    },
    {
      "inputs": [
        {
          "internalType": "address",
          "name": "_addr",
          "type": "address"
        },
        {
          "internalType": "uint256",
          "name": "_count",
          "type": "uint256"
        }
      ],
      "name": "addToWhitelist",
      "outputs": [],
      "stateMutability": "nonpayable",
      "type": "function"
    },
    {
      "inputs": [
        {
          "internalType": "address",
          "name": "operator",
          "type": "address"
        },
        {
          "internalType": "uint256",
          "name": "tokenId",
          "type": "uint256"
        }
      ],
      "name": "approve",
      "outputs": [],
      "stateMutability": "nonpayable",
      "type": "function"
    },
    {
      "inputs": [
        {
          "internalType": "address",
          "name": "owner",
          "type": "address"
        }
      ],
      "name": "balanceOf",
      "outputs": [
        {
          "internalType": "uint256",
          "name": "",
          "type": "uint256"
        }
      ],
      "stateMutability": "view",
      "type": "function"
    },
    {
      "inputs": [],
      "name": "brews",
      "outputs": [
        {
          "internalType": "contract IERC20",
          "name": "",
          "type": "address"
        }
      ],
      "stateMutability": "view",
      "type": "function"
    },
    {
      "inputs": [],
      "name": "brewsMintFee",
      "outputs": [
        {
          "internalType": "uint256",
          "name": "",
          "type": "uint256"
        }
      ],
      "stateMutability": "view",
      "type": "function"
    },
    {
      "inputs": [],
      "name": "brewsUpgradeFee",
      "outputs": [
        {
          "internalType": "uint256",
          "name": "",
          "type": "uint256"
        }
      ],
      "stateMutability": "view",
      "type": "function"
    },
    {
      "inputs": [],
      "name": "brewsWallet",
      "outputs": [
        {
          "internalType": "address",
          "name": "",
          "type": "address"
        }
      ],
      "stateMutability": "view",
      "type": "function"
    },
    {
      "inputs": [],
      "name": "enableMint",
      "outputs": [],
      "stateMutability": "nonpayable",
      "type": "function"
    },
    {
      "inputs": [
        {
          "internalType": "uint256",
          "name": "",
          "type": "uint256"
        }
      ],
      "name": "featureAccesses",
      "outputs": [
        {
          "internalType": "string",
          "name": "",
          "type": "string"
        }
      ],
      "stateMutability": "view",
      "type": "function"
    },
    {
      "inputs": [
        {
          "internalType": "uint256",
          "name": "",
          "type": "uint256"
        }
      ],
      "name": "feeReductions",
      "outputs": [
        {
          "internalType": "uint256",
          "name": "",
          "type": "uint256"
        }
      ],
      "stateMutability": "view",
      "type": "function"
    },
    {
      "inputs": [
        {
          "internalType": "uint256",
          "name": "tokenId",
          "type": "uint256"
        }
      ],
      "name": "getApproved",
      "outputs": [
        {
          "internalType": "address",
          "name": "",
          "type": "address"
        }
      ],
      "stateMutability": "view",
      "type": "function"
    },
    {
      "inputs": [
        {
          "internalType": "address",
          "name": "owner",
          "type": "address"
        },
        {
          "internalType": "address",
          "name": "operator",
          "type": "address"
        }
      ],
      "name": "isApprovedForAll",
      "outputs": [
        {
          "internalType": "bool",
          "name": "",
          "type": "bool"
        }
      ],
      "stateMutability": "view",
      "type": "function"
    },
    {
      "inputs": [],
      "name": "maxSupply",
      "outputs": [
        {
          "internalType": "uint256",
          "name": "",
          "type": "uint256"
        }
      ],
      "stateMutability": "view",
      "type": "function"
    },
    {
      "inputs": [
        {
          "internalType": "uint256",
          "name": "numToMint",
          "type": "uint256"
        },
        {
          "internalType": "contract IERC20",
          "name": "payingToken",
          "type": "address"
        }
      ],
      "name": "mint",
      "outputs": [],
      "stateMutability": "nonpayable",
      "type": "function"
    },
    {
      "inputs": [],
      "name": "mintAllowed",
      "outputs": [
        {
          "internalType": "bool",
          "name": "",
          "type": "bool"
        }
      ],
      "stateMutability": "view",
      "type": "function"
    },
    {
      "inputs": [],
      "name": "mintFee",
      "outputs": [
        {
          "internalType": "uint256",
          "name": "",
          "type": "uint256"
        }
      ],
      "stateMutability": "view",
      "type": "function"
    },
    {
      "inputs": [
        {
          "internalType": "address",
          "name": "to",
          "type": "address"
        },
        {
          "internalType": "uint256",
          "name": "rarity",
          "type": "uint256"
        },
        {
          "internalType": "uint256",
          "name": "numToMint",
          "type": "uint256"
        }
      ],
      "name": "mintTo",
      "outputs": [],
      "stateMutability": "nonpayable",
      "type": "function"
    },
    {
      "inputs": [],
      "name": "mirrorNft",
      "outputs": [
        {
          "internalType": "address",
          "name": "",
          "type": "address"
        }
      ],
      "stateMutability": "view",
      "type": "function"
    },
    {
      "inputs": [],
      "name": "name",
      "outputs": [
        {
          "internalType": "string",
          "name": "",
          "type": "string"
        }
      ],
      "stateMutability": "view",
      "type": "function"
    },
    {
      "inputs": [],
      "name": "nftStaking",
      "outputs": [
        {
          "internalType": "address",
          "name": "",
          "type": "address"
        }
      ],
      "stateMutability": "view",
      "type": "function"
    },
    {
      "inputs": [
        {
          "internalType": "address",
          "name": "operator",
          "type": "address"
        },
        {
          "internalType": "address",
          "name": "from",
          "type": "address"
        },
        {
          "internalType": "uint256",
          "name": "tokenId",
          "type": "uint256"
        },
        {
          "internalType": "bytes",
          "name": "data",
          "type": "bytes"
        }
      ],
      "name": "onERC721Received",
      "outputs": [
        {
          "internalType": "bytes4",
          "name": "",
          "type": "bytes4"
        }
      ],
      "stateMutability": "nonpayable",
      "type": "function"
    },
    {
      "inputs": [],
      "name": "oneTimeLimit",
      "outputs": [
        {
          "internalType": "uint256",
          "name": "",
          "type": "uint256"
        }
      ],
      "stateMutability": "view",
      "type": "function"
    },
    {
      "inputs": [],
      "name": "owner",
      "outputs": [
        {
          "internalType": "address",
          "name": "",
          "type": "address"
        }
      ],
      "stateMutability": "view",
      "type": "function"
    },
    {
      "inputs": [
        {
          "internalType": "uint256",
          "name": "tokenId",
          "type": "uint256"
        }
      ],
      "name": "ownerOf",
      "outputs": [
        {
          "internalType": "address",
          "name": "",
          "type": "address"
        }
      ],
      "stateMutability": "view",
      "type": "function"
    },
    {
      "inputs": [
        {
          "internalType": "uint256",
          "name": "",
          "type": "uint256"
        }
      ],
      "name": "rarityNames",
      "outputs": [
        {
          "internalType": "string",
          "name": "",
          "type": "string"
        }
      ],
      "stateMutability": "view",
      "type": "function"
    },
    {
      "inputs": [
        {
          "internalType": "uint256",
          "name": "tokenId",
          "type": "uint256"
        }
      ],
      "name": "rarityOf",
      "outputs": [
        {
          "internalType": "uint256",
          "name": "",
          "type": "uint256"
        }
      ],
      "stateMutability": "view",
      "type": "function"
    },
    {
      "inputs": [
        {
          "internalType": "address",
          "name": "_addr",
          "type": "address"
        }
      ],
      "name": "removeFromWhitelist",
      "outputs": [],
      "stateMutability": "nonpayable",
      "type": "function"
    },
    {
      "inputs": [
        {
          "internalType": "uint256",
          "name": "tokenId",
          "type": "uint256"
        }
      ],
      "name": "removeModerator",
      "outputs": [],
      "stateMutability": "nonpayable",
      "type": "function"
    },
    {
      "inputs": [],
      "name": "renounceOwnership",
      "outputs": [],
      "stateMutability": "nonpayable",
      "type": "function"
    },
    {
      "inputs": [
        {
          "internalType": "address",
          "name": "_token",
          "type": "address"
        }
      ],
      "name": "rescueTokens",
      "outputs": [],
      "stateMutability": "nonpayable",
      "type": "function"
    },
    {
      "inputs": [
        {
          "internalType": "address",
          "name": "from",
          "type": "address"
        },
        {
          "internalType": "address",
          "name": "to",
          "type": "address"
        },
        {
          "internalType": "uint256",
          "name": "tokenId",
          "type": "uint256"
        }
      ],
      "name": "safeTransferFrom",
      "outputs": [],
      "stateMutability": "nonpayable",
      "type": "function"
    },
    {
      "inputs": [
        {
          "internalType": "address",
          "name": "from",
          "type": "address"
        },
        {
          "internalType": "address",
          "name": "to",
          "type": "address"
        },
        {
          "internalType": "uint256",
          "name": "tokenId",
          "type": "uint256"
        },
        {
          "internalType": "bytes",
          "name": "data",
          "type": "bytes"
        }
      ],
      "name": "safeTransferFrom",
      "outputs": [],
      "stateMutability": "nonpayable",
      "type": "function"
    },
    {
      "inputs": [
        {
          "internalType": "address",
          "name": "operator",
          "type": "address"
        },
        {
          "internalType": "bool",
          "name": "approved",
          "type": "bool"
        }
      ],
      "name": "setApprovalForAll",
      "outputs": [],
      "stateMutability": "nonpayable",
      "type": "function"
    },
    {
      "inputs": [
        {
          "internalType": "contract IERC20",
          "name": "token",
          "type": "address"
        }
      ],
      "name": "setBrewlabsToken",
      "outputs": [],
      "stateMutability": "nonpayable",
      "type": "function"
    },
    {
      "inputs": [
        {
          "internalType": "address",
          "name": "wallet",
          "type": "address"
        }
      ],
      "name": "setBrewlabsWallet",
      "outputs": [],
      "stateMutability": "nonpayable",
      "type": "function"
    },
    {
      "inputs": [
        {
          "internalType": "address",
          "name": "token",
          "type": "address"
        },
        {
          "internalType": "bool",
          "name": "enabled",
          "type": "bool"
        }
      ],
      "name": "setFeeToken",
      "outputs": [],
      "stateMutability": "nonpayable",
      "type": "function"
    },
    {
      "inputs": [
        {
          "internalType": "uint256",
          "name": "supply",
          "type": "uint256"
        }
      ],
      "name": "setMaxSupply",
      "outputs": [],
      "stateMutability": "nonpayable",
      "type": "function"
    },
    {
      "inputs": [
        {
          "internalType": "uint256",
          "name": "tokenFee",
          "type": "uint256"
        },
        {
          "internalType": "uint256",
          "name": "brewsFee",
          "type": "uint256"
        }
      ],
      "name": "setMintPrice",
      "outputs": [],
      "stateMutability": "nonpayable",
      "type": "function"
    },
    {
      "inputs": [
        {
          "internalType": "address",
          "name": "_mirrorNft",
          "type": "address"
        }
      ],
      "name": "setMirrorNft",
      "outputs": [],
      "stateMutability": "nonpayable",
      "type": "function"
    },
    {
      "inputs": [
        {
          "internalType": "address",
          "name": "staking",
          "type": "address"
        }
      ],
      "name": "setNftStakingContract",
      "outputs": [],
      "stateMutability": "nonpayable",
      "type": "function"
    },
    {
      "inputs": [
        {
          "internalType": "uint256",
          "name": "limit",
          "type": "uint256"
        }
      ],
      "name": "setOneTimeMintLimit",
      "outputs": [],
      "stateMutability": "nonpayable",
      "type": "function"
    },
    {
      "inputs": [
        {
          "internalType": "address",
          "name": "wallet",
          "type": "address"
        }
      ],
      "name": "setStakingAddress",
      "outputs": [],
      "stateMutability": "nonpayable",
      "type": "function"
    },
    {
      "inputs": [
        {
          "internalType": "string",
          "name": "_uri",
          "type": "string"
        }
      ],
      "name": "setTokenBaseUri",
      "outputs": [],
      "stateMutability": "nonpayable",
      "type": "function"
    },
    {
      "inputs": [
        {
          "internalType": "address",
          "name": "_addr",
          "type": "address"
        }
      ],
      "name": "setTreasury",
      "outputs": [],
      "stateMutability": "nonpayable",
      "type": "function"
    },
    {
      "inputs": [
        {
          "internalType": "uint256",
          "name": "tokenFee",
          "type": "uint256"
        },
        {
          "internalType": "uint256",
          "name": "brewsFee",
          "type": "uint256"
        }
      ],
      "name": "setUpgradePrice",
      "outputs": [],
      "stateMutability": "nonpayable",
      "type": "function"
    },
    {
      "inputs": [],
      "name": "stakingAddr",
      "outputs": [
        {
          "internalType": "address",
          "name": "",
          "type": "address"
        }
      ],
      "stateMutability": "view",
      "type": "function"
    },
    {
      "inputs": [
        {
          "internalType": "bytes4",
          "name": "interfaceId",
          "type": "bytes4"
        }
      ],
      "name": "supportsInterface",
      "outputs": [
        {
          "internalType": "bool",
          "name": "",
          "type": "bool"
        }
      ],
      "stateMutability": "view",
      "type": "function"
    },
    {
      "inputs": [],
      "name": "symbol",
      "outputs": [
        {
          "internalType": "string",
          "name": "",
          "type": "string"
        }
      ],
      "stateMutability": "view",
      "type": "function"
    },
    {
      "inputs": [
        {
          "internalType": "address",
          "name": "",
          "type": "address"
        }
      ],
      "name": "tokenAllowed",
      "outputs": [
        {
          "internalType": "bool",
          "name": "",
          "type": "bool"
        }
      ],
      "stateMutability": "view",
      "type": "function"
    },
    {
      "inputs": [
        {
          "internalType": "uint256",
          "name": "index",
          "type": "uint256"
        }
      ],
      "name": "tokenByIndex",
      "outputs": [
        {
          "internalType": "uint256",
          "name": "",
          "type": "uint256"
        }
      ],
      "stateMutability": "view",
      "type": "function"
    },
    {
      "inputs": [
        {
          "internalType": "address",
          "name": "owner",
          "type": "address"
        },
        {
          "internalType": "uint256",
          "name": "index",
          "type": "uint256"
        }
      ],
      "name": "tokenOfOwnerByIndex",
      "outputs": [
        {
          "internalType": "uint256",
          "name": "",
          "type": "uint256"
        }
      ],
      "stateMutability": "view",
      "type": "function"
    },
    {
      "inputs": [
        {
          "internalType": "uint256",
          "name": "tokenId",
          "type": "uint256"
        }
      ],
      "name": "tokenURI",
      "outputs": [
        {
          "internalType": "string",
          "name": "",
          "type": "string"
        }
      ],
      "stateMutability": "view",
      "type": "function"
    },
    {
      "inputs": [],
      "name": "totalSupply",
      "outputs": [
        {
          "internalType": "uint256",
          "name": "",
          "type": "uint256"
        }
      ],
      "stateMutability": "view",
      "type": "function"
    },
    {
      "inputs": [
        {
          "internalType": "address",
          "name": "from",
          "type": "address"
        },
        {
          "internalType": "address",
          "name": "to",
          "type": "address"
        },
        {
          "internalType": "uint256",
          "name": "tokenId",
          "type": "uint256"
        }
      ],
      "name": "transferFrom",
      "outputs": [],
      "stateMutability": "nonpayable",
      "type": "function"
    },
    {
      "inputs": [
        {
          "internalType": "address",
          "name": "newOwner",
          "type": "address"
        }
      ],
      "name": "transferOwnership",
      "outputs": [],
      "stateMutability": "nonpayable",
      "type": "function"
    },
    {
      "inputs": [],
      "name": "treasury",
      "outputs": [
        {
          "internalType": "address",
          "name": "",
          "type": "address"
        }
      ],
      "stateMutability": "view",
      "type": "function"
    },
    {
      "inputs": [],
      "name": "upgradeFee",
      "outputs": [
        {
          "internalType": "uint256",
          "name": "",
          "type": "uint256"
        }
      ],
      "stateMutability": "view",
      "type": "function"
    },
    {
      "inputs": [
        {
          "internalType": "uint256[3]",
          "name": "tokenIds",
          "type": "uint256[3]"
        },
        {
          "internalType": "contract IERC20",
          "name": "payingToken",
          "type": "address"
        }
      ],
      "name": "upgradeNFT",
      "outputs": [
        {
          "internalType": "uint256",
          "name": "",
          "type": "uint256"
        }
      ],
      "stateMutability": "nonpayable",
      "type": "function"
    },
    {
      "inputs": [
        {
          "internalType": "address",
          "name": "",
          "type": "address"
        }
      ],
      "name": "whitelist",
      "outputs": [
        {
          "internalType": "uint256",
          "name": "",
          "type": "uint256"
        }
      ],
      "stateMutability": "view",
      "type": "function"
    },
    {
      "stateMutability": "payable",
      "type": "receive"
    }
  ],
  "transactionHash": "0x4731933dcc935384e6e06e9b40cfc4d24f143a90612f78d7864d8e5cda571d13",
  "args": [],
  "numDeployments": 2,
  "solcInputHash": "6a5989d757faf2277c141d8971841324",
  "bytecode": "0x611388600b55600f80546001600160a01b0319908116736aac56305825f712fd44599e59f2ede51d42c3e71790915568056bc75e2d6310000060105565032ee841b80060115568015af1d78b58c4000060125565015d3ef79800601355601e60145560158054821673e1f1dd010bbc2860f81c8f90ea4e38db949bb16f908117909155601680548316909117905560178054909116735ac58191f3bbdf6d037c6c6201adc9f99c93c53a17905560a0604081905260006080819052620000c89160199162000554565b506040805160a0810182526064815260626020820152603291810191909152600a6060820152600160808201526200010590601a906005620005e3565b506040805160a0810182526000808252602082018190529181018290526001606082015260808101919091526200014190601b906005620005e3565b506040805161010081018252600660c082018181526521b7b6b6b7b760d11b60e084015282528251808401845260088152672ab731b7b6b6b7b760c11b60208281019190915280840191909152835180850185526004808252635261726560e01b828401528486019190915284518086018652818152634570696360e01b8184015260608501528451808601865260098152684c6567656e6461727960b81b81840152608085015284518086019095528452634d6f647360e01b9084015260a08201929092526200021691601c919062000626565b506040805160e081018252600560a0820181815264426173696360d81b60c08401528252825180840184526008815267125b5c1c9bdd995960c21b60208281019190915280840191909152835180850185526006815265213932bbb2b960d11b81830152838501528351808501855260078152665072656d69756d60c81b8183015260608401528351808501909452600e84526d283932b6b4bab690213932bbb2b960911b908401526080820192909252620002d6916022919062000679565b506040805160a0810182526005808252600a6020830152600f9282019290925260146060820152601e6080820152620003139160279190620006be565b503480156200032157600080fd5b506040805180820182526012815271109c995ddb18589cc8119b185cdac813919560721b60208083019182528351808501909452600384526221262360e91b908401528151733cc6cdda760b79bafa08df41ecfa224f810dceb693600193929091620003909160009162000554565b508051620003a690600190602084019062000554565b5050506daaeb6d7670e522a718067333cd4e3b15620004ee5780156200043c57604051633e9f1edf60e11b81523060048201526001600160a01b03831660248201526daaeb6d7670e522a718067333cd4e90637d3e3dbe906044015b600060405180830381600087803b1580156200041d57600080fd5b505af115801562000432573d6000803e3d6000fd5b50505050620004ee565b6001600160a01b038216156200048d5760405163a0af290360e01b81523060048201526001600160a01b03831660248201526daaeb6d7670e522a718067333cd4e9063a0af29039060440162000402565b604051632210724360e11b81523060048201526daaeb6d7670e522a718067333cd4e90634420e48690602401600060405180830381600087803b158015620004d457600080fd5b505af1158015620004e9573d6000803e3d6000fd5b505050505b50620004fc90503362000502565b620007a9565b600a80546001600160a01b038381166001600160a01b0319831681179093556040519116919082907f8be0079c531659141344cd1fd0a4f28419497f9722a3daafe3b4186f6b6457e090600090a35050565b82805462000562906200076d565b90600052602060002090601f016020900481019282620005865760008555620005d1565b82601f10620005a157805160ff1916838001178555620005d1565b82800160010185558215620005d1579182015b82811115620005d1578251825591602001919060010190620005b4565b50620005df929150620006f3565b5090565b828054828255906000526020600020908101928215620005d1579160200282015b82811115620005d1578251829060ff1690559160200191906001019062000604565b82600681019282156200066b579160200282015b828111156200066b57825180516200065a91849160209091019062000554565b50916020019190600101906200063a565b50620005df9291506200070a565b82600581019282156200066b579160200282015b828111156200066b5782518051620006ad91849160209091019062000554565b50916020019190600101906200068d565b8260058101928215620005d15791602002820182811115620005d1578251829060ff1690559160200191906001019062000604565b5b80821115620005df5760008155600101620006f4565b80821115620005df5760006200072182826200072b565b506001016200070a565b50805462000739906200076d565b6000825580601f106200074a575050565b601f0160209004906000526020600020908101906200076a9190620006f3565b50565b600181811c908216806200078257607f821691505b602082108103620007a357634e487b7160e01b600052602260045260246000fd5b50919050565b6148a380620007b96000396000f3fe60806040526004361061031a5760003560e01c80636f8b44b01161019c578063c4408c8a116100e2578063e4a76dc811610090578063e4a76dc8146109b6578063e985e9c5146109d6578063ea509411146109f6578063f0f4426014610a16578063f2fde38b14610a36578063f4e0d9ac14610a56578063f65c2d5314610a76578063f751518614610a9657600080fd5b8063c4408c8a146108dc578063c467201e146108fc578063c835ec9e1461091d578063c87b56dd1461093d578063d3bf76d31461095d578063d5abeb0114610973578063dd3b5f9a1461098957600080fd5b806395d89b411161014a57806395d89b41146107e457806398bf3143146107f95780639b19251a14610819578063a22cb46514610846578063a2cd12d214610866578063a48484fd1461087c578063a8e9ddeb1461089c578063b88d4fde146108bc57600080fd5b80636f8b44b01461071157806370a0823114610731578063715018a61461075157806383c999b9146107665780638ab1d681146107865780638da5cb5b146107a657806394bf804d146107c457600080fd5b80632f5e2b1c1161026157806344b28d591161020f57806344b28d59146106165780634acf23a31461062b5780634dfa5812146106415780634f6ccce71461066157806355219d5a1461068157806361d027b3146106b15780636352211e146106d157806364d4b23d146106f157600080fd5b80632f5e2b1c1461053e5780632f745c591461055e5780633785b0901461057e5780633f87db251461059e57806340fa61f7146105be57806341f43434146105d457806342842e0e146105f657600080fd5b806313966db5116102c957806313966db51461042c578063150b7a0214610450578063177db7211461048957806318160ddd146104a95780631a665955146104be578063214405fc146104de57806323b872dd146104fe5780632baf2acb1461051e57600080fd5b8062ae3bf81461032657806301ffc9a7146103485780630442bfa81461037d57806306fdde031461039d578063081812fc146103bf578063095ea7b3146103ec578063110ea3891461040c57600080fd5b3661032157005b600080fd5b34801561033257600080fd5b50610346610341366004613a55565b610ab6565b005b34801561035457600080fd5b50610368610363366004613a8f565b610b8b565b60405190151581526020015b60405180910390f35b34801561038957600080fd5b50610346610398366004613aac565b610bb6565b3480156103a957600080fd5b506103b2610c06565b6040516103749190613b26565b3480156103cb57600080fd5b506103df6103da366004613b39565b610c98565b6040516103749190613b52565b3480156103f857600080fd5b50610346610407366004613b66565b610cbf565b34801561041857600080fd5b506015546103df906001600160a01b031681565b34801561043857600080fd5b5061044260105481565b604051908152602001610374565b34801561045c57600080fd5b5061047061046b366004613c1e565b610cd3565b6040516001600160e01b03199091168152602001610374565b34801561049557600080fd5b506103466104a4366004613b39565b610d2d565b3480156104b557600080fd5b50600854610442565b3480156104ca57600080fd5b50600f546103df906001600160a01b031681565b3480156104ea57600080fd5b506103466104f9366004613b66565b610eb7565b34801561050a57600080fd5b50610346610519366004613c9e565b610f18565b34801561052a57600080fd5b50610346610539366004613cdf565b610f43565b34801561054a57600080fd5b50610346610559366004613a55565b611063565b34801561056a57600080fd5b50610442610579366004613b66565b6110e7565b34801561058a57600080fd5b50610442610599366004613d24565b61117d565b3480156105aa57600080fd5b506103466105b9366004613db1565b61154b565b3480156105ca57600080fd5b5061044260125481565b3480156105e057600080fd5b506103df6daaeb6d7670e522a718067333cd4e81565b34801561060257600080fd5b50610346610611366004613c9e565b611596565b34801561062257600080fd5b506103466115bb565b34801561063757600080fd5b5061044260115481565b34801561064d57600080fd5b5061034661065c366004613a55565b61164d565b34801561066d57600080fd5b5061044261067c366004613b39565b6116c7565b34801561068d57600080fd5b5061036861069c366004613a55565b600e6020526000908152604090205460ff1681565b3480156106bd57600080fd5b506017546103df906001600160a01b031681565b3480156106dd57600080fd5b506103df6106ec366004613b39565b61175a565b3480156106fd57600080fd5b5061034661070c366004613b39565b61178f565b34801561071d57600080fd5b5061034661072c366004613b39565b6117cc565b34801561073d57600080fd5b5061044261074c366004613a55565b611849565b34801561075d57600080fd5b506103466118cf565b34801561077257600080fd5b50600d546103df906001600160a01b031681565b34801561079257600080fd5b506103466107a1366004613a55565b6118e3565b3480156107b257600080fd5b50600a546001600160a01b03166103df565b3480156107d057600080fd5b506103466107df366004613dfa565b61193b565b3480156107f057600080fd5b506103b2611d18565b34801561080557600080fd5b506103b2610814366004613b39565b611d27565b34801561082557600080fd5b50610442610834366004613a55565b602d6020526000908152604090205481565b34801561085257600080fd5b50610346610861366004613e38565b611dc7565b34801561087257600080fd5b5061044260145481565b34801561088857600080fd5b50610346610897366004613aac565b611ddb565b3480156108a857600080fd5b506103466108b7366004613a55565b611e23565b3480156108c857600080fd5b506103466108d7366004613c1e565b611efd565b3480156108e857600080fd5b50600c546103df906001600160a01b031681565b34801561090857600080fd5b50600a5461036890600160a01b900460ff1681565b34801561092957600080fd5b50610442610938366004613b39565b611f2a565b34801561094957600080fd5b506103b2610958366004613b39565b611f41565b34801561096957600080fd5b5061044260135481565b34801561097f57600080fd5b50610442600b5481565b34801561099557600080fd5b506104426109a4366004613b39565b6000908152602c602052604090205490565b3480156109c257600080fd5b506016546103df906001600160a01b031681565b3480156109e257600080fd5b506103686109f1366004613e66565b61228d565b348015610a0257600080fd5b506103b2610a11366004613b39565b6122bb565b348015610a2257600080fd5b50610346610a31366004613a55565b6122cb565b348015610a4257600080fd5b50610346610a51366004613a55565b612344565b348015610a6257600080fd5b50610346610a71366004613a55565b6123ba565b348015610a8257600080fd5b50610346610a91366004613e38565b612433565b348015610aa257600080fd5b50610346610ab1366004613a55565b6124bd565b610abe612536565b6001600160a01b038116610b00576040514790339082156108fc029083906000818181858888f19350505050158015610afb573d6000803e3d6000fd5b505050565b6040516370a0823160e01b81526000906001600160a01b038316906370a0823190610b2f903090600401613b52565b602060405180830381865afa158015610b4c573d6000803e3d6000fd5b505050506040513d601f19601f82011682018060405250810190610b709190613e94565b9050610b866001600160a01b0383163383612590565b505b50565b60006001600160e01b0319821663780e9d6360e01b1480610bb05750610bb0826125e6565b92915050565b610bbe612536565b6010829055601181905560408051838152602081018390527f44d4a06d863160370919caa06915c580288234ffbd37e330623be1d73574dea291015b60405180910390a15050565b606060008054610c1590613ead565b80601f0160208091040260200160405190810160405280929190818152602001828054610c4190613ead565b8015610c8e5780601f10610c6357610100808354040283529160200191610c8e565b820191906000526020600020905b815481529060010190602001808311610c7157829003601f168201915b5050505050905090565b6000610ca382612636565b506000908152600460205260409020546001600160a01b031690565b81610cc98161265b565b610afb838361270b565b6000333014610d1b5760405162461bcd60e51b815260206004820152600f60248201526e1b9bdd08195b98589b195908139195608a1b60448201526064015b60405180910390fd5b50630a85bd0160e11b5b949350505050565b610d35612536565b6000818152602c6020526040902054600614610d935760405162461bcd60e51b815260206004820152601a60248201527f63616e2072656d6f7665206f6e6c79204d6f647320746f6b656e0000000000006044820152606401610d12565b600c546001600160a01b031615610e9d576000610daf8261175a565b600c549091506001600160a01b0390811690821603610e9b57600d546040516331a9108f60e11b8152600481018490526001600160a01b0390911690636352211e90602401602060405180830381865afa158015610e11573d6000803e3d6000fd5b505050506040513d601f19601f82011682018060405250810190610e359190613ee7565b600c5460405163a93a019f60e01b81529192506001600160a01b03169063a93a019f90610e689084908690600401613f04565b600060405180830381600087803b158015610e8257600080fd5b505af1158015610e96573d6000803e3d6000fd5b505050505b505b610ea68161281b565b6000908152602c6020526040812055565b610ebf612536565b6001600160a01b0382166000818152602d602052604090819020839055517f6ea640312e182de387819fbeb13be00db3171a445412852248559054871c419990610f0c9084815260200190565b60405180910390a25050565b826001600160a01b0381163314610f3257610f323361265b565b610f3d8484846128ad565b50505050565b610f4b612536565b60008111610f6b5760405162461bcd60e51b8152600401610d1290613f1d565b601454811115610f8d5760405162461bcd60e51b8152600401610d1290613f45565b600082118015610f9e575060068211155b610fdb5760405162461bcd60e51b815260206004820152600e60248201526d496e76616c69642072617269747960901b6044820152606401610d12565b600b5481610fe860085490565b610ff29190613f92565b11156110105760405162461bcd60e51b8152600401610d1290613faa565b60005b81811015610f3d576018805490600061102b83613fdb565b9091555050601880546000908152602c60205260409020849055546110519085906128de565b8061105b81613fdb565b915050611013565b61106b612536565b6001600160a01b0381166110915760405162461bcd60e51b8152600401610d1290613ff4565b601680546001600160a01b0319166001600160a01b0383161790556040517f04d877fc28d5266225dad2da3d458a663d3853e0d3505280c683cc9e0610b544906110dc908390613b52565b60405180910390a150565b60006110f283611849565b82106111545760405162461bcd60e51b815260206004820152602b60248201527f455243373231456e756d657261626c653a206f776e657220696e646578206f7560448201526a74206f6620626f756e647360a81b6064820152608401610d12565b506001600160a01b03919091166000908152600660209081526040808320938352929052205490565b81516000908152602c60205260408120546003116111f15760405162461bcd60e51b815260206004820152602b60248201527f4f6e6c7920636f6d6d6f6e206f7220756e636f6d6d6f6e204e46542063616e2060448201526a1899481d5c19dc9859195960aa1b6064820152608401610d12565b6020838101516000908152602c9091526040808220548551835291205414801561123857506040838101516000908152602c60209081528282205490860151825291902054145b61127e5760405162461bcd60e51b815260206004820152601760248201527652617269746965732073686f756c642062652073616d6560481b6044820152606401610d12565b6001600160a01b0382166000908152600e602052604090205460ff166112e65760405162461bcd60e51b815260206004820152601b60248201527f4e6f7420616c6c6f77656420666f722075706772616465204e465400000000006044820152606401610d12565b6000826001600160a01b031663313ce5676040518163ffffffff1660e01b8152600401602060405180830381865afa158015611326573d6000803e3d6000fd5b505050506040513d601f19601f8201168201806040525081019061134a9190614033565b611355906012614056565b61136090600a61415d565b90506000816012546113729190614182565b905080846001600160a01b03166370a08231336040518263ffffffff1660e01b81526004016113a19190613b52565b602060405180830381865afa1580156113be573d6000803e3d6000fd5b505050506040513d601f19601f820116820180604052508101906113e29190613e94565b10156114005760405162461bcd60e51b8152600401610d1290614196565b601654601354600f54611424926001600160a01b03918216923392909116906128f8565b601554611440906001600160a01b0386811691339116846128f8565b84516000908152602c602052604081205461145c906001613f92565b905060005b60038110156114cc5761149b33308984600381106114815761148161401d565b602002015160405180602001604052806000815250612930565b6114ba8782600381106114b0576114b061401d565b602002015161281b565b806114c481613fdb565b915050611461565b50601880549060006114dd83613fdb565b9091555050601880546000908152602c60205260409020829055546115039033906128de565b7fa3d4aa96764ae47791cf7b8bbdf866a220c9cb6c72e55e39e62c1bb88d688cd6866018546040516115369291906141c0565b60405180910390a15050601854949350505050565b611553612536565b80516115669060199060208401906139a7565b507f6741b2fc379fad678116fe3d4d4b9a1a184ab53ba36b86ad0fa66340b1ab41ad816040516110dc9190613b26565b826001600160a01b03811633146115b0576115b03361265b565b610f3d848484612963565b6115c3612536565b600a54600160a01b900460ff161561160f5760405162461bcd60e51b815260206004820152600f60248201526e105b1c9958591e48195b98589b1959608a1b6044820152606401610d12565b600a805460ff60a01b1916600160a01b1790556040517f7d4c15f0a1a76cde938e0b5d3a1c1e9905f57401c4aed53ae344801d156736e690600090a1565b611655612536565b6001600160a01b03811661167b5760405162461bcd60e51b8152600401610d1290613ff4565b600d80546001600160a01b0319166001600160a01b0383169081179091556040517fffaaae2d53073be489935fc1d4320de5c29942766bf4c667adaf8f60e2897d40916110dc91613b52565b60006116d260085490565b82106117355760405162461bcd60e51b815260206004820152602c60248201527f455243373231456e756d657261626c653a20676c6f62616c20696e646578206f60448201526b7574206f6620626f756e647360a01b6064820152608401610d12565b600882815481106117485761174861401d565b90600052602060002001549050919050565b6000818152600260205260408120546001600160a01b031680610bb05760405162461bcd60e51b8152600401610d12906141f8565b611797612536565b60148190556040518181527fe2829e0b58973a393a64fea85d3ecff10b2cce5a330ce077046a0aa39a580d36906020016110dc565b6117d4612536565b600b5481116118145760405162461bcd60e51b815260206004820152600c60248201526b14db585b1b08185b5bdd5b9d60a21b6044820152606401610d12565b600b8190556040518181527f3f8118fc46e72ecde0c5e090803cad8c88e817b2f1e93e820aa9bfbf51f2468d906020016110dc565b60006001600160a01b0382166118b35760405162461bcd60e51b815260206004820152602960248201527f4552433732313a2061646472657373207a65726f206973206e6f7420612076616044820152683634b21037bbb732b960b91b6064820152608401610d12565b506001600160a01b031660009081526003602052604090205490565b6118d7612536565b6118e1600061297e565b565b6118eb612536565b6001600160a01b0381166000818152602d60209081526040808320839055519182527f6ea640312e182de387819fbeb13be00db3171a445412852248559054871c4199910160405180910390a250565b600a54600160a01b900460ff166119875760405162461bcd60e51b815260206004820152601060248201526f135a5b9d081a5cc8191a5cd8589b195960821b6044820152606401610d12565b600082116119a75760405162461bcd60e51b8152600401610d1290613f1d565b6014548211156119c95760405162461bcd60e51b8152600401610d1290613f45565b600b54826119d660085490565b6119e09190613f92565b11156119fe5760405162461bcd60e51b8152600401610d1290613faa565b6001600160a01b0381166000908152600e602052604090205460ff16611a5d5760405162461bcd60e51b8152602060048201526014602482015273139bdd08185b1b1bddd95908199bdc881b5a5b9d60621b6044820152606401610d12565b336000908152602d6020526040902054821115611c8c576000816001600160a01b031663313ce5676040518163ffffffff1660e01b8152600401602060405180830381865afa158015611ab4573d6000803e3d6000fd5b505050506040513d601f19601f82011682018060405250810190611ad89190614033565b611ae3906012614056565b611aee90600a61415d565b336000908152602d602052604081205491925090611b0c908561422a565b82601054611b1a9190614182565b611b249190614241565b905080836001600160a01b03166370a08231336040518263ffffffff1660e01b8152600401611b539190613b52565b602060405180830381865afa158015611b70573d6000803e3d6000fd5b505050506040513d601f19601f82011682018060405250810190611b949190613e94565b1015611bb25760405162461bcd60e51b8152600401610d1290614196565b601754336000818152602d6020526040902054611bfe926001600160a01b031690611bdd908861422a565b601154611bea9190614241565b600f546001600160a01b03169291906128f8565b611c136001600160a01b0384163330846128f8565b601654611c3f906001600160a01b0316611c2e600484614182565b6001600160a01b0386169190612590565b601754611c5a906001600160a01b0316611c2e600484614182565b601554611c75906001600160a01b0316611c2e600284614182565b5050336000908152602d6020526040812055611cb8565b336000908152602d6020526040902054611ca790839061422a565b336000908152602d60205260409020555b60005b82811015610afb5760188054906000611cd383613fdb565b9190505550611ce4601854846129d0565b601880546000908152602c602052604090209190915554611d069033906128de565b80611d1081613fdb565b915050611cbb565b606060018054610c1590613ead565b601c8160068110611d3757600080fd5b018054909150611d4690613ead565b80601f0160208091040260200160405190810160405280929190818152602001828054611d7290613ead565b8015611dbf5780601f10611d9457610100808354040283529160200191611dbf565b820191906000526020600020905b815481529060010190602001808311611da257829003601f168201915b505050505081565b81611dd18161265b565b610afb8383612ae2565b611de3612536565b6012829055601381905560408051838152602081018390527fe0659b795874c6fb3d1b606fd69a7d75b3070a5844be489f48a1923a38e6235b9101610bfa565b611e2b612536565b6001600160a01b038116611e515760405162461bcd60e51b8152600401610d1290613ff4565b60405163a93a019f60e01b81526001600160a01b0382169063a93a019f90611e80903090600190600401613f04565b600060405180830381600087803b158015611e9a57600080fd5b505af1158015611eae573d6000803e3d6000fd5b5050600c80546001600160a01b0319166001600160a01b03851617905550506040517f6a9882c578a664a414e2b8fed6fde87ed8eb96123b53f892d8f3964e03e4fa6c906110dc908390613b52565b836001600160a01b0381163314611f1757611f173361265b565b611f2385858585612aed565b5050505050565b60278160058110611f3a57600080fd5b0154905081565b6060611f4c82612b1f565b611fb25760405162461bcd60e51b815260206004820152603160248201527f427265776c616273466c61736b4e66743a2055524920717565727920666f72206044820152703737b732bc34b9ba32b73a103a37b5b2b760791b6064820152608401610d12565b6000611fbc612b3c565b9050600060405160200161209a907f226465736372697074696f6e223a2022427265776c61627320466c61736b204e81527f465420636f6c6c656374696f6e2070726f76696465732066656520726564756360208201527f74696f6e7320616e642062656e6566697473206163726f737320766172696f7560408201527f7320427265776c6162732070726f64756374732061732077656c6c206173206160608201527f636365737320746f206578636c7573697665204e4654207374616b696e67207060808201526537b7b639971160d11b60a082015260a60190565b60408051601f198184030181529181526000868152602c60205290812054919250906120c89060019061422a565b90506000601c82600681106120df576120df61401d565b0180546120eb90613ead565b80601f016020809104026020016040519081016040528092919081815260200182805461211790613ead565b80156121645780601f1061213957610100808354040283529160200191612164565b820191906000526020600020905b81548152906001019060200180831161214757829003601f168201915b505050505090508160050361217857600491505b60408051808201909152600e81526d2261747472696275746573223a5b60901b602082015280826121bc602786600581106121b5576121b561401d565b0154612b4b565b602286600581106121cf576121cf61401d565b016040516020016121e3949392919061427c565b604051602081830303815290604052905060008583604051602001612209929190614457565b60405160208183030381529060405290506000612224610c06565b61222d8a612b4b565b8784858760405160200161224696959493929190614493565b604051602081830303815290604052905061226081612bde565b60405160200161227091906145c9565b604051602081830303815290604052975050505050505050919050565b6001600160a01b03918216600090815260056020908152604080832093909416825291909152205460ff1690565b60228160058110611d3757600080fd5b6122d3612536565b6001600160a01b0381166122f95760405162461bcd60e51b8152600401610d1290613ff4565b601780546001600160a01b0319166001600160a01b0383161790556040517fcb7ef3e545f5cdb893f5c568ba710fe08f336375a2d9fd66e161033f8fc09ef3906110dc908390613b52565b61234c612536565b6001600160a01b0381166123b15760405162461bcd60e51b815260206004820152602660248201527f4f776e61626c653a206e6577206f776e657220697320746865207a65726f206160448201526564647265737360d01b6064820152608401610d12565b610b888161297e565b6123c2612536565b6001600160a01b0381166123e85760405162461bcd60e51b8152600401610d1290613ff4565b601580546001600160a01b0319166001600160a01b0383161790556040517fd6912e103d1553f15e77ffc98e99da32c9ce0d21d8be27cbb38437b1afe30928906110dc908390613b52565b61243b612536565b6001600160a01b0382166124615760405162461bcd60e51b8152600401610d129061460e565b6001600160a01b0382166000818152600e6020908152604091829020805460ff19168515159081179091558251938452908301527fcdaaca9eba749e91abd338e3b4c0eeb514d7bc059e7ba5dd8c0dea5be8d2c9049101610bfa565b6124c5612536565b6001600160a01b0381166124eb5760405162461bcd60e51b8152600401610d129061460e565b600f80546001600160a01b0319166001600160a01b0383161790556040517f61e4f1c8d3c68e8f5f4c85567de53396ef1c8f25803b33147d87232e8c55dcfb906110dc908390613b52565b600a546001600160a01b031633146118e15760405162461bcd60e51b815260206004820181905260248201527f4f776e61626c653a2063616c6c6572206973206e6f7420746865206f776e65726044820152606401610d12565b610afb8363a9059cbb60e01b84846040516024016125af929190613f04565b60408051601f198184030181529190526020810180516001600160e01b03166001600160e01b031990931692909217909152612d45565b60006001600160e01b031982166380ac58cd60e01b148061261757506001600160e01b03198216635b5e139f60e01b145b80610bb057506301ffc9a760e01b6001600160e01b0319831614610bb0565b61263f81612b1f565b610b885760405162461bcd60e51b8152600401610d12906141f8565b6daaeb6d7670e522a718067333cd4e3b15610b8857604051633185c44d60e21b81523060048201526001600160a01b03821660248201526daaeb6d7670e522a718067333cd4e9063c617113490604401602060405180830381865afa1580156126c8573d6000803e3d6000fd5b505050506040513d601f19601f820116820180604052508101906126ec9190614635565b610b885780604051633b79c77360e21b8152600401610d129190613b52565b60006127168261175a565b9050806001600160a01b0316836001600160a01b0316036127835760405162461bcd60e51b815260206004820152602160248201527f4552433732313a20617070726f76616c20746f2063757272656e74206f776e656044820152603960f91b6064820152608401610d12565b336001600160a01b038216148061279f575061279f813361228d565b6128115760405162461bcd60e51b815260206004820152603d60248201527f4552433732313a20617070726f76652063616c6c6572206973206e6f7420746f60448201527f6b656e206f776e6572206f7220617070726f76656420666f7220616c6c0000006064820152608401610d12565b610afb8383612e17565b60006128268261175a565b9050612836816000846001612e85565b61283f8261175a565b600083815260046020908152604080832080546001600160a01b03199081169091556001600160a01b03851680855260038452828520805460001901905587855260029093528184208054909116905551929350849260008051602061484e833981519152908390a4610b86565b6128b73382612f3f565b6128d35760405162461bcd60e51b8152600401610d1290614652565b610afb838383612f9d565b610b868282604051806020016040528060008152506130fc565b6040516001600160a01b0380851660248301528316604482015260648101829052610f3d9085906323b872dd60e01b906084016125af565b61293b848484612f9d565b6129478484848461312f565b610f3d5760405162461bcd60e51b8152600401610d129061469f565b610afb83838360405180602001604052806000815250611efd565b600a80546001600160a01b038381166001600160a01b0319831681179093556040519116919082907f8be0079c531659141344cd1fd0a4f28419497f9722a3daafe3b4186f6b6457e090600090a35050565b600080333a43426129e260018361422a565b406129ed8989613f92565b604080516001600160a01b0390971660208801528601949094526060850192909252608084015260a083015260c082015260e0016040516020818303038152906040528051906020012060001c90506000600b5482612a4c91906146f1565b601a54909150600090612a5f90836146f1565b90506000600b54836064612a739190614241565b612a7d9190614182565b9050601a8281548110612a9257612a9261401d565b9060005260206000200154811015612aab575080612acc565b601b8281548110612abe57612abe61401d565b906000526020600020015490505b612ad7816001613f92565b979650505050505050565b610b8633838361322d565b612af73383612f3f565b612b135760405162461bcd60e51b8152600401610d1290614652565b610f3d84848484612930565b6000908152600260205260409020546001600160a01b0316151590565b606060198054610c1590613ead565b60606000612b58836132f7565b600101905060008167ffffffffffffffff811115612b7857612b78613b92565b6040519080825280601f01601f191660200182016040528015612ba2576020820181803683370190505b5090508181016020015b600019016f181899199a1a9b1b9c1cb0b131b232b360811b600a86061a8153600a8504945084612bac57509392505050565b60608151600003612bfd57505060408051602081019091526000815290565b600060405180606001604052806040815260200161480e6040913990506000600384516002612c2c9190613f92565b612c369190614182565b612c41906004614241565b90506000612c50826020613f92565b67ffffffffffffffff811115612c6857612c68613b92565b6040519080825280601f01601f191660200182016040528015612c92576020820181803683370190505b509050818152600183018586518101602084015b81831015612d005760039283018051603f601282901c811687015160f890811b8552600c83901c8216880151811b6001860152600683901c8216880151811b60028601529116860151901b93820193909352600401612ca6565b600389510660018114612d1a5760028114612d2b57612d37565b613d3d60f01b600119830152612d37565b603d60f81b6000198301525b509398975050505050505050565b6000612d9a826040518060400160405280602081526020017f5361666545524332303a206c6f772d6c6576656c2063616c6c206661696c6564815250856001600160a01b03166133cf9092919063ffffffff16565b805190915015610afb5780806020019051810190612db89190614635565b610afb5760405162461bcd60e51b815260206004820152602a60248201527f5361666545524332303a204552433230206f7065726174696f6e20646964206e6044820152691bdd081cdd58d8d9595960b21b6064820152608401610d12565b600081815260046020526040902080546001600160a01b0319166001600160a01b0384169081179091558190612e4c8261175a565b6001600160a01b03167f8c5be1e5ebec7d5bd14f71427d1e84f3dd0314c0f7b2291e5b200ac8c7c3b92560405160405180910390a45050565b6000828152602c602052604090205460061180612ea957506001600160a01b038416155b80612ebb57506001600160a01b038316155b80612ed35750600c546001600160a01b038581169116145b80612eeb5750600c546001600160a01b038481169116145b612f335760405162461bcd60e51b815260206004820152601960248201527843616e6e6f74207472616e73666572204d6f6473206974656d60381b6044820152606401610d12565b610f3d848484846133de565b600080612f4b8361175a565b9050806001600160a01b0316846001600160a01b03161480612f725750612f72818561228d565b80610d255750836001600160a01b0316612f8b84610c98565b6001600160a01b031614949350505050565b826001600160a01b0316612fb08261175a565b6001600160a01b031614612fd65760405162461bcd60e51b8152600401610d1290614705565b6001600160a01b0382166130385760405162461bcd60e51b8152602060048201526024808201527f4552433732313a207472616e7366657220746f20746865207a65726f206164646044820152637265737360e01b6064820152608401610d12565b6130458383836001612e85565b826001600160a01b03166130588261175a565b6001600160a01b03161461307e5760405162461bcd60e51b8152600401610d1290614705565b600081815260046020908152604080832080546001600160a01b03199081169091556001600160a01b03878116808652600385528386208054600019019055908716808652838620805460010190558686526002909452828520805490921684179091559051849360008051602061484e83398151915291a4505050565b6131068383613517565b613113600084848461312f565b610afb5760405162461bcd60e51b8152600401610d129061469f565b60006001600160a01b0384163b1561322557604051630a85bd0160e11b81526001600160a01b0385169063150b7a029061317390339089908890889060040161474a565b6020604051808303816000875af19250505080156131ae575060408051601f3d908101601f191682019092526131ab91810190614787565b60015b61320b573d8080156131dc576040519150601f19603f3d011682016040523d82523d6000602084013e6131e1565b606091505b5080516000036132035760405162461bcd60e51b8152600401610d129061469f565b805181602001fd5b6001600160e01b031916630a85bd0160e11b149050610d25565b506001610d25565b816001600160a01b0316836001600160a01b03160361328a5760405162461bcd60e51b815260206004820152601960248201527822a9219b99189d1030b8383937bb32903a379031b0b63632b960391b6044820152606401610d12565b6001600160a01b03838116600081815260056020908152604080832094871680845294825291829020805460ff191686151590811790915591519182527f17307eab39ab6107e8899845ad3d59bd9653f200f220920489ca2b5937696c31910160405180910390a3505050565b60008072184f03e93ff9f4daa797ed6e38ed64bf6a1f0160401b83106133365772184f03e93ff9f4daa797ed6e38ed64bf6a1f0160401b830492506040015b6d04ee2d6d415b85acef81000000008310613362576d04ee2d6d415b85acef8100000000830492506020015b662386f26fc10000831061338057662386f26fc10000830492506010015b6305f5e1008310613398576305f5e100830492506008015b61271083106133ac57612710830492506004015b606483106133be576064830492506002015b600a8310610bb05760010192915050565b6060610d258484600085613621565b6133ea848484846136f1565b60018111156134595760405162461bcd60e51b815260206004820152603560248201527f455243373231456e756d657261626c653a20636f6e7365637574697665207472604482015274185b9cd9995c9cc81b9bdd081cdd5c1c1bdc9d1959605a1b6064820152608401610d12565b816001600160a01b0385166134b5576134b081600880546000838152600960205260408120829055600182018355919091527ff3f7a9fe364faab93b216da50a3214154f22a0a2b415b23a84c8169e8b636ee30155565b6134d8565b836001600160a01b0316856001600160a01b0316146134d8576134d88582613779565b6001600160a01b0384166134f4576134ef81613816565b611f23565b846001600160a01b0316846001600160a01b031614611f2357611f2384826138c5565b6001600160a01b03821661356d5760405162461bcd60e51b815260206004820181905260248201527f4552433732313a206d696e7420746f20746865207a65726f20616464726573736044820152606401610d12565b61357681612b1f565b156135935760405162461bcd60e51b8152600401610d12906147a4565b6135a1600083836001612e85565b6135aa81612b1f565b156135c75760405162461bcd60e51b8152600401610d12906147a4565b6001600160a01b038216600081815260036020908152604080832080546001019055848352600290915280822080546001600160a01b03191684179055518392919060008051602061484e833981519152908290a4610b86565b6060824710156136825760405162461bcd60e51b815260206004820152602660248201527f416464726573733a20696e73756666696369656e742062616c616e636520666f6044820152651c8818d85b1b60d21b6064820152608401610d12565b600080866001600160a01b0316858760405161369e91906147db565b60006040518083038185875af1925050503d80600081146136db576040519150601f19603f3d011682016040523d82523d6000602084013e6136e0565b606091505b5091509150612ad787838387613909565b6001811115610f3d576001600160a01b03841615613737576001600160a01b0384166000908152600360205260408120805483929061373190849061422a565b90915550505b6001600160a01b03831615610f3d576001600160a01b0383166000908152600360205260408120805483929061376e908490613f92565b909155505050505050565b6000600161378684611849565b613790919061422a565b6000838152600760205260409020549091508082146137e3576001600160a01b03841660009081526006602090815260408083208584528252808320548484528184208190558352600790915290208190555b5060009182526007602090815260408084208490556001600160a01b039094168352600681528383209183525290812055565b6008546000906138289060019061422a565b600083815260096020526040812054600880549394509092849081106138505761385061401d565b9060005260206000200154905080600883815481106138715761387161401d565b60009182526020808320909101929092558281526009909152604080822084905585825281205560088054806138a9576138a96147f7565b6001900381819060005260206000200160009055905550505050565b60006138d083611849565b6001600160a01b039093166000908152600660209081526040808320868452825280832085905593825260079052919091209190915550565b60608315613978578251600003613971576001600160a01b0385163b6139715760405162461bcd60e51b815260206004820152601d60248201527f416464726573733a2063616c6c20746f206e6f6e2d636f6e74726163740000006044820152606401610d12565b5081610d25565b610d25838381511561398d5781518083602001fd5b8060405162461bcd60e51b8152600401610d129190613b26565b8280546139b390613ead565b90600052602060002090601f0160209004810192826139d55760008555613a1b565b82601f106139ee57805160ff1916838001178555613a1b565b82800160010185558215613a1b579182015b82811115613a1b578251825591602001919060010190613a00565b50613a27929150613a2b565b5090565b5b80821115613a275760008155600101613a2c565b6001600160a01b0381168114610b8857600080fd5b600060208284031215613a6757600080fd5b8135613a7281613a40565b9392505050565b6001600160e01b031981168114610b8857600080fd5b600060208284031215613aa157600080fd5b8135613a7281613a79565b60008060408385031215613abf57600080fd5b50508035926020909101359150565b60005b83811015613ae9578181015183820152602001613ad1565b83811115610f3d5750506000910152565b60008151808452613b12816020860160208601613ace565b601f01601f19169290920160200192915050565b602081526000613a726020830184613afa565b600060208284031215613b4b57600080fd5b5035919050565b6001600160a01b0391909116815260200190565b60008060408385031215613b7957600080fd5b8235613b8481613a40565b946020939093013593505050565b634e487b7160e01b600052604160045260246000fd5b600067ffffffffffffffff80841115613bc357613bc3613b92565b604051601f8501601f19908116603f01168101908282118183101715613beb57613beb613b92565b81604052809350858152868686011115613c0457600080fd5b858560208301376000602087830101525050509392505050565b60008060008060808587031215613c3457600080fd5b8435613c3f81613a40565b93506020850135613c4f81613a40565b925060408501359150606085013567ffffffffffffffff811115613c7257600080fd5b8501601f81018713613c8357600080fd5b613c9287823560208401613ba8565b91505092959194509250565b600080600060608486031215613cb357600080fd5b8335613cbe81613a40565b92506020840135613cce81613a40565b929592945050506040919091013590565b600080600060608486031215613cf457600080fd5b8335613cff81613a40565b95602085013595506040909401359392505050565b8035613d1f81613a40565b919050565b60008060808385031215613d3757600080fd5b83601f840112613d4657600080fd5b6040516060810181811067ffffffffffffffff82111715613d6957613d69613b92565b604052806060850186811115613d7e57600080fd5b855b81811015613d98578035835260209283019201613d80565b50829450613da581613d14565b93505050509250929050565b600060208284031215613dc357600080fd5b813567ffffffffffffffff811115613dda57600080fd5b8201601f81018413613deb57600080fd5b610d2584823560208401613ba8565b60008060408385031215613e0d57600080fd5b823591506020830135613e1f81613a40565b809150509250929050565b8015158114610b8857600080fd5b60008060408385031215613e4b57600080fd5b8235613e5681613a40565b91506020830135613e1f81613e2a565b60008060408385031215613e7957600080fd5b8235613e8481613a40565b91506020830135613e1f81613a40565b600060208284031215613ea657600080fd5b5051919050565b600181811c90821680613ec157607f821691505b602082108103613ee157634e487b7160e01b600052602260045260246000fd5b50919050565b600060208284031215613ef957600080fd5b8151613a7281613a40565b6001600160a01b03929092168252602082015260400190565b6020808252600e908201526d125b9d985b1a5908185b5bdd5b9d60921b604082015260600190565b6020808252601c908201527f43616e6e6f7420657863656564206f6e652d74696d65206c696d697400000000604082015260600190565b634e487b7160e01b600052601160045260246000fd5b60008219821115613fa557613fa5613f7c565b500190565b60208082526017908201527643616e6e6f7420657863656564206d6178537570706c7960481b604082015260600190565b600060018201613fed57613fed613f7c565b5060010190565b6020808252600f908201526e496e76616c6964206164647265737360881b604082015260600190565b634e487b7160e01b600052603260045260246000fd5b60006020828403121561404557600080fd5b815160ff81168114613a7257600080fd5b600060ff821660ff84168082101561407057614070613f7c565b90039392505050565b600181815b808511156140b457816000190482111561409a5761409a613f7c565b808516156140a757918102915b93841c939080029061407e565b509250929050565b6000826140cb57506001610bb0565b816140d857506000610bb0565b81600181146140ee57600281146140f857614114565b6001915050610bb0565b60ff84111561410957614109613f7c565b50506001821b610bb0565b5060208310610133831016604e8410600b8410161715614137575081810a610bb0565b6141418383614079565b806000190482111561415557614155613f7c565b029392505050565b6000613a7260ff8416836140bc565b634e487b7160e01b600052601260045260246000fd5b6000826141915761419161416c565b500490565b60208082526010908201526f496e73756666696369656e742066656560801b604082015260600190565b60808101818460005b60038110156141e85781518352602092830192909101906001016141c9565b5050508260608301529392505050565b602080825260189082015277115490cdcc8c4e881a5b9d985b1a59081d1bdad95b88125160421b604082015260600190565b60008282101561423c5761423c613f7c565b500390565b600081600019048311821515161561425b5761425b613f7c565b500290565b60008151614272818560208601613ace565b9290920192915050565b60008551602061428f8285838b01613ace565b7f7b2274726169745f74797065223a224e6574776f726b222c202276616c7565229184019182527f3a22424e4220436861696e227d2c207b2274726169745f74797065223a225261818301526f3934ba3c911610113b30b63ab2911d1160811b6040830152865161430681605085018a8501613ace565b7f227d2c207b2274726169745f74797065223a2246656520526564756374696f6e605093909101928301526b111610113b30b63ab2911d1160a11b6070830152855161435881607c8501848a01613ace565b7f2e303025227d2c207b2274726169745f74797065223a22466561747572652041607c93909101928301527031b1b2b9b9911610113b30b63ab2911d1160791b609c830152845460ad90600090600181811c90808316806143ba57607f831692505b86831081036143d757634e487b7160e01b85526022600452602485fd5b8080156143eb576001811461440057614431565b60ff1985168988015283890187019550614431565b60008c81526020902060005b858110156144275781548b82018a015290840190890161440c565b505086848a010195505b50505050506144498162227d5d60e81b815260030190565b9a9950505050505050505050565b60008351614469818460208801613ace565b602f60f81b9083019081528351614487816001840160208801613ace565b01600101949350505050565b693d913730b6b2911d101160b11b815286516000906144b981600a850160208c01613ace565b61202360f01b600a9184019182015287516144db81600c840160208c01613ace565b6201116160ed1b600c929091019182015286516144ff81600f840160208b01613ace565b7f2c202265787465726e616c5f75726c223a202268747470733a2f2f6561726e2e600f92909101918201527f627265776c6162732e696e666f2f6e6674222c2022696d616765223a20220000602f820152855161456381604d840160208a01613ace565b6144496145bc6145b66145a361459d604d8688010178173837339116101130b734b6b0ba34b7b72fbab936111d101160391b815260190190565b8a614260565b6601736b81a1116160cd1b815260070190565b87614260565b607d60f81b815260010190565b7f646174613a6170706c69636174696f6e2f6a736f6e3b6261736536342c00000081526000825161460181601d850160208701613ace565b91909101601d0192915050565b6020808252600d908201526c24b73b30b634b2103a37b5b2b760991b604082015260600190565b60006020828403121561464757600080fd5b8151613a7281613e2a565b6020808252602d908201527f4552433732313a2063616c6c6572206973206e6f7420746f6b656e206f776e6560408201526c1c881bdc88185c1c1c9bdd9959609a1b606082015260800190565b60208082526032908201527f4552433732313a207472616e7366657220746f206e6f6e20455243373231526560408201527131b2b4bb32b91034b6b83632b6b2b73a32b960711b606082015260800190565b6000826147005761470061416c565b500690565b60208082526025908201527f4552433732313a207472616e736665722066726f6d20696e636f72726563742060408201526437bbb732b960d91b606082015260800190565b6001600160a01b038581168252841660208201526040810183905260806060820181905260009061477d90830184613afa565b9695505050505050565b60006020828403121561479957600080fd5b8151613a7281613a79565b6020808252601c908201527f4552433732313a20746f6b656e20616c7265616479206d696e74656400000000604082015260600190565b600082516147ed818460208701613ace565b9190910192915050565b634e487b7160e01b600052603160045260246000fdfe4142434445464748494a4b4c4d4e4f505152535455565758595a6162636465666768696a6b6c6d6e6f707172737475767778797a303132333435363738392b2fddf252ad1be2c89b69c2b068fc378daa952ba7f163c4a11628f55a4df523b3efa2646970667358221220d13b946021afa32dd9d2f7f701e47421d983a03523f7505fb14960fde25596d364736f6c634300080e0033",
  "devdoc": {
    "kind": "dev",
    "methods": {
      "balanceOf(address)": {
        "details": "See {IERC721-balanceOf}."
      },
      "getApproved(uint256)": {
        "details": "See {IERC721-getApproved}."
      },
      "isApprovedForAll(address,address)": {
        "details": "See {IERC721-isApprovedForAll}."
      },
      "name()": {
        "details": "See {IERC721Metadata-name}."
      },
      "owner()": {
        "details": "Returns the address of the current owner."
      },
      "ownerOf(uint256)": {
        "details": "See {IERC721-ownerOf}."
      },
      "renounceOwnership()": {
        "details": "Leaves the contract without owner. It will not be possible to call `onlyOwner` functions anymore. Can only be called by the current owner. NOTE: Renouncing ownership will leave the contract without an owner, thereby removing any functionality that is only available to the owner."
      },
      "supportsInterface(bytes4)": {
        "details": "See {IERC165-supportsInterface}."
      },
      "symbol()": {
        "details": "See {IERC721Metadata-symbol}."
      },
      "tokenByIndex(uint256)": {
        "details": "See {IERC721Enumerable-tokenByIndex}."
      },
      "tokenOfOwnerByIndex(address,uint256)": {
        "details": "See {IERC721Enumerable-tokenOfOwnerByIndex}."
      },
      "tokenURI(uint256)": {
        "details": "See {IERC721Metadata-tokenURI}."
      },
      "totalSupply()": {
        "details": "See {IERC721Enumerable-totalSupply}."
      },
      "transferOwnership(address)": {
        "details": "Transfers ownership of the contract to a new account (`newOwner`). Can only be called by the current owner."
      }
    },
    "version": 1
  },
  "userdoc": {
    "kind": "user",
    "methods": {
      "onERC721Received(address,address,uint256,bytes)": {
        "notice": "onERC721Received(address operator, address from, uint256 tokenId, bytes data)  bytes4 It must return its Solidity selector to confirm the token transfer. If any other value is returned or the interface is not implemented by the recipient, the transfer will be reverted."
      }
    },
    "version": 1
  },
  "storageLayout": {
    "storage": [
      {
        "astId": 3708,
        "contract": "contracts/indexes/BrewlabsFlaskNft.sol:BrewlabsFlaskNft",
        "label": "_name",
        "offset": 0,
        "slot": "0",
        "type": "t_string_storage"
      },
      {
        "astId": 3710,
        "contract": "contracts/indexes/BrewlabsFlaskNft.sol:BrewlabsFlaskNft",
        "label": "_symbol",
        "offset": 0,
        "slot": "1",
        "type": "t_string_storage"
      },
      {
        "astId": 3714,
        "contract": "contracts/indexes/BrewlabsFlaskNft.sol:BrewlabsFlaskNft",
        "label": "_owners",
        "offset": 0,
        "slot": "2",
        "type": "t_mapping(t_uint256,t_address)"
      },
      {
        "astId": 3718,
        "contract": "contracts/indexes/BrewlabsFlaskNft.sol:BrewlabsFlaskNft",
        "label": "_balances",
        "offset": 0,
        "slot": "3",
        "type": "t_mapping(t_address,t_uint256)"
      },
      {
        "astId": 3722,
        "contract": "contracts/indexes/BrewlabsFlaskNft.sol:BrewlabsFlaskNft",
        "label": "_tokenApprovals",
        "offset": 0,
        "slot": "4",
        "type": "t_mapping(t_uint256,t_address)"
      },
      {
        "astId": 3728,
        "contract": "contracts/indexes/BrewlabsFlaskNft.sol:BrewlabsFlaskNft",
        "label": "_operatorApprovals",
        "offset": 0,
        "slot": "5",
        "type": "t_mapping(t_address,t_mapping(t_address,t_bool))"
      },
      {
        "astId": 4776,
        "contract": "contracts/indexes/BrewlabsFlaskNft.sol:BrewlabsFlaskNft",
        "label": "_ownedTokens",
        "offset": 0,
        "slot": "6",
        "type": "t_mapping(t_address,t_mapping(t_uint256,t_uint256))"
      },
      {
        "astId": 4780,
        "contract": "contracts/indexes/BrewlabsFlaskNft.sol:BrewlabsFlaskNft",
        "label": "_ownedTokensIndex",
        "offset": 0,
        "slot": "7",
        "type": "t_mapping(t_uint256,t_uint256)"
      },
      {
        "astId": 4783,
        "contract": "contracts/indexes/BrewlabsFlaskNft.sol:BrewlabsFlaskNft",
        "label": "_allTokens",
        "offset": 0,
        "slot": "8",
        "type": "t_array(t_uint256)dyn_storage"
      },
      {
        "astId": 4787,
        "contract": "contracts/indexes/BrewlabsFlaskNft.sol:BrewlabsFlaskNft",
        "label": "_allTokensIndex",
        "offset": 0,
        "slot": "9",
        "type": "t_mapping(t_uint256,t_uint256)"
      },
      {
        "astId": 883,
        "contract": "contracts/indexes/BrewlabsFlaskNft.sol:BrewlabsFlaskNft",
        "label": "_owner",
        "offset": 0,
        "slot": "10",
        "type": "t_address"
      },
      {
        "astId": 33208,
        "contract": "contracts/indexes/BrewlabsFlaskNft.sol:BrewlabsFlaskNft",
        "label": "mintAllowed",
        "offset": 20,
        "slot": "10",
        "type": "t_bool"
      },
      {
        "astId": 33211,
        "contract": "contracts/indexes/BrewlabsFlaskNft.sol:BrewlabsFlaskNft",
        "label": "maxSupply",
        "offset": 0,
        "slot": "11",
        "type": "t_uint256"
      },
      {
        "astId": 33213,
        "contract": "contracts/indexes/BrewlabsFlaskNft.sol:BrewlabsFlaskNft",
        "label": "nftStaking",
        "offset": 0,
        "slot": "12",
        "type": "t_address"
      },
      {
        "astId": 33215,
        "contract": "contracts/indexes/BrewlabsFlaskNft.sol:BrewlabsFlaskNft",
        "label": "mirrorNft",
        "offset": 0,
        "slot": "13",
        "type": "t_address"
      },
      {
        "astId": 33219,
        "contract": "contracts/indexes/BrewlabsFlaskNft.sol:BrewlabsFlaskNft",
        "label": "tokenAllowed",
        "offset": 0,
        "slot": "14",
        "type": "t_mapping(t_address,t_bool)"
      },
      {
        "astId": 33225,
        "contract": "contracts/indexes/BrewlabsFlaskNft.sol:BrewlabsFlaskNft",
        "label": "brews",
        "offset": 0,
        "slot": "15",
        "type": "t_contract(IERC20)3296"
      },
      {
        "astId": 33228,
        "contract": "contracts/indexes/BrewlabsFlaskNft.sol:BrewlabsFlaskNft",
        "label": "mintFee",
        "offset": 0,
        "slot": "16",
        "type": "t_uint256"
      },
      {
        "astId": 33235,
        "contract": "contracts/indexes/BrewlabsFlaskNft.sol:BrewlabsFlaskNft",
        "label": "brewsMintFee",
        "offset": 0,
        "slot": "17",
        "type": "t_uint256"
      },
      {
        "astId": 33238,
        "contract": "contracts/indexes/BrewlabsFlaskNft.sol:BrewlabsFlaskNft",
        "label": "upgradeFee",
        "offset": 0,
        "slot": "18",
        "type": "t_uint256"
      },
      {
        "astId": 33245,
        "contract": "contracts/indexes/BrewlabsFlaskNft.sol:BrewlabsFlaskNft",
        "label": "brewsUpgradeFee",
        "offset": 0,
        "slot": "19",
        "type": "t_uint256"
      },
      {
        "astId": 33248,
        "contract": "contracts/indexes/BrewlabsFlaskNft.sol:BrewlabsFlaskNft",
        "label": "oneTimeLimit",
        "offset": 0,
        "slot": "20",
        "type": "t_uint256"
      },
      {
        "astId": 33251,
        "contract": "contracts/indexes/BrewlabsFlaskNft.sol:BrewlabsFlaskNft",
        "label": "stakingAddr",
        "offset": 0,
        "slot": "21",
        "type": "t_address"
      },
      {
        "astId": 33254,
        "contract": "contracts/indexes/BrewlabsFlaskNft.sol:BrewlabsFlaskNft",
        "label": "brewsWallet",
        "offset": 0,
        "slot": "22",
        "type": "t_address"
      },
      {
        "astId": 33257,
        "contract": "contracts/indexes/BrewlabsFlaskNft.sol:BrewlabsFlaskNft",
        "label": "treasury",
        "offset": 0,
        "slot": "23",
        "type": "t_address"
      },
      {
        "astId": 33259,
        "contract": "contracts/indexes/BrewlabsFlaskNft.sol:BrewlabsFlaskNft",
        "label": "tokenIndex",
        "offset": 0,
        "slot": "24",
        "type": "t_uint256"
      },
      {
        "astId": 33262,
        "contract": "contracts/indexes/BrewlabsFlaskNft.sol:BrewlabsFlaskNft",
        "label": "_tokenBaseURI",
        "offset": 0,
        "slot": "25",
        "type": "t_string_storage"
      },
      {
        "astId": 33271,
        "contract": "contracts/indexes/BrewlabsFlaskNft.sol:BrewlabsFlaskNft",
        "label": "probabilities",
        "offset": 0,
        "slot": "26",
        "type": "t_array(t_uint256)dyn_storage"
      },
      {
        "astId": 33280,
        "contract": "contracts/indexes/BrewlabsFlaskNft.sol:BrewlabsFlaskNft",
        "label": "aliases",
        "offset": 0,
        "slot": "27",
        "type": "t_array(t_uint256)dyn_storage"
      },
      {
        "astId": 33291,
        "contract": "contracts/indexes/BrewlabsFlaskNft.sol:BrewlabsFlaskNft",
        "label": "rarityNames",
        "offset": 0,
        "slot": "28",
        "type": "t_array(t_string_storage)6_storage"
      },
      {
        "astId": 33301,
        "contract": "contracts/indexes/BrewlabsFlaskNft.sol:BrewlabsFlaskNft",
        "label": "featureAccesses",
        "offset": 0,
        "slot": "34",
        "type": "t_array(t_string_storage)5_storage"
      },
      {
        "astId": 33311,
        "contract": "contracts/indexes/BrewlabsFlaskNft.sol:BrewlabsFlaskNft",
        "label": "feeReductions",
        "offset": 0,
        "slot": "39",
        "type": "t_array(t_uint256)5_storage"
      },
      {
        "astId": 33315,
        "contract": "contracts/indexes/BrewlabsFlaskNft.sol:BrewlabsFlaskNft",
        "label": "rarities",
        "offset": 0,
        "slot": "44",
        "type": "t_mapping(t_uint256,t_uint256)"
      },
      {
        "astId": 33319,
        "contract": "contracts/indexes/BrewlabsFlaskNft.sol:BrewlabsFlaskNft",
        "label": "whitelist",
        "offset": 0,
        "slot": "45",
        "type": "t_mapping(t_address,t_uint256)"
      }
    ],
    "types": {
      "t_address": {
        "encoding": "inplace",
        "label": "address",
        "numberOfBytes": "20"
      },
      "t_array(t_string_storage)5_storage": {
        "base": "t_string_storage",
        "encoding": "inplace",
        "label": "string[5]",
        "numberOfBytes": "160"
      },
      "t_array(t_string_storage)6_storage": {
        "base": "t_string_storage",
        "encoding": "inplace",
        "label": "string[6]",
        "numberOfBytes": "192"
      },
      "t_array(t_uint256)5_storage": {
        "base": "t_uint256",
        "encoding": "inplace",
        "label": "uint256[5]",
        "numberOfBytes": "160"
      },
      "t_array(t_uint256)dyn_storage": {
        "base": "t_uint256",
        "encoding": "dynamic_array",
        "label": "uint256[]",
        "numberOfBytes": "32"
      },
      "t_bool": {
        "encoding": "inplace",
        "label": "bool",
        "numberOfBytes": "1"
      },
      "t_contract(IERC20)3296": {
        "encoding": "inplace",
        "label": "contract IERC20",
        "numberOfBytes": "20"
      },
      "t_mapping(t_address,t_bool)": {
        "encoding": "mapping",
        "key": "t_address",
        "label": "mapping(address => bool)",
        "numberOfBytes": "32",
        "value": "t_bool"
      },
      "t_mapping(t_address,t_mapping(t_address,t_bool))": {
        "encoding": "mapping",
        "key": "t_address",
        "label": "mapping(address => mapping(address => bool))",
        "numberOfBytes": "32",
        "value": "t_mapping(t_address,t_bool)"
      },
      "t_mapping(t_address,t_mapping(t_uint256,t_uint256))": {
        "encoding": "mapping",
        "key": "t_address",
        "label": "mapping(address => mapping(uint256 => uint256))",
        "numberOfBytes": "32",
        "value": "t_mapping(t_uint256,t_uint256)"
      },
      "t_mapping(t_address,t_uint256)": {
        "encoding": "mapping",
        "key": "t_address",
        "label": "mapping(address => uint256)",
        "numberOfBytes": "32",
        "value": "t_uint256"
      },
      "t_mapping(t_uint256,t_address)": {
        "encoding": "mapping",
        "key": "t_uint256",
        "label": "mapping(uint256 => address)",
        "numberOfBytes": "32",
        "value": "t_address"
      },
      "t_mapping(t_uint256,t_uint256)": {
        "encoding": "mapping",
        "key": "t_uint256",
        "label": "mapping(uint256 => uint256)",
        "numberOfBytes": "32",
        "value": "t_uint256"
      },
      "t_string_storage": {
        "encoding": "bytes",
        "label": "string",
        "numberOfBytes": "32"
      },
      "t_uint256": {
        "encoding": "inplace",
        "label": "uint256",
        "numberOfBytes": "32"
      }
    }
  }
}