{
  "address": "0x62b0d430f1CA0aCbc7d59CeB4E97b6eaBeb0c08A",
  "abi": [
    {
      "inputs": [
        {
          "internalType": "contract IBrewlabsFlaskNft",
          "name": "_nft",
          "type": "address"
        }
      ],
      "stateMutability": "nonpayable",
      "type": "constructor"
    },
    {
      "anonymous": false,
      "inputs": [
        {
          "indexed": true,
          "internalType": "address",
          "name": "owner",
          "type": "address"
        },
        {
          "indexed": true,
          "internalType": "address",
          "name": "approved",
          "type": "address"
        },
        {
          "indexed": true,
          "internalType": "uint256",
          "name": "tokenId",
          "type": "uint256"
        }
      ],
      "name": "Approval",
      "type": "event"
    },
    {
      "anonymous": false,
      "inputs": [
        {
          "indexed": true,
          "internalType": "address",
          "name": "owner",
          "type": "address"
        },
        {
          "indexed": true,
          "internalType": "address",
          "name": "operator",
          "type": "address"
        },
        {
          "indexed": false,
          "internalType": "bool",
          "name": "approved",
          "type": "bool"
        }
      ],
      "name": "ApprovalForAll",
      "type": "event"
    },
    {
      "anonymous": false,
      "inputs": [
        {
          "indexed": false,
          "internalType": "string",
          "name": "uri",
          "type": "string"
        }
      ],
      "name": "BaseURIUpdated",
      "type": "event"
    },
    {
      "anonymous": false,
      "inputs": [
        {
          "indexed": true,
          "internalType": "address",
          "name": "previousOwner",
          "type": "address"
        },
        {
          "indexed": true,
          "internalType": "address",
          "name": "newOwner",
          "type": "address"
        }
      ],
      "name": "OwnershipTransferred",
      "type": "event"
    },
    {
      "anonymous": false,
      "inputs": [
        {
          "indexed": false,
          "internalType": "address",
          "name": "addr",
          "type": "address"
        }
      ],
      "name": "SetAdmin",
      "type": "event"
    },
    {
      "anonymous": false,
      "inputs": [
        {
          "indexed": true,
          "internalType": "address",
          "name": "from",
          "type": "address"
        },
        {
          "indexed": true,
          "internalType": "address",
          "name": "to",
          "type": "address"
        },
        {
          "indexed": true,
          "internalType": "uint256",
          "name": "tokenId",
          "type": "uint256"
        }
      ],
      "name": "Transfer",
      "type": "event"
    },
    {
      "inputs": [],
      "name": "admin",
      "outputs": [
        {
          "internalType": "address",
          "name": "",
          "type": "address"
        }
      ],
      "stateMutability": "view",
      "type": "function"
    },
    {
      "inputs": [
        {
          "internalType": "address",
          "name": "to",
          "type": "address"
        },
        {
          "internalType": "uint256",
          "name": "tokenId",
          "type": "uint256"
        }
      ],
      "name": "approve",
      "outputs": [],
      "stateMutability": "nonpayable",
      "type": "function"
    },
    {
      "inputs": [
        {
          "internalType": "address",
          "name": "owner",
          "type": "address"
        }
      ],
      "name": "balanceOf",
      "outputs": [
        {
          "internalType": "uint256",
          "name": "",
          "type": "uint256"
        }
      ],
      "stateMutability": "view",
      "type": "function"
    },
    {
      "inputs": [
        {
          "internalType": "uint256",
          "name": "tokenId",
          "type": "uint256"
        }
      ],
      "name": "burn",
      "outputs": [],
      "stateMutability": "nonpayable",
      "type": "function"
    },
    {
      "inputs": [
        {
          "internalType": "uint256",
          "name": "tokenId",
          "type": "uint256"
        }
      ],
      "name": "getApproved",
      "outputs": [
        {
          "internalType": "address",
          "name": "",
          "type": "address"
        }
      ],
      "stateMutability": "view",
      "type": "function"
    },
    {
      "inputs": [
        {
          "internalType": "address",
          "name": "owner",
          "type": "address"
        },
        {
          "internalType": "address",
          "name": "operator",
          "type": "address"
        }
      ],
      "name": "isApprovedForAll",
      "outputs": [
        {
          "internalType": "bool",
          "name": "",
          "type": "bool"
        }
      ],
      "stateMutability": "view",
      "type": "function"
    },
    {
      "inputs": [
        {
          "internalType": "address",
          "name": "to",
          "type": "address"
        },
        {
          "internalType": "uint256",
          "name": "tokenId",
          "type": "uint256"
        }
      ],
      "name": "mint",
      "outputs": [],
      "stateMutability": "nonpayable",
      "type": "function"
    },
    {
      "inputs": [],
      "name": "name",
      "outputs": [
        {
          "internalType": "string",
          "name": "",
          "type": "string"
        }
      ],
      "stateMutability": "view",
      "type": "function"
    },
    {
      "inputs": [],
      "name": "originNft",
      "outputs": [
        {
          "internalType": "contract IBrewlabsFlaskNft",
          "name": "",
          "type": "address"
        }
      ],
      "stateMutability": "view",
      "type": "function"
    },
    {
      "inputs": [],
      "name": "owner",
      "outputs": [
        {
          "internalType": "address",
          "name": "",
          "type": "address"
        }
      ],
      "stateMutability": "view",
      "type": "function"
    },
    {
      "inputs": [
        {
          "internalType": "uint256",
          "name": "tokenId",
          "type": "uint256"
        }
      ],
      "name": "ownerOf",
      "outputs": [
        {
          "internalType": "address",
          "name": "",
          "type": "address"
        }
      ],
      "stateMutability": "view",
      "type": "function"
    },
    {
      "inputs": [
        {
          "internalType": "uint256",
          "name": "tokenId",
          "type": "uint256"
        }
      ],
      "name": "rarityOf",
      "outputs": [
        {
          "internalType": "uint256",
          "name": "",
          "type": "uint256"
        }
      ],
      "stateMutability": "view",
      "type": "function"
    },
    {
      "inputs": [],
      "name": "renounceOwnership",
      "outputs": [],
      "stateMutability": "nonpayable",
      "type": "function"
    },
    {
      "inputs": [
        {
          "internalType": "address",
          "name": "from",
          "type": "address"
        },
        {
          "internalType": "address",
          "name": "to",
          "type": "address"
        },
        {
          "internalType": "uint256",
          "name": "tokenId",
          "type": "uint256"
        }
      ],
      "name": "safeTransferFrom",
      "outputs": [],
      "stateMutability": "nonpayable",
      "type": "function"
    },
    {
      "inputs": [
        {
          "internalType": "address",
          "name": "from",
          "type": "address"
        },
        {
          "internalType": "address",
          "name": "to",
          "type": "address"
        },
        {
          "internalType": "uint256",
          "name": "tokenId",
          "type": "uint256"
        },
        {
          "internalType": "bytes",
          "name": "data",
          "type": "bytes"
        }
      ],
      "name": "safeTransferFrom",
      "outputs": [],
      "stateMutability": "nonpayable",
      "type": "function"
    },
    {
      "inputs": [
        {
          "internalType": "address",
          "name": "newAdmin",
          "type": "address"
        }
      ],
      "name": "setAdmin",
      "outputs": [],
      "stateMutability": "nonpayable",
      "type": "function"
    },
    {
      "inputs": [
        {
          "internalType": "address",
          "name": "operator",
          "type": "address"
        },
        {
          "internalType": "bool",
          "name": "approved",
          "type": "bool"
        }
      ],
      "name": "setApprovalForAll",
      "outputs": [],
      "stateMutability": "nonpayable",
      "type": "function"
    },
    {
      "inputs": [
        {
          "internalType": "string",
          "name": "_uri",
          "type": "string"
        }
      ],
      "name": "setTokenBaseUri",
      "outputs": [],
      "stateMutability": "nonpayable",
      "type": "function"
    },
    {
      "inputs": [
        {
          "internalType": "bytes4",
          "name": "interfaceId",
          "type": "bytes4"
        }
      ],
      "name": "supportsInterface",
      "outputs": [
        {
          "internalType": "bool",
          "name": "",
          "type": "bool"
        }
      ],
      "stateMutability": "view",
      "type": "function"
    },
    {
      "inputs": [],
      "name": "symbol",
      "outputs": [
        {
          "internalType": "string",
          "name": "",
          "type": "string"
        }
      ],
      "stateMutability": "view",
      "type": "function"
    },
    {
      "inputs": [
        {
          "internalType": "address",
          "name": "owner",
          "type": "address"
        }
      ],
      "name": "tBalanceOf",
      "outputs": [
        {
          "internalType": "uint256",
          "name": "",
          "type": "uint256"
        }
      ],
      "stateMutability": "view",
      "type": "function"
    },
    {
      "inputs": [
        {
          "internalType": "address",
          "name": "owner",
          "type": "address"
        },
        {
          "internalType": "uint256",
          "name": "index",
          "type": "uint256"
        }
      ],
      "name": "tTokenOfOwnerByIndex",
      "outputs": [
        {
          "internalType": "uint256",
          "name": "",
          "type": "uint256"
        }
      ],
      "stateMutability": "view",
      "type": "function"
    },
    {
      "inputs": [
        {
          "internalType": "uint256",
          "name": "index",
          "type": "uint256"
        }
      ],
      "name": "tokenByIndex",
      "outputs": [
        {
          "internalType": "uint256",
          "name": "",
          "type": "uint256"
        }
      ],
      "stateMutability": "view",
      "type": "function"
    },
    {
      "inputs": [
        {
          "internalType": "address",
          "name": "owner",
          "type": "address"
        },
        {
          "internalType": "uint256",
          "name": "index",
          "type": "uint256"
        }
      ],
      "name": "tokenOfOwnerByIndex",
      "outputs": [
        {
          "internalType": "uint256",
          "name": "",
          "type": "uint256"
        }
      ],
      "stateMutability": "view",
      "type": "function"
    },
    {
      "inputs": [
        {
          "internalType": "uint256",
          "name": "tokenId",
          "type": "uint256"
        }
      ],
      "name": "tokenURI",
      "outputs": [
        {
          "internalType": "string",
          "name": "",
          "type": "string"
        }
      ],
      "stateMutability": "view",
      "type": "function"
    },
    {
      "inputs": [],
      "name": "totalSupply",
      "outputs": [
        {
          "internalType": "uint256",
          "name": "",
          "type": "uint256"
        }
      ],
      "stateMutability": "view",
      "type": "function"
    },
    {
      "inputs": [
        {
          "internalType": "address",
          "name": "from",
          "type": "address"
        },
        {
          "internalType": "address",
          "name": "to",
          "type": "address"
        },
        {
          "internalType": "uint256",
          "name": "tokenId",
          "type": "uint256"
        }
      ],
      "name": "transferFrom",
      "outputs": [],
      "stateMutability": "nonpayable",
      "type": "function"
    },
    {
      "inputs": [
        {
          "internalType": "address",
          "name": "newOwner",
          "type": "address"
        }
      ],
      "name": "transferOwnership",
      "outputs": [],
      "stateMutability": "nonpayable",
      "type": "function"
    }
  ],
  "transactionHash": "0x9392c87189929ca82bba5728fbc1e31a90c18f527d43fc065634895cba2fb13a",
  "args": [
    "0xCb8C54cC0Ba6b9516a42f7A6B9b6e27B16269722"
  ],
  "numDeployments": 2,
  "solcInputHash": "6a5989d757faf2277c141d8971841324",
  "bytecode": "0x60a06040819052600060808190526200001b91600d9162000314565b506040805160e081018252600660a082019081526521b7b6b6b7b760d11b60c083015281528151808301835260088152672ab731b7b6b6b7b760c11b60208281019190915280830191909152825180840184526004808252635261726560e01b828401528385019190915283518085018552908152634570696360e01b818301526060830152825180840190935260098352684c6567656e6461727960b81b908301526080810191909152620000d690600e906005620003a3565b506040805160e081018252600560a0820181815264426173696360d81b60c08401528252825180840184526008815267125b5c1c9bdd995960c21b60208281019190915280840191909152835180850185526006815265213932bbb2b960d11b81830152838501528351808501855260078152665072656d69756d60c81b8183015260608401528351808501909452600e84526d283932b6b4bab690213932bbb2b960911b908401526080820192909252620001969160139190620003a3565b506040805160a0810182526005808252600a6020830152600f9282019290925260146060820152601e6080820152620001d39160189190620003f6565b50348015620001e157600080fd5b5060405162002d1c38038062002d1c8339810160408190526200020491620004a6565b604080518082018252601981527f427265776c61627320466c61736b204d6972726f72204e66740000000000000060208083019182528351808501909452600484526336a1262360e11b908401528151919291620002659160009162000314565b5080516200027b90600190602084019062000314565b5050506200029862000292620002be60201b60201c565b620002c2565b600b80546001600160a01b0319166001600160a01b039290921691909117905562000514565b3390565b600a80546001600160a01b038381166001600160a01b0319831681179093556040519116919082907f8be0079c531659141344cd1fd0a4f28419497f9722a3daafe3b4186f6b6457e090600090a35050565b8280546200032290620004d8565b90600052602060002090601f01602090048101928262000346576000855562000391565b82601f106200036157805160ff191683800117855562000391565b8280016001018555821562000391579182015b828111156200039157825182559160200191906001019062000374565b506200039f9291506200042c565b5090565b8260058101928215620003e8579160200282015b82811115620003e85782518051620003d791849160209091019062000314565b5091602001919060010190620003b7565b506200039f92915062000443565b826005810192821562000391579160200282015b8281111562000391578251829060ff169055916020019190600101906200040a565b5b808211156200039f57600081556001016200042d565b808211156200039f5760006200045a828262000464565b5060010162000443565b5080546200047290620004d8565b6000825580601f1062000483575050565b601f016020900490600052602060002090810190620004a391906200042c565b50565b600060208284031215620004b957600080fd5b81516001600160a01b0381168114620004d157600080fd5b9392505050565b600181811c90821680620004ed57607f821691505b6020821081036200050e57634e487b7160e01b600052602260045260246000fd5b50919050565b6127f880620005246000396000f3fe608060405234801561001057600080fd5b50600436106101845760003560e01c8063704b6c02116100d9578063b88d4fde11610087578063b88d4fde14610325578063c87b56dd14610338578063dd3b5f9a1461034b578063e985e9c51461035e578063ee6be59e14610371578063f2fde38b14610384578063f851a4401461039757600080fd5b8063704b6c02146102b857806370a08231146102cb578063715018a6146102de578063855549f7146102e65780638da5cb5b146102f957806395d89b411461030a578063a22cb4651461031257600080fd5b80633f87db25116101365780633f87db251461023357806340c10f191461024657806342842e0e1461025957806342966c681461026c5780634f6ccce71461027f5780636352211e1461029257806368993a47146102a557600080fd5b806301ffc9a71461018957806306fdde03146101b1578063081812fc146101c6578063095ea7b3146101e657806318160ddd146101fb57806323b872dd1461020d5780632f745c5914610220575b600080fd5b61019c610197366004611e12565b6103aa565b60405190151581526020015b60405180910390f35b6101b96103d5565b6040516101a89190611e87565b6101d96101d4366004611e9a565b610467565b6040516101a89190611eb3565b6101f96101f4366004611ee3565b61048e565b005b6008545b6040519081526020016101a8565b6101f961021b366004611f0d565b6105a8565b6101ff61022e366004611ee3565b6105d9565b6101f9610241366004611fd5565b61066f565b6101f9610254366004611ee3565b6106c5565b6101f9610267366004611f0d565b6106fd565b6101f961027a366004611e9a565b610718565b6101ff61028d366004611e9a565b61074e565b6101d96102a0366004611e9a565b6107e1565b600b546101d9906001600160a01b031681565b6101f96102c636600461201e565b610816565b6101ff6102d936600461201e565b6108b1565b6101f9610937565b6101ff6102f4366004611ee3565b61094b565b600a546001600160a01b03166101d9565b6101b9610a07565b6101f9610320366004612039565b610a16565b6101f9610333366004612075565b610a21565b6101b9610346366004611e9a565b610a59565b6101ff610359366004611e9a565b610dc6565b61019c61036c3660046120f1565b610e4b565b6101ff61037f36600461201e565b610e79565b6101f961039236600461201e565b610efe565b600c546101d9906001600160a01b031681565b60006001600160e01b0319821663780e9d6360e01b14806103cf57506103cf82610f74565b92915050565b6060600080546103e490612124565b80601f016020809104026020016040519081016040528092919081815260200182805461041090612124565b801561045d5780601f106104325761010080835404028352916020019161045d565b820191906000526020600020905b81548152906001019060200180831161044057829003601f168201915b5050505050905090565b600061047282610fc4565b506000908152600460205260409020546001600160a01b031690565b6000610499826107e1565b9050806001600160a01b0316836001600160a01b03160361050b5760405162461bcd60e51b815260206004820152602160248201527f4552433732313a20617070726f76616c20746f2063757272656e74206f776e656044820152603960f91b60648201526084015b60405180910390fd5b336001600160a01b038216148061052757506105278133610e4b565b6105995760405162461bcd60e51b815260206004820152603d60248201527f4552433732313a20617070726f76652063616c6c6572206973206e6f7420746f60448201527f6b656e206f776e6572206f7220617070726f76656420666f7220616c6c0000006064820152608401610502565b6105a38383610fe9565b505050565b6105b23382611057565b6105ce5760405162461bcd60e51b81526004016105029061215e565b6105a38383836110b6565b60006105e4836108b1565b82106106465760405162461bcd60e51b815260206004820152602b60248201527f455243373231456e756d657261626c653a206f776e657220696e646578206f7560448201526a74206f6620626f756e647360a81b6064820152608401610502565b506001600160a01b03919091166000908152600660209081526040808320938352929052205490565b610677611215565b805161068a90600d906020840190611d63565b507f6741b2fc379fad678116fe3d4d4b9a1a184ab53ba36b86ad0fa66340b1ab41ad816040516106ba9190611e87565b60405180910390a150565b600c546001600160a01b031633146106ef5760405162461bcd60e51b8152600401610502906121ab565b6106f9828261126f565b5050565b6105a383838360405180602001604052806000815250610a21565b600c546001600160a01b031633146107425760405162461bcd60e51b8152600401610502906121ab565b61074b81611289565b50565b600061075960085490565b82106107bc5760405162461bcd60e51b815260206004820152602c60248201527f455243373231456e756d657261626c653a20676c6f62616c20696e646578206f60448201526b7574206f6620626f756e647360a01b6064820152608401610502565b600882815481106107cf576107cf6121d8565b90600052602060002001549050919050565b6000818152600260205260408120546001600160a01b0316806103cf5760405162461bcd60e51b8152600401610502906121ee565b61081e611215565b6001600160a01b0381166108665760405162461bcd60e51b815260206004820152600f60248201526e496e76616c6964206164647265737360881b6044820152606401610502565b600c80546001600160a01b0319166001600160a01b0383161790556040517f5a272403b402d892977df56625f4164ccaf70ca3863991c43ecfe76a6905b0a1906106ba908390611eb3565b60006001600160a01b03821661091b5760405162461bcd60e51b815260206004820152602960248201527f4552433732313a2061646472657373207a65726f206973206e6f7420612076616044820152683634b21037bbb732b960b91b6064820152608401610502565b506001600160a01b031660009081526003602052604090205490565b61093f611215565b610949600061131a565b565b6000610956836108b1565b82101561096e5761096783836105d9565b90506103cf565b600b546001600160a01b0316632f745c5984610989816108b1565b6109939086612236565b6040516001600160e01b031960e085901b1681526001600160a01b0390921660048301526024820152604401602060405180830381865afa1580156109dc573d6000803e3d6000fd5b505050506040513d601f19601f82011682018060405250810190610a00919061224d565b9392505050565b6060600180546103e490612124565b6106f933838361136c565b610a2b3383611057565b610a475760405162461bcd60e51b81526004016105029061215e565b610a5384848484611436565b50505050565b6060610a6482611469565b610acb5760405162461bcd60e51b815260206004820152603260248201527f427265776c6162734d6972726f724e66743a2055524920717565727920666f72604482015271103737b732bc34b9ba32b73a103a37b5b2b760711b6064820152608401610502565b6000610ad5611486565b90506000604051602001610c07907f226465736372697074696f6e223a2022427265776c61627320466c61736b204d81527f6972726f72204e465420726570726573656e747320796f7572207374616b656460208201527f20427265776c61627320466c61736b204e465420616e6420616c6c6f7773204260408201527f7265776c6162732065636f73797374656d20746f20617474726962757465207960608201527f6f75722077616c6c65742074686520636f72726563742062656e65666974732060808201527f7768696c6520796f757220427265776c61627320466c61736b204d6972726f7260a08201527f204e46542069732068656c642077697468696e20746865204e4654207374616b60c08201526d34b7339031b7b73a3930b1ba171160911b60e082015260ee0190565b604051602081830303815290604052905060006001610c2586610dc6565b610c2f9190612236565b90506000600e8260058110610c4657610c466121d8565b018054610c5290612124565b80601f0160208091040260200160405190810160405280929190818152602001828054610c7e90612124565b8015610ccb5780601f10610ca057610100808354040283529160200191610ccb565b820191906000526020600020905b815481529060010190602001808311610cae57829003601f168201915b5050505050905060006040518060400160405280600e81526020016d2261747472696275746573223a5b60901b81525090508082610d1c60188660058110610d1557610d156121d8565b0154611495565b60138660058110610d2f57610d2f6121d8565b01604051602001610d439493929190612282565b60405160208183030381529060405290506000610d5e6103d5565b610d6789611495565b86888686604051602001610d809695949392919061245d565b6040516020818303038152906040529050610d9a81611528565b604051602001610daa9190612586565b6040516020818303038152906040529650505050505050919050565b600b54604051636e9dafcd60e11b81526004810183905260009182916001600160a01b039091169063dd3b5f9a90602401602060405180830381865afa158015610e14573d6000803e3d6000fd5b505050506040513d601f19601f82011682018060405250810190610e38919061224d565b9050600681106103cf5760059392505050565b6001600160a01b03918216600090815260056020908152604080832093909416825291909152205460ff1690565b600b546040516370a0823160e01b81526000916001600160a01b0316906370a0823190610eaa908590600401611eb3565b602060405180830381865afa158015610ec7573d6000803e3d6000fd5b505050506040513d601f19601f82011682018060405250810190610eeb919061224d565b610ef4836108b1565b6103cf91906125cb565b610f06611215565b6001600160a01b038116610f6b5760405162461bcd60e51b815260206004820152602660248201527f4f776e61626c653a206e6577206f776e657220697320746865207a65726f206160448201526564647265737360d01b6064820152608401610502565b61074b8161131a565b60006001600160e01b031982166380ac58cd60e01b1480610fa557506001600160e01b03198216635b5e139f60e01b145b806103cf57506301ffc9a760e01b6001600160e01b03198316146103cf565b610fcd81611469565b61074b5760405162461bcd60e51b8152600401610502906121ee565b600081815260046020526040902080546001600160a01b0319166001600160a01b038416908117909155819061101e826107e1565b6001600160a01b03167f8c5be1e5ebec7d5bd14f71427d1e84f3dd0314c0f7b2291e5b200ac8c7c3b92560405160405180910390a45050565b600080611063836107e1565b9050806001600160a01b0316846001600160a01b0316148061108a575061108a8185610e4b565b806110ae5750836001600160a01b03166110a384610467565b6001600160a01b0316145b949350505050565b826001600160a01b03166110c9826107e1565b6001600160a01b0316146110ef5760405162461bcd60e51b8152600401610502906125e3565b6001600160a01b0382166111515760405162461bcd60e51b8152602060048201526024808201527f4552433732313a207472616e7366657220746f20746865207a65726f206164646044820152637265737360e01b6064820152608401610502565b61115e838383600161168f565b826001600160a01b0316611171826107e1565b6001600160a01b0316146111975760405162461bcd60e51b8152600401610502906125e3565b600081815260046020908152604080832080546001600160a01b03199081169091556001600160a01b0387811680865260038552838620805460001901905590871680865283862080546001019055868652600290945282852080549092168417909155905184936000805160206127a383398151915291a4505050565b600a546001600160a01b031633146109495760405162461bcd60e51b815260206004820181905260248201527f4f776e61626c653a2063616c6c6572206973206e6f7420746865206f776e65726044820152606401610502565b6106f98282604051806020016040528060008152506116f6565b6000611294826107e1565b90506112a481600084600161168f565b6112ad826107e1565b600083815260046020908152604080832080546001600160a01b03199081169091556001600160a01b0385168085526003845282852080546000190190558785526002909352818420805490911690555192935084926000805160206127a3833981519152908390a45050565b600a80546001600160a01b038381166001600160a01b0319831681179093556040519116919082907f8be0079c531659141344cd1fd0a4f28419497f9722a3daafe3b4186f6b6457e090600090a35050565b816001600160a01b0316836001600160a01b0316036113c95760405162461bcd60e51b815260206004820152601960248201527822a9219b99189d1030b8383937bb32903a379031b0b63632b960391b6044820152606401610502565b6001600160a01b03838116600081815260056020908152604080832094871680845294825291829020805460ff191686151590811790915591519182527f17307eab39ab6107e8899845ad3d59bd9653f200f220920489ca2b5937696c31910160405180910390a3505050565b6114418484846110b6565b61144d84848484611729565b610a535760405162461bcd60e51b815260040161050290612628565b6000908152600260205260409020546001600160a01b0316151590565b6060600d80546103e490612124565b606060006114a28361182a565b600101905060008167ffffffffffffffff8111156114c2576114c2611f49565b6040519080825280601f01601f1916602001820160405280156114ec576020820181803683370190505b5090508181016020015b600019016f181899199a1a9b1b9c1cb0b131b232b360811b600a86061a8153600a85049450846114f657509392505050565b6060815160000361154757505060408051602081019091526000815290565b6000604051806060016040528060408152602001612763604091399050600060038451600261157691906125cb565b611580919061267a565b61158b90600461269c565b9050600061159a8260206125cb565b67ffffffffffffffff8111156115b2576115b2611f49565b6040519080825280601f01601f1916602001820160405280156115dc576020820181803683370190505b509050818152600183018586518101602084015b8183101561164a5760039283018051603f601282901c811687015160f890811b8552600c83901c8216880151811b6001860152600683901c8216880151811b60028601529116860151901b938201939093526004016115f0565b600389510660018114611664576002811461167557611681565b613d3d60f01b600119830152611681565b603d60f81b6000198301525b509398975050505050505050565b6001600160a01b03841615806116ac57506001600160a01b038316155b6116ea5760405162461bcd60e51b815260206004820152600f60248201526e21b0b73737ba103a3930b739b332b960891b6044820152606401610502565b610a5384848484611902565b6117008383611a42565b61170d6000848484611729565b6105a35760405162461bcd60e51b815260040161050290612628565b60006001600160a01b0384163b1561181f57604051630a85bd0160e11b81526001600160a01b0385169063150b7a029061176d9033908990889088906004016126bb565b6020604051808303816000875af19250505080156117a8575060408051601f3d908101601f191682019092526117a5918101906126f8565b60015b611805573d8080156117d6576040519150601f19603f3d011682016040523d82523d6000602084013e6117db565b606091505b5080516000036117fd5760405162461bcd60e51b815260040161050290612628565b805181602001fd5b6001600160e01b031916630a85bd0160e11b1490506110ae565b506001949350505050565b60008072184f03e93ff9f4daa797ed6e38ed64bf6a1f0160401b83106118695772184f03e93ff9f4daa797ed6e38ed64bf6a1f0160401b830492506040015b6d04ee2d6d415b85acef81000000008310611895576d04ee2d6d415b85acef8100000000830492506020015b662386f26fc1000083106118b357662386f26fc10000830492506010015b6305f5e10083106118cb576305f5e100830492506008015b61271083106118df57612710830492506004015b606483106118f1576064830492506002015b600a83106103cf5760010192915050565b61190e84848484611b4b565b600181111561197d5760405162461bcd60e51b815260206004820152603560248201527f455243373231456e756d657261626c653a20636f6e7365637574697665207472604482015274185b9cd9995c9cc81b9bdd081cdd5c1c1bdc9d1959605a1b6064820152608401610502565b816001600160a01b0385166119d9576119d481600880546000838152600960205260408120829055600182018355919091527ff3f7a9fe364faab93b216da50a3214154f22a0a2b415b23a84c8169e8b636ee30155565b6119fc565b836001600160a01b0316856001600160a01b0316146119fc576119fc8582611bd3565b6001600160a01b038416611a1857611a1381611c70565b611a3b565b846001600160a01b0316846001600160a01b031614611a3b57611a3b8482611d1f565b5050505050565b6001600160a01b038216611a985760405162461bcd60e51b815260206004820181905260248201527f4552433732313a206d696e7420746f20746865207a65726f20616464726573736044820152606401610502565b611aa181611469565b15611abe5760405162461bcd60e51b815260040161050290612715565b611acc60008383600161168f565b611ad581611469565b15611af25760405162461bcd60e51b815260040161050290612715565b6001600160a01b038216600081815260036020908152604080832080546001019055848352600290915280822080546001600160a01b0319168417905551839291906000805160206127a3833981519152908290a45050565b6001811115610a53576001600160a01b03841615611b91576001600160a01b03841660009081526003602052604081208054839290611b8b908490612236565b90915550505b6001600160a01b03831615610a53576001600160a01b03831660009081526003602052604081208054839290611bc89084906125cb565b909155505050505050565b60006001611be0846108b1565b611bea9190612236565b600083815260076020526040902054909150808214611c3d576001600160a01b03841660009081526006602090815260408083208584528252808320548484528184208190558352600790915290208190555b5060009182526007602090815260408084208490556001600160a01b039094168352600681528383209183525290812055565b600854600090611c8290600190612236565b60008381526009602052604081205460088054939450909284908110611caa57611caa6121d8565b906000526020600020015490508060088381548110611ccb57611ccb6121d8565b6000918252602080832090910192909255828152600990915260408082208490558582528120556008805480611d0357611d0361274c565b6001900381819060005260206000200160009055905550505050565b6000611d2a836108b1565b6001600160a01b039093166000908152600660209081526040808320868452825280832085905593825260079052919091209190915550565b828054611d6f90612124565b90600052602060002090601f016020900481019282611d915760008555611dd7565b82601f10611daa57805160ff1916838001178555611dd7565b82800160010185558215611dd7579182015b82811115611dd7578251825591602001919060010190611dbc565b50611de3929150611de7565b5090565b5b80821115611de35760008155600101611de8565b6001600160e01b03198116811461074b57600080fd5b600060208284031215611e2457600080fd5b8135610a0081611dfc565b60005b83811015611e4a578181015183820152602001611e32565b83811115610a535750506000910152565b60008151808452611e73816020860160208601611e2f565b601f01601f19169290920160200192915050565b602081526000610a006020830184611e5b565b600060208284031215611eac57600080fd5b5035919050565b6001600160a01b0391909116815260200190565b80356001600160a01b0381168114611ede57600080fd5b919050565b60008060408385031215611ef657600080fd5b611eff83611ec7565b946020939093013593505050565b600080600060608486031215611f2257600080fd5b611f2b84611ec7565b9250611f3960208501611ec7565b9150604084013590509250925092565b634e487b7160e01b600052604160045260246000fd5b600067ffffffffffffffff80841115611f7a57611f7a611f49565b604051601f8501601f19908116603f01168101908282118183101715611fa257611fa2611f49565b81604052809350858152868686011115611fbb57600080fd5b858560208301376000602087830101525050509392505050565b600060208284031215611fe757600080fd5b813567ffffffffffffffff811115611ffe57600080fd5b8201601f8101841361200f57600080fd5b6110ae84823560208401611f5f565b60006020828403121561203057600080fd5b610a0082611ec7565b6000806040838503121561204c57600080fd5b61205583611ec7565b91506020830135801515811461206a57600080fd5b809150509250929050565b6000806000806080858703121561208b57600080fd5b61209485611ec7565b93506120a260208601611ec7565b925060408501359150606085013567ffffffffffffffff8111156120c557600080fd5b8501601f810187136120d657600080fd5b6120e587823560208401611f5f565b91505092959194509250565b6000806040838503121561210457600080fd5b61210d83611ec7565b915061211b60208401611ec7565b90509250929050565b600181811c9082168061213857607f821691505b60208210810361215857634e487b7160e01b600052602260045260246000fd5b50919050565b6020808252602d908201527f4552433732313a2063616c6c6572206973206e6f7420746f6b656e206f776e6560408201526c1c881bdc88185c1c1c9bdd9959609a1b606082015260800190565b60208082526013908201527221b0b63632b91034b9903737ba1030b236b4b760691b604082015260600190565b634e487b7160e01b600052603260045260246000fd5b602080825260189082015277115490cdcc8c4e881a5b9d985b1a59081d1bdad95b88125160421b604082015260600190565b634e487b7160e01b600052601160045260246000fd5b60008282101561224857612248612220565b500390565b60006020828403121561225f57600080fd5b5051919050565b60008151612278818560208601611e2f565b9290920192915050565b6000855160206122958285838b01611e2f565b7f7b2274726169745f74797065223a224e6574776f726b222c202276616c7565229184019182527f3a22424e4220436861696e227d2c207b2274726169745f74797065223a225261818301526f3934ba3c911610113b30b63ab2911d1160811b6040830152865161230c81605085018a8501611e2f565b7f227d2c207b2274726169745f74797065223a2246656520526564756374696f6e605093909101928301526b111610113b30b63ab2911d1160a11b6070830152855161235e81607c8501848a01611e2f565b7f2e303025227d2c207b2274726169745f74797065223a22466561747572652041607c93909101928301527031b1b2b9b9911610113b30b63ab2911d1160791b609c830152845460ad90600090600181811c90808316806123c057607f831692505b86831081036123dd57634e487b7160e01b85526022600452602485fd5b8080156123f1576001811461240657612437565b60ff1985168988015283890187019550612437565b60008c81526020902060005b8581101561242d5781548b82018a0152908401908901612412565b505086848a010195505b505050505061244f8162227d5d60e81b815260030190565b9a9950505050505050505050565b693d913730b6b2911d101160b11b8152865160009061248381600a850160208c01611e2f565b61202360f01b600a9184019182015287516124a581600c840160208c01611e2f565b6201116160ed1b600c929091019182015286516124c981600f840160208b01611e2f565b7f2c202265787465726e616c5f75726c223a202268747470733a2f2f6561726e2e600f929091019182015271313932bbb630b1399734b7333797b7333a1160711b602f8201526b16101134b6b0b3b2911d101160a11b604182015261257961256c61256661255361254d612540604d87018c612266565b602f60f81b815260010190565b89612266565b660173837339116160cd1b815260070190565b86612266565b607d60f81b815260010190565b9998505050505050505050565b7f646174613a6170706c69636174696f6e2f6a736f6e3b6261736536342c0000008152600082516125be81601d850160208701611e2f565b91909101601d0192915050565b600082198211156125de576125de612220565b500190565b60208082526025908201527f4552433732313a207472616e736665722066726f6d20696e636f72726563742060408201526437bbb732b960d91b606082015260800190565b60208082526032908201527f4552433732313a207472616e7366657220746f206e6f6e20455243373231526560408201527131b2b4bb32b91034b6b83632b6b2b73a32b960711b606082015260800190565b60008261269757634e487b7160e01b600052601260045260246000fd5b500490565b60008160001904831182151516156126b6576126b6612220565b500290565b6001600160a01b03858116825284166020820152604081018390526080606082018190526000906126ee90830184611e5b565b9695505050505050565b60006020828403121561270a57600080fd5b8151610a0081611dfc565b6020808252601c908201527f4552433732313a20746f6b656e20616c7265616479206d696e74656400000000604082015260600190565b634e487b7160e01b600052603160045260246000fdfe4142434445464748494a4b4c4d4e4f505152535455565758595a6162636465666768696a6b6c6d6e6f707172737475767778797a303132333435363738392b2fddf252ad1be2c89b69c2b068fc378daa952ba7f163c4a11628f55a4df523b3efa2646970667358221220ac6de98726edd32386085c31c5935835f3d523c1a9fbaec99cc505b8fd05857764736f6c634300080e0033",
  "devdoc": {
    "kind": "dev",
    "methods": {
      "approve(address,uint256)": {
        "details": "See {IERC721-approve}."
      },
      "balanceOf(address)": {
        "details": "See {IERC721-balanceOf}."
      },
      "getApproved(uint256)": {
        "details": "See {IERC721-getApproved}."
      },
      "isApprovedForAll(address,address)": {
        "details": "See {IERC721-isApprovedForAll}."
      },
      "name()": {
        "details": "See {IERC721Metadata-name}."
      },
      "owner()": {
        "details": "Returns the address of the current owner."
      },
      "ownerOf(uint256)": {
        "details": "See {IERC721-ownerOf}."
      },
      "renounceOwnership()": {
        "details": "Leaves the contract without owner. It will not be possible to call `onlyOwner` functions anymore. Can only be called by the current owner. NOTE: Renouncing ownership will leave the contract without an owner, thereby removing any functionality that is only available to the owner."
      },
      "safeTransferFrom(address,address,uint256)": {
        "details": "See {IERC721-safeTransferFrom}."
      },
      "safeTransferFrom(address,address,uint256,bytes)": {
        "details": "See {IERC721-safeTransferFrom}."
      },
      "setApprovalForAll(address,bool)": {
        "details": "See {IERC721-setApprovalForAll}."
      },
      "supportsInterface(bytes4)": {
        "details": "See {IERC165-supportsInterface}."
      },
      "symbol()": {
        "details": "See {IERC721Metadata-symbol}."
      },
      "tokenByIndex(uint256)": {
        "details": "See {IERC721Enumerable-tokenByIndex}."
      },
      "tokenOfOwnerByIndex(address,uint256)": {
        "details": "See {IERC721Enumerable-tokenOfOwnerByIndex}."
      },
      "tokenURI(uint256)": {
        "details": "See {IERC721Metadata-tokenURI}."
      },
      "totalSupply()": {
        "details": "See {IERC721Enumerable-totalSupply}."
      },
      "transferFrom(address,address,uint256)": {
        "details": "See {IERC721-transferFrom}."
      },
      "transferOwnership(address)": {
        "details": "Transfers ownership of the contract to a new account (`newOwner`). Can only be called by the current owner."
      }
    },
    "version": 1
  },
  "userdoc": {
    "kind": "user",
    "methods": {},
    "version": 1
  },
  "storageLayout": {
    "storage": [
      {
        "astId": 3708,
        "contract": "contracts/indexes/BrewlabsMirrorNft.sol:BrewlabsMirrorNft",
        "label": "_name",
        "offset": 0,
        "slot": "0",
        "type": "t_string_storage"
      },
      {
        "astId": 3710,
        "contract": "contracts/indexes/BrewlabsMirrorNft.sol:BrewlabsMirrorNft",
        "label": "_symbol",
        "offset": 0,
        "slot": "1",
        "type": "t_string_storage"
      },
      {
        "astId": 3714,
        "contract": "contracts/indexes/BrewlabsMirrorNft.sol:BrewlabsMirrorNft",
        "label": "_owners",
        "offset": 0,
        "slot": "2",
        "type": "t_mapping(t_uint256,t_address)"
      },
      {
        "astId": 3718,
        "contract": "contracts/indexes/BrewlabsMirrorNft.sol:BrewlabsMirrorNft",
        "label": "_balances",
        "offset": 0,
        "slot": "3",
        "type": "t_mapping(t_address,t_uint256)"
      },
      {
        "astId": 3722,
        "contract": "contracts/indexes/BrewlabsMirrorNft.sol:BrewlabsMirrorNft",
        "label": "_tokenApprovals",
        "offset": 0,
        "slot": "4",
        "type": "t_mapping(t_uint256,t_address)"
      },
      {
        "astId": 3728,
        "contract": "contracts/indexes/BrewlabsMirrorNft.sol:BrewlabsMirrorNft",
        "label": "_operatorApprovals",
        "offset": 0,
        "slot": "5",
        "type": "t_mapping(t_address,t_mapping(t_address,t_bool))"
      },
      {
        "astId": 4776,
        "contract": "contracts/indexes/BrewlabsMirrorNft.sol:BrewlabsMirrorNft",
        "label": "_ownedTokens",
        "offset": 0,
        "slot": "6",
        "type": "t_mapping(t_address,t_mapping(t_uint256,t_uint256))"
      },
      {
        "astId": 4780,
        "contract": "contracts/indexes/BrewlabsMirrorNft.sol:BrewlabsMirrorNft",
        "label": "_ownedTokensIndex",
        "offset": 0,
        "slot": "7",
        "type": "t_mapping(t_uint256,t_uint256)"
      },
      {
        "astId": 4783,
        "contract": "contracts/indexes/BrewlabsMirrorNft.sol:BrewlabsMirrorNft",
        "label": "_allTokens",
        "offset": 0,
        "slot": "8",
        "type": "t_array(t_uint256)dyn_storage"
      },
      {
        "astId": 4787,
        "contract": "contracts/indexes/BrewlabsMirrorNft.sol:BrewlabsMirrorNft",
        "label": "_allTokensIndex",
        "offset": 0,
        "slot": "9",
        "type": "t_mapping(t_uint256,t_uint256)"
      },
      {
        "astId": 883,
        "contract": "contracts/indexes/BrewlabsMirrorNft.sol:BrewlabsMirrorNft",
        "label": "_owner",
        "offset": 0,
        "slot": "10",
        "type": "t_address"
      },
      {
        "astId": 39939,
        "contract": "contracts/indexes/BrewlabsMirrorNft.sol:BrewlabsMirrorNft",
        "label": "originNft",
        "offset": 0,
        "slot": "11",
        "type": "t_contract(IBrewlabsFlaskNft)39926"
      },
      {
        "astId": 39941,
        "contract": "contracts/indexes/BrewlabsMirrorNft.sol:BrewlabsMirrorNft",
        "label": "admin",
        "offset": 0,
        "slot": "12",
        "type": "t_address"
      },
      {
        "astId": 39944,
        "contract": "contracts/indexes/BrewlabsMirrorNft.sol:BrewlabsMirrorNft",
        "label": "_tokenBaseURI",
        "offset": 0,
        "slot": "13",
        "type": "t_string_storage"
      },
      {
        "astId": 39954,
        "contract": "contracts/indexes/BrewlabsMirrorNft.sol:BrewlabsMirrorNft",
        "label": "rarityNames",
        "offset": 0,
        "slot": "14",
        "type": "t_array(t_string_storage)5_storage"
      },
      {
        "astId": 39964,
        "contract": "contracts/indexes/BrewlabsMirrorNft.sol:BrewlabsMirrorNft",
        "label": "featureAccesses",
        "offset": 0,
        "slot": "19",
        "type": "t_array(t_string_storage)5_storage"
      },
      {
        "astId": 39974,
        "contract": "contracts/indexes/BrewlabsMirrorNft.sol:BrewlabsMirrorNft",
        "label": "feeReductions",
        "offset": 0,
        "slot": "24",
        "type": "t_array(t_uint256)5_storage"
      }
    ],
    "types": {
      "t_address": {
        "encoding": "inplace",
        "label": "address",
        "numberOfBytes": "20"
      },
      "t_array(t_string_storage)5_storage": {
        "base": "t_string_storage",
        "encoding": "inplace",
        "label": "string[5]",
        "numberOfBytes": "160"
      },
      "t_array(t_uint256)5_storage": {
        "base": "t_uint256",
        "encoding": "inplace",
        "label": "uint256[5]",
        "numberOfBytes": "160"
      },
      "t_array(t_uint256)dyn_storage": {
        "base": "t_uint256",
        "encoding": "dynamic_array",
        "label": "uint256[]",
        "numberOfBytes": "32"
      },
      "t_bool": {
        "encoding": "inplace",
        "label": "bool",
        "numberOfBytes": "1"
      },
      "t_contract(IBrewlabsFlaskNft)39926": {
        "encoding": "inplace",
        "label": "contract IBrewlabsFlaskNft",
        "numberOfBytes": "20"
      },
      "t_mapping(t_address,t_bool)": {
        "encoding": "mapping",
        "key": "t_address",
        "label": "mapping(address => bool)",
        "numberOfBytes": "32",
        "value": "t_bool"
      },
      "t_mapping(t_address,t_mapping(t_address,t_bool))": {
        "encoding": "mapping",
        "key": "t_address",
        "label": "mapping(address => mapping(address => bool))",
        "numberOfBytes": "32",
        "value": "t_mapping(t_address,t_bool)"
      },
      "t_mapping(t_address,t_mapping(t_uint256,t_uint256))": {
        "encoding": "mapping",
        "key": "t_address",
        "label": "mapping(address => mapping(uint256 => uint256))",
        "numberOfBytes": "32",
        "value": "t_mapping(t_uint256,t_uint256)"
      },
      "t_mapping(t_address,t_uint256)": {
        "encoding": "mapping",
        "key": "t_address",
        "label": "mapping(address => uint256)",
        "numberOfBytes": "32",
        "value": "t_uint256"
      },
      "t_mapping(t_uint256,t_address)": {
        "encoding": "mapping",
        "key": "t_uint256",
        "label": "mapping(uint256 => address)",
        "numberOfBytes": "32",
        "value": "t_address"
      },
      "t_mapping(t_uint256,t_uint256)": {
        "encoding": "mapping",
        "key": "t_uint256",
        "label": "mapping(uint256 => uint256)",
        "numberOfBytes": "32",
        "value": "t_uint256"
      },
      "t_string_storage": {
        "encoding": "bytes",
        "label": "string",
        "numberOfBytes": "32"
      },
      "t_uint256": {
        "encoding": "inplace",
        "label": "uint256",
        "numberOfBytes": "32"
      }
    }
  }
}