{
  "address": "0x14FA731AED865Bef6d1C459894B8e5DC60D8e4c0",
  "abi": [
    {
      "inputs": [],
      "stateMutability": "nonpayable",
      "type": "constructor"
    },
    {
      "inputs": [
        {
          "internalType": "address",
          "name": "operator",
          "type": "address"
        }
      ],
      "name": "OperatorNotAllowed",
      "type": "error"
    },
    {
      "anonymous": false,
      "inputs": [
        {
          "indexed": true,
          "internalType": "address",
          "name": "owner",
          "type": "address"
        },
        {
          "indexed": true,
          "internalType": "address",
          "name": "approved",
          "type": "address"
        },
        {
          "indexed": true,
          "internalType": "uint256",
          "name": "tokenId",
          "type": "uint256"
        }
      ],
      "name": "Approval",
      "type": "event"
    },
    {
      "anonymous": false,
      "inputs": [
        {
          "indexed": true,
          "internalType": "address",
          "name": "owner",
          "type": "address"
        },
        {
          "indexed": true,
          "internalType": "address",
          "name": "operator",
          "type": "address"
        },
        {
          "indexed": false,
          "internalType": "bool",
          "name": "approved",
          "type": "bool"
        }
      ],
      "name": "ApprovalForAll",
      "type": "event"
    },
    {
      "anonymous": false,
      "inputs": [
        {
          "indexed": false,
          "internalType": "string",
          "name": "uri",
          "type": "string"
        }
      ],
      "name": "BaseURIUpdated",
      "type": "event"
    },
    {
      "anonymous": false,
      "inputs": [
        {
          "indexed": true,
          "internalType": "address",
          "name": "previousOwner",
          "type": "address"
        },
        {
          "indexed": true,
          "internalType": "address",
          "name": "newOwner",
          "type": "address"
        }
      ],
      "name": "OwnershipTransferred",
      "type": "event"
    },
    {
      "anonymous": false,
      "inputs": [
        {
          "indexed": false,
          "internalType": "address",
          "name": "newAdmin",
          "type": "address"
        }
      ],
      "name": "SetAdminRole",
      "type": "event"
    },
    {
      "anonymous": false,
      "inputs": [
        {
          "indexed": false,
          "internalType": "address",
          "name": "minter",
          "type": "address"
        },
        {
          "indexed": false,
          "internalType": "bool",
          "name": "status",
          "type": "bool"
        }
      ],
      "name": "SetMinterRole",
      "type": "event"
    },
    {
      "anonymous": false,
      "inputs": [
        {
          "indexed": true,
          "internalType": "address",
          "name": "from",
          "type": "address"
        },
        {
          "indexed": true,
          "internalType": "address",
          "name": "to",
          "type": "address"
        },
        {
          "indexed": true,
          "internalType": "uint256",
          "name": "tokenId",
          "type": "uint256"
        }
      ],
      "name": "Transfer",
      "type": "event"
    },
    {
      "inputs": [],
      "name": "OPERATOR_FILTER_REGISTRY",
      "outputs": [
        {
          "internalType": "contract IOperatorFilterRegistry",
          "name": "",
          "type": "address"
        }
      ],
      "stateMutability": "view",
      "type": "function"
    },
    {
      "inputs": [],
      "name": "admin",
      "outputs": [
        {
          "internalType": "address",
          "name": "",
          "type": "address"
        }
      ],
      "stateMutability": "view",
      "type": "function"
    },
    {
      "inputs": [
        {
          "internalType": "address",
          "name": "operator",
          "type": "address"
        },
        {
          "internalType": "uint256",
          "name": "tokenId",
          "type": "uint256"
        }
      ],
      "name": "approve",
      "outputs": [],
      "stateMutability": "nonpayable",
      "type": "function"
    },
    {
      "inputs": [
        {
          "internalType": "address",
          "name": "owner",
          "type": "address"
        }
      ],
      "name": "balanceOf",
      "outputs": [
        {
          "internalType": "uint256",
          "name": "",
          "type": "uint256"
        }
      ],
      "stateMutability": "view",
      "type": "function"
    },
    {
      "inputs": [
        {
          "internalType": "uint256",
          "name": "tokenId",
          "type": "uint256"
        }
      ],
      "name": "getApproved",
      "outputs": [
        {
          "internalType": "address",
          "name": "",
          "type": "address"
        }
      ],
      "stateMutability": "view",
      "type": "function"
    },
    {
      "inputs": [
        {
          "internalType": "uint256",
          "name": "tokenId",
          "type": "uint256"
        }
      ],
      "name": "getIndexInfo",
      "outputs": [
        {
          "internalType": "address",
          "name": "",
          "type": "address"
        },
        {
          "internalType": "address",
          "name": "",
          "type": "address"
        },
        {
          "internalType": "uint256",
          "name": "",
          "type": "uint256"
        },
        {
          "internalType": "uint256",
          "name": "",
          "type": "uint256"
        },
        {
          "internalType": "uint256[]",
          "name": "",
          "type": "uint256[]"
        }
      ],
      "stateMutability": "view",
      "type": "function"
    },
    {
      "inputs": [
        {
          "internalType": "address",
          "name": "owner",
          "type": "address"
        },
        {
          "internalType": "address",
          "name": "operator",
          "type": "address"
        }
      ],
      "name": "isApprovedForAll",
      "outputs": [
        {
          "internalType": "bool",
          "name": "",
          "type": "bool"
        }
      ],
      "stateMutability": "view",
      "type": "function"
    },
    {
      "inputs": [
        {
          "internalType": "address",
          "name": "",
          "type": "address"
        }
      ],
      "name": "isMinter",
      "outputs": [
        {
          "internalType": "bool",
          "name": "",
          "type": "bool"
        }
      ],
      "stateMutability": "view",
      "type": "function"
    },
    {
      "inputs": [
        {
          "internalType": "address",
          "name": "to",
          "type": "address"
        }
      ],
      "name": "mint",
      "outputs": [
        {
          "internalType": "uint256",
          "name": "",
          "type": "uint256"
        }
      ],
      "stateMutability": "nonpayable",
      "type": "function"
    },
    {
      "inputs": [],
      "name": "name",
      "outputs": [
        {
          "internalType": "string",
          "name": "",
          "type": "string"
        }
      ],
      "stateMutability": "view",
      "type": "function"
    },
    {
      "inputs": [],
      "name": "owner",
      "outputs": [
        {
          "internalType": "address",
          "name": "",
          "type": "address"
        }
      ],
      "stateMutability": "view",
      "type": "function"
    },
    {
      "inputs": [
        {
          "internalType": "uint256",
          "name": "tokenId",
          "type": "uint256"
        }
      ],
      "name": "ownerOf",
      "outputs": [
        {
          "internalType": "address",
          "name": "",
          "type": "address"
        }
      ],
      "stateMutability": "view",
      "type": "function"
    },
    {
      "inputs": [],
      "name": "renounceOwnership",
      "outputs": [],
      "stateMutability": "nonpayable",
      "type": "function"
    },
    {
      "inputs": [
        {
          "internalType": "address",
          "name": "from",
          "type": "address"
        },
        {
          "internalType": "address",
          "name": "to",
          "type": "address"
        },
        {
          "internalType": "uint256",
          "name": "tokenId",
          "type": "uint256"
        }
      ],
      "name": "safeTransferFrom",
      "outputs": [],
      "stateMutability": "nonpayable",
      "type": "function"
    },
    {
      "inputs": [
        {
          "internalType": "address",
          "name": "from",
          "type": "address"
        },
        {
          "internalType": "address",
          "name": "to",
          "type": "address"
        },
        {
          "internalType": "uint256",
          "name": "tokenId",
          "type": "uint256"
        },
        {
          "internalType": "bytes",
          "name": "data",
          "type": "bytes"
        }
      ],
      "name": "safeTransferFrom",
      "outputs": [],
      "stateMutability": "nonpayable",
      "type": "function"
    },
    {
      "inputs": [
        {
          "internalType": "address",
          "name": "newAdmin",
          "type": "address"
        }
      ],
      "name": "setAdmin",
      "outputs": [],
      "stateMutability": "nonpayable",
      "type": "function"
    },
    {
      "inputs": [
        {
          "internalType": "address",
          "name": "operator",
          "type": "address"
        },
        {
          "internalType": "bool",
          "name": "approved",
          "type": "bool"
        }
      ],
      "name": "setApprovalForAll",
      "outputs": [],
      "stateMutability": "nonpayable",
      "type": "function"
    },
    {
      "inputs": [
        {
          "internalType": "address",
          "name": "minter",
          "type": "address"
        },
        {
          "internalType": "bool",
          "name": "status",
          "type": "bool"
        }
      ],
      "name": "setMinterRole",
      "outputs": [],
      "stateMutability": "nonpayable",
      "type": "function"
    },
    {
      "inputs": [
        {
          "internalType": "string",
          "name": "_uri",
          "type": "string"
        },
        {
          "internalType": "bool",
          "name": "_useOnChain",
          "type": "bool"
        }
      ],
      "name": "setTokenBaseURI",
      "outputs": [],
      "stateMutability": "nonpayable",
      "type": "function"
    },
    {
      "inputs": [
        {
          "internalType": "bytes4",
          "name": "interfaceId",
          "type": "bytes4"
        }
      ],
      "name": "supportsInterface",
      "outputs": [
        {
          "internalType": "bool",
          "name": "",
          "type": "bool"
        }
      ],
      "stateMutability": "view",
      "type": "function"
    },
    {
      "inputs": [],
      "name": "symbol",
      "outputs": [
        {
          "internalType": "string",
          "name": "",
          "type": "string"
        }
      ],
      "stateMutability": "view",
      "type": "function"
    },
    {
      "inputs": [
        {
          "internalType": "uint256",
          "name": "index",
          "type": "uint256"
        }
      ],
      "name": "tokenByIndex",
      "outputs": [
        {
          "internalType": "uint256",
          "name": "",
          "type": "uint256"
        }
      ],
      "stateMutability": "view",
      "type": "function"
    },
    {
      "inputs": [
        {
          "internalType": "address",
          "name": "owner",
          "type": "address"
        },
        {
          "internalType": "uint256",
          "name": "index",
          "type": "uint256"
        }
      ],
      "name": "tokenOfOwnerByIndex",
      "outputs": [
        {
          "internalType": "uint256",
          "name": "",
          "type": "uint256"
        }
      ],
      "stateMutability": "view",
      "type": "function"
    },
    {
      "inputs": [
        {
          "internalType": "uint256",
          "name": "tokenId",
          "type": "uint256"
        }
      ],
      "name": "tokenURI",
      "outputs": [
        {
          "internalType": "string",
          "name": "",
          "type": "string"
        }
      ],
      "stateMutability": "view",
      "type": "function"
    },
    {
      "inputs": [],
      "name": "totalSupply",
      "outputs": [
        {
          "internalType": "uint256",
          "name": "",
          "type": "uint256"
        }
      ],
      "stateMutability": "view",
      "type": "function"
    },
    {
      "inputs": [
        {
          "internalType": "address",
          "name": "from",
          "type": "address"
        },
        {
          "internalType": "address",
          "name": "to",
          "type": "address"
        },
        {
          "internalType": "uint256",
          "name": "tokenId",
          "type": "uint256"
        }
      ],
      "name": "transferFrom",
      "outputs": [],
      "stateMutability": "nonpayable",
      "type": "function"
    },
    {
      "inputs": [
        {
          "internalType": "address",
          "name": "newOwner",
          "type": "address"
        }
      ],
      "name": "transferOwnership",
      "outputs": [],
      "stateMutability": "nonpayable",
      "type": "function"
    },
    {
      "inputs": [],
      "name": "useOnChainMetadata",
      "outputs": [
        {
          "internalType": "bool",
          "name": "",
          "type": "bool"
        }
      ],
      "stateMutability": "view",
      "type": "function"
    }
  ],
  "transactionHash": "0x5ba80cd3ada7839f41c1ef8d351cc2b020ac48a48cdfc659772beade42075eeb",
  "args": [],
  "numDeployments": 1,
  "solcInputHash": "0260463c7c8cf539a785493e0f5dd08b",
  "bytecode": "0x60a06040819052600060808190526200001b91600c916200028c565b50600d805460ff60a01b1916600160a01b1790553480156200003c57600080fd5b50604080518082018252601581527f427265776c616273204465706c6f796572204e6674000000000000000000000060208083019182528351808501909452600384526242445960e81b908401528151733cc6cdda760b79bafa08df41ecfa224f810dceb693600193929091620000b6916000916200028c565b508051620000cc9060019060208401906200028c565b5050506daaeb6d7670e522a718067333cd4e3b15620002145780156200016257604051633e9f1edf60e11b81523060048201526001600160a01b03831660248201526daaeb6d7670e522a718067333cd4e90637d3e3dbe906044015b600060405180830381600087803b1580156200014357600080fd5b505af115801562000158573d6000803e3d6000fd5b5050505062000214565b6001600160a01b03821615620001b35760405163a0af290360e01b81523060048201526001600160a01b03831660248201526daaeb6d7670e522a718067333cd4e9063a0af29039060440162000128565b604051632210724360e11b81523060048201526daaeb6d7670e522a718067333cd4e90634420e48690602401600060405180830381600087803b158015620001fa57600080fd5b505af11580156200020f573d6000803e3d6000fd5b505050505b50620002229050336200023a565b600d80546001600160a01b031916331790556200036e565b600a80546001600160a01b038381166001600160a01b0319831681179093556040519116919082907f8be0079c531659141344cd1fd0a4f28419497f9722a3daafe3b4186f6b6457e090600090a35050565b8280546200029a9062000332565b90600052602060002090601f016020900481019282620002be576000855562000309565b82601f10620002d957805160ff191683800117855562000309565b8280016001018555821562000309579182015b8281111562000309578251825591602001919060010190620002ec565b50620003179291506200031b565b5090565b5b808211156200031757600081556001016200031c565b600181811c908216806200034757607f821691505b6020821081036200036857634e487b7160e01b600052602260045260246000fd5b50919050565b613290806200037e6000396000f3fe608060405234801561001057600080fd5b50600436106101845760003560e01c806370a08231116100d9578063b81155b511610087578063b81155b514610338578063b88d4fde1461035c578063c87b56dd1461036f578063cb177b1e14610382578063e985e9c514610395578063f2fde38b146103a8578063f851a440146103bb57600080fd5b806370a08231146102ba578063715018a6146102cd5780638da5cb5b146102d557806395d89b41146102e657806398f68703146102ee578063a22cb46514610302578063aa271e1a1461031557600080fd5b806341f434341161013657806341f434341461023357806342842e0e146102485780634f6ccce71461025b578063603ac57e1461026e5780636352211e146102815780636a62784214610294578063704b6c02146102a757600080fd5b806301ffc9a71461018957806306fdde03146101b1578063081812fc146101c6578063095ea7b3146101e657806318160ddd146101fb57806323b872dd1461020d5780632f745c5914610220575b600080fd5b61019c61019736600461256f565b6103ce565b60405190151581526020015b60405180910390f35b6101b96103f9565b6040516101a891906125e4565b6101d96101d43660046125f7565b61048b565b6040516101a89190612610565b6101f96101f4366004612639565b6104b2565b005b6008545b6040519081526020016101a8565b6101f961021b366004612665565b6104cb565b6101ff61022e366004612639565b6104f6565b6101d96daaeb6d7670e522a718067333cd4e81565b6101f9610256366004612665565b610591565b6101ff6102693660046125f7565b6105b6565b6101f961027c366004612751565b610649565b6101d961028f3660046125f7565b6106b8565b6101ff6102a23660046127b6565b6106ed565b6101f96102b53660046127b6565b6107a8565b6101ff6102c83660046127b6565b61082c565b6101f96108b2565b600a546001600160a01b03166101d9565b6101b96108c6565b600d5461019c90600160a01b900460ff1681565b6101f96103103660046127d3565b6108d5565b61019c6103233660046127b6565b600e6020526000908152604090205460ff1681565b61034b6103463660046125f7565b6108e9565b6040516101a8959493929190612801565b6101f961036a366004612873565b610b12565b6101b961037d3660046125f7565b610b3f565b6101f96103903660046127d3565b6111f7565b61019c6103a33660046128f2565b611302565b6101f96103b63660046127b6565b611330565b600d546101d9906001600160a01b031681565b60006001600160e01b0319821663780e9d6360e01b14806103f357506103f3826113a9565b92915050565b60606000805461040890612920565b80601f016020809104026020016040519081016040528092919081815260200182805461043490612920565b80156104815780601f1061045657610100808354040283529160200191610481565b820191906000526020600020905b81548152906001019060200180831161046457829003601f168201915b5050505050905090565b6000610496826113f9565b506000908152600460205260409020546001600160a01b031690565b816104bc8161141e565b6104c683836114ce565b505050565b826001600160a01b03811633146104e5576104e53361141e565b6104f08484846115de565b50505050565b60006105018361082c565b82106105685760405162461bcd60e51b815260206004820152602b60248201527f455243373231456e756d657261626c653a206f776e657220696e646578206f7560448201526a74206f6620626f756e647360a81b60648201526084015b60405180910390fd5b506001600160a01b03919091166000908152600660209081526040808320938352929052205490565b826001600160a01b03811633146105ab576105ab3361141e565b6104f084848461160f565b60006105c160085490565b82106106245760405162461bcd60e51b815260206004820152602c60248201527f455243373231456e756d657261626c653a20676c6f62616c20696e646578206f60448201526b7574206f6620626f756e647360a01b606482015260840161055f565b600882815481106106375761063761295a565b90600052602060002001549050919050565b61065161162a565b815161066490600c9060208501906124c0565b50600d805460ff60a01b1916600160a01b831515021790556040517f6741b2fc379fad678116fe3d4d4b9a1a184ab53ba36b86ad0fa66340b1ab41ad906106ac9084906125e4565b60405180910390a15050565b6000818152600260205260408120546001600160a01b0316806103f35760405162461bcd60e51b815260040161055f90612970565b336000908152600e602052604081205460ff1661075e5760405162461bcd60e51b815260206004820152602960248201527f427265776c6162734465706c6f7965724e66743a2043616c6c6572206973206e60448201526837ba1036b4b73a32b960b91b606482015260840161055f565b600b805490600061076e836129b8565b919050555061077f82600b54611684565b50600b80546000908152600f6020526040902080546001600160a01b0319163317905554919050565b6107b061162a565b6001600160a01b0381166107d65760405162461bcd60e51b815260040161055f906129d1565b600d80546001600160a01b0319166001600160a01b0383161790556040517fbd2df64b329431f17e2f7f3c2a6665a1ba4a9517cf5d636d675496bbcc94538b90610821908390612610565b60405180910390a150565b60006001600160a01b0382166108965760405162461bcd60e51b815260206004820152602960248201527f4552433732313a2061646472657373207a65726f206973206e6f7420612076616044820152683634b21037bbb732b960b91b606482015260840161055f565b506001600160a01b031660009081526003602052604090205490565b6108ba61162a565b6108c460006116a2565b565b60606001805461040890612920565b816108df8161141e565b6104c683836116f4565b6000818152600f60209081526040808320548151631abe729160e31b8152915184938493849360609385936001600160a01b039092169263d5f394889260048083019391928290030181865afa158015610947573d6000803e3d6000fd5b505050506040513d601f19601f8201168201806040525081019061096b9190612a15565b6000888152600f60209081526040808320548151636dfa8d9960e01b8152915194955092936001600160a01b0390931692636dfa8d99926004808401939192918290030181865afa1580156109c4573d6000803e3d6000fd5b505050506040513d601f19601f820116820180604052508101906109e89190612a32565b6000898152600f60209081526040808320548151638792e30360e01b8152915194955092936001600160a01b0390931692638792e303926004808401939192918290030181865afa158015610a41573d6000803e3d6000fd5b505050506040513d601f19601f82011682018060405250810190610a659190612a32565b60008a8152600f60205260408082205481516303b48be560e51b8152915193945091926001600160a01b03909216916376917ca09160048082019286929091908290030181865afa158015610abe573d6000803e3d6000fd5b505050506040513d6000823e601f3d908101601f19168201604052610ae69190810190612a4b565b60009a8b52600f6020526040909a20546001600160a01b03169a93999298509096509094509092505050565b836001600160a01b0381163314610b2c57610b2c3361141e565b610b38858585856116ff565b5050505050565b6060610b4a82611731565b610bb35760405162461bcd60e51b815260206004820152603460248201527f427265776c6162734465706c6f7965724e66743a20555249207175657279206660448201527337b9103737b732bc34b9ba32b73a103a37b5b2b760611b606482015260840161055f565b600d54600160a01b900460ff16610bfc57610bcc61174e565b610bd58361175d565b604051602001610be6929190612b0c565b6040516020818303038152906040529050919050565b6000610c0661174e565b90506000604051602001610cc0907f226465736372697074696f6e223a2022427265776c616273204465706c6f796581527f72204e4654277320726570726573656e74206120757365722773206f776e657260208201527f73686970206f66206465706f736974206665657320616e6420706572666f726d60408201527f616e636520636f6d6d697373696f6e732067656e65726174656420627920616e6060820152671034b73232bc171160c11b608082015260880190565b60408051601f198184030181528282526000878152600f602090815283822054631abe729160e31b865293519295506001600160a01b03909316939092849263d5f394889260048082019392918290030181865afa158015610d26573d6000803e3d6000fd5b505050506040513d601f19601f82011682018060405250810190610d4a9190612a15565b90506000826001600160a01b0316638792e3036040518163ffffffff1660e01b8152600401602060405180830381865afa158015610d8c573d6000803e3d6000fd5b505050506040513d601f19601f82011682018060405250810190610db09190612a32565b90506000836001600160a01b0316636dfa8d996040518163ffffffff1660e01b8152600401602060405180830381865afa158015610df2573d6000803e3d6000fd5b505050506040513d601f19601f82011682018060405250810190610e169190612a32565b9050600168056bc75e2d631000008311610e2e575060005b681b1ae4d6e2ef500000831115610e43575060025b6040805160a081018252600460608201818152635261726560e01b6080840152825282518084018452908152634570696360e01b602082810191909152808301919091528251808401845260098152684c6567656e6461727960b81b81830152828401528251808401909352600e83526d2261747472696275746573223a5b60901b908301529080828460038110610edd57610edd61295a565b6020020151610ef4896001600160a01b03166117ef565b610f06896001600160a01b03166117ef565b610f0f8861175d565b610f188a61175d565b604051602001610f2d96959493929190612b48565b60405160208183030381529060405290506000876001600160a01b0316634149db486040518163ffffffff1660e01b8152600401602060405180830381865afa158015610f7e573d6000803e3d6000fd5b505050506040513d601f19601f82011682018060405250810190610fa29190612a32565b90506000886001600160a01b03166376917ca06040518163ffffffff1660e01b8152600401600060405180830381865afa158015610fe4573d6000803e3d6000fd5b505050506040513d6000823e601f3d908101601f1916820160405261100c9190810190612a4b565b905060005b82811015611130576040516327b2595f60e11b8152600481018290526000906001600160a01b038c1690634f64b2be90602401602060405180830381865afa158015611061573d6000803e3d6000fd5b505050506040513d601f19601f820116820180604052508101906110859190612a15565b905081156110b0578460405160200161109e9190612ce9565b60405160208183030381529060405294505b846110ba8361175d565b6110cc836001600160a01b03166117ef565b6110d58561175d565b6110f78787815181106110ea576110ea61295a565b602002602001015161175d565b60405160200161110b959493929190612d0e565b6040516020818303038152906040529450508080611128906129b8565b915050611011565b50826111478284815181106110ea576110ea61295a565b604051602001611158929190612df7565b604051602081830303815290604052925060006111736103f9565b61117c8f61175d565b8c8e888a600381106111905761119061295a565b6020020151886040516020016111ab96959493929190612e70565b60405160208183030381529060405290506111c581611805565b6040516020016111d59190612fa6565b6040516020818303038152906040529c50505050505050505050505050919050565b600a546001600160a01b031633148061121a5750600d546001600160a01b031633145b6112805760405162461bcd60e51b815260206004820152603160248201527f427265776c6162734465706c6f7965724e66743a2043616c6c6572206973206e60448201527037ba1030b236b4b71037b91037bbb732b960791b606482015260840161055f565b6001600160a01b0382166112a65760405162461bcd60e51b815260040161055f906129d1565b6001600160a01b0382166000818152600e6020908152604091829020805460ff19168515159081179091558251938452908301527f6b0f890a293c8f56a7635ad061c90250965b8af8e8bdbeb56d434b97281a746291016106ac565b6001600160a01b03918216600090815260056020908152604080832093909416825291909152205460ff1690565b61133861162a565b6001600160a01b03811661139d5760405162461bcd60e51b815260206004820152602660248201527f4f776e61626c653a206e6577206f776e657220697320746865207a65726f206160448201526564647265737360d01b606482015260840161055f565b6113a6816116a2565b50565b60006001600160e01b031982166380ac58cd60e01b14806113da57506001600160e01b03198216635b5e139f60e01b145b806103f357506301ffc9a760e01b6001600160e01b03198316146103f3565b61140281611731565b6113a65760405162461bcd60e51b815260040161055f90612970565b6daaeb6d7670e522a718067333cd4e3b156113a657604051633185c44d60e21b81523060048201526001600160a01b03821660248201526daaeb6d7670e522a718067333cd4e9063c617113490604401602060405180830381865afa15801561148b573d6000803e3d6000fd5b505050506040513d601f19601f820116820180604052508101906114af9190612feb565b6113a65780604051633b79c77360e21b815260040161055f9190612610565b60006114d9826106b8565b9050806001600160a01b0316836001600160a01b0316036115465760405162461bcd60e51b815260206004820152602160248201527f4552433732313a20617070726f76616c20746f2063757272656e74206f776e656044820152603960f91b606482015260840161055f565b336001600160a01b038216148061156257506115628133611302565b6115d45760405162461bcd60e51b815260206004820152603d60248201527f4552433732313a20617070726f76652063616c6c6572206973206e6f7420746f60448201527f6b656e206f776e6572206f7220617070726f76656420666f7220616c6c000000606482015260840161055f565b6104c6838361196b565b6115e833826119d9565b6116045760405162461bcd60e51b815260040161055f90613008565b6104c6838383611a38565b6104c683838360405180602001604052806000815250610b12565b600a546001600160a01b031633146108c45760405162461bcd60e51b815260206004820181905260248201527f4f776e61626c653a2063616c6c6572206973206e6f7420746865206f776e6572604482015260640161055f565b61169e828260405180602001604052806000815250611ba9565b5050565b600a80546001600160a01b038381166001600160a01b0319831681179093556040519116919082907f8be0079c531659141344cd1fd0a4f28419497f9722a3daafe3b4186f6b6457e090600090a35050565b61169e338383611bdc565b61170933836119d9565b6117255760405162461bcd60e51b815260040161055f90613008565b6104f084848484611ca6565b6000908152600260205260409020546001600160a01b0316151590565b6060600c805461040890612920565b6060600061176a83611cd9565b60010190506000816001600160401b03811115611789576117896126a6565b6040519080825280601f01601f1916602001820160405280156117b3576020820181803683370190505b5090508181016020015b600019016f181899199a1a9b1b9c1cb0b131b232b360811b600a86061a8153600a85049450846117bd57509392505050565b60606103f36001600160a01b0383166014611db1565b6060815160000361182457505060408051602081019091526000815290565b600060405180606001604052806040815260200161321b60409139905060006003845160026118539190613055565b61185d919061306d565b61186890600461308f565b90506000611877826020613055565b6001600160401b0381111561188e5761188e6126a6565b6040519080825280601f01601f1916602001820160405280156118b8576020820181803683370190505b509050818152600183018586518101602084015b818310156119265760039283018051603f601282901c811687015160f890811b8552600c83901c8216880151811b6001860152600683901c8216880151811b60028601529116860151901b938201939093526004016118cc565b60038951066001811461194057600281146119515761195d565b613d3d60f01b60011983015261195d565b603d60f81b6000198301525b509398975050505050505050565b600081815260046020526040902080546001600160a01b0319166001600160a01b03841690811790915581906119a0826106b8565b6001600160a01b03167f8c5be1e5ebec7d5bd14f71427d1e84f3dd0314c0f7b2291e5b200ac8c7c3b92560405160405180910390a45050565b6000806119e5836106b8565b9050806001600160a01b0316846001600160a01b03161480611a0c5750611a0c8185611302565b80611a305750836001600160a01b0316611a258461048b565b6001600160a01b0316145b949350505050565b826001600160a01b0316611a4b826106b8565b6001600160a01b031614611a715760405162461bcd60e51b815260040161055f906130ae565b6001600160a01b038216611ad35760405162461bcd60e51b8152602060048201526024808201527f4552433732313a207472616e7366657220746f20746865207a65726f206164646044820152637265737360e01b606482015260840161055f565b611ae08383836001611f53565b826001600160a01b0316611af3826106b8565b6001600160a01b031614611b195760405162461bcd60e51b815260040161055f906130ae565b600081815260046020908152604080832080546001600160a01b03199081169091556001600160a01b0387811680865260038552838620805460001901905590871680865283862080546001019055868652600290945282852080549092168417909155905184937fddf252ad1be2c89b69c2b068fc378daa952ba7f163c4a11628f55a4df523b3ef91a4505050565b611bb3838361208c565b611bc060008484846121a7565b6104c65760405162461bcd60e51b815260040161055f906130f3565b816001600160a01b0316836001600160a01b031603611c395760405162461bcd60e51b815260206004820152601960248201527822a9219b99189d1030b8383937bb32903a379031b0b63632b960391b604482015260640161055f565b6001600160a01b03838116600081815260056020908152604080832094871680845294825291829020805460ff191686151590811790915591519182527f17307eab39ab6107e8899845ad3d59bd9653f200f220920489ca2b5937696c31910160405180910390a3505050565b611cb1848484611a38565b611cbd848484846121a7565b6104f05760405162461bcd60e51b815260040161055f906130f3565b60008072184f03e93ff9f4daa797ed6e38ed64bf6a1f0160401b8310611d185772184f03e93ff9f4daa797ed6e38ed64bf6a1f0160401b830492506040015b6d04ee2d6d415b85acef81000000008310611d44576d04ee2d6d415b85acef8100000000830492506020015b662386f26fc100008310611d6257662386f26fc10000830492506010015b6305f5e1008310611d7a576305f5e100830492506008015b6127108310611d8e57612710830492506004015b60648310611da0576064830492506002015b600a83106103f35760010192915050565b60606000611dc083600261308f565b611dcb906002613055565b6001600160401b03811115611de257611de26126a6565b6040519080825280601f01601f191660200182016040528015611e0c576020820181803683370190505b509050600360fc1b81600081518110611e2757611e2761295a565b60200101906001600160f81b031916908160001a905350600f60fb1b81600181518110611e5657611e5661295a565b60200101906001600160f81b031916908160001a9053506000611e7a84600261308f565b611e85906001613055565b90505b6001811115611efd576f181899199a1a9b1b9c1cb0b131b232b360811b85600f1660108110611eb957611eb961295a565b1a60f81b828281518110611ecf57611ecf61295a565b60200101906001600160f81b031916908160001a90535060049490941c93611ef681613145565b9050611e88565b508315611f4c5760405162461bcd60e51b815260206004820181905260248201527f537472696e67733a20686578206c656e67746820696e73756666696369656e74604482015260640161055f565b9392505050565b611f5f848484846122a8565b6001811115611fce5760405162461bcd60e51b815260206004820152603560248201527f455243373231456e756d657261626c653a20636f6e7365637574697665207472604482015274185b9cd9995c9cc81b9bdd081cdd5c1c1bdc9d1959605a1b606482015260840161055f565b816001600160a01b03851661202a5761202581600880546000838152600960205260408120829055600182018355919091527ff3f7a9fe364faab93b216da50a3214154f22a0a2b415b23a84c8169e8b636ee30155565b61204d565b836001600160a01b0316856001600160a01b03161461204d5761204d8582612330565b6001600160a01b03841661206957612064816123cd565b610b38565b846001600160a01b0316846001600160a01b031614610b3857610b38848261247c565b6001600160a01b0382166120e25760405162461bcd60e51b815260206004820181905260248201527f4552433732313a206d696e7420746f20746865207a65726f2061646472657373604482015260640161055f565b6120eb81611731565b156121085760405162461bcd60e51b815260040161055f9061315c565b612116600083836001611f53565b61211f81611731565b1561213c5760405162461bcd60e51b815260040161055f9061315c565b6001600160a01b038216600081815260036020908152604080832080546001019055848352600290915280822080546001600160a01b0319168417905551839291907fddf252ad1be2c89b69c2b068fc378daa952ba7f163c4a11628f55a4df523b3ef908290a45050565b60006001600160a01b0384163b1561229d57604051630a85bd0160e11b81526001600160a01b0385169063150b7a02906121eb903390899088908890600401613193565b6020604051808303816000875af1925050508015612226575060408051601f3d908101601f19168201909252612223918101906131d0565b60015b612283573d808015612254576040519150601f19603f3d011682016040523d82523d6000602084013e612259565b606091505b50805160000361227b5760405162461bcd60e51b815260040161055f906130f3565b805181602001fd5b6001600160e01b031916630a85bd0160e11b149050611a30565b506001949350505050565b60018111156104f0576001600160a01b038416156122ee576001600160a01b038416600090815260036020526040812080548392906122e89084906131ed565b90915550505b6001600160a01b038316156104f0576001600160a01b03831660009081526003602052604081208054839290612325908490613055565b909155505050505050565b6000600161233d8461082c565b61234791906131ed565b60008381526007602052604090205490915080821461239a576001600160a01b03841660009081526006602090815260408083208584528252808320548484528184208190558352600790915290208190555b5060009182526007602090815260408084208490556001600160a01b039094168352600681528383209183525290812055565b6008546000906123df906001906131ed565b600083815260096020526040812054600880549394509092849081106124075761240761295a565b9060005260206000200154905080600883815481106124285761242861295a565b600091825260208083209091019290925582815260099091526040808220849055858252812055600880548061246057612460613204565b6001900381819060005260206000200160009055905550505050565b60006124878361082c565b6001600160a01b039093166000908152600660209081526040808320868452825280832085905593825260079052919091209190915550565b8280546124cc90612920565b90600052602060002090601f0160209004810192826124ee5760008555612534565b82601f1061250757805160ff1916838001178555612534565b82800160010185558215612534579182015b82811115612534578251825591602001919060010190612519565b50612540929150612544565b5090565b5b808211156125405760008155600101612545565b6001600160e01b0319811681146113a657600080fd5b60006020828403121561258157600080fd5b8135611f4c81612559565b60005b838110156125a757818101518382015260200161258f565b838111156104f05750506000910152565b600081518084526125d081602086016020860161258c565b601f01601f19169290920160200192915050565b602081526000611f4c60208301846125b8565b60006020828403121561260957600080fd5b5035919050565b6001600160a01b0391909116815260200190565b6001600160a01b03811681146113a657600080fd5b6000806040838503121561264c57600080fd5b823561265781612624565b946020939093013593505050565b60008060006060848603121561267a57600080fd5b833561268581612624565b9250602084013561269581612624565b929592945050506040919091013590565b634e487b7160e01b600052604160045260246000fd5b604051601f8201601f191681016001600160401b03811182821017156126e4576126e46126a6565b604052919050565b60006001600160401b03831115612705576127056126a6565b612718601f8401601f19166020016126bc565b905082815283838301111561272c57600080fd5b828260208301376000602084830101529392505050565b80151581146113a657600080fd5b6000806040838503121561276457600080fd5b82356001600160401b0381111561277a57600080fd5b8301601f8101851361278b57600080fd5b61279a858235602084016126ec565b92505060208301356127ab81612743565b809150509250929050565b6000602082840312156127c857600080fd5b8135611f4c81612624565b600080604083850312156127e657600080fd5b82356127f181612624565b915060208301356127ab81612743565b6001600160a01b0386811682528516602080830191909152604082018590526060820184905260a06080830181905283519083018190526000918481019160c085019190845b8181101561286357845184529382019392820192600101612847565b50919a9950505050505050505050565b6000806000806080858703121561288957600080fd5b843561289481612624565b935060208501356128a481612624565b92506040850135915060608501356001600160401b038111156128c657600080fd5b8501601f810187136128d757600080fd5b6128e6878235602084016126ec565b91505092959194509250565b6000806040838503121561290557600080fd5b823561291081612624565b915060208301356127ab81612624565b600181811c9082168061293457607f821691505b60208210810361295457634e487b7160e01b600052602260045260246000fd5b50919050565b634e487b7160e01b600052603260045260246000fd5b602080825260189082015277115490cdcc8c4e881a5b9d985b1a59081d1bdad95b88125160421b604082015260600190565b634e487b7160e01b600052601160045260246000fd5b6000600182016129ca576129ca6129a2565b5060010190565b60208082526024908201527f427265776c6162734465706c6f7965724e66743a20696e76616c6964206164646040820152637265737360e01b606082015260800190565b600060208284031215612a2757600080fd5b8151611f4c81612624565b600060208284031215612a4457600080fd5b5051919050565b60006020808385031215612a5e57600080fd5b82516001600160401b0380821115612a7557600080fd5b818501915085601f830112612a8957600080fd5b815181811115612a9b57612a9b6126a6565b8060051b9150612aac8483016126bc565b8181529183018401918481019088841115612ac657600080fd5b938501935b83851015612ae457845182529385019390850190612acb565b98975050505050505050565b60008151612b0281856020860161258c565b9290920192915050565b60008351612b1e81846020880161258c565b602f60f81b9083019081528351612b3c81600184016020880161258c565b01600101949350505050565b60008751612b5a818460208c0161258c565b80830190507f7b2274726169745f74797065223a20224c6576656c222c202276616c7565223a8152601160f91b60208201528751612b9f816021840160208c0161258c565b62089f4b60ea1b602192909101918201527f7b2274726169745f74797065223a22496e646578222c202276616c7565223a2260248201528651612be9816044840160208b0161258c565b7f227d2c7b2274726169745f74797065223a224465706c6f796572222c202276616044929091019182015265363ab2911d1160d11b60648201528551612c3681606a840160208a0161258c565b612cdb612ccc612cc6612c8b612c85606a868801017f227d2c7b2274726169745f74797065223a224561726e656420466565222c20228152673b30b63ab2911d1160c11b602082015260280190565b8a612af0565b7f227d2c7b2274726169745f74797065223a2250656e64696e6720466565222c20815268113b30b63ab2911d1160b91b602082015260290190565b87612af0565b62089f4b60ea1b815260030190565b9a9950505050505050505050565b60008251612cfb81846020870161258c565b600b60fa1b920191825250600101919050565b600086516020612d218285838c0161258c565b733d913a3930b4ba2fba3cb832911d112a37b5b2b760611b9184019182528751612d518160148501848c0161258c565b6b111610113b30b63ab2911d1160a11b6014939091019283018190528751612d7e81848601858c0161258c565b62089f4b60ea1b930182810193909352741ec89d1c985a5d17dd1e5c19488e88905b5bdd5b9d605a1b60238401528651612dbe81603886018a860161258c565b60389301928301528451612dd8816044850184890161258c565b61227d60f01b9201604481019290925250604601979650505050505050565b60008351612e0981846020880161258c565b80830190507f2c207b2274726169745f74797065223a22424e4220416d6f756e74222c20227681526630b63ab2911d1160c91b60208201528351612e5481602784016020880161258c565b62227d5d60e81b60279290910191820152602a01949350505050565b693d913730b6b2911d101160b11b81528651600090612e9681600a850160208c0161258c565b61202360f01b600a918401918201528751612eb881600c840160208c0161258c565b6201116160ed1b600c92909101918201528651612edc81600f840160208b0161258c565b7f2c202265787465726e616c5f75726c223a202268747470733a2f2f6561726e2e600f929091019182015275313932bbb630b1399734b7333797b4b73232bc32b99160511b602f8201526b16101134b6b0b3b2911d101160a11b6045820152612f99612f8c612f86612f77612f67612c85612f5a605188018d612af0565b602f60f81b815260010190565b632e706e6760e01b815260040190565b6201116160ed1b815260030190565b86612af0565b607d60f81b815260010190565b9998505050505050505050565b7f646174613a6170706c69636174696f6e2f6a736f6e3b6261736536342c000000815260008251612fde81601d85016020870161258c565b91909101601d0192915050565b600060208284031215612ffd57600080fd5b8151611f4c81612743565b6020808252602d908201527f4552433732313a2063616c6c6572206973206e6f7420746f6b656e206f776e6560408201526c1c881bdc88185c1c1c9bdd9959609a1b606082015260800190565b60008219821115613068576130686129a2565b500190565b60008261308a57634e487b7160e01b600052601260045260246000fd5b500490565b60008160001904831182151516156130a9576130a96129a2565b500290565b60208082526025908201527f4552433732313a207472616e736665722066726f6d20696e636f72726563742060408201526437bbb732b960d91b606082015260800190565b60208082526032908201527f4552433732313a207472616e7366657220746f206e6f6e20455243373231526560408201527131b2b4bb32b91034b6b83632b6b2b73a32b960711b606082015260800190565b600081613154576131546129a2565b506000190190565b6020808252601c908201527f4552433732313a20746f6b656e20616c7265616479206d696e74656400000000604082015260600190565b6001600160a01b03858116825284166020820152604081018390526080606082018190526000906131c6908301846125b8565b9695505050505050565b6000602082840312156131e257600080fd5b8151611f4c81612559565b6000828210156131ff576131ff6129a2565b500390565b634e487b7160e01b600052603160045260246000fdfe4142434445464748494a4b4c4d4e4f505152535455565758595a6162636465666768696a6b6c6d6e6f707172737475767778797a303132333435363738392b2fa2646970667358221220d226e86848d3a8c698a284fa4d823adf8b4b0f5d971f813ab376c60d49da146464736f6c634300080e0033",
  "devdoc": {
    "kind": "dev",
    "methods": {
      "balanceOf(address)": {
        "details": "See {IERC721-balanceOf}."
      },
      "getApproved(uint256)": {
        "details": "See {IERC721-getApproved}."
      },
      "isApprovedForAll(address,address)": {
        "details": "See {IERC721-isApprovedForAll}."
      },
      "name()": {
        "details": "See {IERC721Metadata-name}."
      },
      "owner()": {
        "details": "Returns the address of the current owner."
      },
      "ownerOf(uint256)": {
        "details": "See {IERC721-ownerOf}."
      },
      "renounceOwnership()": {
        "details": "Leaves the contract without owner. It will not be possible to call `onlyOwner` functions anymore. Can only be called by the current owner. NOTE: Renouncing ownership will leave the contract without an owner, thereby removing any functionality that is only available to the owner."
      },
      "supportsInterface(bytes4)": {
        "details": "See {IERC165-supportsInterface}."
      },
      "symbol()": {
        "details": "See {IERC721Metadata-symbol}."
      },
      "tokenByIndex(uint256)": {
        "details": "See {IERC721Enumerable-tokenByIndex}."
      },
      "tokenOfOwnerByIndex(address,uint256)": {
        "details": "See {IERC721Enumerable-tokenOfOwnerByIndex}."
      },
      "tokenURI(uint256)": {
        "details": "See {IERC721Metadata-tokenURI}."
      },
      "totalSupply()": {
        "details": "See {IERC721Enumerable-totalSupply}."
      },
      "transferOwnership(address)": {
        "details": "Transfers ownership of the contract to a new account (`newOwner`). Can only be called by the current owner."
      }
    },
    "version": 1
  },
  "userdoc": {
    "kind": "user",
    "methods": {},
    "version": 1
  },
  "storageLayout": {
    "storage": [
      {
        "astId": 3708,
        "contract": "contracts/indexes/BrewlabsDeployerNft.sol:BrewlabsDeployerNft",
        "label": "_name",
        "offset": 0,
        "slot": "0",
        "type": "t_string_storage"
      },
      {
        "astId": 3710,
        "contract": "contracts/indexes/BrewlabsDeployerNft.sol:BrewlabsDeployerNft",
        "label": "_symbol",
        "offset": 0,
        "slot": "1",
        "type": "t_string_storage"
      },
      {
        "astId": 3714,
        "contract": "contracts/indexes/BrewlabsDeployerNft.sol:BrewlabsDeployerNft",
        "label": "_owners",
        "offset": 0,
        "slot": "2",
        "type": "t_mapping(t_uint256,t_address)"
      },
      {
        "astId": 3718,
        "contract": "contracts/indexes/BrewlabsDeployerNft.sol:BrewlabsDeployerNft",
        "label": "_balances",
        "offset": 0,
        "slot": "3",
        "type": "t_mapping(t_address,t_uint256)"
      },
      {
        "astId": 3722,
        "contract": "contracts/indexes/BrewlabsDeployerNft.sol:BrewlabsDeployerNft",
        "label": "_tokenApprovals",
        "offset": 0,
        "slot": "4",
        "type": "t_mapping(t_uint256,t_address)"
      },
      {
        "astId": 3728,
        "contract": "contracts/indexes/BrewlabsDeployerNft.sol:BrewlabsDeployerNft",
        "label": "_operatorApprovals",
        "offset": 0,
        "slot": "5",
        "type": "t_mapping(t_address,t_mapping(t_address,t_bool))"
      },
      {
        "astId": 4776,
        "contract": "contracts/indexes/BrewlabsDeployerNft.sol:BrewlabsDeployerNft",
        "label": "_ownedTokens",
        "offset": 0,
        "slot": "6",
        "type": "t_mapping(t_address,t_mapping(t_uint256,t_uint256))"
      },
      {
        "astId": 4780,
        "contract": "contracts/indexes/BrewlabsDeployerNft.sol:BrewlabsDeployerNft",
        "label": "_ownedTokensIndex",
        "offset": 0,
        "slot": "7",
        "type": "t_mapping(t_uint256,t_uint256)"
      },
      {
        "astId": 4783,
        "contract": "contracts/indexes/BrewlabsDeployerNft.sol:BrewlabsDeployerNft",
        "label": "_allTokens",
        "offset": 0,
        "slot": "8",
        "type": "t_array(t_uint256)dyn_storage"
      },
      {
        "astId": 4787,
        "contract": "contracts/indexes/BrewlabsDeployerNft.sol:BrewlabsDeployerNft",
        "label": "_allTokensIndex",
        "offset": 0,
        "slot": "9",
        "type": "t_mapping(t_uint256,t_uint256)"
      },
      {
        "astId": 883,
        "contract": "contracts/indexes/BrewlabsDeployerNft.sol:BrewlabsDeployerNft",
        "label": "_owner",
        "offset": 0,
        "slot": "10",
        "type": "t_address"
      },
      {
        "astId": 32452,
        "contract": "contracts/indexes/BrewlabsDeployerNft.sol:BrewlabsDeployerNft",
        "label": "tokenIndex",
        "offset": 0,
        "slot": "11",
        "type": "t_uint256"
      },
      {
        "astId": 32455,
        "contract": "contracts/indexes/BrewlabsDeployerNft.sol:BrewlabsDeployerNft",
        "label": "_tokenBaseURI",
        "offset": 0,
        "slot": "12",
        "type": "t_string_storage"
      },
      {
        "astId": 32457,
        "contract": "contracts/indexes/BrewlabsDeployerNft.sol:BrewlabsDeployerNft",
        "label": "admin",
        "offset": 0,
        "slot": "13",
        "type": "t_address"
      },
      {
        "astId": 32460,
        "contract": "contracts/indexes/BrewlabsDeployerNft.sol:BrewlabsDeployerNft",
        "label": "useOnChainMetadata",
        "offset": 20,
        "slot": "13",
        "type": "t_bool"
      },
      {
        "astId": 32464,
        "contract": "contracts/indexes/BrewlabsDeployerNft.sol:BrewlabsDeployerNft",
        "label": "isMinter",
        "offset": 0,
        "slot": "14",
        "type": "t_mapping(t_address,t_bool)"
      },
      {
        "astId": 32468,
        "contract": "contracts/indexes/BrewlabsDeployerNft.sol:BrewlabsDeployerNft",
        "label": "indexes",
        "offset": 0,
        "slot": "15",
        "type": "t_mapping(t_uint256,t_address)"
      }
    ],
    "types": {
      "t_address": {
        "encoding": "inplace",
        "label": "address",
        "numberOfBytes": "20"
      },
      "t_array(t_uint256)dyn_storage": {
        "base": "t_uint256",
        "encoding": "dynamic_array",
        "label": "uint256[]",
        "numberOfBytes": "32"
      },
      "t_bool": {
        "encoding": "inplace",
        "label": "bool",
        "numberOfBytes": "1"
      },
      "t_mapping(t_address,t_bool)": {
        "encoding": "mapping",
        "key": "t_address",
        "label": "mapping(address => bool)",
        "numberOfBytes": "32",
        "value": "t_bool"
      },
      "t_mapping(t_address,t_mapping(t_address,t_bool))": {
        "encoding": "mapping",
        "key": "t_address",
        "label": "mapping(address => mapping(address => bool))",
        "numberOfBytes": "32",
        "value": "t_mapping(t_address,t_bool)"
      },
      "t_mapping(t_address,t_mapping(t_uint256,t_uint256))": {
        "encoding": "mapping",
        "key": "t_address",
        "label": "mapping(address => mapping(uint256 => uint256))",
        "numberOfBytes": "32",
        "value": "t_mapping(t_uint256,t_uint256)"
      },
      "t_mapping(t_address,t_uint256)": {
        "encoding": "mapping",
        "key": "t_address",
        "label": "mapping(address => uint256)",
        "numberOfBytes": "32",
        "value": "t_uint256"
      },
      "t_mapping(t_uint256,t_address)": {
        "encoding": "mapping",
        "key": "t_uint256",
        "label": "mapping(uint256 => address)",
        "numberOfBytes": "32",
        "value": "t_address"
      },
      "t_mapping(t_uint256,t_uint256)": {
        "encoding": "mapping",
        "key": "t_uint256",
        "label": "mapping(uint256 => uint256)",
        "numberOfBytes": "32",
        "value": "t_uint256"
      },
      "t_string_storage": {
        "encoding": "bytes",
        "label": "string",
        "numberOfBytes": "32"
      },
      "t_uint256": {
        "encoding": "inplace",
        "label": "uint256",
        "numberOfBytes": "32"
      }
    }
  }
}